{
  "_format": "hh-sol-artifact-1",
  "contractName": "LoanTokenFactory",
  "sourceName": "contracts/LoanTokenFactory.sol",
  "abi": [
    {
      "inputs": [],
      "stateMutability": "nonpayable",
      "type": "constructor"
    },
    {
      "inputs": [
        {
          "internalType": "address",
          "name": "owner",
          "type": "address"
        }
      ],
      "name": "OwnableInvalidOwner",
      "type": "error"
    },
    {
      "inputs": [
        {
          "internalType": "address",
          "name": "account",
          "type": "address"
        }
      ],
      "name": "OwnableUnauthorizedAccount",
      "type": "error"
    },
    {
      "anonymous": false,
      "inputs": [
        {
          "indexed": true,
          "internalType": "address",
          "name": "tokenAddress",
          "type": "address"
        },
        {
          "indexed": false,
          "internalType": "string",
          "name": "name",
          "type": "string"
        },
        {
          "indexed": false,
          "internalType": "string",
          "name": "symbol",
          "type": "string"
        },
        {
          "indexed": false,
          "internalType": "string",
          "name": "borrowerName",
          "type": "string"
        },
        {
          "indexed": false,
          "internalType": "uint256",
          "name": "facilityAmount",
          "type": "uint256"
        },
        {
          "indexed": false,
          "internalType": "string",
          "name": "nelProtocolId",
          "type": "string"
        },
        {
          "indexed": true,
          "internalType": "address",
          "name": "creator",
          "type": "address"
        },
        {
          "indexed": false,
          "internalType": "address",
          "name": "identityRegistry",
          "type": "address"
        },
        {
          "indexed": false,
          "internalType": "address",
          "name": "compliance",
          "type": "address"
        }
      ],
      "name": "LoanTokenCreated",
      "type": "event"
    },
    {
      "anonymous": false,
      "inputs": [
        {
          "indexed": true,
          "internalType": "address",
          "name": "previousOwner",
          "type": "address"
        },
        {
          "indexed": true,
          "internalType": "address",
          "name": "newOwner",
          "type": "address"
        }
      ],
      "name": "OwnershipTransferred",
      "type": "event"
    },
    {
      "anonymous": false,
      "inputs": [
        {
          "indexed": false,
          "internalType": "address",
          "name": "claimTopicsRegistry",
          "type": "address"
        },
        {
          "indexed": false,
          "internalType": "address",
          "name": "trustedIssuersRegistry",
          "type": "address"
        }
      ],
      "name": "SharedInfrastructureDeployed",
      "type": "event"
    },
    {
      "inputs": [
        {
          "internalType": "string",
          "name": "_name",
          "type": "string"
        },
        {
          "internalType": "string",
          "name": "_symbol",
          "type": "string"
        },
        {
          "internalType": "string",
          "name": "_borrowerName",
          "type": "string"
        },
        {
          "internalType": "uint256",
          "name": "_facilityAmount",
          "type": "uint256"
        },
        {
          "internalType": "uint256",
          "name": "_interestRateBps",
          "type": "uint256"
        },
        {
          "internalType": "uint256",
          "name": "_maturityDate",
          "type": "uint256"
        },
        {
          "internalType": "string",
          "name": "_nelProtocolId",
          "type": "string"
        },
        {
          "internalType": "bytes32",
          "name": "_documentHash",
          "type": "bytes32"
        }
      ],
      "name": "createLoanToken",
      "outputs": [
        {
          "internalType": "address",
          "name": "",
          "type": "address"
        }
      ],
      "stateMutability": "nonpayable",
      "type": "function"
    },
    {
      "inputs": [
        {
          "internalType": "uint256",
          "name": "",
          "type": "uint256"
        }
      ],
      "name": "deployedTokens",
      "outputs": [
        {
          "internalType": "address",
          "name": "",
          "type": "address"
        }
      ],
      "stateMutability": "view",
      "type": "function"
    },
    {
      "inputs": [],
      "name": "getDeployedTokens",
      "outputs": [
        {
          "internalType": "address[]",
          "name": "",
          "type": "address[]"
        }
      ],
      "stateMutability": "view",
      "type": "function"
    },
    {
      "inputs": [],
      "name": "getDeployedTokensCount",
      "outputs": [
        {
          "internalType": "uint256",
          "name": "",
          "type": "uint256"
        }
      ],
      "stateMutability": "view",
      "type": "function"
    },
    {
      "inputs": [
        {
          "internalType": "string",
          "name": "nelId",
          "type": "string"
        }
      ],
      "name": "getTokenByNelId",
      "outputs": [
        {
          "internalType": "address",
          "name": "",
          "type": "address"
        }
      ],
      "stateMutability": "view",
      "type": "function"
    },
    {
      "inputs": [
        {
          "internalType": "address",
          "name": "token",
          "type": "address"
        }
      ],
      "name": "getTokenInfrastructure",
      "outputs": [
        {
          "internalType": "address",
          "name": "_identityRegistry",
          "type": "address"
        },
        {
          "internalType": "address",
          "name": "_compliance",
          "type": "address"
        },
        {
          "internalType": "address",
          "name": "_claimTopicsRegistry",
          "type": "address"
        },
        {
          "internalType": "address",
          "name": "_trustedIssuersRegistry",
          "type": "address"
        }
      ],
      "stateMutability": "view",
      "type": "function"
    },
    {
      "inputs": [
        {
          "internalType": "address",
          "name": "",
          "type": "address"
        }
      ],
      "name": "isDeployedToken",
      "outputs": [
        {
          "internalType": "bool",
          "name": "",
          "type": "bool"
        }
      ],
      "stateMutability": "view",
      "type": "function"
    },
    {
      "inputs": [],
      "name": "owner",
      "outputs": [
        {
          "internalType": "address",
          "name": "",
          "type": "address"
        }
      ],
      "stateMutability": "view",
      "type": "function"
    },
    {
      "inputs": [],
      "name": "renounceOwnership",
      "outputs": [],
      "stateMutability": "nonpayable",
      "type": "function"
    },
    {
      "inputs": [],
      "name": "sharedClaimTopicsRegistry",
      "outputs": [
        {
          "internalType": "contract ClaimTopicsRegistry",
          "name": "",
          "type": "address"
        }
      ],
      "stateMutability": "view",
      "type": "function"
    },
    {
      "inputs": [],
      "name": "sharedTrustedIssuersRegistry",
      "outputs": [
        {
          "internalType": "contract TrustedIssuersRegistry",
          "name": "",
          "type": "address"
        }
      ],
      "stateMutability": "view",
      "type": "function"
    },
    {
      "inputs": [
        {
          "internalType": "string",
          "name": "",
          "type": "string"
        }
      ],
      "name": "tokenByNelId",
      "outputs": [
        {
          "internalType": "address",
          "name": "",
          "type": "address"
        }
      ],
      "stateMutability": "view",
      "type": "function"
    },
    {
      "inputs": [
        {
          "internalType": "address",
          "name": "",
          "type": "address"
        }
      ],
      "name": "tokenCompliance",
      "outputs": [
        {
          "internalType": "address",
          "name": "",
          "type": "address"
        }
      ],
      "stateMutability": "view",
      "type": "function"
    },
    {
      "inputs": [
        {
          "internalType": "address",
          "name": "",
          "type": "address"
        }
      ],
      "name": "tokenIdentityRegistry",
      "outputs": [
        {
          "internalType": "address",
          "name": "",
          "type": "address"
        }
      ],
      "stateMutability": "view",
      "type": "function"
    },
    {
      "inputs": [
        {
          "internalType": "address",
          "name": "newOwner",
          "type": "address"
        }
      ],
      "name": "transferOwnership",
      "outputs": [],
      "stateMutability": "nonpayable",
      "type": "function"
    }
  ],
  "bytecode": "0x6080604090808252346200021657600090331562000202575080546001600160a01b031980821633908117845584516001600160a01b03949390919085167f8be0079c531659141344cd1fd0a4f28419497f9722a3daafe3b4186f6b6457e08580a36001600160401b03906108418181019083821183831017620001ee5790829162006c4b8339039084f08015620001e4578416826001541617600155845190610bbb8083019183831090831117620001d0579082916200748c8339039083f08015620001a6578316906002541617600255816001541690813b15620001a357835181816024818363f2fde38b60e01b978883523360048401525af18015620001c657620001b4575b5090826002541690813b15620001b0578291602483928751948593849283523360048401525af18015620001a6579084929162000187575b5050817fd00e2505c9ced51d5ceb833b04f387fca3daa36e298e1aad6ec2d1638ecab62a9260015416906002541682519182526020820152a151616a059081620002468239f35b81925062000195906200021b565b620001a35780839162000140565b80fd5b84513d84823e3d90fd5b8280fd5b620001bf906200021b565b3862000108565b85513d84823e3d90fd5b634e487b7160e01b85526041600452602485fd5b85513d85823e3d90fd5b634e487b7160e01b86526041600452602486fd5b602491631e4fbdf760e01b82526004820152fd5b600080fd5b6001600160401b0381116200022f57604052565b634e487b7160e01b600052604160045260246000fdfe60808060405260043610156200001457600080fd5b600090813560e01c908163240608041462000a155750806325f1be1f14620009f55780632747294b14620009ca5780634c1c7ddf1462000985578063533f01f014620001a4578063622ae7aa14620008d5578063715018a6146200088857806377d88660146200081d5780638195ed5114620002aa5780638da5cb5b1462000281578063b21e0cf9146200023f578063c5f15c7b1462000214578063d562de3d14620001a4578063ec81aadb146200015b5763f2fde38b14620000d657600080fd5b346200015857602036600319011262000158576004356001600160a01b038181169182900362000154576200010a62000b59565b81156200013b576000548260018060a01b031982161760005516600080516020620069b0833981519152600080a380f35b604051631e4fbdf760e01b815260048101849052602490fd5b8280fd5b80fd5b503462000158576020366003190112620001585760043590600354821015620001585760206200018b8362000b27565b905460405160039290921b1c6001600160a01b03168152f35b5034620001585760203660031901126200015857600435906001600160401b03821162000158576020620001dc366004850162000aa2565b81620001f2604051928381519384920162000b02565b600590820190815281900382019020546040516001600160a01b039091168152f35b503462000158578060031936011262000158576001546040516001600160a01b039091168152602090f35b50346200015857602036600319011262000158576001600160a01b03600435818116908190036200015457826040916020945260078452205416604051908152f35b50346200015857806003193601126200015857546040516001600160a01b039091168152602090f35b5034620001585761010036600319011262000158576004356001600160401b0381116200074a57620002e190369060040162000aa2565b906024356001600160401b0381116200074a576200030490369060040162000aa2565b6044356001600160401b03811162000154576200032690369060040162000aa2565b9260c4356001600160401b03811162000819576200034990369060040162000aa2565b60405181516200035e81836020860162000b02565b60059082019081528190036020019020546001600160a01b0316620007e457600154600254604051916001600160a01b0391821691166001600160401b03611b93840190811190841117620007a657611b9362004e1d8439611b938301526020611b9383010152604081611b93810103019085f0928315620007d957604051610dff808201906001600160401b03821183831017620007c5579082916200401e8339039086f0938415620007ba576040516001600160a01b03918216959091169290916001600160401b03613470840190811190841117620007a65761347062000bae8439620004946200047d62000466610140806134708801526134708701018862000b86565b613470860181036020613470880101528362000b86565b613470850181036040613470870101528962000b86565b606435613470850160608101829052608435608082015260a43560a082015280830360c09091015293908190620004cc908562000b86565b60e43560e06134708401015288610100613470840101528661012061347084010152039088f080156200079b576001600160a01b031696843b156200015857604051631ffad50160e11b8152600481018990528181602481838a5af180156200073f5762000789575b50873b15620001585760405163f2fde38b60e01b808252336004830152908281602481838e5af18015620007665790839162000771575b5050873b156200074a576040518181523360048201528281602481838d5af1801562000766579083916200074e575b5050853b156200074a576040519081523360048201528181602481838a5af180156200073f5790829162000727575b5050600354600160401b811015620007135792620006e660209a620006d7620006fa958c8a6040829d9b988f6200062a7f35bdc73d49daa44819fa00eeff94db23400dcbecb92620d927ebb57620df97f69f9d6001810160035562000b27565b81549060031b9087821b9160018060a01b03901b1916179055848252602060049052828220600160ff198254161790556020808b620006759286519382858094519384920162000b02565b810160058152030190209460018060a01b0319958187825416179055825260206006905282822090858254161790556020600790522091825416179055620006c96040519960e08b5260e08b019062000b86565b908982038f8b015262000b86565b90878203604089015262000b86565b916060860152848203608086015262000b86565b9460a083015260c08201528033940390a3604051908152f35b634e487b7160e01b82526041600452602482fd5b620007329062000a54565b62000158578038620005ca565b6040513d84823e3d90fd5b5080fd5b620007599062000a54565b6200074a5781386200059b565b6040513d85823e3d90fd5b6200077c9062000a54565b6200074a5781386200056c565b620007949062000a54565b3862000535565b6040513d89823e3d90fd5b634e487b7160e01b87526041600452602487fd5b6040513d87823e3d90fd5b634e487b7160e01b88526041600452602488fd5b6040513d86823e3d90fd5b60405162461bcd60e51b815260206004820152600d60248201526c4e454c5f49445f45584953545360981b6044820152606490fd5b8380fd5b50346200015857602036600319011262000158576004356001600160a01b0381811692918390036200074a5760809282526006602052806040818185205416936007602052205416908060015416906002541691604051938452602084015260408301526060820152f35b50346200015857806003193601126200015857620008a562000b59565b80546001600160a01b03198116825581906001600160a01b0316600080516020620069b08339815191528280a380f35b50346200015857806003193601126200015857604051809160035490818352602080930180926003835284832090835b8181106200096757505050846200091e91038562000a7e565b60405193838594850191818652518092526040850193925b8281106200094657505050500390f35b83516001600160a01b03168552869550938101939281019260010162000936565b82546001600160a01b03168452928601926001928301920162000905565b50346200015857602036600319011262000158576004356001600160a01b038116908190036200074a5760408260ff9260209452600484522054166040519015158152f35b503462000158578060031936011262000158576002546040516001600160a01b039091168152602090f35b503462000158578060031936011262000158576020600354604051908152f35b9050346200074a5760203660031901126200074a576001600160a01b036004358181169081900362000819578360409160209552600685522054168152f35b6001600160401b03811162000a6857604052565b634e487b7160e01b600052604160045260246000fd5b601f909101601f19168101906001600160401b0382119082101762000a6857604052565b81601f8201121562000afd578035906001600160401b03821162000a68576040519262000ada601f8401601f19166020018562000a7e565b8284526020838301011162000afd57816000926020809301838601378301015290565b600080fd5b60005b83811062000b165750506000910152565b818101518382015260200162000b05565b60035481101562000b4357600360005260206000200190600090565b634e487b7160e01b600052603260045260246000fd5b6000546001600160a01b0316330362000b6e57565b60405163118cdaa760e01b8152336004820152602490fd5b9060209162000ba18151809281855285808601910162000b02565b601f01601f191601019056fe6080604052346200091e5762003470803803806200001d8162000923565b9283398101610140828203126200091e5781516001600160401b0381116200091e57816200004d91840162000949565b60208301516001600160401b0381116200091e57826200006f91850162000949565b60408401519093906001600160401b0381116200091e57836200009491830162000949565b9360608201519360808301519060a08401519060c08501519060018060401b0382116200091e57620000c891860162000949565b9160e085015193620000ed610120620000e56101008901620009bb565b9701620009bb565b963315620009055760008054336001600160a01b0319821681178355916001600160a01b03909116907f8be0079c531659141344cd1fd0a4f28419497f9722a3daafe3b4186f6b6457e09080a3600180556015805460ff60a01b1916600160a01b1790558051906001600160401b038211620004d15760025490600182811c92168015620008fa575b6020831014620005ec5781601f84931162000899575b50602090601f83116001146200081b576000926200080f575b50508160011b916000199060031b1c1916176002555b8051906001600160401b038211620004d15760035490600182811c9216801562000804575b6020831014620005ec5781601f84931162000792575b50602090601f83116001146200070357600092620006f7575b50508160011b916000199060031b1c1916176003555b601580546001600160a01b03191633179055604051966001600160401b0360c0890190811190891117620004d15760c08801604052888852602088015260408701526060860152608085015260a0840152835160018060401b038111620004d157600754600181811c91168015620006ec575b6020821014620005ec57601f811162000686575b50602094601f821160011462000619579481929394956000926200060d575b50508160011b916000199060031b1c1916176007555b602083015160085560408301516009556060830151600a55608083015180519093906001600160401b038111620004d157600b54600181811c9116801562000602575b6020821014620005ec57601f811162000582575b506020601f8211600114620004f357819060a0949596600092620004e7575b50508160011b916000199060031b1c191617600b555b0151600c55600f8054680100000000000000009081811015620004d15760018101808455811015620004bb577f58c79ae79fbe82c16dfa44996f2e5b5ae2e8c2ab6c4c85cfb5fa475f0462adb6908360005260206000200155815490811015620004d15760018101808355811015620004bb57600091825260209091207f1192b9320ade30d998a9dab748128b191df1d6d75dc189689897cd43081634869101556001600160a01b0316806200047d575b506001600160a01b0316806200043f575b604051612a7f9081620009d18239f35b600680546001600160a01b031916821790557fa970409706553acbb8c86c1bc79621a1e9decfe2e5f083d3ee9dc215d07cea39600080a2386200042f565b600580546001600160a01b031916821790557f8aa6172b9dcbe4f05892121059bc535d4743d706ba3ac6cbabf4a40de229e388600080a2386200041e565b634e487b7160e01b600052603260045260246000fd5b634e487b7160e01b600052604160045260246000fd5b01519050388062000357565b600b60009081527f0175b7a638427703f0dbe7bb9bbf987a2551717b34e79f33b5b1008d1fa01db99690601f198416905b8181106200056957509160a0959697918460019594106200054f575b505050811b01600b556200036d565b015160001960f88460031b161c1916905538808062000540565b8383015189556001909801976020938401930162000524565b600b6000527f0175b7a638427703f0dbe7bb9bbf987a2551717b34e79f33b5b1008d1fa01db9601f830160051c81019160208410620005e1575b601f0160051c01905b818110620005d4575062000338565b60008155600101620005c5565b9091508190620005bc565b634e487b7160e01b600052602260045260246000fd5b90607f169062000324565b015190503880620002cb565b601f19821695600760005260206000209160005b8881106200066d5750836001959697981062000653575b505050811b01600755620002e1565b015160001960f88460031b161c1916905538808062000644565b919260206001819286850151815501940192016200062d565b60076000527fa66cc928b5edb82af9bd49922954155ab7b0942694bea4ce44661d9a8736c688601f830160051c810160208410620006e4575b601f830160051c82018110620006d7575050620002ac565b60008155600101620006bf565b5080620006bf565b90607f169062000298565b0151905038806200020f565b6003600090815293507fc2575a0e9e593c00f959f8c92f12db2869c3395a3b0502d05e2516446f71f85b91905b601f198416851062000776576001945083601f198116106200075c575b505050811b0160035562000225565b015160001960f88460031b161c191690553880806200074d565b8181015183556020948501946001909301929091019062000730565b60036000529091507fc2575a0e9e593c00f959f8c92f12db2869c3395a3b0502d05e2516446f71f85b601f840160051c810160208510620007fc575b90849392915b601f830160051c82018110620007ec575050620001f6565b60008155859450600101620007d4565b5080620007ce565b91607f1691620001e0565b015190503880620001a5565b6002600090815293506000805160206200345083398151915291905b601f19841685106200087d576001945083601f1981161062000863575b505050811b01600255620001bb565b015160001960f88460031b161c1916905538808062000854565b8181015183556020948501946001909301929091019062000837565b600260005290915060008051602062003450833981519152601f840160051c810160208510620008f2575b90849392915b601f830160051c82018110620008e25750506200018c565b60008155859450600101620008ca565b5080620008c4565b91607f169162000176565b604051631e4fbdf760e01b815260006004820152602490fd5b600080fd5b6040519190601f01601f191682016001600160401b03811183821017620004d157604052565b919080601f840112156200091e5782516001600160401b038111620004d1576020906200097f601f8201601f1916830162000923565b928184528282870101116200091e5760005b818110620009a757508260009394955001015290565b858101830151848201840152820162000991565b51906001600160a01b03821682036200091e5756fe6040608081526004908136101561001557600080fd5b600091823560e01c8063010648ca14611bfd57806306fdde0314611b2e57806308881afa14611b05578063134e18f414611adc57806313b1d14414611aab578063158b1a5714610ae057806318160ddd14611a8e5780631badb25c14611a4057806322e4e61d146118ac5780632b0ddb911461188d57806330e828031461184d578063313ce5671461183257806336f6efc61461181357806338389e58146116bf5780633f4ba83a146116745780634c783bf51461164d57806350b1f3561461162e5780635c975abb1461160a5780636290865d146115e1578063694df50a146115685780636ce5891d1461151d57806370a08231146114e5578063715018a61461149d578063740ab8f41461143157806377777e0c1461140f5780637c8fd218146113105780638456cb59146112c257806388f2740d146112995780638da5cb5b14611271578063921271261461122f5780639285948a14610f6f57806392eefe9b14610f2a5780639418c91a14610f0b57806395cb741d14610e9b57806395d89b4114610db95780639fa5f50b14610d30578063a4df6c6a14610c6e578063a66b0f3a14610c23578063b10d6b4114610b37578063b78bd21b14610b18578063bfd8580814610ae0578063cbf3f86114610a3d578063d0516650146109e0578063d0a6d1a614610a1e578063e5839836146109e0578063e9b2f0ad14610923578063ea3f068d14610744578063f282527a146105c1578063f2fde38b1461054b578063f3d490db14610332578063f77c4791146103055763f89817891461025d57600080fd5b34610301576020366003190112610301576102766120e2565b61027e612194565b6001600160a01b03169182156102c9575050600680546001600160a01b031916821790557fa970409706553acbb8c86c1bc79621a1e9decfe2e5f083d3ee9dc215d07cea398280a280f35b906020606492519162461bcd60e51b83528201526012602482015271494e56414c49445f434f4d504c49414e434560701b6044820152fd5b8280fd5b50503461032e578160031936011261032e5760155490516001600160a01b039091168152602090f35b5080fd5b5091903461032e5761034336612149565b50509091936103506127b6565b61035f60ff601054161561277b565b3381526020956011875260ff858320541661051757610380868486336124e5565b908651916f2a2920a729a322a92fa320a4a622a21d60811b8a8401526030830152603082526103ae82611ee5565b6001600160f81b03191660af60f81b016104f2575085600052600d875284600020336000528752846000206103e48482546121fa565b905585600052600d8752846000209360018060a01b0380821695866000528952866000206104138682546127d9565b905533600052600e89528660002061042c8682546121fa565b905585600052600e8952866000206104458682546127d9565b905560065416918261048b575b505050508251908152837f0f527c5f31fde91835354ad82e863e96d8637df7a0254bfb42879978fc047e56863393a46001805551908152f35b823b156104ee576104b79284928387938a51968795869485936322ebca6d60e21b8552339085016121d8565b03925af180156104e4576104cd575b8080610452565b6104d78291611f16565b6104e157806104c6565b80fd5b85513d84823e3d90fd5b8380fd5b855162461bcd60e51b815291820188905281906105139060248301906120a2565b0390fd5b845162461bcd60e51b8152908101879052600e60248201526d20a2222922a9a9afa32927ad22a760911b6044820152606490fd5b5034610301576020366003190112610301576105656120e2565b9061056e612194565b6001600160a01b039182169283156105ab5750506000548260018060a01b031982161760005516600080516020612a0a833981519152600080a380f35b51631e4fbdf760e01b8152908101849052602490fd5b5082903461032e5760a036600319011261032e576105dd6120e2565b926105e66120f8565b6001600160401b0392604435916064358581116107405761060a9036908401611e7e565b92909560843590811161073c576106249036908301611e7e565b601554909791946001600160a01b0393909184811633036107085760a01c60ff16156106d25750898685818a878e9f9e9d9e169c8d8152600e6020522054101561066d906128b1565b610676926127e6565b865196879633885260208801528601608090526080860190610697926128f4565b91848303606086015216956106ab926128f4565b037f6bf62b4b9c7b768275122bf70d429efc398a056d669b1efdf6c3976346246d7d91a380f35b606490602089519162461bcd60e51b8352820152601060248201526f4e4f545f434f4e54524f4c4c41424c4560801b6044820152fd5b885162461bcd60e51b8152602081840152600e60248201526d2727aa2fa1a7a72a2927a62622a960911b6044820152606490fd5b8780fd5b8680fd5b50346103015760603660031901126103015761075e6120e2565b91602435846044359361076f612194565b6005546001600160a01b039690871680610873575b50858352600d602052848320968082169788600052602052856000206107ab8682546127d9565b9055878452600e6020528584206107c38682546127d9565b90556107d08584546127d9565b8355600654169182610811575b505050507fea5027ca690118a868ddc2cd8aab5af666df70818535852e44e807ac5f77a6cb9282519182526020820152a280f35b823b156104ee5761083b928492838793895196879586948593635f8dead360e01b85528401612896565b03925af1801561086957610851575b80806107dd565b61085a90611f16565b61086557843861084a565b8480fd5b84513d84823e3d90fd5b60249192935060209086519283809263b9209e3360e01b82528b8716888301525afa9081156109195788916108eb575b50156108b25790869138610784565b835162461bcd60e51b815260208184015260136024820152721213d311115497d393d517d591549251925151606a1b6044820152606490fd5b61090c915060203d8111610912575b6109048183611f29565b8101906121c0565b386108a3565b503d6108fa565b85513d8a823e3d90fd5b50903461030157806003193601126103015761093d6120e2565b906024359161094a612194565b6001600160a01b031680855260126020528185205490939083116109ad57507f9bed35cb62ad0dba04f9d5bfee4b5bc91443e77da8a65c4c84834c51bb08b0d691602091848652601283528086206109a38382546121fa565b905551908152a280f35b6020606492519162461bcd60e51b8352820152600e60248201526d22ac21a2a2a229afa32927ad22a760911b6044820152fd5b50503461032e57602036600319011261032e5760209160ff9082906001600160a01b03610a0b6120e2565b1681526011855220541690519015158152f35b50503461032e578160031936011261032e5751605160f81b8152602090f35b503461030157602036600319011261030157610a576120e2565b610a5f612194565b6001600160a01b0316918215610aaa575050600580546001600160a01b031916821790557f8aa6172b9dcbe4f05892121059bc535d4743d706ba3ac6cbabf4a40de229e3888280a280f35b906020606492519162461bcd60e51b8352820152601060248201526f494e56414c49445f524547495354525960801b6044820152fd5b50503461032e57602036600319011261032e5760209181906001600160a01b03610b086120e2565b1681526012845220549051908152f35b50503461032e578160031936011261032e5751602b60f91b8152602090f35b5091346104e1576020928360031936011261032e57908291358152601384522091815191610b6483611ee5565b8051926000855490610b7582611eab565b808752600192808416908115610c085750600114610bd5575b50916002610bca9792610ba48887960389611f29565b8783528301549283878401520154938491015281519586956060875260608701906120a2565b938501528301520390f35b60008881528681209092505b818310610bf5575050850184016002610b8e565b8054888401880152918601918301610be1565b60ff19168789015250151560051b8601850190506002610b8e565b83823461032e57602036600319011261032e5735801515809103610c6957610c49612194565b6015805460ff60a01b191660a09290921b60ff60a01b1691909117905580f35b600080fd5b509034610301578060031936011261030157610c886120e2565b9060243591610c95612194565b60018060a01b031692838552600e602052818520546012602052610cbc84848820546127d9565b11610cfc57507fa065e63c631c86f1b9f66a4a2f63f2093bf1c2168d23290259dbd969e0222a4591602091848652601283528086206109a38382546127d9565b6020606492519162461bcd60e51b8352820152600f60248201526e455843454544535f42414c414e434560881b6044820152fd5b8284346104e157806003193601126104e157508051601480548083526000918252602080840194927fce6d7b5282bd9a3661ae061feed1dbda4e52ab073b1f9285be6e155d9c38d4ec92915b828210610da257610d9e8686610d94828b0383611f29565b519182918261210e565b0390f35b835487529586019560019384019390910190610d7c565b8284346104e157806003193601126104e157508051600091600354610ddd81611eab565b808452600191808316908115610e735750600114610e19575b5050610e0782610d9e940383611f29565b519182916020835260208301906120a2565b6003600090815260209550917fc2575a0e9e593c00f959f8c92f12db2869c3395a3b0502d05e2516446f71f85b5b828410610e6057505050820190920191610e0782610df6565b8054868501880152928601928101610e47565b610d9e9650610e0793506020915091859260ff191682840152151560051b8201019450610df6565b50503461032e578160031936011261032e57610ee690610eb9611f4c565b90610f01600854600954600a54610ece612009565b91600c5495805198899860c08a5260c08a01906120a2565b946020890152870152606086015284820360808601526120a2565b9060a08301520390f35b50503461032e578160031936011261032e5751605560f81b8152602090f35b83346104e15760203660031901126104e157610f446120e2565b610f4c612194565b601580546001600160a01b0319166001600160a01b039290921691909117905580f35b50903461030157606036600319011261030157610f8a6120e2565b92610f936120f8565b926001600160a01b036044358181169490859003610c6957610fb3612194565b8187169283151580611224575b156111ee5782600554168061112e575b5050907ff0c9129a94f30f1caaceb63e44b9811d0a3edf1d6c23757f346093af5553fed091838552602097600e89528186205461103e575b50838552601288528085205480611027575b505195169280a460018152f35b82881686528186205583855284818120553861101a565b600080516020612a2a8339815191528652600d89528186208560005289528160002054888161111d575b5050506000805160206129aa833981519152808652600d89528186208560005289528160002054908161109c575b50611008565b80600052600d8a5282600020866000528a52826000206110bd8382546121fa565b9055600052600d89528160002083891690816000528a52826000206110e38382546127d9565b905585600052600e8a52826000206110fc8382546121fa565b9055600052600e8952611114826000209182546127d9565b90553880611096565b611126926127e6565b388088611068565b6020602491845192838092633c3ad79560e21b8252888d16878301525afa9081156111e4578791859188916111a1575b50160361116b5780610fd0565b6020606492519162461bcd60e51b83528201526011602482015270092888a9ca892a8b2be9a92a69a82a8869607b1b6044820152fd5b925050506020813d82116111dc575b816111bd60209383611f29565b810103126111d8575183811681036111d8578387913861115e565b8580fd5b3d91506111b0565b83513d88823e3d90fd5b6020606492519162461bcd60e51b83528201526011602482015270494e56414c49445f41444452455353455360781b6044820152fd5b508287161515610fc0565b50503461032e57610d9e9061124f61124636612149565b505090336124e5565b91516001600160f81b0319909116815260208101919091529081906040820190565b50503461032e578160031936011261032e57905490516001600160a01b039091168152602090f35b50503461032e578160031936011261032e5760209051600080516020612a2a8339815191528152f35b83346104e157806003193601126104e1576112db612194565b600160ff196010541617601055337f62e78cea01bee320cd4e420270b5ea74000d11b0c9f74754ebdbfc544b05a2588280a280f35b5082346104e15760208060031936011261032e5761132c6120e2565b6005546001600160a01b0390811680159591929186156113a4575b50509160809591859493168352601181528160ff818520541693601283522054928461139b575b8461138d575b8251951515865215159085015283015215156060820152f35b60105460ff16159450611374565b8015945061136e565b879396506024859396959298518099819363b9209e3360e01b83528a8a16908301525afa80156114035760809684916113e6575b509491958794919394611347565b6113fd9150823d8411610912576109048183611f29565b876113d8565b505051903d90823e3d90fd5b83823461032e57602036600319011261032e5761142a612194565b35600c5580f35b50503461032e57602091826003193601126104e15750906114506120e2565b50815191829180600f54948581520193600f60005281600020916000905b82821061148657610d9e8686610d94828b0383611f29565b83548752958601956001938401939091019061146e565b83346104e157806003193601126104e1576114b6612194565b600080546001600160a01b0319811682556001600160a01b0316600080516020612a0a8339815191528280a380f35b50503461032e57602036600319011261032e5760209181906001600160a01b0361150d6120e2565b168152600e845220549051908152f35b5034610301578260031936011261030157610ee69250610f0160085460095493600a5493549361154b611f4c565b95611554612009565b92805198899860c08a5260c08a01906120a2565b50503461032e578060031936011261032e576115826120e2565b9060243591821515809303610c6957611599612194565b6001600160a01b03168084526011602052908320805460ff191660ff84161790557fa3e40a317eac9d2f33de1f67819e7103be50ca171b0559ba3ef1313e2e9c9ed48380a380f35b50503461032e578160031936011261032e5760065490516001600160a01b039091168152602090f35b50503461032e578160031936011261032e5760209060ff6010541690519015158152f35b50503461032e578160031936011261032e5751602960f91b8152602090f35b50503461032e578160031936011261032e5760209060ff60155460a01c1690519015158152f35b83346104e157806003193601126104e15761168d612194565b60ff1960105416601055337f5db9ee0a495bf2e6ff9c91a7834c1ba4fdd244a5e8aa4e537bd38aeae4b073aa8280a280f35b5082346104e1576020918260031936011261032e576001600160401b0381358181116104ee576116f29036908401611e7e565b9290916116fd612194565b8311611800575061170f600b54611eab565b601f81116117b9575b508293601f8311600114611755575092829382939261174a575b50508160011b916000199060031b1c191617600b5580f35b013590508380611732565b90601f19831694600b85528285209285905b8782106117a1575050836001959610611787575b505050811b01600b5580f35b0135600019600384901b60f8161c1916905583808061177b565b80600184968294958701358155019501920190611767565b600b60005284600020601f840160051c8101918685106117f6575b601f0160051c01905b8181106117ea5750611718565b600081556001016117dd565b90915081906117d4565b634e487b7160e01b845260419052602483fd5b50503461032e578160031936011261032e5751600b60fb1b8152602090f35b50503461032e578160031936011261032e5751908152602090f35b50346103015781600319360112610301578160209361186a6120f8565b92358152600d8552209060018060a01b0316600052825280600020549051908152f35b50503461032e578160031936011261032e5751605760f81b8152602090f35b5091903461032e578060031936011261032e578235906024356118cd6127b6565b6118dc60ff601054161561277b565b808452602094600d865282852033865286526118fd848487205410156128b1565b818552600d8652828520338652865283611922848720546012895285882054906121fa565b10611a0d57818552600d865282852033865286528285206119448582546121fa565b9055338552600e865282852061195b8582546121fa565b90556119688482546121fa565b81556006546001600160a01b031690816119a3575b50506000805160206129ea83398151915292939482519485528401523392a26001805580f35b813b156111d857846119cd92879283875180968195829463469753b960e11b845233908401612896565b03925af18015611a03576119e2575b8061197d565b936119fc6000805160206129ea8339815191529495611f16565b93926119dc565b83513d87823e3d90fd5b825162461bcd60e51b8152908101869052600d60248201526c2a27a5a2a729afa32927ad22a760991b6044820152606490fd5b503461030157606036600319011261030157611a5a6120e2565b92604435906001600160401b0382116104e1575092611a8261124f92610d9e95369101611e7e565b5050602435903361221d565b503461030157826003193601126103015760209250549051908152f35b50503461032e57602036600319011261032e5760209061ffff611ad4611acf6120e2565b612915565b915191168152f35b50503461032e578160031936011261032e5760055490516001600160a01b039091168152602090f35b50503461032e578160031936011261032e57602090516000805160206129aa8339815191528152f35b50503461032e578160031936011261032e5780519082600254611b5081611eab565b80855290600190818116908115611bd55750600114611b7c575b505050610e0782610d9e940383611f29565b60028352602095507f405787fa12a823e0f2b7631cc41b3ba8828b3321ca811111fa75cd3aa3bb5ace5b828410611bc25750505082610d9e94610e079282010194611b6a565b8054868501880152928601928101611ba6565b610d9e9750610e079450602092508693915060ff191682840152151560051b82010194611b6a565b5082903461032e57606036600319011261032e576001600160401b03928135919060243585811161086557611c359036908401611e7e565b92909560443590611c44612194565b858752602092601384526002858920015415611e3d575b845191611c6783611ee5565b808711611e2a578551601f199190611c86601f8a018416880182611f29565b88815236898d0111611e2657888c888301378a878a83010152845285840191858352878501934285528a8c5260138852888c209551908151938411611e135750611cd08654611eab565b601f8111611dcb575b508791601f8411600114611d51575092826002938d9e9693611d3c98966000805160206129ca8339815191529e9f92611d46575b50508160011b916000199060031b1c19161784555b5160018401555191015584519585879687528601916128f4565b918301520390a280f35b015190508f80611d0d565b868d52888d2092919084168d5b818110611db45750936000805160206129ca8339815191529c9d9e9693611d3c9896936001938360029810611d9b575b505050811b018455611d22565b015160001960f88460031b161c191690558f8080611d8e565b92938a600181928786015181550195019301611d5e565b868d52888d20601f850160051c8101918a8610611e09575b601f0160051c01908d905b828110611dfc575050611cd9565b6001918155018d90611dee565b9091508190611de3565b634e487b7160e01b8d526041905260248cfd5b8a80fd5b634e487b7160e01b895260418252602489fd5b601454600160401b811015611e2a576001810180601455811015611e6b57879060148a52858a200155611c5b565b634e487b7160e01b895260328252602489fd5b9181601f84011215610c69578235916001600160401b038311610c695760208381860195010111610c6957565b90600182811c92168015611edb575b6020831014611ec557565b634e487b7160e01b600052602260045260246000fd5b91607f1691611eba565b606081019081106001600160401b03821117611f0057604052565b634e487b7160e01b600052604160045260246000fd5b6001600160401b038111611f0057604052565b601f909101601f19168101906001600160401b03821190821017611f0057604052565b6040519060008260075491611f6083611eab565b808352600193808516908115611fe85750600114611f88575b50611f8692500383611f29565b565b600760009081527fa66cc928b5edb82af9bd49922954155ab7b0942694bea4ce44661d9a8736c68894602093509091905b818310611fd0575050611f86935082010138611f79565b85548884018501529485019487945091830191611fb9565b9050611f8694506020925060ff191682840152151560051b82010138611f79565b60405190600082600b549161201d83611eab565b808352600193808516908115611fe857506001146120425750611f8692500383611f29565b600b60009081527f0175b7a638427703f0dbe7bb9bbf987a2551717b34e79f33b5b1008d1fa01db994602093509091905b81831061208a575050611f86935082010138611f79565b85548884018501529485019487945091830191612073565b919082519283825260005b8481106120ce575050826000602080949584010152601f8019910116010190565b6020818301810151848301820152016120ad565b600435906001600160a01b0382168203610c6957565b602435906001600160a01b0382168203610c6957565b6020908160408183019282815285518094520193019160005b828110612135575050505090565b835185529381019392810192600101612127565b906080600319830112610c6957600435916024356001600160a01b0381168103610c69579160443591606435906001600160401b038211610c695761219091600401611e7e565b9091565b6000546001600160a01b031633036121a857565b60405163118cdaa760e01b8152336004820152602490fd5b90816020910312610c6957518015158103610c695790565b6001600160a01b03918216815291166020820152604081019190915260600190565b9190820391821161220757565b634e487b7160e01b600052601160045260246000fd5b92919060ff601054166124c85760018060a01b038085166000958187526020936011855260409360ff858a2054166124a557808216808a5260ff868b20541661247f57908793929181600554169081612370575b50506006541691826122e0575b5050600080516020612a2a83398151915288525050600d835281862090865282528085205460129092528420546122b4916121fa565b106122c257605160f81b9190565b602960f91b91506f125394d551919250d251539517d0905360821b90565b85516372331c7360e11b8152938793859390928492839261230492600485016121d8565b03915afa908115612366578791612349575b5015612325578338808061227e565b50600b60fb1b94507010d3d3541312505390d157d19052531151607a1b9392505050565b6123609150843d8611610912576109048183611f29565b38612316565b83513d89823e3d90fd5b909192939450865163b9209e3360e01b908181528760048201528981602481875afa908115612475578d91612458575b501561242c57906024899289519485938492835260048301525afa908115612422578a91612405575b50156123da57908692913880612271565b50605760f81b975074149150d15255915497d393d517d591549251925151605a1b9695505050505050565b61241c9150873d8911610912576109048183611f29565b386123c9565b86513d8c823e3d90fd5b50602b60f91b9a507214d15391115497d393d517d591549251925151606a1b9998505050505050505050565b61246f91508a3d8c11610912576109048183611f29565b386123a0565b89513d8f823e3d90fd5b50605760f81b98506e2922a1a2a4ab22a92fa32927ad22a760891b979650505050505050565b50602b60f91b97506c29a2a72222a92fa32927ad22a760991b9695505050505050565b50605560f81b92506b1513d2d15397d4105554d15160a21b919050565b939260ff6010541661275d5760018060a01b0390818616906000968288526020946011865260409460ff868b20541661273957808216808b5260ff878c20541661271257908893929181600554169081612600575b505060065416918261256f575b50505090875250600d835281862090865282528085205460129092528420546122b4916121fa565b86516372331c7360e11b8152938893859390928492839261259392600485016121d8565b03915afa9081156125f65788916125d9575b50156125b45784388080612547565b50600b60fb1b95507010d3d3541312505390d157d19052531151607a1b949350505050565b6125f09150853d8711610912576109048183611f29565b386125a5565b84513d8a823e3d90fd5b90919293945087518c63b9209e3360e01b918281528960048201528b81602481885afa91821561270757916126ea575b50156126bd579060248a928a519485938492835260048301525afa9081156126b3578b91612696575b501561266a5790879291388061253a565b50605760f81b985074149150d15255915497d393d517d591549251925151605a1b979650505050505050565b6126ad9150883d8a11610912576109048183611f29565b38612659565b87513d8d823e3d90fd5b50602b60f91b9b507214d15391115497d393d517d591549251925151606a1b9a9950505050505050505050565b61270191508b3d8d11610912576109048183611f29565b38612630565b8b51903d90823e3d90fd5b50605760f81b99506e2922a1a2a4ab22a92fa32927ad22a760891b98975050505050505050565b50602b60f91b98506c29a2a72222a92fa32927ad22a760991b979650505050505050565b50605560f81b93506b1513d2d15397d4105554d15160a21b92915050565b1561278257565b60405162461bcd60e51b815260206004820152600c60248201526b1513d2d15397d4105554d15160a21b6044820152606490fd5b6002600154146127c7576002600155565b604051633ee5aeb560e01b8152600490fd5b9190820180921161220757565b6001600160a01b0390811660008181527ff03f8047692cb11e5dc30d3a50e5e651fc447d79923e48ac7237a4de0554fd096020908152604080832080546128929792969495600e9590929091600080516020612a2a833981519152919061284e908c906121fa565b90558652600d8452868620921691828652835285852061286f8982546127d9565b905584528282528484206128848882546121fa565b9055835252209182546127d9565b9055565b6001600160a01b039091168152602081019190915260400190565b156128b857565b60405162461bcd60e51b8152602060048201526014602482015273494e53554646494349454e545f42414c414e434560601b6044820152606490fd5b908060209392818452848401376000828201840152601f01601f1916010190565b6005546001600160a01b03908116919082156129a15760246020926040519485938492637e42683b60e01b84521660048301525afa9081156129955760009161295c575090565b6020813d821161298d575b8161297460209383611f29565b8101031261032e57519061ffff821682036104e1575090565b3d9150612967565b6040513d6000823e3d90fd5b50505060009056fe1192b9320ade30d998a9dab748128b191df1d6d75dc189689897cd4308163486b4c22d60cd550a815744f04e3ff5278bf19684565ee00e2b084041b6024bd6f63be2edea458ae9d9dd885a96aa23c988b15277ec0f613d273e6fcc4a27e610ff8be0079c531659141344cd1fd0a4f28419497f9722a3daafe3b4186f6b6457e058c79ae79fbe82c16dfa44996f2e5b5ae2e8c2ab6c4c85cfb5fa475f0462adb6a2646970667358221220cbf4f3ab42aaf9a165c25ff11f3b08c6e2f6d76f0a322438ab625a0d46f50ff564736f6c63430008140033405787fa12a823e0f2b7631cc41b3ba8828b3321ca811111fa75cd3aa3bb5ace6080806040523461012c5733156101165760008054336001600160a01b0319821681178355906001600160a01b03167f8be0079c531659141344cd1fd0a4f28419497f9722a3daafe3b4186f6b6457e08380a36127106005556000198060095560019081600855600b55610071610131565b818152602090818101908482526101988552600383528360408620915115159260ff199360ff858554169116178355519101556100ac610131565b8381528383820186815261016c875260038552604087209251151560ff8585541691161783555191015560ff60406100e2610131565b958587526003858801958287526102f8835252209451151591855416911617835551910155604051610c9890816101678239f35b631e4fbdf760e01b815260006004820152602490fd5b600080fd5b60408051919082016001600160401b0381118382101761015057604052565b634e487b7160e01b600052604160045260246000fdfe6040608081526004908136101561001557600080fd5b600091823560e01c80630389d8d614610a4e5780631947c213146109fa5780631ed23c3e146109c3578063386971cb1461098b5780633cb32f771461096c5780633ff5aa021461084857806340db3b501461069357806346059287146105c25780634c5a3a78146105a35780635f8dead3146104155780636884143114610584578063715018a61461053c57806375ec49b7146104a65780638365066b146104595780638baf29b4146104395780638bf5c4ee1461041a5780638d2ea772146104155780638d56cc9c146103ad5780638da5cb5b14610385578063993e8b9514610347578063a725013a1461030f578063a9e75723146102f0578063aa6909131461020f578063c2a58d2e146101df578063e46638e6146101b65763f2fde38b1461013f57600080fd5b346101b25760203660031901126101b257610158610ab6565b90610161610b3b565b6001600160a01b0391821692831561019c57505082546001600160a01b031981168317845516600080516020610c438339815191528380a380f35b51631e4fbdf760e01b8152908101849052602490fd5b8280fd5b5050346101db576020906101d26101cc36610b06565b91610b98565b90519015158152f35b5080fd5b50346101b25760203660031901126101b257602092829161ffff610201610ad1565b168252845220549051908152f35b509190346101db5760603660031901126101db5761022b610ad1565b90602435801515918282036102ec5760443592610246610b3b565b8151908183016001600160401b038111838210176102d9579183916102d3937f6cce5670f4b122c15cb23ebe2117b4e8a1833bab12eb4b347398d0d029eddfe0979695528152600161ffff6020830198878a521697888a526003602052838a209251151560ff80198554169116178355519101555192839283602090939291936040810194151581520152565b0390a280f35b634e487b7160e01b885260418952602488fd5b8480fd5b5050346101db57816003193601126101db576020906009549051908152f35b5050346101db5760203660031901126101db5760209181906001600160a01b03610337610ab6565b1681526007845220549051908152f35b5050346101db5760203660031901126101db5760209160ff9082906001600160a01b03610372610ab6565b1681526001855220541690519015158152f35b5050346101db57816003193601126101db57905490516001600160a01b039091168152602090f35b5050346101db57806003193601126101db577f8bec153ee727d17f3f63aa27cbb6bd64eb978b88821b30002a4b5517aeb10cec60206103ea610ab6565b602435906103f6610b3b565b6001600160a01b0316808652600a83528486208290559351908152a280f35b610ae2565b5050346101db57816003193601126101db576020906005549051908152f35b83346104565761044836610b06565b505050610453610bf2565b80f35b80fd5b50346101b25760203660031901126101b2577fd95f6c53e97f4296dd8ed1d779512e13c947410183d93ca8d54e5a913c20505591602091359061049a610b3b565b8160055551908152a180f35b509190346101db57806003193601126101db578235602435936104c7610b3b565b84821161050857507f106460806200bb17eb3172a19a68d4bf2131871d489bce659a2700f63e114ba79293816008558060095582519182526020820152a180f35b606490602084519162461bcd60e51b8352820152600e60248201526d494e56414c49445f4c494d49545360901b6044820152fd5b8334610456578060031936011261045657610555610b3b565b80546001600160a01b03198116825581906001600160a01b0316600080516020610c438339815191528280a380f35b5050346101db57816003193601126101db576020906008549051908152f35b5050346101db57816003193601126101db57602090600b549051908152f35b5091346104565780600319360112610456578151809160025493848352602080930180956002845284842090845b868282106106765750505050849003601f01601f19168401956001600160401b03871185881017610663575085815282865292518583018190528594938501939290915b82811061064357505050500390f35b83516001600160a01b031685528695509381019392810192600101610634565b634e487b7160e01b835260419052602482fd5b83546001600160a01b0316855290930192600192830192016105f0565b508290346101db5760203660031901126101db576106af610ab6565b6106b7610b3b565b60018060a01b03809116918284526001918260205260ff868620541615610813578385526020839052858520805460ff1916905584835b61071c575b85857f28a4ca7134a3b3f9aff286e79ad3daadb4a06d1b43d037a3a98bdc074edd9b7a8280a280f35b60028054908183101561080c5783918761073585610b67565b949054600395861b1c161461076b575050506000198114610758578301836106ee565b634e487b7160e01b865260118352602486fd5b919550936000199290918381019081116107f9579061079d856107906107bc94610b67565b9054908a1b1c1691610b67565b90919082549060031b9160018060a01b03809116831b921b1916179055565b83549081156107e6575001926107d184610b67565b81939154921b1b1916905555828080806106f3565b634e487b7160e01b885260319052602487fd5b634e487b7160e01b895260118352602489fd5b50506106f3565b855162461bcd60e51b8152602081840152600f60248201526e1513d2d15397d393d517d093d55391608a1b6044820152606490fd5b509190346101db5760203660031901126101db57610864610ab6565b61086c610b3b565b6001600160a01b03811691821561093a57828452600160205260ff81852054166109025782845260016020528320600160ff19825416179055600254600160401b8110156108ef579061079d8260016108c89401600255610b67565b7f2de35142b19ed5a07796cf30791959c592018f70b1d2d7c460eef8ffe713692b8280a280f35b634e487b7160e01b845260418552602484fd5b5162461bcd60e51b815260208186015260136024820152721513d2d15397d053149150511657d093d55391606a1b6044820152606490fd5b5162461bcd60e51b8152602081860152600d60248201526c24a72b20a624a22faa27a5a2a760991b6044820152606490fd5b5050346101db57816003193601126101db576020906006549051908152f35b5050346101db5760203660031901126101db5760209181906001600160a01b036109b3610ab6565b168152600a845220549051908152f35b5050346101db5760203660031901126101db5760ff8160209361ffff6109e7610ad1565b1681526003855220541690519015158152f35b5050346101db5760203660031901126101db57809161ffff610a1a610ad1565b168152600360205220610a4a600160ff835416920154925192839283602090939291936040810194151581520152565b0390f35b5050346101db57806003193601126101db577fb49d751375623d59f397ec662fa803dcbe61606143148a7281d8cab67cca74cb6020610a8b610ab6565b60243590610a97610b3b565b6001600160a01b0316808652600783528486208290559351908152a280f35b600435906001600160a01b0382168203610acc57565b600080fd5b6004359061ffff82168203610acc57565b34610acc576040366003190112610acc57610afb610ab6565b50610b04610bf2565b005b6060906003190112610acc576001600160a01b03906004358281168103610acc57916024359081168103610acc579060443590565b6000546001600160a01b03163303610b4f57565b60405163118cdaa760e01b8152336004820152602490fd5b600254811015610b8257600260005260206000200190600090565b634e487b7160e01b600052603260045260246000fd5b9160018060a01b0380931660005260076020526040600020544210610bea576008548110908115610bde575b50610bd75716600052600a602052600190565b5050600090565b90506009541038610bc4565b505050600090565b33600052600160205260ff6040600020541615610c0b57565b60405162461bcd60e51b815260206004820152600f60248201526e2727aa2fa127aaa7222faa27a5a2a760891b6044820152606490fdfe8be0079c531659141344cd1fd0a4f28419497f9722a3daafe3b4186f6b6457e0a2646970667358221220fe869be6f8e11b019bd601d3ef4c967511d01dd7a7347cba3406a97a53bd4ace64736f6c63430008140033608034620002ee5762001b93906001600160401b0390600090601f38859003908101601f191682019084821183831017620002da5780839160409788948552833981010312620002d6576200006260206200005a83620002f3565b9201620002f3565b3315620002be578254336001600160a01b0319808316821786558751966001600160a01b039591949093909286929183167f8be0079c531659141344cd1fd0a4f28419497f9722a3daafe3b4186f6b6457e08980a3169586156200027c57508316918215620002385785816002541617600255828160035416176003558651610a78808201908282108583111762000224579082916200111b8339039086f080156200021657841680916001541617600155803b156200022057908480926024895180958193634273cc2160e11b83523060048401525af180156200021657620001cb575b50507f2fa8b95c1db7afe99e3398f3792f008135cedc1fa26b0bb2ecd2352cd166d53c92939451947f7170bf15b246e880b2369cd7c67d057760d8a35149e8c64dde91efa22bcc76d08580a27f1b98cb79e6f73020175fe87333f1b91ad6a881519c0afe30340c2599b2b4bde08480a2600154169180a2610e129081620003098239f35b8196949611620002025783529193917f2fa8b95c1db7afe99e3398f3792f008135cedc1fa26b0bb2ecd2352cd166d53c3862000147565b634e487b7160e01b86526041600452602486fd5b87513d87823e3d90fd5b8480fd5b634e487b7160e01b88526041600452602488fd5b865162461bcd60e51b815260206004820152601760248201527f494e56414c49445f545255535445445f495353554552530000000000000000006044820152606490fd5b62461bcd60e51b815260206004820152601460248201527f494e56414c49445f434c41494d5f544f504943530000000000000000000000006044820152606490fd5b8451631e4fbdf760e01b815260048101849052602490fd5b5080fd5b634e487b7160e01b84526041600452602484fd5b600080fd5b51906001600160a01b0382168203620002ee5756fe608060408181526004918236101561001657600080fd5b600092833560e01c9182630876132414610a00575081633b239a7f14610941578163454a03e0146108335781635dbe47e814610798578163639f78751461077c578163653dc9f1146105b0578163715018a6146105685781637e42683b146104b45781638da5cb5b1461048c5781638e098ca114610376578163a8d29d1d14610270578163b9209e3314610241578163f0eb5e54146101a4578163f11abfd81461017b578163f2fde38b14610100575063fb703a7b146100d557600080fd5b346100fc57816003193601126100fc5760035490516001600160a01b039091168152602090f35b5080fd5b9050346101775760203660031901126101775761011b610a25565b90610124610a81565b6001600160a01b039182169283156101615750506000548260018060a01b031982161760005516600080516020610d9d833981519152600080a380f35b51631e4fbdf760e01b8152908101849052602490fd5b8280fd5b5050346100fc57816003193601126100fc5760015490516001600160a01b039091168152602090f35b919050346101775760203660031901126101775760249060206101c5610a25565b6001548351637988d3a560e01b81526001600160a01b039283169681019690965290938591829086165afa9283156102375760209493610208575b505191168152f35b610229919350843d8111610230575b6102218183610b15565b810190610b5d565b9138610200565b503d610217565b81513d86823e3d90fd5b5050346100fc5760203660031901126100fc57602090610267610262610a25565b610b94565b90519015158152f35b919050346101775760203660031901126101775761028c610a25565b610294610a81565b8360018060a01b039283600154169084815194637988d3a560e01b865216958681860152602085602481865afa94851561036c57849561034c575b50823b1561033f578660248592838551968794859363cf191bcd60e01b85528401525af1908115610343575061032b575b505016907f59d6590e225b81befe259af056324092801080acbb7feab310eb34678871f3278380a380f35b61033490610aec565b61033f578338610300565b8380fd5b513d84823e3d90fd5b61036591955060203d8111610230576102218183610b15565b93386102cf565b82513d86823e3d90fd5b905034610177578160031936011261017757610390610a25565b83610399610a3b565b926103a2610a81565b6001600160a01b03938416946103b9861515610aad565b84600154169185825195637988d3a560e01b8752168082870152602086602481875afa958615610482578596610462575b50833b1561045e57604485928385519687948593637402e7c360e11b85528401528b60248401525af1908115610343575061044a575b5050167fe98082932c8056a0f514da9104e4a66bc2cbaef102ad59d90c4b24220ebf60108380a380f35b61045390610aec565b61033f578338610420565b8480fd5b61047b91965060203d8111610230576102218183610b15565b94386103ea565b83513d87823e3d90fd5b5050346100fc57816003193601126100fc57905490516001600160a01b039091168152602090f35b91905034610177576020928360031936011261055257836104d3610a25565b6001548451630b02972960e21b81526001600160a01b039283169681019690965285916024918391165afa92831561055c578193610519575b505061ffff905191168152f35b909192508381813d8311610555575b6105328183610b15565b810103126100fc57519061ffff8216820361055257509061ffff3861050c565b80fd5b503d610528565b509051903d90823e3d90fd5b8334610552578060031936011261055257610581610a81565b600080546001600160a01b0319811682556001600160a01b0316600080516020610d9d8339815191528280a380f35b91905034610177576060366003190112610177576001600160401b0391803583811161045e576105e39036908301610a51565b93906024948535838111610778576105fe9036908601610a51565b919093604435908111610774576106189036908701610a51565b9390610622610a81565b8383148061076b575b1561073757895b83811061063d578a80f35b6001546001600160a01b03908c9082168961066d610662868b61066783838e8e610d62565b610d88565b94610d62565b610678868c89610d62565b359261ffff8416840361045e57803b1561045e5784928f8f6106ae8692519788968795869463a53410dd60e01b86528501610b38565b03925af1801561072d57610715575b50506106cd610662838787610d62565b90806106dd610662858a8d610d62565b169116600080516020610dbd8339815191528d80a3600019811461070357600101610632565b634e487b7160e01b8b5260118852898bfd5b61071e90610aec565b610729578b386106bd565b8b80fd5b8c513d84823e3d90fd5b875162461bcd60e51b8152602081890152600f818b01526e0988a9c8ea890be9a92a69a82a8869608b1b6044820152606490fd5b5084831461062b565b8880fd5b8780fd5b5050346100fc57816003193601126100fc576020905160018152f35b919050346101775760203660031901126101775760206107b6610a25565b6001548351630bb7c8fd60e31b81526001600160a01b039283169581019590955284916024918391165afa91821561082957602093926107fa575b50519015158152f35b61081b919250833d8111610822575b6108138183610b15565b810190610b7c565b90386107f1565b503d610809565b81513d85823e3d90fd5b9050346101775760603660031901126101775761084e610a25565b90610857610a3b565b926044359161ffff8316830361093c5761086f610a81565b6001600160a01b03948486169485156109025790879493929187821697610897891515610aad565b6001541690813b156108fe578680946108c387519889968795869463a53410dd60e01b86528501610b38565b03925af190811561034357506108ea575b5080600080516020610dbd83398151915291a380f35b6108f390610aec565b6101775782386108d4565b8680fd5b835162461bcd60e51b81526020818501526014602482015273494e56414c49445f555345525f4144445245535360601b6044820152606490fd5b600080fd5b90503461017757816003193601126101775761095b610a25565b6024359261ffff841680940361045e57610973610a81565b6001546001600160a01b0390811692869190843b1561017757604490838551968794859363401bcaad60e11b85521680998401528960248401525af19081156109f757506109e4575b507f04ed3b726495c2dca1ff1215d9ca54e1a4030abb5e82b0f6ce55702416cee8538380a380f35b6109f090939193610aec565b91386109bc565b513d86823e3d90fd5b8490346100fc57816003193601126100fc576002546001600160a01b03168152602090f35b600435906001600160a01b038216820361093c57565b602435906001600160a01b038216820361093c57565b9181601f8401121561093c578235916001600160401b03831161093c576020808501948460051b01011161093c57565b6000546001600160a01b03163303610a9557565b60405163118cdaa760e01b8152336004820152602490fd5b15610ab457565b60405162461bcd60e51b815260206004820152601060248201526f494e56414c49445f4944454e5449545960801b6044820152606490fd5b6001600160401b038111610aff57604052565b634e487b7160e01b600052604160045260246000fd5b601f909101601f19168101906001600160401b03821190821017610aff57604052565b6001600160a01b0391821681529116602082015261ffff909116604082015260600190565b9081602091031261093c57516001600160a01b038116810361093c5790565b9081602091031261093c5751801515810361093c5790565b60015460408051630bb7c8fd60e31b81526001600160a01b0393841660048201819052919392602092908416918381602481865afa908115610d5757600091610d3a575b5015610d305782906024865180948193637988d3a560e01b835260048301525afa908115610d2557908391600091610d08575b501615610d00576000600492600254168451938480926337c2758160e21b82525afa928315610cf657600093610c50575b50505051158015610c4a5790565b50600190565b929091923d8083863e610c638186610b15565b84019183858403126105525784516001600160401b039586821161017757019083601f83011215610552578151958611610ce2578560051b925195610caa86850188610b15565b8652848087019383010193841161055257508301905b828210610cd35750505050388080610c3c565b81518152908301908301610cc0565b634e487b7160e01b81526041600452602490fd5b513d6000823e3d90fd5b505050600090565b610d1f9150833d8511610230576102218183610b15565b38610c0b565b84513d6000823e3d90fd5b5050505050600090565b610d519150843d8611610822576108138183610b15565b38610bd8565b86513d6000823e3d90fd5b9190811015610d725760051b0190565b634e487b7160e01b600052603260045260246000fd5b356001600160a01b038116810361093c579056fe8be0079c531659141344cd1fd0a4f28419497f9722a3daafe3b4186f6b6457e06ae73635c50d24a45af6fbd5e016ac4bed179addbc8bf24e04ff0fcc6d33af19a2646970667358221220e82c03f65a6708a7739fba00c7796876762b39e1ee40a6c890c81bd90c5cfe4364736f6c634300081400336080806040523461007a5733156100645760008054336001600160a01b03198216811783556040519290916001600160a01b0316907f8be0079c531659141344cd1fd0a4f28419497f9722a3daafe3b4186f6b6457e09080a36109f890816100808239f35b631e4fbdf760e01b815260006004820152602490fd5b600080fdfe6080604081815260048036101561001557600080fd5b600092833560e01c9081631ffbb0641461085f57508063227ef0611461078e5780632c0a5ca4146107515780635dbe47e814610715578063715018a6146106ca5780637988d3a51461068f5780638037955a146105f557806384e79842146105535780638da5cb5b1461052b57806397a6278e146104c1578063a53410dd14610386578063cf191bcd146101cd578063e805cf86146101345763f2fde38b146100bd57600080fd5b34610130576020366003190112610130576100d661089a565b906100df6108cb565b6001600160a01b0391821692831561011a57505082546001600160a01b0319811683178455166000805160206109a38339815191528380a380f35b51631e4fbdf760e01b8152908101849052602490fd5b8280fd5b50903461013057806003193601126101305761014e61089a565b906101576108b5565b92338552600560205260ff828620541680156101ba575b610177906108f7565b6001600160a01b039283168086526020919091528185205461019b9060ff16610965565b84526001602052832080546001600160a01b0319169190921617905580f35b5084546001600160a01b0316331461016e565b50903461013057602090816003193601126103825782906101ec61089a565b903386526005845260ff8187205416801561036f575b61020e909695966108f7565b6001600160a01b03918216808652838552818620549091906102329060ff16610965565b818652600180865281872080546001600160a01b031916905560028652818720805461ffff1916905596909452928420805460ff19169055929384939092835b61027a578480f35b60038054808810156103695782846102918a610934565b905490851b1c16146102c557505060001986146102b2579483019483610272565b634e487b7160e01b855260118352602485fd5b93929596915093506000199283810190811161035657906102f9866102ec61031894610934565b905490881b1c1691610934565b90919082549060031b9160018060a01b03809116831b921b1916179055565b82549081156103435750019161032d83610934565b9091825491841b1b191690555580388080808480f35b634e487b7160e01b865260319052602485fd5b634e487b7160e01b875260118352602487fd5b50508480f35b5085546001600160a01b03163314610202565b8380fd5b5034610130576060366003190112610130576103a061089a565b6103a86108b5565b6044359161ffff83168093036104bd573386526020926005845260ff868820541680156104aa575b6103d9906108f7565b6001600160a01b03828116808952868652878920549094919060ff16610472578489526001865287892080546001600160a01b0319169190921617905560028452858720805461ffff19169091179055600354600160401b81101561045f57906102f982600161044c9401600355610934565b8452528120805460ff1916600117905580f35b634e487b7160e01b875260418552602487fd5b875162461bcd60e51b815280880187905260126024820152711053149150511657d49151d254d51154915160721b6044820152606490fd5b5086546001600160a01b031633146103d0565b8580fd5b505034610527576020366003190112610527576104dc61089a565b6104e46108cb565b6001600160a01b03168083526005602052908220805460ff191690557fed9c8ad8d5a0a66898ea49d2956929c93ae2e8bd50281b2ed897c5d1a6737e0b8280a280f35b5080fd5b505034610527578160031936011261052757905490516001600160a01b039091168152602090f35b5090346101305760203660031901126101305761056e61089a565b6105766108cb565b6001600160a01b03169182156105c3575081835260056020528220805460ff191660011790557ff68e73cec97f2d70aa641fb26e87a4383686e2efacb648f2165aeb02ac562ec58280a280f35b6020606492519162461bcd60e51b8352820152600d60248201526c1253959053125117d051d15395609a1b6044820152fd5b50903461013057806003193601126101305761060f61089a565b916024359261ffff841680940361068b57338552600560205260ff83862054168015610678575b61063f906108f7565b6001600160a01b0316808552602091909152818420546106619060ff16610965565b8352600260205282209061ffff1982541617905580f35b5084546001600160a01b03163314610636565b8480fd5b505034610527576020366003190112610527576020916001600160a01b03908290826106b961089a565b168152600185522054169051908152f35b83346107125780600319360112610712576106e36108cb565b80546001600160a01b03198116825581906001600160a01b03166000805160206109a38339815191528280a380f35b80fd5b50346101305760203660031901126101305760209260ff918391906001600160a01b0361074061089a565b168252855220541690519015158152f35b5050346105275760203660031901126105275760209161ffff9082906001600160a01b0361077d61089a565b168152600285522054169051908152f35b5091346107125780600319360112610712578151809160035493848352602080930180956003845284842090845b868282106108425750505050849003601f01601f19168401956001600160401b0387118588101761082f575085815282865292518583018190528594938501939290915b82811061080f57505050500390f35b83516001600160a01b031685528695509381019392810192600101610800565b634e487b7160e01b835260419052602482fd5b83546001600160a01b0316855290930192600192830192016107bc565b849084346101305760203660031901126101305760209260ff91906001600160a01b0361088a61089a565b1681526005855220541615158152f35b600435906001600160a01b03821682036108b057565b600080fd5b602435906001600160a01b03821682036108b057565b6000546001600160a01b031633036108df57565b60405163118cdaa760e01b8152336004820152602490fd5b156108fe57565b60405162461bcd60e51b815260206004820152600e60248201526d1393d517d055551213d49256915160921b6044820152606490fd5b60035481101561094f57600360005260206000200190600090565b634e487b7160e01b600052603260045260246000fd5b1561096c57565b60405162461bcd60e51b815260206004820152600e60248201526d1393d517d49151d254d51154915160921b6044820152606490fdfe8be0079c531659141344cd1fd0a4f28419497f9722a3daafe3b4186f6b6457e0a26469706673582212206bc6091820e2736a28dff12688db1af3388474378b3c5d98cb012172d373ff0964736f6c634300081400338be0079c531659141344cd1fd0a4f28419497f9722a3daafe3b4186f6b6457e0a26469706673582212209c1c2464989024574036fc622f94035fbcbee0f4c69a16251f4ada3f3f59e2d664736f6c6343000814003360806040908082523461020f5733156101f9575060008054336001600160a01b0319821681178355906001600160a01b03167f8be0079c531659141344cd1fd0a4f28419497f9722a3daafe3b4186f6b6457e08380a36001808252600291602083815260ff85832054166101b6578254926801000000000000000093848110156101a25781810180835581101561018e57819081855283852001558482528583209160ff199282848254161790557f01c928b7f7ade2949e92366aa9454dbef3a416b731cf6ec786ba9595bbd814d69482868680a286855260ff888620541661014a578254908110156101365782810180845581101561012257908680928487528287200155818552528583209182541617905580a25161062c90816102158239f35b634e487b7160e01b85526032600452602485fd5b634e487b7160e01b85526041600452602485fd5b875162461bcd60e51b815260048101839052601460248201527f544f5049435f414c52454144595f4558495354530000000000000000000000006044820152606490fd5b634e487b7160e01b84526032600452602484fd5b634e487b7160e01b84526041600452602484fd5b60649085519062461bcd60e51b82526004820152601460248201527f544f5049435f414c52454144595f4558495354530000000000000000000000006044820152fd5b631e4fbdf760e01b815260006004820152602490fd5b600080fdfe60406080815260048036101561001457600080fd5b600091823560e01c806308297846146104035780635cf0c3f2146103e757806360d37cdb146103cc578063715018a61461038157806373778b2f146103655780637af695b0146103495780638da5cb5b14610321578063a14010b714610301578063be36359f146102d4578063c7b22551146101de578063df09d604146101225763f2fde38b146100a457600080fd5b3461011e57602036600319011261011e576001600160a01b0382358181169391929084900361011a576100d5610579565b831561010457505082546001600160a01b0319811683178455166000805160206105d78339815191528380a380f35b51631e4fbdf760e01b8152908101849052602490fd5b8480fd5b8280fd5b503461011e578260031936011261011e578051806001948554938483526020808094018096898552828520908a865b8281106101c95750505050859003601f01601f191685019690506001600160401b038711858810176101b6575092869284878096528186019282875251809352850195925b8281106101a35785870386f35b8351875295810195928101928401610196565b634e487b7160e01b835260419052602482fd5b83548552889590940193928101928101610151565b503461011e57602036600319011261011e578135916101fb610579565b828452600260205260ff828520541661029b5760015490600160401b82101561028857508261023382600161024c94016001556105a5565b90919082549060031b91821b91600019901b1916179055565b81835260026020528220805460ff191660011790557f01c928b7f7ade2949e92366aa9454dbef3a416b731cf6ec786ba9595bbd814d68280a280f35b634e487b7160e01b855260419052602484fd5b6020606492519162461bcd60e51b83528201526014602482015273544f5049435f414c52454144595f45584953545360601b6044820152fd5b50903461011e57602036600319011261011e578160209360ff923581526002855220541690519015158152f35b83823461031d578160031936011261031d576020905160058152f35b5080fd5b83823461031d578160031936011261031d57905490516001600160a01b039091168152602090f35b83823461031d578160031936011261031d576020905160028152f35b83823461031d578160031936011261031d576020905160018152f35b83346103c957806003193601126103c95761039a610579565b80546001600160a01b03198116825581906001600160a01b03166000805160206105d78339815191528280a380f35b80fd5b503461011e578260031936011261011e576020925051908152f35b83823461031d578160031936011261031d576020905160038152f35b5091903461031d57602036600319011261031d578035610421610579565b808352600260205260ff84842054161561054357825b60018054808310156105375790839161044f846105a5565b939054600394851b1c1461048457505050600019811461047157600101610437565b634e487b7160e01b845260118352602484fd5b919395969490926000199283810190811161052457906102336104a96104b5936105a5565b905490881b1c916105a5565b825490811561051157508101926104cb846105a5565b81939154921b1b19169055555b81835260026020528220805460ff191690557f0b1381093c776453c1bbe54fd68be1b235c65db61d099cb50d194b2991e0eec58280a280f35b634e487b7160e01b885260319052602487fd5b634e487b7160e01b895260118352602489fd5b505050919290506104d8565b835162461bcd60e51b8152602081840152601060248201526f544f5049435f4e4f545f45584953545360801b6044820152606490fd5b6000546001600160a01b0316330361058d57565b60405163118cdaa760e01b8152336004820152602490fd5b6001548110156105c057600160005260206000200190600090565b634e487b7160e01b600052603260045260246000fdfe8be0079c531659141344cd1fd0a4f28419497f9722a3daafe3b4186f6b6457e0a2646970667358221220eb1a0d2b475c5f3466b14a9d9df57bcec2e18037e041fdf2879e7b898e533bac64736f6c634300081400336080806040523461007a5733156100645760008054336001600160a01b03198216811783556040519290916001600160a01b0316907f8be0079c531659141344cd1fd0a4f28419497f9722a3daafe3b4186f6b6457e09080a3610b3b90816100808239f35b631e4fbdf760e01b815260006004820152602490fd5b600080fdfe6040608081526004908136101561001557600080fd5b600091823560e01c806304bc7e841461071057806334a89987146106cb578063715018a6146106835780638da5cb5b1461065b5780639f63ea98146104b8578063b93d28eb146102b3578063c28fb27814610203578063d9dd24c514610148578063ef2ed1a4146101065763f2fde38b1461008f57600080fd5b34610102576020366003190112610102576100a8610885565b906100b1610900565b6001600160a01b039182169283156100ec57505082546001600160a01b031981168317845516600080516020610ae68339815191528380a380f35b51631e4fbdf760e01b8152908101849052602490fd5b8280fd5b5050346101445760203660031901126101445760209160ff9082906001600160a01b03610131610885565b1681526002855220541690519015158152f35b5080fd5b50503461014457816003193601126101445780516001805480835281855260208084019592939186907fb10e2d527612073b26eecdfd717e6a320cf44b4afac2b0732d9fcbe2b7fa0cf690855b8181106101e757505050826101ab910383610a79565b8451948186019282875251809352850195925b8281106101cb5785870386f35b83516001600160a01b03168752958101959281019284016101be565b82546001600160a01b0316845292840192918701918701610195565b8284346102b057602090816003193601126102b05782906001600160a01b0361022a610885565b16815260038352818120908251808584549182815201908194845286842090845b81811061029c5750505081610261910382610a79565b83519485948186019282875251809352850193925b82811061028557505050500390f35b835185528695509381019392810192600101610276565b82548452928801926001928301920161024b565b80fd5b508290346101445760209283600319360112610102576102d1610885565b926102da610900565b6001600160a01b0393841680825260028652828220549095906102ff9060ff16610a38565b815b60018054808310156104ab579087918961031a8561096a565b949054600395861b1c161461033a575050506103359061099b565b610301565b90926000989294959697981991828101908111610498579061036f8461036261038e9461096a565b905490891b1c169161096a565b90919082549060031b9160018060a01b03809116831b921b1916179055565b825480156104855701926103a18461096a565b81939154921b1b19169055555b84825260038152828220908351808383829554938481520190865283862092865b8582821061046f575050506103e692500383610a79565b825b82518110156104225761041d908785528683528585206104088286610a9c565b5186528352858520805460ff1916905561099b565b6103e8565b8387866002858385526003815261043a838620610ab0565b838552528220805460ff191690557f2214ded40113cc3fb63fc206cafee88270b0a903dac7245d54efdde30ebb03218280a280f35b85548452600195860195889550930192016103cf565b634e487b7160e01b875260318952602487fd5b634e487b7160e01b885260118a52602488fd5b50505090919293506103ae565b509034610102576104c8366108a0565b929091936104d4610900565b6001600160a01b03851694851561061f578587526020906002825260ff84892054166105e55761050586151561092c565b6001908154600160401b8110156105d2579061036f82846105289401855561096a565b868852600282528388209160ff19928284825416179055885b8781106105815789897ffedc33fd34859594822c0ff6f3f4f9fc279cc6d5cae53068f706a088e45008728a8a61057b8b5192839283610a0f565b0390a280f35b6105cd90898b52600383526105a4878c2061059d838c8c6109c0565b35906109d0565b898b52858352868b206105b8828b8b6109c0565b358c528352868b20848682541617905561099b565b610541565b634e487b7160e01b8a526041855260248afd5b50606492519162461bcd60e51b835282015260166024820152751254d4d5515497d053149150511657d5149554d5115160521b6044820152fd5b506020606492519162461bcd60e51b83528201526016602482015275494e56414c49445f4953535545525f4144445245535360501b6044820152fd5b505034610144578160031936011261014457905490516001600160a01b039091168152602090f35b83346102b057806003193601126102b05761069c610900565b80546001600160a01b03198116825581906001600160a01b0316600080516020610ae68339815191528280a380f35b503461010257816003193601126101025760209260ff918391906001600160a01b036106f5610885565b16825285528181206024358252855220541690519015158152f35b5091903461014457610721366108a0565b90939161072c610900565b60018060a01b0316948583526020906002825261074e60ff8686205416610a38565b61075983151561092c565b868452600396878352858520938651808686829854938481520190895286892092895b8882821061086f5750505061079392500386610a79565b855b85518110156107cf576107ca908388528486528888206107b58289610a9c565b5189528652888820805460ff1916905561099b565b610795565b508789889588958587528282526107e7888820610ab0565b865b8581106108235787877fec753cfc52044f61676f18a11e500093a9f2b1cd5e4942bc476f2b0438159bcf888861057b8e5192839283610a0f565b61086a9087895284845261083e8a8a2061059d838a8a6109c0565b8789528284528989206108528289896109c0565b358a528452898920805460ff1916600117905561099b565b6107e9565b855484526001958601958b95509301920161077c565b600435906001600160a01b038216820361089b57565b600080fd5b604060031982011261089b576004356001600160a01b038116810361089b57916001600160401b03916024359083821161089b578060238301121561089b57816004013593841161089b5760248460051b8301011161089b576024019190565b6000546001600160a01b0316330361091457565b60405163118cdaa760e01b8152336004820152602490fd5b1561093357565b60405162461bcd60e51b815260206004820152600f60248201526e4e4f5f434c41494d5f544f5049435360881b6044820152606490fd5b60015481101561098557600160005260206000200190600090565b634e487b7160e01b600052603260045260246000fd5b60001981146109aa5760010190565b634e487b7160e01b600052601160045260246000fd5b91908110156109855760051b0190565b805490600160401b8210156109f957600182018082558210156109855760005260206000200155565b634e487b7160e01b600052604160045260246000fd5b602080825281018390526001600160fb1b03831161089b5760409260051b809284830137010190565b15610a3f57565b60405162461bcd60e51b81526020600482015260126024820152711254d4d5515497d393d517d5149554d5115160721b6044820152606490fd5b601f909101601f19168101906001600160401b038211908210176109f957604052565b80518210156109855760209160051b010190565b80549060009081815582610ac357505050565b815260208120918201915b828110610ada57505050565b818155600101610ace56fe8be0079c531659141344cd1fd0a4f28419497f9722a3daafe3b4186f6b6457e0a264697066735822122005f5c92c3c36d35a5a4e6600c03f3cf4aa5a6392a0bdca28de655b84b85a657864736f6c63430008140033",
  "linkReferences": {},
  "deployedLinkReferences": {}
}