{"contracts/LoanToken.sol":{"LoanToken":{"abi":[{"inputs":[{"internalType":"string","name":"_name","type":"string"},{"internalType":"string","name":"_symbol","type":"string"},{"internalType":"string","name":"_borrowerName","type":"string"},{"internalType":"uint256","name":"_facilityAmount","type":"uint256"},{"internalType":"uint256","name":"_interestRateBps","type":"uint256"},{"internalType":"uint256","name":"_maturityDate","type":"uint256"},{"internalType":"string","name":"_nelProtocolId","type":"string"},{"internalType":"bytes32","name":"_documentHash","type":"bytes32"},{"internalType":"address","name":"_identityRegistry","type":"address"},{"internalType":"address","name":"_compliance","type":"address"}],"stateMutability":"nonpayable","type":"constructor"},{"inputs":[{"internalType":"address","name":"owner","type":"address"}],"name":"OwnableInvalidOwner","type":"error"},{"inputs":[{"internalType":"address","name":"account","type":"address"}],"name":"OwnableUnauthorizedAccount","type":"error"},{"inputs":[],"name":"ReentrancyGuardReentrantCall","type":"error"},{"anonymous":false,"inputs":[{"indexed":true,"internalType":"address","name":"addr","type":"address"},{"indexed":true,"internalType":"bool","name":"isFrozen","type":"bool"}],"name":"AddressFrozen","type":"event"},{"anonymous":false,"inputs":[{"indexed":true,"internalType":"address","name":"compliance","type":"address"}],"name":"ComplianceSet","type":"event"},{"anonymous":false,"inputs":[{"indexed":false,"internalType":"address","name":"controller","type":"address"},{"indexed":true,"internalType":"address","name":"from","type":"address"},{"indexed":true,"internalType":"address","name":"to","type":"address"},{"indexed":false,"internalType":"uint256","name":"value","type":"uint256"},{"indexed":false,"internalType":"bytes","name":"data","type":"bytes"},{"indexed":false,"internalType":"bytes","name":"operatorData","type":"bytes"}],"name":"ControllerTransfer","type":"event"},{"anonymous":false,"inputs":[{"indexed":true,"internalType":"bytes32","name":"name","type":"bytes32"},{"indexed":false,"internalType":"string","name":"uri","type":"string"},{"indexed":false,"internalType":"bytes32","name":"documentHash","type":"bytes32"}],"name":"DocumentUpdated","type":"event"},{"anonymous":false,"inputs":[{"indexed":true,"internalType":"address","name":"identityRegistry","type":"address"}],"name":"IdentityRegistrySet","type":"event"},{"anonymous":false,"inputs":[{"indexed":true,"internalType":"address","name":"to","type":"address"},{"indexed":false,"internalType":"uint256","name":"amount","type":"uint256"},{"indexed":false,"internalType":"bytes32","name":"partition","type":"bytes32"}],"name":"Issued","type":"event"},{"anonymous":false,"inputs":[{"indexed":true,"internalType":"address","name":"previousOwner","type":"address"},{"indexed":true,"internalType":"address","name":"newOwner","type":"address"}],"name":"OwnershipTransferred","type":"event"},{"anonymous":false,"inputs":[{"indexed":true,"internalType":"address","name":"account","type":"address"}],"name":"Paused","type":"event"},{"anonymous":false,"inputs":[{"indexed":true,"internalType":"address","name":"lostWallet","type":"address"},{"indexed":true,"internalType":"address","name":"newWallet","type":"address"},{"indexed":true,"internalType":"address","name":"investorIdentity","type":"address"}],"name":"RecoverySuccess","type":"event"},{"anonymous":false,"inputs":[{"indexed":true,"internalType":"address","name":"from","type":"address"},{"indexed":false,"internalType":"uint256","name":"amount","type":"uint256"},{"indexed":false,"internalType":"bytes32","name":"partition","type":"bytes32"}],"name":"Redeemed","type":"event"},{"anonymous":false,"inputs":[{"indexed":true,"internalType":"address","name":"addr","type":"address"},{"indexed":false,"internalType":"uint256","name":"amount","type":"uint256"}],"name":"TokensFrozen","type":"event"},{"anonymous":false,"inputs":[{"indexed":true,"internalType":"address","name":"addr","type":"address"},{"indexed":false,"internalType":"uint256","name":"amount","type":"uint256"}],"name":"TokensUnfrozen","type":"event"},{"anonymous":false,"inputs":[{"indexed":true,"internalType":"bytes32","name":"partition","type":"bytes32"},{"indexed":true,"internalType":"address","name":"from","type":"address"},{"indexed":true,"internalType":"address","name":"to","type":"address"},{"indexed":false,"internalType":"uint256","name":"value","type":"uint256"}],"name":"TransferByPartition","type":"event"},{"anonymous":false,"inputs":[{"indexed":true,"internalType":"address","name":"account","type":"address"}],"name":"Unpaused","type":"event"},{"inputs":[],"name":"COMPLIANCE_FAILURE","outputs":[{"internalType":"bytes1","name":"","type":"bytes1"}],"stateMutability":"view","type":"function"},{"inputs":[],"name":"FUNDS_LOCKED","outputs":[{"internalType":"bytes1","name":"","type":"bytes1"}],"stateMutability":"view","type":"function"},{"inputs":[],"name":"INSUFFICIENT_BALANCE","outputs":[{"internalType":"bytes1","name":"","type":"bytes1"}],"stateMutability":"view","type":"function"},{"inputs":[],"name":"INVALID_RECEIVER","outputs":[{"internalType":"bytes1","name":"","type":"bytes1"}],"stateMutability":"view","type":"function"},{"inputs":[],"name":"INVALID_SENDER","outputs":[{"internalType":"bytes1","name":"","type":"bytes1"}],"stateMutability":"view","type":"function"},{"inputs":[],"name":"PRIMARY_PARTITION","outputs":[{"internalType":"bytes32","name":"","type":"bytes32"}],"stateMutability":"view","type":"function"},{"inputs":[],"name":"SECONDARY_PARTITION","outputs":[{"internalType":"bytes32","name":"","type":"bytes32"}],"stateMutability":"view","type":"function"},{"inputs":[],"name":"SUCCESS","outputs":[{"internalType":"bytes1","name":"","type":"bytes1"}],"stateMutability":"view","type":"function"},{"inputs":[{"internalType":"address","name":"account","type":"address"}],"name":"balanceOf","outputs":[{"internalType":"uint256","name":"","type":"uint256"}],"stateMutability":"view","type":"function"},{"inputs":[{"internalType":"bytes32","name":"partition","type":"bytes32"},{"internalType":"address","name":"tokenHolder","type":"address"}],"name":"balanceOfByPartition","outputs":[{"internalType":"uint256","name":"","type":"uint256"}],"stateMutability":"view","type":"function"},{"inputs":[{"internalType":"address","name":"to","type":"address"},{"internalType":"uint256","name":"value","type":"uint256"},{"internalType":"bytes","name":"","type":"bytes"}],"name":"canTransfer","outputs":[{"internalType":"bytes1","name":"reasonCode","type":"bytes1"},{"internalType":"bytes32","name":"appCode","type":"bytes32"}],"stateMutability":"view","type":"function"},{"inputs":[{"internalType":"bytes32","name":"partition","type":"bytes32"},{"internalType":"address","name":"to","type":"address"},{"internalType":"uint256","name":"value","type":"uint256"},{"internalType":"bytes","name":"","type":"bytes"}],"name":"canTransferByPartition","outputs":[{"internalType":"bytes1","name":"reasonCode","type":"bytes1"},{"internalType":"bytes32","name":"appCode","type":"bytes32"}],"stateMutability":"view","type":"function"},{"inputs":[],"name":"compliance","outputs":[{"internalType":"contract ICompliance","name":"","type":"address"}],"stateMutability":"view","type":"function"},{"inputs":[],"name":"controller","outputs":[{"internalType":"address","name":"","type":"address"}],"stateMutability":"view","type":"function"},{"inputs":[{"internalType":"address","name":"from","type":"address"},{"internalType":"address","name":"to","type":"address"},{"internalType":"uint256","name":"value","type":"uint256"},{"internalType":"bytes","name":"data","type":"bytes"},{"internalType":"bytes","name":"operatorData","type":"bytes"}],"name":"controllerTransfer","outputs":[],"stateMutability":"nonpayable","type":"function"},{"inputs":[],"name":"decimals","outputs":[{"internalType":"uint8","name":"","type":"uint8"}],"stateMutability":"view","type":"function"},{"inputs":[{"internalType":"address","name":"addr","type":"address"},{"internalType":"bool","name":"freeze","type":"bool"}],"name":"freezeAddress","outputs":[],"stateMutability":"nonpayable","type":"function"},{"inputs":[{"internalType":"address","name":"addr","type":"address"},{"internalType":"uint256","name":"amount","type":"uint256"}],"name":"freezeTokens","outputs":[],"stateMutability":"nonpayable","type":"function"},{"inputs":[{"internalType":"address","name":"","type":"address"}],"name":"frozen","outputs":[{"internalType":"bool","name":"","type":"bool"}],"stateMutability":"view","type":"function"},{"inputs":[{"internalType":"address","name":"","type":"address"}],"name":"frozenTokens","outputs":[{"internalType":"uint256","name":"","type":"uint256"}],"stateMutability":"view","type":"function"},{"inputs":[],"name":"getAllDocuments","outputs":[{"internalType":"bytes32[]","name":"","type":"bytes32[]"}],"stateMutability":"view","type":"function"},{"inputs":[{"internalType":"address","name":"account","type":"address"}],"name":"getComplianceStatus","outputs":[{"internalType":"bool","name":"verified","type":"bool"},{"internalType":"bool","name":"addressFrozen","type":"bool"},{"internalType":"uint256","name":"frozenAmount","type":"uint256"},{"internalType":"bool","name":"canCurrentlyTransfer","type":"bool"}],"stateMutability":"view","type":"function"},{"inputs":[{"internalType":"bytes32","name":"_name","type":"bytes32"}],"name":"getDocument","outputs":[{"internalType":"string","name":"uri","type":"string"},{"internalType":"bytes32","name":"documentHash","type":"bytes32"},{"internalType":"uint256","name":"lastModified","type":"uint256"}],"stateMutability":"view","type":"function"},{"inputs":[{"internalType":"address","name":"addr","type":"address"}],"name":"getFrozenTokens","outputs":[{"internalType":"uint256","name":"","type":"uint256"}],"stateMutability":"view","type":"function"},{"inputs":[{"internalType":"address","name":"account","type":"address"}],"name":"getInvestorCountry","outputs":[{"internalType":"uint16","name":"","type":"uint16"}],"stateMutability":"view","type":"function"},{"inputs":[],"name":"getLoanSummary","outputs":[{"internalType":"string","name":"borrowerName","type":"string"},{"internalType":"uint256","name":"facilityAmount","type":"uint256"},{"internalType":"uint256","name":"interestRateBps","type":"uint256"},{"internalType":"uint256","name":"maturityDate","type":"uint256"},{"internalType":"string","name":"nelProtocolId","type":"string"},{"internalType":"uint256","name":"_totalSupply","type":"uint256"}],"stateMutability":"view","type":"function"},{"inputs":[],"name":"identityRegistry","outputs":[{"internalType":"contract IIdentityRegistry","name":"","type":"address"}],"stateMutability":"view","type":"function"},{"inputs":[],"name":"isControllable","outputs":[{"internalType":"bool","name":"","type":"bool"}],"stateMutability":"view","type":"function"},{"inputs":[{"internalType":"address","name":"addr","type":"address"}],"name":"isFrozen","outputs":[{"internalType":"bool","name":"","type":"bool"}],"stateMutability":"view","type":"function"},{"inputs":[{"internalType":"address","name":"tokenHolder","type":"address"},{"internalType":"uint256","name":"value","type":"uint256"},{"internalType":"bytes32","name":"partition","type":"bytes32"}],"name":"issue","outputs":[],"stateMutability":"nonpayable","type":"function"},{"inputs":[],"name":"loanDetails","outputs":[{"internalType":"string","name":"borrowerName","type":"string"},{"internalType":"uint256","name":"facilityAmount","type":"uint256"},{"internalType":"uint256","name":"interestRateBps","type":"uint256"},{"internalType":"uint256","name":"maturityDate","type":"uint256"},{"internalType":"string","name":"nelProtocolId","type":"string"},{"internalType":"bytes32","name":"documentHash","type":"bytes32"}],"stateMutability":"view","type":"function"},{"inputs":[],"name":"name","outputs":[{"internalType":"string","name":"","type":"string"}],"stateMutability":"view","type":"function"},{"inputs":[],"name":"owner","outputs":[{"internalType":"address","name":"","type":"address"}],"stateMutability":"view","type":"function"},{"inputs":[{"internalType":"address","name":"","type":"address"}],"name":"partitionsOf","outputs":[{"internalType":"bytes32[]","name":"","type":"bytes32[]"}],"stateMutability":"view","type":"function"},{"inputs":[],"name":"pause","outputs":[],"stateMutability":"nonpayable","type":"function"},{"inputs":[],"name":"paused","outputs":[{"internalType":"bool","name":"","type":"bool"}],"stateMutability":"view","type":"function"},{"inputs":[{"internalType":"address","name":"lostWallet","type":"address"},{"internalType":"address","name":"newWallet","type":"address"},{"internalType":"address","name":"investorIdentity","type":"address"}],"name":"recoveryAddress","outputs":[{"internalType":"bool","name":"","type":"bool"}],"stateMutability":"nonpayable","type":"function"},{"inputs":[{"internalType":"uint256","name":"value","type":"uint256"},{"internalType":"bytes32","name":"partition","type":"bytes32"}],"name":"redeem","outputs":[],"stateMutability":"nonpayable","type":"function"},{"inputs":[],"name":"renounceOwnership","outputs":[],"stateMutability":"nonpayable","type":"function"},{"inputs":[{"internalType":"address","name":"_compliance","type":"address"}],"name":"setCompliance","outputs":[],"stateMutability":"nonpayable","type":"function"},{"inputs":[{"internalType":"bool","name":"_isControllable","type":"bool"}],"name":"setControllable","outputs":[],"stateMutability":"nonpayable","type":"function"},{"inputs":[{"internalType":"address","name":"newController","type":"address"}],"name":"setController","outputs":[],"stateMutability":"nonpayable","type":"function"},{"inputs":[{"internalType":"bytes32","name":"_name","type":"bytes32"},{"internalType":"string","name":"_uri","type":"string"},{"internalType":"bytes32","name":"_documentHash","type":"bytes32"}],"name":"setDocument","outputs":[],"stateMutability":"nonpayable","type":"function"},{"inputs":[{"internalType":"address","name":"_identityRegistry","type":"address"}],"name":"setIdentityRegistry","outputs":[],"stateMutability":"nonpayable","type":"function"},{"inputs":[],"name":"symbol","outputs":[{"internalType":"string","name":"","type":"string"}],"stateMutability":"view","type":"function"},{"inputs":[],"name":"totalSupply","outputs":[{"internalType":"uint256","name":"","type":"uint256"}],"stateMutability":"view","type":"function"},{"inputs":[{"internalType":"bytes32","name":"partition","type":"bytes32"},{"internalType":"address","name":"to","type":"address"},{"internalType":"uint256","name":"value","type":"uint256"},{"internalType":"bytes","name":"data","type":"bytes"}],"name":"transferByPartition","outputs":[{"internalType":"bytes32","name":"","type":"bytes32"}],"stateMutability":"nonpayable","type":"function"},{"inputs":[{"internalType":"address","name":"newOwner","type":"address"}],"name":"transferOwnership","outputs":[],"stateMutability":"nonpayable","type":"function"},{"inputs":[{"internalType":"address","name":"addr","type":"address"},{"internalType":"uint256","name":"amount","type":"uint256"}],"name":"unfreezeTokens","outputs":[],"stateMutability":"nonpayable","type":"function"},{"inputs":[],"name":"unpause","outputs":[],"stateMutability":"nonpayable","type":"function"},{"inputs":[{"internalType":"bytes32","name":"_documentHash","type":"bytes32"}],"name":"updateDocumentHash","outputs":[],"stateMutability":"nonpayable","type":"function"},{"inputs":[{"internalType":"string","name":"_nelProtocolId","type":"string"}],"name":"updateNelProtocolId","outputs":[],"stateMutability":"nonpayable","type":"function"}],"evm":{"bytecode":{"linkReferences":{},"object":"6080604052346200091e5762003470803803806200001d8162000923565b9283398101610140828203126200091e5781516001600160401b0381116200091e57816200004d91840162000949565b60208301516001600160401b0381116200091e57826200006f91850162000949565b60408401519093906001600160401b0381116200091e57836200009491830162000949565b9360608201519360808301519060a08401519060c08501519060018060401b0382116200091e57620000c891860162000949565b9160e085015193620000ed610120620000e56101008901620009bb565b9701620009bb565b963315620009055760008054336001600160a01b0319821681178355916001600160a01b03909116907f8be0079c531659141344cd1fd0a4f28419497f9722a3daafe3b4186f6b6457e09080a3600180556015805460ff60a01b1916600160a01b1790558051906001600160401b038211620004d15760025490600182811c92168015620008fa575b6020831014620005ec5781601f84931162000899575b50602090601f83116001146200081b576000926200080f575b50508160011b916000199060031b1c1916176002555b8051906001600160401b038211620004d15760035490600182811c9216801562000804575b6020831014620005ec5781601f84931162000792575b50602090601f83116001146200070357600092620006f7575b50508160011b916000199060031b1c1916176003555b601580546001600160a01b03191633179055604051966001600160401b0360c0890190811190891117620004d15760c08801604052888852602088015260408701526060860152608085015260a0840152835160018060401b038111620004d157600754600181811c91168015620006ec575b6020821014620005ec57601f811162000686575b50602094601f821160011462000619579481929394956000926200060d575b50508160011b916000199060031b1c1916176007555b602083015160085560408301516009556060830151600a55608083015180519093906001600160401b038111620004d157600b54600181811c9116801562000602575b6020821014620005ec57601f811162000582575b506020601f8211600114620004f357819060a0949596600092620004e7575b50508160011b916000199060031b1c191617600b555b0151600c55600f8054680100000000000000009081811015620004d15760018101808455811015620004bb577f58c79ae79fbe82c16dfa44996f2e5b5ae2e8c2ab6c4c85cfb5fa475f0462adb6908360005260206000200155815490811015620004d15760018101808355811015620004bb57600091825260209091207f1192b9320ade30d998a9dab748128b191df1d6d75dc189689897cd43081634869101556001600160a01b0316806200047d575b506001600160a01b0316806200043f575b604051612a7f9081620009d18239f35b600680546001600160a01b031916821790557fa970409706553acbb8c86c1bc79621a1e9decfe2e5f083d3ee9dc215d07cea39600080a2386200042f565b600580546001600160a01b031916821790557f8aa6172b9dcbe4f05892121059bc535d4743d706ba3ac6cbabf4a40de229e388600080a2386200041e565b634e487b7160e01b600052603260045260246000fd5b634e487b7160e01b600052604160045260246000fd5b01519050388062000357565b600b60009081527f0175b7a638427703f0dbe7bb9bbf987a2551717b34e79f33b5b1008d1fa01db99690601f198416905b8181106200056957509160a0959697918460019594106200054f575b505050811b01600b556200036d565b015160001960f88460031b161c1916905538808062000540565b8383015189556001909801976020938401930162000524565b600b6000527f0175b7a638427703f0dbe7bb9bbf987a2551717b34e79f33b5b1008d1fa01db9601f830160051c81019160208410620005e1575b601f0160051c01905b818110620005d4575062000338565b60008155600101620005c5565b9091508190620005bc565b634e487b7160e01b600052602260045260246000fd5b90607f169062000324565b015190503880620002cb565b601f19821695600760005260206000209160005b8881106200066d5750836001959697981062000653575b505050811b01600755620002e1565b015160001960f88460031b161c1916905538808062000644565b919260206001819286850151815501940192016200062d565b60076000527fa66cc928b5edb82af9bd49922954155ab7b0942694bea4ce44661d9a8736c688601f830160051c810160208410620006e4575b601f830160051c82018110620006d7575050620002ac565b60008155600101620006bf565b5080620006bf565b90607f169062000298565b0151905038806200020f565b6003600090815293507fc2575a0e9e593c00f959f8c92f12db2869c3395a3b0502d05e2516446f71f85b91905b601f198416851062000776576001945083601f198116106200075c575b505050811b0160035562000225565b015160001960f88460031b161c191690553880806200074d565b8181015183556020948501946001909301929091019062000730565b60036000529091507fc2575a0e9e593c00f959f8c92f12db2869c3395a3b0502d05e2516446f71f85b601f840160051c810160208510620007fc575b90849392915b601f830160051c82018110620007ec575050620001f6565b60008155859450600101620007d4565b5080620007ce565b91607f1691620001e0565b015190503880620001a5565b6002600090815293506000805160206200345083398151915291905b601f19841685106200087d576001945083601f1981161062000863575b505050811b01600255620001bb565b015160001960f88460031b161c1916905538808062000854565b8181015183556020948501946001909301929091019062000837565b600260005290915060008051602062003450833981519152601f840160051c810160208510620008f2575b90849392915b601f830160051c82018110620008e25750506200018c565b60008155859450600101620008ca565b5080620008c4565b91607f169162000176565b604051631e4fbdf760e01b815260006004820152602490fd5b600080fd5b6040519190601f01601f191682016001600160401b03811183821017620004d157604052565b919080601f840112156200091e5782516001600160401b038111620004d1576020906200097f601f8201601f1916830162000923565b928184528282870101116200091e5760005b818110620009a757508260009394955001015290565b858101830151848201840152820162000991565b51906001600160a01b03821682036200091e5756fe6040608081526004908136101561001557600080fd5b600091823560e01c8063010648ca14611bfd57806306fdde0314611b2e57806308881afa14611b05578063134e18f414611adc57806313b1d14414611aab578063158b1a5714610ae057806318160ddd14611a8e5780631badb25c14611a4057806322e4e61d146118ac5780632b0ddb911461188d57806330e828031461184d578063313ce5671461183257806336f6efc61461181357806338389e58146116bf5780633f4ba83a146116745780634c783bf51461164d57806350b1f3561461162e5780635c975abb1461160a5780636290865d146115e1578063694df50a146115685780636ce5891d1461151d57806370a08231146114e5578063715018a61461149d578063740ab8f41461143157806377777e0c1461140f5780637c8fd218146113105780638456cb59146112c257806388f2740d146112995780638da5cb5b14611271578063921271261461122f5780639285948a14610f6f57806392eefe9b14610f2a5780639418c91a14610f0b57806395cb741d14610e9b57806395d89b4114610db95780639fa5f50b14610d30578063a4df6c6a14610c6e578063a66b0f3a14610c23578063b10d6b4114610b37578063b78bd21b14610b18578063bfd8580814610ae0578063cbf3f86114610a3d578063d0516650146109e0578063d0a6d1a614610a1e578063e5839836146109e0578063e9b2f0ad14610923578063ea3f068d14610744578063f282527a146105c1578063f2fde38b1461054b578063f3d490db14610332578063f77c4791146103055763f89817891461025d57600080fd5b34610301576020366003190112610301576102766120e2565b61027e612194565b6001600160a01b03169182156102c9575050600680546001600160a01b031916821790557fa970409706553acbb8c86c1bc79621a1e9decfe2e5f083d3ee9dc215d07cea398280a280f35b906020606492519162461bcd60e51b83528201526012602482015271494e56414c49445f434f4d504c49414e434560701b6044820152fd5b8280fd5b50503461032e578160031936011261032e5760155490516001600160a01b039091168152602090f35b5080fd5b5091903461032e5761034336612149565b50509091936103506127b6565b61035f60ff601054161561277b565b3381526020956011875260ff858320541661051757610380868486336124e5565b908651916f2a2920a729a322a92fa320a4a622a21d60811b8a8401526030830152603082526103ae82611ee5565b6001600160f81b03191660af60f81b016104f2575085600052600d875284600020336000528752846000206103e48482546121fa565b905585600052600d8752846000209360018060a01b0380821695866000528952866000206104138682546127d9565b905533600052600e89528660002061042c8682546121fa565b905585600052600e8952866000206104458682546127d9565b905560065416918261048b575b505050508251908152837f0f527c5f31fde91835354ad82e863e96d8637df7a0254bfb42879978fc047e56863393a46001805551908152f35b823b156104ee576104b79284928387938a51968795869485936322ebca6d60e21b8552339085016121d8565b03925af180156104e4576104cd575b8080610452565b6104d78291611f16565b6104e157806104c6565b80fd5b85513d84823e3d90fd5b8380fd5b855162461bcd60e51b815291820188905281906105139060248301906120a2565b0390fd5b845162461bcd60e51b8152908101879052600e60248201526d20a2222922a9a9afa32927ad22a760911b6044820152606490fd5b5034610301576020366003190112610301576105656120e2565b9061056e612194565b6001600160a01b039182169283156105ab5750506000548260018060a01b031982161760005516600080516020612a0a833981519152600080a380f35b51631e4fbdf760e01b8152908101849052602490fd5b5082903461032e5760a036600319011261032e576105dd6120e2565b926105e66120f8565b6001600160401b0392604435916064358581116107405761060a9036908401611e7e565b92909560843590811161073c576106249036908301611e7e565b601554909791946001600160a01b0393909184811633036107085760a01c60ff16156106d25750898685818a878e9f9e9d9e169c8d8152600e6020522054101561066d906128b1565b610676926127e6565b865196879633885260208801528601608090526080860190610697926128f4565b91848303606086015216956106ab926128f4565b037f6bf62b4b9c7b768275122bf70d429efc398a056d669b1efdf6c3976346246d7d91a380f35b606490602089519162461bcd60e51b8352820152601060248201526f4e4f545f434f4e54524f4c4c41424c4560801b6044820152fd5b885162461bcd60e51b8152602081840152600e60248201526d2727aa2fa1a7a72a2927a62622a960911b6044820152606490fd5b8780fd5b8680fd5b50346103015760603660031901126103015761075e6120e2565b91602435846044359361076f612194565b6005546001600160a01b039690871680610873575b50858352600d602052848320968082169788600052602052856000206107ab8682546127d9565b9055878452600e6020528584206107c38682546127d9565b90556107d08584546127d9565b8355600654169182610811575b505050507fea5027ca690118a868ddc2cd8aab5af666df70818535852e44e807ac5f77a6cb9282519182526020820152a280f35b823b156104ee5761083b928492838793895196879586948593635f8dead360e01b85528401612896565b03925af1801561086957610851575b80806107dd565b61085a90611f16565b61086557843861084a565b8480fd5b84513d84823e3d90fd5b60249192935060209086519283809263b9209e3360e01b82528b8716888301525afa9081156109195788916108eb575b50156108b25790869138610784565b835162461bcd60e51b815260208184015260136024820152721213d311115497d393d517d591549251925151606a1b6044820152606490fd5b61090c915060203d8111610912575b6109048183611f29565b8101906121c0565b386108a3565b503d6108fa565b85513d8a823e3d90fd5b50903461030157806003193601126103015761093d6120e2565b906024359161094a612194565b6001600160a01b031680855260126020528185205490939083116109ad57507f9bed35cb62ad0dba04f9d5bfee4b5bc91443e77da8a65c4c84834c51bb08b0d691602091848652601283528086206109a38382546121fa565b905551908152a280f35b6020606492519162461bcd60e51b8352820152600e60248201526d22ac21a2a2a229afa32927ad22a760911b6044820152fd5b50503461032e57602036600319011261032e5760209160ff9082906001600160a01b03610a0b6120e2565b1681526011855220541690519015158152f35b50503461032e578160031936011261032e5751605160f81b8152602090f35b503461030157602036600319011261030157610a576120e2565b610a5f612194565b6001600160a01b0316918215610aaa575050600580546001600160a01b031916821790557f8aa6172b9dcbe4f05892121059bc535d4743d706ba3ac6cbabf4a40de229e3888280a280f35b906020606492519162461bcd60e51b8352820152601060248201526f494e56414c49445f524547495354525960801b6044820152fd5b50503461032e57602036600319011261032e5760209181906001600160a01b03610b086120e2565b1681526012845220549051908152f35b50503461032e578160031936011261032e5751602b60f91b8152602090f35b5091346104e1576020928360031936011261032e57908291358152601384522091815191610b6483611ee5565b8051926000855490610b7582611eab565b808752600192808416908115610c085750600114610bd5575b50916002610bca9792610ba48887960389611f29565b8783528301549283878401520154938491015281519586956060875260608701906120a2565b938501528301520390f35b60008881528681209092505b818310610bf5575050850184016002610b8e565b8054888401880152918601918301610be1565b60ff19168789015250151560051b8601850190506002610b8e565b83823461032e57602036600319011261032e5735801515809103610c6957610c49612194565b6015805460ff60a01b191660a09290921b60ff60a01b1691909117905580f35b600080fd5b509034610301578060031936011261030157610c886120e2565b9060243591610c95612194565b60018060a01b031692838552600e602052818520546012602052610cbc84848820546127d9565b11610cfc57507fa065e63c631c86f1b9f66a4a2f63f2093bf1c2168d23290259dbd969e0222a4591602091848652601283528086206109a38382546127d9565b6020606492519162461bcd60e51b8352820152600f60248201526e455843454544535f42414c414e434560881b6044820152fd5b8284346104e157806003193601126104e157508051601480548083526000918252602080840194927fce6d7b5282bd9a3661ae061feed1dbda4e52ab073b1f9285be6e155d9c38d4ec92915b828210610da257610d9e8686610d94828b0383611f29565b519182918261210e565b0390f35b835487529586019560019384019390910190610d7c565b8284346104e157806003193601126104e157508051600091600354610ddd81611eab565b808452600191808316908115610e735750600114610e19575b5050610e0782610d9e940383611f29565b519182916020835260208301906120a2565b6003600090815260209550917fc2575a0e9e593c00f959f8c92f12db2869c3395a3b0502d05e2516446f71f85b5b828410610e6057505050820190920191610e0782610df6565b8054868501880152928601928101610e47565b610d9e9650610e0793506020915091859260ff191682840152151560051b8201019450610df6565b50503461032e578160031936011261032e57610ee690610eb9611f4c565b90610f01600854600954600a54610ece612009565b91600c5495805198899860c08a5260c08a01906120a2565b946020890152870152606086015284820360808601526120a2565b9060a08301520390f35b50503461032e578160031936011261032e5751605560f81b8152602090f35b83346104e15760203660031901126104e157610f446120e2565b610f4c612194565b601580546001600160a01b0319166001600160a01b039290921691909117905580f35b50903461030157606036600319011261030157610f8a6120e2565b92610f936120f8565b926001600160a01b036044358181169490859003610c6957610fb3612194565b8187169283151580611224575b156111ee5782600554168061112e575b5050907ff0c9129a94f30f1caaceb63e44b9811d0a3edf1d6c23757f346093af5553fed091838552602097600e89528186205461103e575b50838552601288528085205480611027575b505195169280a460018152f35b82881686528186205583855284818120553861101a565b600080516020612a2a8339815191528652600d89528186208560005289528160002054888161111d575b5050506000805160206129aa833981519152808652600d89528186208560005289528160002054908161109c575b50611008565b80600052600d8a5282600020866000528a52826000206110bd8382546121fa565b9055600052600d89528160002083891690816000528a52826000206110e38382546127d9565b905585600052600e8a52826000206110fc8382546121fa565b9055600052600e8952611114826000209182546127d9565b90553880611096565b611126926127e6565b388088611068565b6020602491845192838092633c3ad79560e21b8252888d16878301525afa9081156111e4578791859188916111a1575b50160361116b5780610fd0565b6020606492519162461bcd60e51b83528201526011602482015270092888a9ca892a8b2be9a92a69a82a8869607b1b6044820152fd5b925050506020813d82116111dc575b816111bd60209383611f29565b810103126111d8575183811681036111d8578387913861115e565b8580fd5b3d91506111b0565b83513d88823e3d90fd5b6020606492519162461bcd60e51b83528201526011602482015270494e56414c49445f41444452455353455360781b6044820152fd5b508287161515610fc0565b50503461032e57610d9e9061124f61124636612149565b505090336124e5565b91516001600160f81b0319909116815260208101919091529081906040820190565b50503461032e578160031936011261032e57905490516001600160a01b039091168152602090f35b50503461032e578160031936011261032e5760209051600080516020612a2a8339815191528152f35b83346104e157806003193601126104e1576112db612194565b600160ff196010541617601055337f62e78cea01bee320cd4e420270b5ea74000d11b0c9f74754ebdbfc544b05a2588280a280f35b5082346104e15760208060031936011261032e5761132c6120e2565b6005546001600160a01b0390811680159591929186156113a4575b50509160809591859493168352601181528160ff818520541693601283522054928461139b575b8461138d575b8251951515865215159085015283015215156060820152f35b60105460ff16159450611374565b8015945061136e565b879396506024859396959298518099819363b9209e3360e01b83528a8a16908301525afa80156114035760809684916113e6575b509491958794919394611347565b6113fd9150823d8411610912576109048183611f29565b876113d8565b505051903d90823e3d90fd5b83823461032e57602036600319011261032e5761142a612194565b35600c5580f35b50503461032e57602091826003193601126104e15750906114506120e2565b50815191829180600f54948581520193600f60005281600020916000905b82821061148657610d9e8686610d94828b0383611f29565b83548752958601956001938401939091019061146e565b83346104e157806003193601126104e1576114b6612194565b600080546001600160a01b0319811682556001600160a01b0316600080516020612a0a8339815191528280a380f35b50503461032e57602036600319011261032e5760209181906001600160a01b0361150d6120e2565b168152600e845220549051908152f35b5034610301578260031936011261030157610ee69250610f0160085460095493600a5493549361154b611f4c565b95611554612009565b92805198899860c08a5260c08a01906120a2565b50503461032e578060031936011261032e576115826120e2565b9060243591821515809303610c6957611599612194565b6001600160a01b03168084526011602052908320805460ff191660ff84161790557fa3e40a317eac9d2f33de1f67819e7103be50ca171b0559ba3ef1313e2e9c9ed48380a380f35b50503461032e578160031936011261032e5760065490516001600160a01b039091168152602090f35b50503461032e578160031936011261032e5760209060ff6010541690519015158152f35b50503461032e578160031936011261032e5751602960f91b8152602090f35b50503461032e578160031936011261032e5760209060ff60155460a01c1690519015158152f35b83346104e157806003193601126104e15761168d612194565b60ff1960105416601055337f5db9ee0a495bf2e6ff9c91a7834c1ba4fdd244a5e8aa4e537bd38aeae4b073aa8280a280f35b5082346104e1576020918260031936011261032e576001600160401b0381358181116104ee576116f29036908401611e7e565b9290916116fd612194565b8311611800575061170f600b54611eab565b601f81116117b9575b508293601f8311600114611755575092829382939261174a575b50508160011b916000199060031b1c191617600b5580f35b013590508380611732565b90601f19831694600b85528285209285905b8782106117a1575050836001959610611787575b505050811b01600b5580f35b0135600019600384901b60f8161c1916905583808061177b565b80600184968294958701358155019501920190611767565b600b60005284600020601f840160051c8101918685106117f6575b601f0160051c01905b8181106117ea5750611718565b600081556001016117dd565b90915081906117d4565b634e487b7160e01b845260419052602483fd5b50503461032e578160031936011261032e5751600b60fb1b8152602090f35b50503461032e578160031936011261032e5751908152602090f35b50346103015781600319360112610301578160209361186a6120f8565b92358152600d8552209060018060a01b0316600052825280600020549051908152f35b50503461032e578160031936011261032e5751605760f81b8152602090f35b5091903461032e578060031936011261032e578235906024356118cd6127b6565b6118dc60ff601054161561277b565b808452602094600d865282852033865286526118fd848487205410156128b1565b818552600d8652828520338652865283611922848720546012895285882054906121fa565b10611a0d57818552600d865282852033865286528285206119448582546121fa565b9055338552600e865282852061195b8582546121fa565b90556119688482546121fa565b81556006546001600160a01b031690816119a3575b50506000805160206129ea83398151915292939482519485528401523392a26001805580f35b813b156111d857846119cd92879283875180968195829463469753b960e11b845233908401612896565b03925af18015611a03576119e2575b8061197d565b936119fc6000805160206129ea8339815191529495611f16565b93926119dc565b83513d87823e3d90fd5b825162461bcd60e51b8152908101869052600d60248201526c2a27a5a2a729afa32927ad22a760991b6044820152606490fd5b503461030157606036600319011261030157611a5a6120e2565b92604435906001600160401b0382116104e1575092611a8261124f92610d9e95369101611e7e565b5050602435903361221d565b503461030157826003193601126103015760209250549051908152f35b50503461032e57602036600319011261032e5760209061ffff611ad4611acf6120e2565b612915565b915191168152f35b50503461032e578160031936011261032e5760055490516001600160a01b039091168152602090f35b50503461032e578160031936011261032e57602090516000805160206129aa8339815191528152f35b50503461032e578160031936011261032e5780519082600254611b5081611eab565b80855290600190818116908115611bd55750600114611b7c575b505050610e0782610d9e940383611f29565b60028352602095507f405787fa12a823e0f2b7631cc41b3ba8828b3321ca811111fa75cd3aa3bb5ace5b828410611bc25750505082610d9e94610e079282010194611b6a565b8054868501880152928601928101611ba6565b610d9e9750610e079450602092508693915060ff191682840152151560051b82010194611b6a565b5082903461032e57606036600319011261032e576001600160401b03928135919060243585811161086557611c359036908401611e7e565b92909560443590611c44612194565b858752602092601384526002858920015415611e3d575b845191611c6783611ee5565b808711611e2a578551601f199190611c86601f8a018416880182611f29565b88815236898d0111611e2657888c888301378a878a83010152845285840191858352878501934285528a8c5260138852888c209551908151938411611e135750611cd08654611eab565b601f8111611dcb575b508791601f8411600114611d51575092826002938d9e9693611d3c98966000805160206129ca8339815191529e9f92611d46575b50508160011b916000199060031b1c19161784555b5160018401555191015584519585879687528601916128f4565b918301520390a280f35b015190508f80611d0d565b868d52888d2092919084168d5b818110611db45750936000805160206129ca8339815191529c9d9e9693611d3c9896936001938360029810611d9b575b505050811b018455611d22565b015160001960f88460031b161c191690558f8080611d8e565b92938a600181928786015181550195019301611d5e565b868d52888d20601f850160051c8101918a8610611e09575b601f0160051c01908d905b828110611dfc575050611cd9565b6001918155018d90611dee565b9091508190611de3565b634e487b7160e01b8d526041905260248cfd5b8a80fd5b634e487b7160e01b895260418252602489fd5b601454600160401b811015611e2a576001810180601455811015611e6b57879060148a52858a200155611c5b565b634e487b7160e01b895260328252602489fd5b9181601f84011215610c69578235916001600160401b038311610c695760208381860195010111610c6957565b90600182811c92168015611edb575b6020831014611ec557565b634e487b7160e01b600052602260045260246000fd5b91607f1691611eba565b606081019081106001600160401b03821117611f0057604052565b634e487b7160e01b600052604160045260246000fd5b6001600160401b038111611f0057604052565b601f909101601f19168101906001600160401b03821190821017611f0057604052565b6040519060008260075491611f6083611eab565b808352600193808516908115611fe85750600114611f88575b50611f8692500383611f29565b565b600760009081527fa66cc928b5edb82af9bd49922954155ab7b0942694bea4ce44661d9a8736c68894602093509091905b818310611fd0575050611f86935082010138611f79565b85548884018501529485019487945091830191611fb9565b9050611f8694506020925060ff191682840152151560051b82010138611f79565b60405190600082600b549161201d83611eab565b808352600193808516908115611fe857506001146120425750611f8692500383611f29565b600b60009081527f0175b7a638427703f0dbe7bb9bbf987a2551717b34e79f33b5b1008d1fa01db994602093509091905b81831061208a575050611f86935082010138611f79565b85548884018501529485019487945091830191612073565b919082519283825260005b8481106120ce575050826000602080949584010152601f8019910116010190565b6020818301810151848301820152016120ad565b600435906001600160a01b0382168203610c6957565b602435906001600160a01b0382168203610c6957565b6020908160408183019282815285518094520193019160005b828110612135575050505090565b835185529381019392810192600101612127565b906080600319830112610c6957600435916024356001600160a01b0381168103610c69579160443591606435906001600160401b038211610c695761219091600401611e7e565b9091565b6000546001600160a01b031633036121a857565b60405163118cdaa760e01b8152336004820152602490fd5b90816020910312610c6957518015158103610c695790565b6001600160a01b03918216815291166020820152604081019190915260600190565b9190820391821161220757565b634e487b7160e01b600052601160045260246000fd5b92919060ff601054166124c85760018060a01b038085166000958187526020936011855260409360ff858a2054166124a557808216808a5260ff868b20541661247f57908793929181600554169081612370575b50506006541691826122e0575b5050600080516020612a2a83398151915288525050600d835281862090865282528085205460129092528420546122b4916121fa565b106122c257605160f81b9190565b602960f91b91506f125394d551919250d251539517d0905360821b90565b85516372331c7360e11b8152938793859390928492839261230492600485016121d8565b03915afa908115612366578791612349575b5015612325578338808061227e565b50600b60fb1b94507010d3d3541312505390d157d19052531151607a1b9392505050565b6123609150843d8611610912576109048183611f29565b38612316565b83513d89823e3d90fd5b909192939450865163b9209e3360e01b908181528760048201528981602481875afa908115612475578d91612458575b501561242c57906024899289519485938492835260048301525afa908115612422578a91612405575b50156123da57908692913880612271565b50605760f81b975074149150d15255915497d393d517d591549251925151605a1b9695505050505050565b61241c9150873d8911610912576109048183611f29565b386123c9565b86513d8c823e3d90fd5b50602b60f91b9a507214d15391115497d393d517d591549251925151606a1b9998505050505050505050565b61246f91508a3d8c11610912576109048183611f29565b386123a0565b89513d8f823e3d90fd5b50605760f81b98506e2922a1a2a4ab22a92fa32927ad22a760891b979650505050505050565b50602b60f91b97506c29a2a72222a92fa32927ad22a760991b9695505050505050565b50605560f81b92506b1513d2d15397d4105554d15160a21b919050565b939260ff6010541661275d5760018060a01b0390818616906000968288526020946011865260409460ff868b20541661273957808216808b5260ff878c20541661271257908893929181600554169081612600575b505060065416918261256f575b50505090875250600d835281862090865282528085205460129092528420546122b4916121fa565b86516372331c7360e11b8152938893859390928492839261259392600485016121d8565b03915afa9081156125f65788916125d9575b50156125b45784388080612547565b50600b60fb1b95507010d3d3541312505390d157d19052531151607a1b949350505050565b6125f09150853d8711610912576109048183611f29565b386125a5565b84513d8a823e3d90fd5b90919293945087518c63b9209e3360e01b918281528960048201528b81602481885afa91821561270757916126ea575b50156126bd579060248a928a519485938492835260048301525afa9081156126b3578b91612696575b501561266a5790879291388061253a565b50605760f81b985074149150d15255915497d393d517d591549251925151605a1b979650505050505050565b6126ad9150883d8a11610912576109048183611f29565b38612659565b87513d8d823e3d90fd5b50602b60f91b9b507214d15391115497d393d517d591549251925151606a1b9a9950505050505050505050565b61270191508b3d8d11610912576109048183611f29565b38612630565b8b51903d90823e3d90fd5b50605760f81b99506e2922a1a2a4ab22a92fa32927ad22a760891b98975050505050505050565b50602b60f91b98506c29a2a72222a92fa32927ad22a760991b979650505050505050565b50605560f81b93506b1513d2d15397d4105554d15160a21b92915050565b1561278257565b60405162461bcd60e51b815260206004820152600c60248201526b1513d2d15397d4105554d15160a21b6044820152606490fd5b6002600154146127c7576002600155565b604051633ee5aeb560e01b8152600490fd5b9190820180921161220757565b6001600160a01b0390811660008181527ff03f8047692cb11e5dc30d3a50e5e651fc447d79923e48ac7237a4de0554fd096020908152604080832080546128929792969495600e9590929091600080516020612a2a833981519152919061284e908c906121fa565b90558652600d8452868620921691828652835285852061286f8982546127d9565b905584528282528484206128848882546121fa565b9055835252209182546127d9565b9055565b6001600160a01b039091168152602081019190915260400190565b156128b857565b60405162461bcd60e51b8152602060048201526014602482015273494e53554646494349454e545f42414c414e434560601b6044820152606490fd5b908060209392818452848401376000828201840152601f01601f1916010190565b6005546001600160a01b03908116919082156129a15760246020926040519485938492637e42683b60e01b84521660048301525afa9081156129955760009161295c575090565b6020813d821161298d575b8161297460209383611f29565b8101031261032e57519061ffff821682036104e1575090565b3d9150612967565b6040513d6000823e3d90fd5b50505060009056fe1192b9320ade30d998a9dab748128b191df1d6d75dc189689897cd4308163486b4c22d60cd550a815744f04e3ff5278bf19684565ee00e2b084041b6024bd6f63be2edea458ae9d9dd885a96aa23c988b15277ec0f613d273e6fcc4a27e610ff8be0079c531659141344cd1fd0a4f28419497f9722a3daafe3b4186f6b6457e058c79ae79fbe82c16dfa44996f2e5b5ae2e8c2ab6c4c85cfb5fa475f0462adb6a2646970667358221220cbf4f3ab42aaf9a165c25ff11f3b08c6e2f6d76f0a322438ab625a0d46f50ff564736f6c63430008140033405787fa12a823e0f2b7631cc41b3ba8828b3321ca811111fa75cd3aa3bb5ace","opcodes":"PUSH1 0x80 PUSH1 0x40 MSTORE CALLVALUE PUSH3 0x91E JUMPI PUSH3 0x3470 DUP1 CODESIZE SUB DUP1 PUSH3 0x1D DUP2 PUSH3 0x923 JUMP JUMPDEST SWAP3 DUP4 CODECOPY DUP2 ADD PUSH2 0x140 DUP3 DUP3 SUB SLT PUSH3 0x91E JUMPI DUP2 MLOAD PUSH1 0x1 PUSH1 0x1 PUSH1 0x40 SHL SUB DUP2 GT PUSH3 0x91E JUMPI DUP2 PUSH3 0x4D SWAP2 DUP5 ADD PUSH3 0x949 JUMP JUMPDEST PUSH1 0x20 DUP4 ADD MLOAD PUSH1 0x1 PUSH1 0x1 PUSH1 0x40 SHL SUB DUP2 GT PUSH3 0x91E JUMPI DUP3 PUSH3 0x6F SWAP2 DUP6 ADD PUSH3 0x949 JUMP JUMPDEST PUSH1 0x40 DUP5 ADD MLOAD SWAP1 SWAP4 SWAP1 PUSH1 0x1 PUSH1 0x1 PUSH1 0x40 SHL SUB DUP2 GT PUSH3 0x91E JUMPI DUP4 PUSH3 0x94 SWAP2 DUP4 ADD PUSH3 0x949 JUMP JUMPDEST SWAP4 PUSH1 0x60 DUP3 ADD MLOAD SWAP4 PUSH1 0x80 DUP4 ADD MLOAD SWAP1 PUSH1 0xA0 DUP5 ADD MLOAD SWAP1 PUSH1 0xC0 DUP6 ADD MLOAD SWAP1 PUSH1 0x1 DUP1 PUSH1 0x40 SHL SUB DUP3 GT PUSH3 0x91E JUMPI PUSH3 0xC8 SWAP2 DUP7 ADD PUSH3 0x949 JUMP JUMPDEST SWAP2 PUSH1 0xE0 DUP6 ADD MLOAD SWAP4 PUSH3 0xED PUSH2 0x120 PUSH3 0xE5 PUSH2 0x100 DUP10 ADD PUSH3 0x9BB JUMP JUMPDEST SWAP8 ADD PUSH3 0x9BB JUMP JUMPDEST SWAP7 CALLER ISZERO PUSH3 0x905 JUMPI PUSH1 0x0 DUP1 SLOAD CALLER PUSH1 0x1 PUSH1 0x1 PUSH1 0xA0 SHL SUB NOT DUP3 AND DUP2 OR DUP4 SSTORE SWAP2 PUSH1 0x1 PUSH1 0x1 PUSH1 0xA0 SHL SUB SWAP1 SWAP2 AND SWAP1 PUSH32 0x8BE0079C531659141344CD1FD0A4F28419497F9722A3DAAFE3B4186F6B6457E0 SWAP1 DUP1 LOG3 PUSH1 0x1 DUP1 SSTORE PUSH1 0x15 DUP1 SLOAD PUSH1 0xFF PUSH1 0xA0 SHL NOT AND PUSH1 0x1 PUSH1 0xA0 SHL OR SWAP1 SSTORE DUP1 MLOAD SWAP1 PUSH1 0x1 PUSH1 0x1 PUSH1 0x40 SHL SUB DUP3 GT PUSH3 0x4D1 JUMPI PUSH1 0x2 SLOAD SWAP1 PUSH1 0x1 DUP3 DUP2 SHR SWAP3 AND DUP1 ISZERO PUSH3 0x8FA JUMPI JUMPDEST PUSH1 0x20 DUP4 LT EQ PUSH3 0x5EC JUMPI DUP2 PUSH1 0x1F DUP5 SWAP4 GT PUSH3 0x899 JUMPI JUMPDEST POP PUSH1 0x20 SWAP1 PUSH1 0x1F DUP4 GT PUSH1 0x1 EQ PUSH3 0x81B JUMPI PUSH1 0x0 SWAP3 PUSH3 0x80F JUMPI JUMPDEST POP POP DUP2 PUSH1 0x1 SHL SWAP2 PUSH1 0x0 NOT SWAP1 PUSH1 0x3 SHL SHR NOT AND OR PUSH1 0x2 SSTORE JUMPDEST DUP1 MLOAD SWAP1 PUSH1 0x1 PUSH1 0x1 PUSH1 0x40 SHL SUB DUP3 GT PUSH3 0x4D1 JUMPI PUSH1 0x3 SLOAD SWAP1 PUSH1 0x1 DUP3 DUP2 SHR SWAP3 AND DUP1 ISZERO PUSH3 0x804 JUMPI JUMPDEST PUSH1 0x20 DUP4 LT EQ PUSH3 0x5EC JUMPI DUP2 PUSH1 0x1F DUP5 SWAP4 GT PUSH3 0x792 JUMPI JUMPDEST POP PUSH1 0x20 SWAP1 PUSH1 0x1F DUP4 GT PUSH1 0x1 EQ PUSH3 0x703 JUMPI PUSH1 0x0 SWAP3 PUSH3 0x6F7 JUMPI JUMPDEST POP POP DUP2 PUSH1 0x1 SHL SWAP2 PUSH1 0x0 NOT SWAP1 PUSH1 0x3 SHL SHR NOT AND OR PUSH1 0x3 SSTORE JUMPDEST PUSH1 0x15 DUP1 SLOAD PUSH1 0x1 PUSH1 0x1 PUSH1 0xA0 SHL SUB NOT AND CALLER OR SWAP1 SSTORE PUSH1 0x40 MLOAD SWAP7 PUSH1 0x1 PUSH1 0x1 PUSH1 0x40 SHL SUB PUSH1 0xC0 DUP10 ADD SWAP1 DUP2 GT SWAP1 DUP10 GT OR PUSH3 0x4D1 JUMPI PUSH1 0xC0 DUP9 ADD PUSH1 0x40 MSTORE DUP9 DUP9 MSTORE PUSH1 0x20 DUP9 ADD MSTORE PUSH1 0x40 DUP8 ADD MSTORE PUSH1 0x60 DUP7 ADD MSTORE PUSH1 0x80 DUP6 ADD MSTORE PUSH1 0xA0 DUP5 ADD MSTORE DUP4 MLOAD PUSH1 0x1 DUP1 PUSH1 0x40 SHL SUB DUP2 GT PUSH3 0x4D1 JUMPI PUSH1 0x7 SLOAD PUSH1 0x1 DUP2 DUP2 SHR SWAP2 AND DUP1 ISZERO PUSH3 0x6EC JUMPI JUMPDEST PUSH1 0x20 DUP3 LT EQ PUSH3 0x5EC JUMPI PUSH1 0x1F DUP2 GT PUSH3 0x686 JUMPI JUMPDEST POP PUSH1 0x20 SWAP5 PUSH1 0x1F DUP3 GT PUSH1 0x1 EQ PUSH3 0x619 JUMPI SWAP5 DUP2 SWAP3 SWAP4 SWAP5 SWAP6 PUSH1 0x0 SWAP3 PUSH3 0x60D JUMPI JUMPDEST POP POP DUP2 PUSH1 0x1 SHL SWAP2 PUSH1 0x0 NOT SWAP1 PUSH1 0x3 SHL SHR NOT AND OR PUSH1 0x7 SSTORE JUMPDEST PUSH1 0x20 DUP4 ADD MLOAD PUSH1 0x8 SSTORE PUSH1 0x40 DUP4 ADD MLOAD PUSH1 0x9 SSTORE PUSH1 0x60 DUP4 ADD MLOAD PUSH1 0xA SSTORE PUSH1 0x80 DUP4 ADD MLOAD DUP1 MLOAD SWAP1 SWAP4 SWAP1 PUSH1 0x1 PUSH1 0x1 PUSH1 0x40 SHL SUB DUP2 GT PUSH3 0x4D1 JUMPI PUSH1 0xB SLOAD PUSH1 0x1 DUP2 DUP2 SHR SWAP2 AND DUP1 ISZERO PUSH3 0x602 JUMPI JUMPDEST PUSH1 0x20 DUP3 LT EQ PUSH3 0x5EC JUMPI PUSH1 0x1F DUP2 GT PUSH3 0x582 JUMPI JUMPDEST POP PUSH1 0x20 PUSH1 0x1F DUP3 GT PUSH1 0x1 EQ PUSH3 0x4F3 JUMPI DUP2 SWAP1 PUSH1 0xA0 SWAP5 SWAP6 SWAP7 PUSH1 0x0 SWAP3 PUSH3 0x4E7 JUMPI JUMPDEST POP POP DUP2 PUSH1 0x1 SHL SWAP2 PUSH1 0x0 NOT SWAP1 PUSH1 0x3 SHL SHR NOT AND OR PUSH1 0xB SSTORE JUMPDEST ADD MLOAD PUSH1 0xC SSTORE PUSH1 0xF DUP1 SLOAD PUSH9 0x10000000000000000 SWAP1 DUP2 DUP2 LT ISZERO PUSH3 0x4D1 JUMPI PUSH1 0x1 DUP2 ADD DUP1 DUP5 SSTORE DUP2 LT ISZERO PUSH3 0x4BB JUMPI PUSH32 0x58C79AE79FBE82C16DFA44996F2E5B5AE2E8C2AB6C4C85CFB5FA475F0462ADB6 SWAP1 DUP4 PUSH1 0x0 MSTORE PUSH1 0x20 PUSH1 0x0 KECCAK256 ADD SSTORE DUP2 SLOAD SWAP1 DUP2 LT ISZERO PUSH3 0x4D1 JUMPI PUSH1 0x1 DUP2 ADD DUP1 DUP4 SSTORE DUP2 LT ISZERO PUSH3 0x4BB JUMPI PUSH1 0x0 SWAP2 DUP3 MSTORE PUSH1 0x20 SWAP1 SWAP2 KECCAK256 PUSH32 0x1192B9320ADE30D998A9DAB748128B191DF1D6D75DC189689897CD4308163486 SWAP2 ADD SSTORE PUSH1 0x1 PUSH1 0x1 PUSH1 0xA0 SHL SUB AND DUP1 PUSH3 0x47D JUMPI JUMPDEST POP PUSH1 0x1 PUSH1 0x1 PUSH1 0xA0 SHL SUB AND DUP1 PUSH3 0x43F JUMPI JUMPDEST PUSH1 0x40 MLOAD PUSH2 0x2A7F SWAP1 DUP2 PUSH3 0x9D1 DUP3 CODECOPY RETURN JUMPDEST PUSH1 0x6 DUP1 SLOAD PUSH1 0x1 PUSH1 0x1 PUSH1 0xA0 SHL SUB NOT AND DUP3 OR SWAP1 SSTORE PUSH32 0xA970409706553ACBB8C86C1BC79621A1E9DECFE2E5F083D3EE9DC215D07CEA39 PUSH1 0x0 DUP1 LOG2 CODESIZE PUSH3 0x42F JUMP JUMPDEST PUSH1 0x5 DUP1 SLOAD PUSH1 0x1 PUSH1 0x1 PUSH1 0xA0 SHL SUB NOT AND DUP3 OR SWAP1 SSTORE PUSH32 0x8AA6172B9DCBE4F05892121059BC535D4743D706BA3AC6CBABF4A40DE229E388 PUSH1 0x0 DUP1 LOG2 CODESIZE PUSH3 0x41E JUMP JUMPDEST PUSH4 0x4E487B71 PUSH1 0xE0 SHL PUSH1 0x0 MSTORE PUSH1 0x32 PUSH1 0x4 MSTORE PUSH1 0x24 PUSH1 0x0 REVERT JUMPDEST PUSH4 0x4E487B71 PUSH1 0xE0 SHL PUSH1 0x0 MSTORE PUSH1 0x41 PUSH1 0x4 MSTORE PUSH1 0x24 PUSH1 0x0 REVERT JUMPDEST ADD MLOAD SWAP1 POP CODESIZE DUP1 PUSH3 0x357 JUMP JUMPDEST PUSH1 0xB PUSH1 0x0 SWAP1 DUP2 MSTORE PUSH32 0x175B7A638427703F0DBE7BB9BBF987A2551717B34E79F33B5B1008D1FA01DB9 SWAP7 SWAP1 PUSH1 0x1F NOT DUP5 AND SWAP1 JUMPDEST DUP2 DUP2 LT PUSH3 0x569 JUMPI POP SWAP2 PUSH1 0xA0 SWAP6 SWAP7 SWAP8 SWAP2 DUP5 PUSH1 0x1 SWAP6 SWAP5 LT PUSH3 0x54F JUMPI JUMPDEST POP POP POP DUP2 SHL ADD PUSH1 0xB SSTORE PUSH3 0x36D JUMP JUMPDEST ADD MLOAD PUSH1 0x0 NOT PUSH1 0xF8 DUP5 PUSH1 0x3 SHL AND SHR NOT AND SWAP1 SSTORE CODESIZE DUP1 DUP1 PUSH3 0x540 JUMP JUMPDEST DUP4 DUP4 ADD MLOAD DUP10 SSTORE PUSH1 0x1 SWAP1 SWAP9 ADD SWAP8 PUSH1 0x20 SWAP4 DUP5 ADD SWAP4 ADD PUSH3 0x524 JUMP JUMPDEST PUSH1 0xB PUSH1 0x0 MSTORE PUSH32 0x175B7A638427703F0DBE7BB9BBF987A2551717B34E79F33B5B1008D1FA01DB9 PUSH1 0x1F DUP4 ADD PUSH1 0x5 SHR DUP2 ADD SWAP2 PUSH1 0x20 DUP5 LT PUSH3 0x5E1 JUMPI JUMPDEST PUSH1 0x1F ADD PUSH1 0x5 SHR ADD SWAP1 JUMPDEST DUP2 DUP2 LT PUSH3 0x5D4 JUMPI POP PUSH3 0x338 JUMP JUMPDEST PUSH1 0x0 DUP2 SSTORE PUSH1 0x1 ADD PUSH3 0x5C5 JUMP JUMPDEST SWAP1 SWAP2 POP DUP2 SWAP1 PUSH3 0x5BC JUMP JUMPDEST PUSH4 0x4E487B71 PUSH1 0xE0 SHL PUSH1 0x0 MSTORE PUSH1 0x22 PUSH1 0x4 MSTORE PUSH1 0x24 PUSH1 0x0 REVERT JUMPDEST SWAP1 PUSH1 0x7F AND SWAP1 PUSH3 0x324 JUMP JUMPDEST ADD MLOAD SWAP1 POP CODESIZE DUP1 PUSH3 0x2CB JUMP JUMPDEST PUSH1 0x1F NOT DUP3 AND SWAP6 PUSH1 0x7 PUSH1 0x0 MSTORE PUSH1 0x20 PUSH1 0x0 KECCAK256 SWAP2 PUSH1 0x0 JUMPDEST DUP9 DUP2 LT PUSH3 0x66D JUMPI POP DUP4 PUSH1 0x1 SWAP6 SWAP7 SWAP8 SWAP9 LT PUSH3 0x653 JUMPI JUMPDEST POP POP POP DUP2 SHL ADD PUSH1 0x7 SSTORE PUSH3 0x2E1 JUMP JUMPDEST ADD MLOAD PUSH1 0x0 NOT PUSH1 0xF8 DUP5 PUSH1 0x3 SHL AND SHR NOT AND SWAP1 SSTORE CODESIZE DUP1 DUP1 PUSH3 0x644 JUMP JUMPDEST SWAP2 SWAP3 PUSH1 0x20 PUSH1 0x1 DUP2 SWAP3 DUP7 DUP6 ADD MLOAD DUP2 SSTORE ADD SWAP5 ADD SWAP3 ADD PUSH3 0x62D JUMP JUMPDEST PUSH1 0x7 PUSH1 0x0 MSTORE PUSH32 0xA66CC928B5EDB82AF9BD49922954155AB7B0942694BEA4CE44661D9A8736C688 PUSH1 0x1F DUP4 ADD PUSH1 0x5 SHR DUP2 ADD PUSH1 0x20 DUP5 LT PUSH3 0x6E4 JUMPI JUMPDEST PUSH1 0x1F DUP4 ADD PUSH1 0x5 SHR DUP3 ADD DUP2 LT PUSH3 0x6D7 JUMPI POP POP PUSH3 0x2AC JUMP JUMPDEST PUSH1 0x0 DUP2 SSTORE PUSH1 0x1 ADD PUSH3 0x6BF JUMP JUMPDEST POP DUP1 PUSH3 0x6BF JUMP JUMPDEST SWAP1 PUSH1 0x7F AND SWAP1 PUSH3 0x298 JUMP JUMPDEST ADD MLOAD SWAP1 POP CODESIZE DUP1 PUSH3 0x20F JUMP JUMPDEST PUSH1 0x3 PUSH1 0x0 SWAP1 DUP2 MSTORE SWAP4 POP PUSH32 0xC2575A0E9E593C00F959F8C92F12DB2869C3395A3B0502D05E2516446F71F85B SWAP2 SWAP1 JUMPDEST PUSH1 0x1F NOT DUP5 AND DUP6 LT PUSH3 0x776 JUMPI PUSH1 0x1 SWAP5 POP DUP4 PUSH1 0x1F NOT DUP2 AND LT PUSH3 0x75C JUMPI JUMPDEST POP POP POP DUP2 SHL ADD PUSH1 0x3 SSTORE PUSH3 0x225 JUMP JUMPDEST ADD MLOAD PUSH1 0x0 NOT PUSH1 0xF8 DUP5 PUSH1 0x3 SHL AND SHR NOT AND SWAP1 SSTORE CODESIZE DUP1 DUP1 PUSH3 0x74D JUMP JUMPDEST DUP2 DUP2 ADD MLOAD DUP4 SSTORE PUSH1 0x20 SWAP5 DUP6 ADD SWAP5 PUSH1 0x1 SWAP1 SWAP4 ADD SWAP3 SWAP1 SWAP2 ADD SWAP1 PUSH3 0x730 JUMP JUMPDEST PUSH1 0x3 PUSH1 0x0 MSTORE SWAP1 SWAP2 POP PUSH32 0xC2575A0E9E593C00F959F8C92F12DB2869C3395A3B0502D05E2516446F71F85B PUSH1 0x1F DUP5 ADD PUSH1 0x5 SHR DUP2 ADD PUSH1 0x20 DUP6 LT PUSH3 0x7FC JUMPI JUMPDEST SWAP1 DUP5 SWAP4 SWAP3 SWAP2 JUMPDEST PUSH1 0x1F DUP4 ADD PUSH1 0x5 SHR DUP3 ADD DUP2 LT PUSH3 0x7EC JUMPI POP POP PUSH3 0x1F6 JUMP JUMPDEST PUSH1 0x0 DUP2 SSTORE DUP6 SWAP5 POP PUSH1 0x1 ADD PUSH3 0x7D4 JUMP JUMPDEST POP DUP1 PUSH3 0x7CE JUMP JUMPDEST SWAP2 PUSH1 0x7F AND SWAP2 PUSH3 0x1E0 JUMP JUMPDEST ADD MLOAD SWAP1 POP CODESIZE DUP1 PUSH3 0x1A5 JUMP JUMPDEST PUSH1 0x2 PUSH1 0x0 SWAP1 DUP2 MSTORE SWAP4 POP PUSH1 0x0 DUP1 MLOAD PUSH1 0x20 PUSH3 0x3450 DUP4 CODECOPY DUP2 MLOAD SWAP2 MSTORE SWAP2 SWAP1 JUMPDEST PUSH1 0x1F NOT DUP5 AND DUP6 LT PUSH3 0x87D JUMPI PUSH1 0x1 SWAP5 POP DUP4 PUSH1 0x1F NOT DUP2 AND LT PUSH3 0x863 JUMPI JUMPDEST POP POP POP DUP2 SHL ADD PUSH1 0x2 SSTORE PUSH3 0x1BB JUMP JUMPDEST ADD MLOAD PUSH1 0x0 NOT PUSH1 0xF8 DUP5 PUSH1 0x3 SHL AND SHR NOT AND SWAP1 SSTORE CODESIZE DUP1 DUP1 PUSH3 0x854 JUMP JUMPDEST DUP2 DUP2 ADD MLOAD DUP4 SSTORE PUSH1 0x20 SWAP5 DUP6 ADD SWAP5 PUSH1 0x1 SWAP1 SWAP4 ADD SWAP3 SWAP1 SWAP2 ADD SWAP1 PUSH3 0x837 JUMP JUMPDEST PUSH1 0x2 PUSH1 0x0 MSTORE SWAP1 SWAP2 POP PUSH1 0x0 DUP1 MLOAD PUSH1 0x20 PUSH3 0x3450 DUP4 CODECOPY DUP2 MLOAD SWAP2 MSTORE PUSH1 0x1F DUP5 ADD PUSH1 0x5 SHR DUP2 ADD PUSH1 0x20 DUP6 LT PUSH3 0x8F2 JUMPI JUMPDEST SWAP1 DUP5 SWAP4 SWAP3 SWAP2 JUMPDEST PUSH1 0x1F DUP4 ADD PUSH1 0x5 SHR DUP3 ADD DUP2 LT PUSH3 0x8E2 JUMPI POP POP PUSH3 0x18C JUMP JUMPDEST PUSH1 0x0 DUP2 SSTORE DUP6 SWAP5 POP PUSH1 0x1 ADD PUSH3 0x8CA JUMP JUMPDEST POP DUP1 PUSH3 0x8C4 JUMP JUMPDEST SWAP2 PUSH1 0x7F AND SWAP2 PUSH3 0x176 JUMP JUMPDEST PUSH1 0x40 MLOAD PUSH4 0x1E4FBDF7 PUSH1 0xE0 SHL DUP2 MSTORE PUSH1 0x0 PUSH1 0x4 DUP3 ADD MSTORE PUSH1 0x24 SWAP1 REVERT JUMPDEST PUSH1 0x0 DUP1 REVERT JUMPDEST PUSH1 0x40 MLOAD SWAP2 SWAP1 PUSH1 0x1F ADD PUSH1 0x1F NOT AND DUP3 ADD PUSH1 0x1 PUSH1 0x1 PUSH1 0x40 SHL SUB DUP2 GT DUP4 DUP3 LT OR PUSH3 0x4D1 JUMPI PUSH1 0x40 MSTORE JUMP JUMPDEST SWAP2 SWAP1 DUP1 PUSH1 0x1F DUP5 ADD SLT ISZERO PUSH3 0x91E JUMPI DUP3 MLOAD PUSH1 0x1 PUSH1 0x1 PUSH1 0x40 SHL SUB DUP2 GT PUSH3 0x4D1 JUMPI PUSH1 0x20 SWAP1 PUSH3 0x97F PUSH1 0x1F DUP3 ADD PUSH1 0x1F NOT AND DUP4 ADD PUSH3 0x923 JUMP JUMPDEST SWAP3 DUP2 DUP5 MSTORE DUP3 DUP3 DUP8 ADD ADD GT PUSH3 0x91E JUMPI PUSH1 0x0 JUMPDEST DUP2 DUP2 LT PUSH3 0x9A7 JUMPI POP DUP3 PUSH1 0x0 SWAP4 SWAP5 SWAP6 POP ADD ADD MSTORE SWAP1 JUMP JUMPDEST DUP6 DUP2 ADD DUP4 ADD MLOAD DUP5 DUP3 ADD DUP5 ADD MSTORE DUP3 ADD PUSH3 0x991 JUMP JUMPDEST MLOAD SWAP1 PUSH1 0x1 PUSH1 0x1 PUSH1 0xA0 SHL SUB DUP3 AND DUP3 SUB PUSH3 0x91E JUMPI JUMP INVALID PUSH1 0x40 PUSH1 0x80 DUP2 MSTORE PUSH1 0x4 SWAP1 DUP2 CALLDATASIZE LT ISZERO PUSH2 0x15 JUMPI PUSH1 0x0 DUP1 REVERT JUMPDEST PUSH1 0x0 SWAP2 DUP3 CALLDATALOAD PUSH1 0xE0 SHR DUP1 PUSH4 0x10648CA EQ PUSH2 0x1BFD JUMPI DUP1 PUSH4 0x6FDDE03 EQ PUSH2 0x1B2E JUMPI DUP1 PUSH4 0x8881AFA EQ PUSH2 0x1B05 JUMPI DUP1 PUSH4 0x134E18F4 EQ PUSH2 0x1ADC JUMPI DUP1 PUSH4 0x13B1D144 EQ PUSH2 0x1AAB JUMPI DUP1 PUSH4 0x158B1A57 EQ PUSH2 0xAE0 JUMPI DUP1 PUSH4 0x18160DDD EQ PUSH2 0x1A8E JUMPI DUP1 PUSH4 0x1BADB25C EQ PUSH2 0x1A40 JUMPI DUP1 PUSH4 0x22E4E61D EQ PUSH2 0x18AC JUMPI DUP1 PUSH4 0x2B0DDB91 EQ PUSH2 0x188D JUMPI DUP1 PUSH4 0x30E82803 EQ PUSH2 0x184D JUMPI DUP1 PUSH4 0x313CE567 EQ PUSH2 0x1832 JUMPI DUP1 PUSH4 0x36F6EFC6 EQ PUSH2 0x1813 JUMPI DUP1 PUSH4 0x38389E58 EQ PUSH2 0x16BF JUMPI DUP1 PUSH4 0x3F4BA83A EQ PUSH2 0x1674 JUMPI DUP1 PUSH4 0x4C783BF5 EQ PUSH2 0x164D JUMPI DUP1 PUSH4 0x50B1F356 EQ PUSH2 0x162E JUMPI DUP1 PUSH4 0x5C975ABB EQ PUSH2 0x160A JUMPI DUP1 PUSH4 0x6290865D EQ PUSH2 0x15E1 JUMPI DUP1 PUSH4 0x694DF50A EQ PUSH2 0x1568 JUMPI DUP1 PUSH4 0x6CE5891D EQ PUSH2 0x151D JUMPI DUP1 PUSH4 0x70A08231 EQ PUSH2 0x14E5 JUMPI DUP1 PUSH4 0x715018A6 EQ PUSH2 0x149D JUMPI DUP1 PUSH4 0x740AB8F4 EQ PUSH2 0x1431 JUMPI DUP1 PUSH4 0x77777E0C EQ PUSH2 0x140F JUMPI DUP1 PUSH4 0x7C8FD218 EQ PUSH2 0x1310 JUMPI DUP1 PUSH4 0x8456CB59 EQ PUSH2 0x12C2 JUMPI DUP1 PUSH4 0x88F2740D EQ PUSH2 0x1299 JUMPI DUP1 PUSH4 0x8DA5CB5B EQ PUSH2 0x1271 JUMPI DUP1 PUSH4 0x92127126 EQ PUSH2 0x122F JUMPI DUP1 PUSH4 0x9285948A EQ PUSH2 0xF6F JUMPI DUP1 PUSH4 0x92EEFE9B EQ PUSH2 0xF2A JUMPI DUP1 PUSH4 0x9418C91A EQ PUSH2 0xF0B JUMPI DUP1 PUSH4 0x95CB741D EQ PUSH2 0xE9B JUMPI DUP1 PUSH4 0x95D89B41 EQ PUSH2 0xDB9 JUMPI DUP1 PUSH4 0x9FA5F50B EQ PUSH2 0xD30 JUMPI DUP1 PUSH4 0xA4DF6C6A EQ PUSH2 0xC6E JUMPI DUP1 PUSH4 0xA66B0F3A EQ PUSH2 0xC23 JUMPI DUP1 PUSH4 0xB10D6B41 EQ PUSH2 0xB37 JUMPI DUP1 PUSH4 0xB78BD21B EQ PUSH2 0xB18 JUMPI DUP1 PUSH4 0xBFD85808 EQ PUSH2 0xAE0 JUMPI DUP1 PUSH4 0xCBF3F861 EQ PUSH2 0xA3D JUMPI DUP1 PUSH4 0xD0516650 EQ PUSH2 0x9E0 JUMPI DUP1 PUSH4 0xD0A6D1A6 EQ PUSH2 0xA1E JUMPI DUP1 PUSH4 0xE5839836 EQ PUSH2 0x9E0 JUMPI DUP1 PUSH4 0xE9B2F0AD EQ PUSH2 0x923 JUMPI DUP1 PUSH4 0xEA3F068D EQ PUSH2 0x744 JUMPI DUP1 PUSH4 0xF282527A EQ PUSH2 0x5C1 JUMPI DUP1 PUSH4 0xF2FDE38B EQ PUSH2 0x54B JUMPI DUP1 PUSH4 0xF3D490DB EQ PUSH2 0x332 JUMPI DUP1 PUSH4 0xF77C4791 EQ PUSH2 0x305 JUMPI PUSH4 0xF8981789 EQ PUSH2 0x25D JUMPI PUSH1 0x0 DUP1 REVERT JUMPDEST CALLVALUE PUSH2 0x301 JUMPI PUSH1 0x20 CALLDATASIZE PUSH1 0x3 NOT ADD SLT PUSH2 0x301 JUMPI PUSH2 0x276 PUSH2 0x20E2 JUMP JUMPDEST PUSH2 0x27E PUSH2 0x2194 JUMP JUMPDEST PUSH1 0x1 PUSH1 0x1 PUSH1 0xA0 SHL SUB AND SWAP2 DUP3 ISZERO PUSH2 0x2C9 JUMPI POP POP PUSH1 0x6 DUP1 SLOAD PUSH1 0x1 PUSH1 0x1 PUSH1 0xA0 SHL SUB NOT AND DUP3 OR SWAP1 SSTORE PUSH32 0xA970409706553ACBB8C86C1BC79621A1E9DECFE2E5F083D3EE9DC215D07CEA39 DUP3 DUP1 LOG2 DUP1 RETURN JUMPDEST SWAP1 PUSH1 0x20 PUSH1 0x64 SWAP3 MLOAD SWAP2 PUSH3 0x461BCD PUSH1 0xE5 SHL DUP4 MSTORE DUP3 ADD MSTORE PUSH1 0x12 PUSH1 0x24 DUP3 ADD MSTORE PUSH18 0x494E56414C49445F434F4D504C49414E4345 PUSH1 0x70 SHL PUSH1 0x44 DUP3 ADD MSTORE REVERT JUMPDEST DUP3 DUP1 REVERT JUMPDEST POP POP CALLVALUE PUSH2 0x32E JUMPI DUP2 PUSH1 0x3 NOT CALLDATASIZE ADD SLT PUSH2 0x32E JUMPI PUSH1 0x15 SLOAD SWAP1 MLOAD PUSH1 0x1 PUSH1 0x1 PUSH1 0xA0 SHL SUB SWAP1 SWAP2 AND DUP2 MSTORE PUSH1 0x20 SWAP1 RETURN JUMPDEST POP DUP1 REVERT JUMPDEST POP SWAP2 SWAP1 CALLVALUE PUSH2 0x32E JUMPI PUSH2 0x343 CALLDATASIZE PUSH2 0x2149 JUMP JUMPDEST POP POP SWAP1 SWAP2 SWAP4 PUSH2 0x350 PUSH2 0x27B6 JUMP JUMPDEST PUSH2 0x35F PUSH1 0xFF PUSH1 0x10 SLOAD AND ISZERO PUSH2 0x277B JUMP JUMPDEST CALLER DUP2 MSTORE PUSH1 0x20 SWAP6 PUSH1 0x11 DUP8 MSTORE PUSH1 0xFF DUP6 DUP4 KECCAK256 SLOAD AND PUSH2 0x517 JUMPI PUSH2 0x380 DUP7 DUP5 DUP7 CALLER PUSH2 0x24E5 JUMP JUMPDEST SWAP1 DUP7 MLOAD SWAP2 PUSH16 0x2A2920A729A322A92FA320A4A622A21D PUSH1 0x81 SHL DUP11 DUP5 ADD MSTORE PUSH1 0x30 DUP4 ADD MSTORE PUSH1 0x30 DUP3 MSTORE PUSH2 0x3AE DUP3 PUSH2 0x1EE5 JUMP JUMPDEST PUSH1 0x1 PUSH1 0x1 PUSH1 0xF8 SHL SUB NOT AND PUSH1 0xAF PUSH1 0xF8 SHL ADD PUSH2 0x4F2 JUMPI POP DUP6 PUSH1 0x0 MSTORE PUSH1 0xD DUP8 MSTORE DUP5 PUSH1 0x0 KECCAK256 CALLER PUSH1 0x0 MSTORE DUP8 MSTORE DUP5 PUSH1 0x0 KECCAK256 PUSH2 0x3E4 DUP5 DUP3 SLOAD PUSH2 0x21FA JUMP JUMPDEST SWAP1 SSTORE DUP6 PUSH1 0x0 MSTORE PUSH1 0xD DUP8 MSTORE DUP5 PUSH1 0x0 KECCAK256 SWAP4 PUSH1 0x1 DUP1 PUSH1 0xA0 SHL SUB DUP1 DUP3 AND SWAP6 DUP7 PUSH1 0x0 MSTORE DUP10 MSTORE DUP7 PUSH1 0x0 KECCAK256 PUSH2 0x413 DUP7 DUP3 SLOAD PUSH2 0x27D9 JUMP JUMPDEST SWAP1 SSTORE CALLER PUSH1 0x0 MSTORE PUSH1 0xE DUP10 MSTORE DUP7 PUSH1 0x0 KECCAK256 PUSH2 0x42C DUP7 DUP3 SLOAD PUSH2 0x21FA JUMP JUMPDEST SWAP1 SSTORE DUP6 PUSH1 0x0 MSTORE PUSH1 0xE DUP10 MSTORE DUP7 PUSH1 0x0 KECCAK256 PUSH2 0x445 DUP7 DUP3 SLOAD PUSH2 0x27D9 JUMP JUMPDEST SWAP1 SSTORE PUSH1 0x6 SLOAD AND SWAP2 DUP3 PUSH2 0x48B JUMPI JUMPDEST POP POP POP POP DUP3 MLOAD SWAP1 DUP2 MSTORE DUP4 PUSH32 0xF527C5F31FDE91835354AD82E863E96D8637DF7A0254BFB42879978FC047E56 DUP7 CALLER SWAP4 LOG4 PUSH1 0x1 DUP1 SSTORE MLOAD SWAP1 DUP2 MSTORE RETURN JUMPDEST DUP3 EXTCODESIZE ISZERO PUSH2 0x4EE JUMPI PUSH2 0x4B7 SWAP3 DUP5 SWAP3 DUP4 DUP8 SWAP4 DUP11 MLOAD SWAP7 DUP8 SWAP6 DUP7 SWAP5 DUP6 SWAP4 PUSH4 0x22EBCA6D PUSH1 0xE2 SHL DUP6 MSTORE CALLER SWAP1 DUP6 ADD PUSH2 0x21D8 JUMP JUMPDEST SUB SWAP3 GAS CALL DUP1 ISZERO PUSH2 0x4E4 JUMPI PUSH2 0x4CD JUMPI JUMPDEST DUP1 DUP1 PUSH2 0x452 JUMP JUMPDEST PUSH2 0x4D7 DUP3 SWAP2 PUSH2 0x1F16 JUMP JUMPDEST PUSH2 0x4E1 JUMPI DUP1 PUSH2 0x4C6 JUMP JUMPDEST DUP1 REVERT JUMPDEST DUP6 MLOAD RETURNDATASIZE DUP5 DUP3 RETURNDATACOPY RETURNDATASIZE SWAP1 REVERT JUMPDEST DUP4 DUP1 REVERT JUMPDEST DUP6 MLOAD PUSH3 0x461BCD PUSH1 0xE5 SHL DUP2 MSTORE SWAP2 DUP3 ADD DUP9 SWAP1 MSTORE DUP2 SWAP1 PUSH2 0x513 SWAP1 PUSH1 0x24 DUP4 ADD SWAP1 PUSH2 0x20A2 JUMP JUMPDEST SUB SWAP1 REVERT JUMPDEST DUP5 MLOAD PUSH3 0x461BCD PUSH1 0xE5 SHL DUP2 MSTORE SWAP1 DUP2 ADD DUP8 SWAP1 MSTORE PUSH1 0xE PUSH1 0x24 DUP3 ADD MSTORE PUSH14 0x20A2222922A9A9AFA32927AD22A7 PUSH1 0x91 SHL PUSH1 0x44 DUP3 ADD MSTORE PUSH1 0x64 SWAP1 REVERT JUMPDEST POP CALLVALUE PUSH2 0x301 JUMPI PUSH1 0x20 CALLDATASIZE PUSH1 0x3 NOT ADD SLT PUSH2 0x301 JUMPI PUSH2 0x565 PUSH2 0x20E2 JUMP JUMPDEST SWAP1 PUSH2 0x56E PUSH2 0x2194 JUMP JUMPDEST PUSH1 0x1 PUSH1 0x1 PUSH1 0xA0 SHL SUB SWAP2 DUP3 AND SWAP3 DUP4 ISZERO PUSH2 0x5AB JUMPI POP POP PUSH1 0x0 SLOAD DUP3 PUSH1 0x1 DUP1 PUSH1 0xA0 SHL SUB NOT DUP3 AND OR PUSH1 0x0 SSTORE AND PUSH1 0x0 DUP1 MLOAD PUSH1 0x20 PUSH2 0x2A0A DUP4 CODECOPY DUP2 MLOAD SWAP2 MSTORE PUSH1 0x0 DUP1 LOG3 DUP1 RETURN JUMPDEST MLOAD PUSH4 0x1E4FBDF7 PUSH1 0xE0 SHL DUP2 MSTORE SWAP1 DUP2 ADD DUP5 SWAP1 MSTORE PUSH1 0x24 SWAP1 REVERT JUMPDEST POP DUP3 SWAP1 CALLVALUE PUSH2 0x32E JUMPI PUSH1 0xA0 CALLDATASIZE PUSH1 0x3 NOT ADD SLT PUSH2 0x32E JUMPI PUSH2 0x5DD PUSH2 0x20E2 JUMP JUMPDEST SWAP3 PUSH2 0x5E6 PUSH2 0x20F8 JUMP JUMPDEST PUSH1 0x1 PUSH1 0x1 PUSH1 0x40 SHL SUB SWAP3 PUSH1 0x44 CALLDATALOAD SWAP2 PUSH1 0x64 CALLDATALOAD DUP6 DUP2 GT PUSH2 0x740 JUMPI PUSH2 0x60A SWAP1 CALLDATASIZE SWAP1 DUP5 ADD PUSH2 0x1E7E JUMP JUMPDEST SWAP3 SWAP1 SWAP6 PUSH1 0x84 CALLDATALOAD SWAP1 DUP2 GT PUSH2 0x73C JUMPI PUSH2 0x624 SWAP1 CALLDATASIZE SWAP1 DUP4 ADD PUSH2 0x1E7E JUMP JUMPDEST PUSH1 0x15 SLOAD SWAP1 SWAP8 SWAP2 SWAP5 PUSH1 0x1 PUSH1 0x1 PUSH1 0xA0 SHL SUB SWAP4 SWAP1 SWAP2 DUP5 DUP2 AND CALLER SUB PUSH2 0x708 JUMPI PUSH1 0xA0 SHR PUSH1 0xFF AND ISZERO PUSH2 0x6D2 JUMPI POP DUP10 DUP7 DUP6 DUP2 DUP11 DUP8 DUP15 SWAP16 SWAP15 SWAP14 SWAP15 AND SWAP13 DUP14 DUP2 MSTORE PUSH1 0xE PUSH1 0x20 MSTORE KECCAK256 SLOAD LT ISZERO PUSH2 0x66D SWAP1 PUSH2 0x28B1 JUMP JUMPDEST PUSH2 0x676 SWAP3 PUSH2 0x27E6 JUMP JUMPDEST DUP7 MLOAD SWAP7 DUP8 SWAP7 CALLER DUP9 MSTORE PUSH1 0x20 DUP9 ADD MSTORE DUP7 ADD PUSH1 0x80 SWAP1 MSTORE PUSH1 0x80 DUP7 ADD SWAP1 PUSH2 0x697 SWAP3 PUSH2 0x28F4 JUMP JUMPDEST SWAP2 DUP5 DUP4 SUB PUSH1 0x60 DUP7 ADD MSTORE AND SWAP6 PUSH2 0x6AB SWAP3 PUSH2 0x28F4 JUMP JUMPDEST SUB PUSH32 0x6BF62B4B9C7B768275122BF70D429EFC398A056D669B1EFDF6C3976346246D7D SWAP2 LOG3 DUP1 RETURN JUMPDEST PUSH1 0x64 SWAP1 PUSH1 0x20 DUP10 MLOAD SWAP2 PUSH3 0x461BCD PUSH1 0xE5 SHL DUP4 MSTORE DUP3 ADD MSTORE PUSH1 0x10 PUSH1 0x24 DUP3 ADD MSTORE PUSH16 0x4E4F545F434F4E54524F4C4C41424C45 PUSH1 0x80 SHL PUSH1 0x44 DUP3 ADD MSTORE REVERT JUMPDEST DUP9 MLOAD PUSH3 0x461BCD PUSH1 0xE5 SHL DUP2 MSTORE PUSH1 0x20 DUP2 DUP5 ADD MSTORE PUSH1 0xE PUSH1 0x24 DUP3 ADD MSTORE PUSH14 0x2727AA2FA1A7A72A2927A62622A9 PUSH1 0x91 SHL PUSH1 0x44 DUP3 ADD MSTORE PUSH1 0x64 SWAP1 REVERT JUMPDEST DUP8 DUP1 REVERT JUMPDEST DUP7 DUP1 REVERT JUMPDEST POP CALLVALUE PUSH2 0x301 JUMPI PUSH1 0x60 CALLDATASIZE PUSH1 0x3 NOT ADD SLT PUSH2 0x301 JUMPI PUSH2 0x75E PUSH2 0x20E2 JUMP JUMPDEST SWAP2 PUSH1 0x24 CALLDATALOAD DUP5 PUSH1 0x44 CALLDATALOAD SWAP4 PUSH2 0x76F PUSH2 0x2194 JUMP JUMPDEST PUSH1 0x5 SLOAD PUSH1 0x1 PUSH1 0x1 PUSH1 0xA0 SHL SUB SWAP7 SWAP1 DUP8 AND DUP1 PUSH2 0x873 JUMPI JUMPDEST POP DUP6 DUP4 MSTORE PUSH1 0xD PUSH1 0x20 MSTORE DUP5 DUP4 KECCAK256 SWAP7 DUP1 DUP3 AND SWAP8 DUP9 PUSH1 0x0 MSTORE PUSH1 0x20 MSTORE DUP6 PUSH1 0x0 KECCAK256 PUSH2 0x7AB DUP7 DUP3 SLOAD PUSH2 0x27D9 JUMP JUMPDEST SWAP1 SSTORE DUP8 DUP5 MSTORE PUSH1 0xE PUSH1 0x20 MSTORE DUP6 DUP5 KECCAK256 PUSH2 0x7C3 DUP7 DUP3 SLOAD PUSH2 0x27D9 JUMP JUMPDEST SWAP1 SSTORE PUSH2 0x7D0 DUP6 DUP5 SLOAD PUSH2 0x27D9 JUMP JUMPDEST DUP4 SSTORE PUSH1 0x6 SLOAD AND SWAP2 DUP3 PUSH2 0x811 JUMPI JUMPDEST POP POP POP POP PUSH32 0xEA5027CA690118A868DDC2CD8AAB5AF666DF70818535852E44E807AC5F77A6CB SWAP3 DUP3 MLOAD SWAP2 DUP3 MSTORE PUSH1 0x20 DUP3 ADD MSTORE LOG2 DUP1 RETURN JUMPDEST DUP3 EXTCODESIZE ISZERO PUSH2 0x4EE JUMPI PUSH2 0x83B SWAP3 DUP5 SWAP3 DUP4 DUP8 SWAP4 DUP10 MLOAD SWAP7 DUP8 SWAP6 DUP7 SWAP5 DUP6 SWAP4 PUSH4 0x5F8DEAD3 PUSH1 0xE0 SHL DUP6 MSTORE DUP5 ADD PUSH2 0x2896 JUMP JUMPDEST SUB SWAP3 GAS CALL DUP1 ISZERO PUSH2 0x869 JUMPI PUSH2 0x851 JUMPI JUMPDEST DUP1 DUP1 PUSH2 0x7DD JUMP JUMPDEST PUSH2 0x85A SWAP1 PUSH2 0x1F16 JUMP JUMPDEST PUSH2 0x865 JUMPI DUP5 CODESIZE PUSH2 0x84A JUMP JUMPDEST DUP5 DUP1 REVERT JUMPDEST DUP5 MLOAD RETURNDATASIZE DUP5 DUP3 RETURNDATACOPY RETURNDATASIZE SWAP1 REVERT JUMPDEST PUSH1 0x24 SWAP2 SWAP3 SWAP4 POP PUSH1 0x20 SWAP1 DUP7 MLOAD SWAP3 DUP4 DUP1 SWAP3 PUSH4 0xB9209E33 PUSH1 0xE0 SHL DUP3 MSTORE DUP12 DUP8 AND DUP9 DUP4 ADD MSTORE GAS STATICCALL SWAP1 DUP2 ISZERO PUSH2 0x919 JUMPI DUP9 SWAP2 PUSH2 0x8EB JUMPI JUMPDEST POP ISZERO PUSH2 0x8B2 JUMPI SWAP1 DUP7 SWAP2 CODESIZE PUSH2 0x784 JUMP JUMPDEST DUP4 MLOAD PUSH3 0x461BCD PUSH1 0xE5 SHL DUP2 MSTORE PUSH1 0x20 DUP2 DUP5 ADD MSTORE PUSH1 0x13 PUSH1 0x24 DUP3 ADD MSTORE PUSH19 0x1213D311115497D393D517D591549251925151 PUSH1 0x6A SHL PUSH1 0x44 DUP3 ADD MSTORE PUSH1 0x64 SWAP1 REVERT JUMPDEST PUSH2 0x90C SWAP2 POP PUSH1 0x20 RETURNDATASIZE DUP2 GT PUSH2 0x912 JUMPI JUMPDEST PUSH2 0x904 DUP2 DUP4 PUSH2 0x1F29 JUMP JUMPDEST DUP2 ADD SWAP1 PUSH2 0x21C0 JUMP JUMPDEST CODESIZE PUSH2 0x8A3 JUMP JUMPDEST POP RETURNDATASIZE PUSH2 0x8FA JUMP JUMPDEST DUP6 MLOAD RETURNDATASIZE DUP11 DUP3 RETURNDATACOPY RETURNDATASIZE SWAP1 REVERT JUMPDEST POP SWAP1 CALLVALUE PUSH2 0x301 JUMPI DUP1 PUSH1 0x3 NOT CALLDATASIZE ADD SLT PUSH2 0x301 JUMPI PUSH2 0x93D PUSH2 0x20E2 JUMP JUMPDEST SWAP1 PUSH1 0x24 CALLDATALOAD SWAP2 PUSH2 0x94A PUSH2 0x2194 JUMP JUMPDEST PUSH1 0x1 PUSH1 0x1 PUSH1 0xA0 SHL SUB AND DUP1 DUP6 MSTORE PUSH1 0x12 PUSH1 0x20 MSTORE DUP2 DUP6 KECCAK256 SLOAD SWAP1 SWAP4 SWAP1 DUP4 GT PUSH2 0x9AD JUMPI POP PUSH32 0x9BED35CB62AD0DBA04F9D5BFEE4B5BC91443E77DA8A65C4C84834C51BB08B0D6 SWAP2 PUSH1 0x20 SWAP2 DUP5 DUP7 MSTORE PUSH1 0x12 DUP4 MSTORE DUP1 DUP7 KECCAK256 PUSH2 0x9A3 DUP4 DUP3 SLOAD PUSH2 0x21FA JUMP JUMPDEST SWAP1 SSTORE MLOAD SWAP1 DUP2 MSTORE LOG2 DUP1 RETURN JUMPDEST PUSH1 0x20 PUSH1 0x64 SWAP3 MLOAD SWAP2 PUSH3 0x461BCD PUSH1 0xE5 SHL DUP4 MSTORE DUP3 ADD MSTORE PUSH1 0xE PUSH1 0x24 DUP3 ADD MSTORE PUSH14 0x22AC21A2A2A229AFA32927AD22A7 PUSH1 0x91 SHL PUSH1 0x44 DUP3 ADD MSTORE REVERT JUMPDEST POP POP CALLVALUE PUSH2 0x32E JUMPI PUSH1 0x20 CALLDATASIZE PUSH1 0x3 NOT ADD SLT PUSH2 0x32E JUMPI PUSH1 0x20 SWAP2 PUSH1 0xFF SWAP1 DUP3 SWAP1 PUSH1 0x1 PUSH1 0x1 PUSH1 0xA0 SHL SUB PUSH2 0xA0B PUSH2 0x20E2 JUMP JUMPDEST AND DUP2 MSTORE PUSH1 0x11 DUP6 MSTORE KECCAK256 SLOAD AND SWAP1 MLOAD SWAP1 ISZERO ISZERO DUP2 MSTORE RETURN JUMPDEST POP POP CALLVALUE PUSH2 0x32E JUMPI DUP2 PUSH1 0x3 NOT CALLDATASIZE ADD SLT PUSH2 0x32E JUMPI MLOAD PUSH1 0x51 PUSH1 0xF8 SHL DUP2 MSTORE PUSH1 0x20 SWAP1 RETURN JUMPDEST POP CALLVALUE PUSH2 0x301 JUMPI PUSH1 0x20 CALLDATASIZE PUSH1 0x3 NOT ADD SLT PUSH2 0x301 JUMPI PUSH2 0xA57 PUSH2 0x20E2 JUMP JUMPDEST PUSH2 0xA5F PUSH2 0x2194 JUMP JUMPDEST PUSH1 0x1 PUSH1 0x1 PUSH1 0xA0 SHL SUB AND SWAP2 DUP3 ISZERO PUSH2 0xAAA JUMPI POP POP PUSH1 0x5 DUP1 SLOAD PUSH1 0x1 PUSH1 0x1 PUSH1 0xA0 SHL SUB NOT AND DUP3 OR SWAP1 SSTORE PUSH32 0x8AA6172B9DCBE4F05892121059BC535D4743D706BA3AC6CBABF4A40DE229E388 DUP3 DUP1 LOG2 DUP1 RETURN JUMPDEST SWAP1 PUSH1 0x20 PUSH1 0x64 SWAP3 MLOAD SWAP2 PUSH3 0x461BCD PUSH1 0xE5 SHL DUP4 MSTORE DUP3 ADD MSTORE PUSH1 0x10 PUSH1 0x24 DUP3 ADD MSTORE PUSH16 0x494E56414C49445F5245474953545259 PUSH1 0x80 SHL PUSH1 0x44 DUP3 ADD MSTORE REVERT JUMPDEST POP POP CALLVALUE PUSH2 0x32E JUMPI PUSH1 0x20 CALLDATASIZE PUSH1 0x3 NOT ADD SLT PUSH2 0x32E JUMPI PUSH1 0x20 SWAP2 DUP2 SWAP1 PUSH1 0x1 PUSH1 0x1 PUSH1 0xA0 SHL SUB PUSH2 0xB08 PUSH2 0x20E2 JUMP JUMPDEST AND DUP2 MSTORE PUSH1 0x12 DUP5 MSTORE KECCAK256 SLOAD SWAP1 MLOAD SWAP1 DUP2 MSTORE RETURN JUMPDEST POP POP CALLVALUE PUSH2 0x32E JUMPI DUP2 PUSH1 0x3 NOT CALLDATASIZE ADD SLT PUSH2 0x32E JUMPI MLOAD PUSH1 0x2B PUSH1 0xF9 SHL DUP2 MSTORE PUSH1 0x20 SWAP1 RETURN JUMPDEST POP SWAP2 CALLVALUE PUSH2 0x4E1 JUMPI PUSH1 0x20 SWAP3 DUP4 PUSH1 0x3 NOT CALLDATASIZE ADD SLT PUSH2 0x32E JUMPI SWAP1 DUP3 SWAP2 CALLDATALOAD DUP2 MSTORE PUSH1 0x13 DUP5 MSTORE KECCAK256 SWAP2 DUP2 MLOAD SWAP2 PUSH2 0xB64 DUP4 PUSH2 0x1EE5 JUMP JUMPDEST DUP1 MLOAD SWAP3 PUSH1 0x0 DUP6 SLOAD SWAP1 PUSH2 0xB75 DUP3 PUSH2 0x1EAB JUMP JUMPDEST DUP1 DUP8 MSTORE PUSH1 0x1 SWAP3 DUP1 DUP5 AND SWAP1 DUP2 ISZERO PUSH2 0xC08 JUMPI POP PUSH1 0x1 EQ PUSH2 0xBD5 JUMPI JUMPDEST POP SWAP2 PUSH1 0x2 PUSH2 0xBCA SWAP8 SWAP3 PUSH2 0xBA4 DUP9 DUP8 SWAP7 SUB DUP10 PUSH2 0x1F29 JUMP JUMPDEST DUP8 DUP4 MSTORE DUP4 ADD SLOAD SWAP3 DUP4 DUP8 DUP5 ADD MSTORE ADD SLOAD SWAP4 DUP5 SWAP2 ADD MSTORE DUP2 MLOAD SWAP6 DUP7 SWAP6 PUSH1 0x60 DUP8 MSTORE PUSH1 0x60 DUP8 ADD SWAP1 PUSH2 0x20A2 JUMP JUMPDEST SWAP4 DUP6 ADD MSTORE DUP4 ADD MSTORE SUB SWAP1 RETURN JUMPDEST PUSH1 0x0 DUP9 DUP2 MSTORE DUP7 DUP2 KECCAK256 SWAP1 SWAP3 POP JUMPDEST DUP2 DUP4 LT PUSH2 0xBF5 JUMPI POP POP DUP6 ADD DUP5 ADD PUSH1 0x2 PUSH2 0xB8E JUMP JUMPDEST DUP1 SLOAD DUP9 DUP5 ADD DUP9 ADD MSTORE SWAP2 DUP7 ADD SWAP2 DUP4 ADD PUSH2 0xBE1 JUMP JUMPDEST PUSH1 0xFF NOT AND DUP8 DUP10 ADD MSTORE POP ISZERO ISZERO PUSH1 0x5 SHL DUP7 ADD DUP6 ADD SWAP1 POP PUSH1 0x2 PUSH2 0xB8E JUMP JUMPDEST DUP4 DUP3 CALLVALUE PUSH2 0x32E JUMPI PUSH1 0x20 CALLDATASIZE PUSH1 0x3 NOT ADD SLT PUSH2 0x32E JUMPI CALLDATALOAD DUP1 ISZERO ISZERO DUP1 SWAP2 SUB PUSH2 0xC69 JUMPI PUSH2 0xC49 PUSH2 0x2194 JUMP JUMPDEST PUSH1 0x15 DUP1 SLOAD PUSH1 0xFF PUSH1 0xA0 SHL NOT AND PUSH1 0xA0 SWAP3 SWAP1 SWAP3 SHL PUSH1 0xFF PUSH1 0xA0 SHL AND SWAP2 SWAP1 SWAP2 OR SWAP1 SSTORE DUP1 RETURN JUMPDEST PUSH1 0x0 DUP1 REVERT JUMPDEST POP SWAP1 CALLVALUE PUSH2 0x301 JUMPI DUP1 PUSH1 0x3 NOT CALLDATASIZE ADD SLT PUSH2 0x301 JUMPI PUSH2 0xC88 PUSH2 0x20E2 JUMP JUMPDEST SWAP1 PUSH1 0x24 CALLDATALOAD SWAP2 PUSH2 0xC95 PUSH2 0x2194 JUMP JUMPDEST PUSH1 0x1 DUP1 PUSH1 0xA0 SHL SUB AND SWAP3 DUP4 DUP6 MSTORE PUSH1 0xE PUSH1 0x20 MSTORE DUP2 DUP6 KECCAK256 SLOAD PUSH1 0x12 PUSH1 0x20 MSTORE PUSH2 0xCBC DUP5 DUP5 DUP9 KECCAK256 SLOAD PUSH2 0x27D9 JUMP JUMPDEST GT PUSH2 0xCFC JUMPI POP PUSH32 0xA065E63C631C86F1B9F66A4A2F63F2093BF1C2168D23290259DBD969E0222A45 SWAP2 PUSH1 0x20 SWAP2 DUP5 DUP7 MSTORE PUSH1 0x12 DUP4 MSTORE DUP1 DUP7 KECCAK256 PUSH2 0x9A3 DUP4 DUP3 SLOAD PUSH2 0x27D9 JUMP JUMPDEST PUSH1 0x20 PUSH1 0x64 SWAP3 MLOAD SWAP2 PUSH3 0x461BCD PUSH1 0xE5 SHL DUP4 MSTORE DUP3 ADD MSTORE PUSH1 0xF PUSH1 0x24 DUP3 ADD MSTORE PUSH15 0x455843454544535F42414C414E4345 PUSH1 0x88 SHL PUSH1 0x44 DUP3 ADD MSTORE REVERT JUMPDEST DUP3 DUP5 CALLVALUE PUSH2 0x4E1 JUMPI DUP1 PUSH1 0x3 NOT CALLDATASIZE ADD SLT PUSH2 0x4E1 JUMPI POP DUP1 MLOAD PUSH1 0x14 DUP1 SLOAD DUP1 DUP4 MSTORE PUSH1 0x0 SWAP2 DUP3 MSTORE PUSH1 0x20 DUP1 DUP5 ADD SWAP5 SWAP3 PUSH32 0xCE6D7B5282BD9A3661AE061FEED1DBDA4E52AB073B1F9285BE6E155D9C38D4EC SWAP3 SWAP2 JUMPDEST DUP3 DUP3 LT PUSH2 0xDA2 JUMPI PUSH2 0xD9E DUP7 DUP7 PUSH2 0xD94 DUP3 DUP12 SUB DUP4 PUSH2 0x1F29 JUMP JUMPDEST MLOAD SWAP2 DUP3 SWAP2 DUP3 PUSH2 0x210E JUMP JUMPDEST SUB SWAP1 RETURN JUMPDEST DUP4 SLOAD DUP8 MSTORE SWAP6 DUP7 ADD SWAP6 PUSH1 0x1 SWAP4 DUP5 ADD SWAP4 SWAP1 SWAP2 ADD SWAP1 PUSH2 0xD7C JUMP JUMPDEST DUP3 DUP5 CALLVALUE PUSH2 0x4E1 JUMPI DUP1 PUSH1 0x3 NOT CALLDATASIZE ADD SLT PUSH2 0x4E1 JUMPI POP DUP1 MLOAD PUSH1 0x0 SWAP2 PUSH1 0x3 SLOAD PUSH2 0xDDD DUP2 PUSH2 0x1EAB JUMP JUMPDEST DUP1 DUP5 MSTORE PUSH1 0x1 SWAP2 DUP1 DUP4 AND SWAP1 DUP2 ISZERO PUSH2 0xE73 JUMPI POP PUSH1 0x1 EQ PUSH2 0xE19 JUMPI JUMPDEST POP POP PUSH2 0xE07 DUP3 PUSH2 0xD9E SWAP5 SUB DUP4 PUSH2 0x1F29 JUMP JUMPDEST MLOAD SWAP2 DUP3 SWAP2 PUSH1 0x20 DUP4 MSTORE PUSH1 0x20 DUP4 ADD SWAP1 PUSH2 0x20A2 JUMP JUMPDEST PUSH1 0x3 PUSH1 0x0 SWAP1 DUP2 MSTORE PUSH1 0x20 SWAP6 POP SWAP2 PUSH32 0xC2575A0E9E593C00F959F8C92F12DB2869C3395A3B0502D05E2516446F71F85B JUMPDEST DUP3 DUP5 LT PUSH2 0xE60 JUMPI POP POP POP DUP3 ADD SWAP1 SWAP3 ADD SWAP2 PUSH2 0xE07 DUP3 PUSH2 0xDF6 JUMP JUMPDEST DUP1 SLOAD DUP7 DUP6 ADD DUP9 ADD MSTORE SWAP3 DUP7 ADD SWAP3 DUP2 ADD PUSH2 0xE47 JUMP JUMPDEST PUSH2 0xD9E SWAP7 POP PUSH2 0xE07 SWAP4 POP PUSH1 0x20 SWAP2 POP SWAP2 DUP6 SWAP3 PUSH1 0xFF NOT AND DUP3 DUP5 ADD MSTORE ISZERO ISZERO PUSH1 0x5 SHL DUP3 ADD ADD SWAP5 POP PUSH2 0xDF6 JUMP JUMPDEST POP POP CALLVALUE PUSH2 0x32E JUMPI DUP2 PUSH1 0x3 NOT CALLDATASIZE ADD SLT PUSH2 0x32E JUMPI PUSH2 0xEE6 SWAP1 PUSH2 0xEB9 PUSH2 0x1F4C JUMP JUMPDEST SWAP1 PUSH2 0xF01 PUSH1 0x8 SLOAD PUSH1 0x9 SLOAD PUSH1 0xA SLOAD PUSH2 0xECE PUSH2 0x2009 JUMP JUMPDEST SWAP2 PUSH1 0xC SLOAD SWAP6 DUP1 MLOAD SWAP9 DUP10 SWAP9 PUSH1 0xC0 DUP11 MSTORE PUSH1 0xC0 DUP11 ADD SWAP1 PUSH2 0x20A2 JUMP JUMPDEST SWAP5 PUSH1 0x20 DUP10 ADD MSTORE DUP8 ADD MSTORE PUSH1 0x60 DUP7 ADD MSTORE DUP5 DUP3 SUB PUSH1 0x80 DUP7 ADD MSTORE PUSH2 0x20A2 JUMP JUMPDEST SWAP1 PUSH1 0xA0 DUP4 ADD MSTORE SUB SWAP1 RETURN JUMPDEST POP POP CALLVALUE PUSH2 0x32E JUMPI DUP2 PUSH1 0x3 NOT CALLDATASIZE ADD SLT PUSH2 0x32E JUMPI MLOAD PUSH1 0x55 PUSH1 0xF8 SHL DUP2 MSTORE PUSH1 0x20 SWAP1 RETURN JUMPDEST DUP4 CALLVALUE PUSH2 0x4E1 JUMPI PUSH1 0x20 CALLDATASIZE PUSH1 0x3 NOT ADD SLT PUSH2 0x4E1 JUMPI PUSH2 0xF44 PUSH2 0x20E2 JUMP JUMPDEST PUSH2 0xF4C PUSH2 0x2194 JUMP JUMPDEST PUSH1 0x15 DUP1 SLOAD PUSH1 0x1 PUSH1 0x1 PUSH1 0xA0 SHL SUB NOT AND PUSH1 0x1 PUSH1 0x1 PUSH1 0xA0 SHL SUB SWAP3 SWAP1 SWAP3 AND SWAP2 SWAP1 SWAP2 OR SWAP1 SSTORE DUP1 RETURN JUMPDEST POP SWAP1 CALLVALUE PUSH2 0x301 JUMPI PUSH1 0x60 CALLDATASIZE PUSH1 0x3 NOT ADD SLT PUSH2 0x301 JUMPI PUSH2 0xF8A PUSH2 0x20E2 JUMP JUMPDEST SWAP3 PUSH2 0xF93 PUSH2 0x20F8 JUMP JUMPDEST SWAP3 PUSH1 0x1 PUSH1 0x1 PUSH1 0xA0 SHL SUB PUSH1 0x44 CALLDATALOAD DUP2 DUP2 AND SWAP5 SWAP1 DUP6 SWAP1 SUB PUSH2 0xC69 JUMPI PUSH2 0xFB3 PUSH2 0x2194 JUMP JUMPDEST DUP2 DUP8 AND SWAP3 DUP4 ISZERO ISZERO DUP1 PUSH2 0x1224 JUMPI JUMPDEST ISZERO PUSH2 0x11EE JUMPI DUP3 PUSH1 0x5 SLOAD AND DUP1 PUSH2 0x112E JUMPI JUMPDEST POP POP SWAP1 PUSH32 0xF0C9129A94F30F1CAACEB63E44B9811D0A3EDF1D6C23757F346093AF5553FED0 SWAP2 DUP4 DUP6 MSTORE PUSH1 0x20 SWAP8 PUSH1 0xE DUP10 MSTORE DUP2 DUP7 KECCAK256 SLOAD PUSH2 0x103E JUMPI JUMPDEST POP DUP4 DUP6 MSTORE PUSH1 0x12 DUP9 MSTORE DUP1 DUP6 KECCAK256 SLOAD DUP1 PUSH2 0x1027 JUMPI JUMPDEST POP MLOAD SWAP6 AND SWAP3 DUP1 LOG4 PUSH1 0x1 DUP2 MSTORE RETURN JUMPDEST DUP3 DUP9 AND DUP7 MSTORE DUP2 DUP7 KECCAK256 SSTORE DUP4 DUP6 MSTORE DUP5 DUP2 DUP2 KECCAK256 SSTORE CODESIZE PUSH2 0x101A JUMP JUMPDEST PUSH1 0x0 DUP1 MLOAD PUSH1 0x20 PUSH2 0x2A2A DUP4 CODECOPY DUP2 MLOAD SWAP2 MSTORE DUP7 MSTORE PUSH1 0xD DUP10 MSTORE DUP2 DUP7 KECCAK256 DUP6 PUSH1 0x0 MSTORE DUP10 MSTORE DUP2 PUSH1 0x0 KECCAK256 SLOAD DUP9 DUP2 PUSH2 0x111D JUMPI JUMPDEST POP POP POP PUSH1 0x0 DUP1 MLOAD PUSH1 0x20 PUSH2 0x29AA DUP4 CODECOPY DUP2 MLOAD SWAP2 MSTORE DUP1 DUP7 MSTORE PUSH1 0xD DUP10 MSTORE DUP2 DUP7 KECCAK256 DUP6 PUSH1 0x0 MSTORE DUP10 MSTORE DUP2 PUSH1 0x0 KECCAK256 SLOAD SWAP1 DUP2 PUSH2 0x109C JUMPI JUMPDEST POP PUSH2 0x1008 JUMP JUMPDEST DUP1 PUSH1 0x0 MSTORE PUSH1 0xD DUP11 MSTORE DUP3 PUSH1 0x0 KECCAK256 DUP7 PUSH1 0x0 MSTORE DUP11 MSTORE DUP3 PUSH1 0x0 KECCAK256 PUSH2 0x10BD DUP4 DUP3 SLOAD PUSH2 0x21FA JUMP JUMPDEST SWAP1 SSTORE PUSH1 0x0 MSTORE PUSH1 0xD DUP10 MSTORE DUP2 PUSH1 0x0 KECCAK256 DUP4 DUP10 AND SWAP1 DUP2 PUSH1 0x0 MSTORE DUP11 MSTORE DUP3 PUSH1 0x0 KECCAK256 PUSH2 0x10E3 DUP4 DUP3 SLOAD PUSH2 0x27D9 JUMP JUMPDEST SWAP1 SSTORE DUP6 PUSH1 0x0 MSTORE PUSH1 0xE DUP11 MSTORE DUP3 PUSH1 0x0 KECCAK256 PUSH2 0x10FC DUP4 DUP3 SLOAD PUSH2 0x21FA JUMP JUMPDEST SWAP1 SSTORE PUSH1 0x0 MSTORE PUSH1 0xE DUP10 MSTORE PUSH2 0x1114 DUP3 PUSH1 0x0 KECCAK256 SWAP2 DUP3 SLOAD PUSH2 0x27D9 JUMP JUMPDEST SWAP1 SSTORE CODESIZE DUP1 PUSH2 0x1096 JUMP JUMPDEST PUSH2 0x1126 SWAP3 PUSH2 0x27E6 JUMP JUMPDEST CODESIZE DUP1 DUP9 PUSH2 0x1068 JUMP JUMPDEST PUSH1 0x20 PUSH1 0x24 SWAP2 DUP5 MLOAD SWAP3 DUP4 DUP1 SWAP3 PUSH4 0x3C3AD795 PUSH1 0xE2 SHL DUP3 MSTORE DUP9 DUP14 AND DUP8 DUP4 ADD MSTORE GAS STATICCALL SWAP1 DUP2 ISZERO PUSH2 0x11E4 JUMPI DUP8 SWAP2 DUP6 SWAP2 DUP9 SWAP2 PUSH2 0x11A1 JUMPI JUMPDEST POP AND SUB PUSH2 0x116B JUMPI DUP1 PUSH2 0xFD0 JUMP JUMPDEST PUSH1 0x20 PUSH1 0x64 SWAP3 MLOAD SWAP2 PUSH3 0x461BCD PUSH1 0xE5 SHL DUP4 MSTORE DUP3 ADD MSTORE PUSH1 0x11 PUSH1 0x24 DUP3 ADD MSTORE PUSH17 0x92888A9CA892A8B2BE9A92A69A82A8869 PUSH1 0x7B SHL PUSH1 0x44 DUP3 ADD MSTORE REVERT JUMPDEST SWAP3 POP POP POP PUSH1 0x20 DUP2 RETURNDATASIZE DUP3 GT PUSH2 0x11DC JUMPI JUMPDEST DUP2 PUSH2 0x11BD PUSH1 0x20 SWAP4 DUP4 PUSH2 0x1F29 JUMP JUMPDEST DUP2 ADD SUB SLT PUSH2 0x11D8 JUMPI MLOAD DUP4 DUP2 AND DUP2 SUB PUSH2 0x11D8 JUMPI DUP4 DUP8 SWAP2 CODESIZE PUSH2 0x115E JUMP JUMPDEST DUP6 DUP1 REVERT JUMPDEST RETURNDATASIZE SWAP2 POP PUSH2 0x11B0 JUMP JUMPDEST DUP4 MLOAD RETURNDATASIZE DUP9 DUP3 RETURNDATACOPY RETURNDATASIZE SWAP1 REVERT JUMPDEST PUSH1 0x20 PUSH1 0x64 SWAP3 MLOAD SWAP2 PUSH3 0x461BCD PUSH1 0xE5 SHL DUP4 MSTORE DUP3 ADD MSTORE PUSH1 0x11 PUSH1 0x24 DUP3 ADD MSTORE PUSH17 0x494E56414C49445F414444524553534553 PUSH1 0x78 SHL PUSH1 0x44 DUP3 ADD MSTORE REVERT JUMPDEST POP DUP3 DUP8 AND ISZERO ISZERO PUSH2 0xFC0 JUMP JUMPDEST POP POP CALLVALUE PUSH2 0x32E JUMPI PUSH2 0xD9E SWAP1 PUSH2 0x124F PUSH2 0x1246 CALLDATASIZE PUSH2 0x2149 JUMP JUMPDEST POP POP SWAP1 CALLER PUSH2 0x24E5 JUMP JUMPDEST SWAP2 MLOAD PUSH1 0x1 PUSH1 0x1 PUSH1 0xF8 SHL SUB NOT SWAP1 SWAP2 AND DUP2 MSTORE PUSH1 0x20 DUP2 ADD SWAP2 SWAP1 SWAP2 MSTORE SWAP1 DUP2 SWAP1 PUSH1 0x40 DUP3 ADD SWAP1 JUMP JUMPDEST POP POP CALLVALUE PUSH2 0x32E JUMPI DUP2 PUSH1 0x3 NOT CALLDATASIZE ADD SLT PUSH2 0x32E JUMPI SWAP1 SLOAD SWAP1 MLOAD PUSH1 0x1 PUSH1 0x1 PUSH1 0xA0 SHL SUB SWAP1 SWAP2 AND DUP2 MSTORE PUSH1 0x20 SWAP1 RETURN JUMPDEST POP POP CALLVALUE PUSH2 0x32E JUMPI DUP2 PUSH1 0x3 NOT CALLDATASIZE ADD SLT PUSH2 0x32E JUMPI PUSH1 0x20 SWAP1 MLOAD PUSH1 0x0 DUP1 MLOAD PUSH1 0x20 PUSH2 0x2A2A DUP4 CODECOPY DUP2 MLOAD SWAP2 MSTORE DUP2 MSTORE RETURN JUMPDEST DUP4 CALLVALUE PUSH2 0x4E1 JUMPI DUP1 PUSH1 0x3 NOT CALLDATASIZE ADD SLT PUSH2 0x4E1 JUMPI PUSH2 0x12DB PUSH2 0x2194 JUMP JUMPDEST PUSH1 0x1 PUSH1 0xFF NOT PUSH1 0x10 SLOAD AND OR PUSH1 0x10 SSTORE CALLER PUSH32 0x62E78CEA01BEE320CD4E420270B5EA74000D11B0C9F74754EBDBFC544B05A258 DUP3 DUP1 LOG2 DUP1 RETURN JUMPDEST POP DUP3 CALLVALUE PUSH2 0x4E1 JUMPI PUSH1 0x20 DUP1 PUSH1 0x3 NOT CALLDATASIZE ADD SLT PUSH2 0x32E JUMPI PUSH2 0x132C PUSH2 0x20E2 JUMP JUMPDEST PUSH1 0x5 SLOAD PUSH1 0x1 PUSH1 0x1 PUSH1 0xA0 SHL SUB SWAP1 DUP2 AND DUP1 ISZERO SWAP6 SWAP2 SWAP3 SWAP2 DUP7 ISZERO PUSH2 0x13A4 JUMPI JUMPDEST POP POP SWAP2 PUSH1 0x80 SWAP6 SWAP2 DUP6 SWAP5 SWAP4 AND DUP4 MSTORE PUSH1 0x11 DUP2 MSTORE DUP2 PUSH1 0xFF DUP2 DUP6 KECCAK256 SLOAD AND SWAP4 PUSH1 0x12 DUP4 MSTORE KECCAK256 SLOAD SWAP3 DUP5 PUSH2 0x139B JUMPI JUMPDEST DUP5 PUSH2 0x138D JUMPI JUMPDEST DUP3 MLOAD SWAP6 ISZERO ISZERO DUP7 MSTORE ISZERO ISZERO SWAP1 DUP6 ADD MSTORE DUP4 ADD MSTORE ISZERO ISZERO PUSH1 0x60 DUP3 ADD MSTORE RETURN JUMPDEST PUSH1 0x10 SLOAD PUSH1 0xFF AND ISZERO SWAP5 POP PUSH2 0x1374 JUMP JUMPDEST DUP1 ISZERO SWAP5 POP PUSH2 0x136E JUMP JUMPDEST DUP8 SWAP4 SWAP7 POP PUSH1 0x24 DUP6 SWAP4 SWAP7 SWAP6 SWAP3 SWAP9 MLOAD DUP1 SWAP10 DUP2 SWAP4 PUSH4 0xB9209E33 PUSH1 0xE0 SHL DUP4 MSTORE DUP11 DUP11 AND SWAP1 DUP4 ADD MSTORE GAS STATICCALL DUP1 ISZERO PUSH2 0x1403 JUMPI PUSH1 0x80 SWAP7 DUP5 SWAP2 PUSH2 0x13E6 JUMPI JUMPDEST POP SWAP5 SWAP2 SWAP6 DUP8 SWAP5 SWAP2 SWAP4 SWAP5 PUSH2 0x1347 JUMP JUMPDEST PUSH2 0x13FD SWAP2 POP DUP3 RETURNDATASIZE DUP5 GT PUSH2 0x912 JUMPI PUSH2 0x904 DUP2 DUP4 PUSH2 0x1F29 JUMP JUMPDEST DUP8 PUSH2 0x13D8 JUMP JUMPDEST POP POP MLOAD SWAP1 RETURNDATASIZE SWAP1 DUP3 RETURNDATACOPY RETURNDATASIZE SWAP1 REVERT JUMPDEST DUP4 DUP3 CALLVALUE PUSH2 0x32E JUMPI PUSH1 0x20 CALLDATASIZE PUSH1 0x3 NOT ADD SLT PUSH2 0x32E JUMPI PUSH2 0x142A PUSH2 0x2194 JUMP JUMPDEST CALLDATALOAD PUSH1 0xC SSTORE DUP1 RETURN JUMPDEST POP POP CALLVALUE PUSH2 0x32E JUMPI PUSH1 0x20 SWAP2 DUP3 PUSH1 0x3 NOT CALLDATASIZE ADD SLT PUSH2 0x4E1 JUMPI POP SWAP1 PUSH2 0x1450 PUSH2 0x20E2 JUMP JUMPDEST POP DUP2 MLOAD SWAP2 DUP3 SWAP2 DUP1 PUSH1 0xF SLOAD SWAP5 DUP6 DUP2 MSTORE ADD SWAP4 PUSH1 0xF PUSH1 0x0 MSTORE DUP2 PUSH1 0x0 KECCAK256 SWAP2 PUSH1 0x0 SWAP1 JUMPDEST DUP3 DUP3 LT PUSH2 0x1486 JUMPI PUSH2 0xD9E DUP7 DUP7 PUSH2 0xD94 DUP3 DUP12 SUB DUP4 PUSH2 0x1F29 JUMP JUMPDEST DUP4 SLOAD DUP8 MSTORE SWAP6 DUP7 ADD SWAP6 PUSH1 0x1 SWAP4 DUP5 ADD SWAP4 SWAP1 SWAP2 ADD SWAP1 PUSH2 0x146E JUMP JUMPDEST DUP4 CALLVALUE PUSH2 0x4E1 JUMPI DUP1 PUSH1 0x3 NOT CALLDATASIZE ADD SLT PUSH2 0x4E1 JUMPI PUSH2 0x14B6 PUSH2 0x2194 JUMP JUMPDEST PUSH1 0x0 DUP1 SLOAD PUSH1 0x1 PUSH1 0x1 PUSH1 0xA0 SHL SUB NOT DUP2 AND DUP3 SSTORE PUSH1 0x1 PUSH1 0x1 PUSH1 0xA0 SHL SUB AND PUSH1 0x0 DUP1 MLOAD PUSH1 0x20 PUSH2 0x2A0A DUP4 CODECOPY DUP2 MLOAD SWAP2 MSTORE DUP3 DUP1 LOG3 DUP1 RETURN JUMPDEST POP POP CALLVALUE PUSH2 0x32E JUMPI PUSH1 0x20 CALLDATASIZE PUSH1 0x3 NOT ADD SLT PUSH2 0x32E JUMPI PUSH1 0x20 SWAP2 DUP2 SWAP1 PUSH1 0x1 PUSH1 0x1 PUSH1 0xA0 SHL SUB PUSH2 0x150D PUSH2 0x20E2 JUMP JUMPDEST AND DUP2 MSTORE PUSH1 0xE DUP5 MSTORE KECCAK256 SLOAD SWAP1 MLOAD SWAP1 DUP2 MSTORE RETURN JUMPDEST POP CALLVALUE PUSH2 0x301 JUMPI DUP3 PUSH1 0x3 NOT CALLDATASIZE ADD SLT PUSH2 0x301 JUMPI PUSH2 0xEE6 SWAP3 POP PUSH2 0xF01 PUSH1 0x8 SLOAD PUSH1 0x9 SLOAD SWAP4 PUSH1 0xA SLOAD SWAP4 SLOAD SWAP4 PUSH2 0x154B PUSH2 0x1F4C JUMP JUMPDEST SWAP6 PUSH2 0x1554 PUSH2 0x2009 JUMP JUMPDEST SWAP3 DUP1 MLOAD SWAP9 DUP10 SWAP9 PUSH1 0xC0 DUP11 MSTORE PUSH1 0xC0 DUP11 ADD SWAP1 PUSH2 0x20A2 JUMP JUMPDEST POP POP CALLVALUE PUSH2 0x32E JUMPI DUP1 PUSH1 0x3 NOT CALLDATASIZE ADD SLT PUSH2 0x32E JUMPI PUSH2 0x1582 PUSH2 0x20E2 JUMP JUMPDEST SWAP1 PUSH1 0x24 CALLDATALOAD SWAP2 DUP3 ISZERO ISZERO DUP1 SWAP4 SUB PUSH2 0xC69 JUMPI PUSH2 0x1599 PUSH2 0x2194 JUMP JUMPDEST PUSH1 0x1 PUSH1 0x1 PUSH1 0xA0 SHL SUB AND DUP1 DUP5 MSTORE PUSH1 0x11 PUSH1 0x20 MSTORE SWAP1 DUP4 KECCAK256 DUP1 SLOAD PUSH1 0xFF NOT AND PUSH1 0xFF DUP5 AND OR SWAP1 SSTORE PUSH32 0xA3E40A317EAC9D2F33DE1F67819E7103BE50CA171B0559BA3EF1313E2E9C9ED4 DUP4 DUP1 LOG3 DUP1 RETURN JUMPDEST POP POP CALLVALUE PUSH2 0x32E JUMPI DUP2 PUSH1 0x3 NOT CALLDATASIZE ADD SLT PUSH2 0x32E JUMPI PUSH1 0x6 SLOAD SWAP1 MLOAD PUSH1 0x1 PUSH1 0x1 PUSH1 0xA0 SHL SUB SWAP1 SWAP2 AND DUP2 MSTORE PUSH1 0x20 SWAP1 RETURN JUMPDEST POP POP CALLVALUE PUSH2 0x32E JUMPI DUP2 PUSH1 0x3 NOT CALLDATASIZE ADD SLT PUSH2 0x32E JUMPI PUSH1 0x20 SWAP1 PUSH1 0xFF PUSH1 0x10 SLOAD AND SWAP1 MLOAD SWAP1 ISZERO ISZERO DUP2 MSTORE RETURN JUMPDEST POP POP CALLVALUE PUSH2 0x32E JUMPI DUP2 PUSH1 0x3 NOT CALLDATASIZE ADD SLT PUSH2 0x32E JUMPI MLOAD PUSH1 0x29 PUSH1 0xF9 SHL DUP2 MSTORE PUSH1 0x20 SWAP1 RETURN JUMPDEST POP POP CALLVALUE PUSH2 0x32E JUMPI DUP2 PUSH1 0x3 NOT CALLDATASIZE ADD SLT PUSH2 0x32E JUMPI PUSH1 0x20 SWAP1 PUSH1 0xFF PUSH1 0x15 SLOAD PUSH1 0xA0 SHR AND SWAP1 MLOAD SWAP1 ISZERO ISZERO DUP2 MSTORE RETURN JUMPDEST DUP4 CALLVALUE PUSH2 0x4E1 JUMPI DUP1 PUSH1 0x3 NOT CALLDATASIZE ADD SLT PUSH2 0x4E1 JUMPI PUSH2 0x168D PUSH2 0x2194 JUMP JUMPDEST PUSH1 0xFF NOT PUSH1 0x10 SLOAD AND PUSH1 0x10 SSTORE CALLER PUSH32 0x5DB9EE0A495BF2E6FF9C91A7834C1BA4FDD244A5E8AA4E537BD38AEAE4B073AA DUP3 DUP1 LOG2 DUP1 RETURN JUMPDEST POP DUP3 CALLVALUE PUSH2 0x4E1 JUMPI PUSH1 0x20 SWAP2 DUP3 PUSH1 0x3 NOT CALLDATASIZE ADD SLT PUSH2 0x32E JUMPI PUSH1 0x1 PUSH1 0x1 PUSH1 0x40 SHL SUB DUP2 CALLDATALOAD DUP2 DUP2 GT PUSH2 0x4EE JUMPI PUSH2 0x16F2 SWAP1 CALLDATASIZE SWAP1 DUP5 ADD PUSH2 0x1E7E JUMP JUMPDEST SWAP3 SWAP1 SWAP2 PUSH2 0x16FD PUSH2 0x2194 JUMP JUMPDEST DUP4 GT PUSH2 0x1800 JUMPI POP PUSH2 0x170F PUSH1 0xB SLOAD PUSH2 0x1EAB JUMP JUMPDEST PUSH1 0x1F DUP2 GT PUSH2 0x17B9 JUMPI JUMPDEST POP DUP3 SWAP4 PUSH1 0x1F DUP4 GT PUSH1 0x1 EQ PUSH2 0x1755 JUMPI POP SWAP3 DUP3 SWAP4 DUP3 SWAP4 SWAP3 PUSH2 0x174A JUMPI JUMPDEST POP POP DUP2 PUSH1 0x1 SHL SWAP2 PUSH1 0x0 NOT SWAP1 PUSH1 0x3 SHL SHR NOT AND OR PUSH1 0xB SSTORE DUP1 RETURN JUMPDEST ADD CALLDATALOAD SWAP1 POP DUP4 DUP1 PUSH2 0x1732 JUMP JUMPDEST SWAP1 PUSH1 0x1F NOT DUP4 AND SWAP5 PUSH1 0xB DUP6 MSTORE DUP3 DUP6 KECCAK256 SWAP3 DUP6 SWAP1 JUMPDEST DUP8 DUP3 LT PUSH2 0x17A1 JUMPI POP POP DUP4 PUSH1 0x1 SWAP6 SWAP7 LT PUSH2 0x1787 JUMPI JUMPDEST POP POP POP DUP2 SHL ADD PUSH1 0xB SSTORE DUP1 RETURN JUMPDEST ADD CALLDATALOAD PUSH1 0x0 NOT PUSH1 0x3 DUP5 SWAP1 SHL PUSH1 0xF8 AND SHR NOT AND SWAP1 SSTORE DUP4 DUP1 DUP1 PUSH2 0x177B JUMP JUMPDEST DUP1 PUSH1 0x1 DUP5 SWAP7 DUP3 SWAP5 SWAP6 DUP8 ADD CALLDATALOAD DUP2 SSTORE ADD SWAP6 ADD SWAP3 ADD SWAP1 PUSH2 0x1767 JUMP JUMPDEST PUSH1 0xB PUSH1 0x0 MSTORE DUP5 PUSH1 0x0 KECCAK256 PUSH1 0x1F DUP5 ADD PUSH1 0x5 SHR DUP2 ADD SWAP2 DUP7 DUP6 LT PUSH2 0x17F6 JUMPI JUMPDEST PUSH1 0x1F ADD PUSH1 0x5 SHR ADD SWAP1 JUMPDEST DUP2 DUP2 LT PUSH2 0x17EA JUMPI POP PUSH2 0x1718 JUMP JUMPDEST PUSH1 0x0 DUP2 SSTORE PUSH1 0x1 ADD PUSH2 0x17DD JUMP JUMPDEST SWAP1 SWAP2 POP DUP2 SWAP1 PUSH2 0x17D4 JUMP JUMPDEST PUSH4 0x4E487B71 PUSH1 0xE0 SHL DUP5 MSTORE PUSH1 0x41 SWAP1 MSTORE PUSH1 0x24 DUP4 REVERT JUMPDEST POP POP CALLVALUE PUSH2 0x32E JUMPI DUP2 PUSH1 0x3 NOT CALLDATASIZE ADD SLT PUSH2 0x32E JUMPI MLOAD PUSH1 0xB PUSH1 0xFB SHL DUP2 MSTORE PUSH1 0x20 SWAP1 RETURN JUMPDEST POP POP CALLVALUE PUSH2 0x32E JUMPI DUP2 PUSH1 0x3 NOT CALLDATASIZE ADD SLT PUSH2 0x32E JUMPI MLOAD SWAP1 DUP2 MSTORE PUSH1 0x20 SWAP1 RETURN JUMPDEST POP CALLVALUE PUSH2 0x301 JUMPI DUP2 PUSH1 0x3 NOT CALLDATASIZE ADD SLT PUSH2 0x301 JUMPI DUP2 PUSH1 0x20 SWAP4 PUSH2 0x186A PUSH2 0x20F8 JUMP JUMPDEST SWAP3 CALLDATALOAD DUP2 MSTORE PUSH1 0xD DUP6 MSTORE KECCAK256 SWAP1 PUSH1 0x1 DUP1 PUSH1 0xA0 SHL SUB AND PUSH1 0x0 MSTORE DUP3 MSTORE DUP1 PUSH1 0x0 KECCAK256 SLOAD SWAP1 MLOAD SWAP1 DUP2 MSTORE RETURN JUMPDEST POP POP CALLVALUE PUSH2 0x32E JUMPI DUP2 PUSH1 0x3 NOT CALLDATASIZE ADD SLT PUSH2 0x32E JUMPI MLOAD PUSH1 0x57 PUSH1 0xF8 SHL DUP2 MSTORE PUSH1 0x20 SWAP1 RETURN JUMPDEST POP SWAP2 SWAP1 CALLVALUE PUSH2 0x32E JUMPI DUP1 PUSH1 0x3 NOT CALLDATASIZE ADD SLT PUSH2 0x32E JUMPI DUP3 CALLDATALOAD SWAP1 PUSH1 0x24 CALLDATALOAD PUSH2 0x18CD PUSH2 0x27B6 JUMP JUMPDEST PUSH2 0x18DC PUSH1 0xFF PUSH1 0x10 SLOAD AND ISZERO PUSH2 0x277B JUMP JUMPDEST DUP1 DUP5 MSTORE PUSH1 0x20 SWAP5 PUSH1 0xD DUP7 MSTORE DUP3 DUP6 KECCAK256 CALLER DUP7 MSTORE DUP7 MSTORE PUSH2 0x18FD DUP5 DUP5 DUP8 KECCAK256 SLOAD LT ISZERO PUSH2 0x28B1 JUMP JUMPDEST DUP2 DUP6 MSTORE PUSH1 0xD DUP7 MSTORE DUP3 DUP6 KECCAK256 CALLER DUP7 MSTORE DUP7 MSTORE DUP4 PUSH2 0x1922 DUP5 DUP8 KECCAK256 SLOAD PUSH1 0x12 DUP10 MSTORE DUP6 DUP9 KECCAK256 SLOAD SWAP1 PUSH2 0x21FA JUMP JUMPDEST LT PUSH2 0x1A0D JUMPI DUP2 DUP6 MSTORE PUSH1 0xD DUP7 MSTORE DUP3 DUP6 KECCAK256 CALLER DUP7 MSTORE DUP7 MSTORE DUP3 DUP6 KECCAK256 PUSH2 0x1944 DUP6 DUP3 SLOAD PUSH2 0x21FA JUMP JUMPDEST SWAP1 SSTORE CALLER DUP6 MSTORE PUSH1 0xE DUP7 MSTORE DUP3 DUP6 KECCAK256 PUSH2 0x195B DUP6 DUP3 SLOAD PUSH2 0x21FA JUMP JUMPDEST SWAP1 SSTORE PUSH2 0x1968 DUP5 DUP3 SLOAD PUSH2 0x21FA JUMP JUMPDEST DUP2 SSTORE PUSH1 0x6 SLOAD PUSH1 0x1 PUSH1 0x1 PUSH1 0xA0 SHL SUB AND SWAP1 DUP2 PUSH2 0x19A3 JUMPI JUMPDEST POP POP PUSH1 0x0 DUP1 MLOAD PUSH1 0x20 PUSH2 0x29EA DUP4 CODECOPY DUP2 MLOAD SWAP2 MSTORE SWAP3 SWAP4 SWAP5 DUP3 MLOAD SWAP5 DUP6 MSTORE DUP5 ADD MSTORE CALLER SWAP3 LOG2 PUSH1 0x1 DUP1 SSTORE DUP1 RETURN JUMPDEST DUP2 EXTCODESIZE ISZERO PUSH2 0x11D8 JUMPI DUP5 PUSH2 0x19CD SWAP3 DUP8 SWAP3 DUP4 DUP8 MLOAD DUP1 SWAP7 DUP2 SWAP6 DUP3 SWAP5 PUSH4 0x469753B9 PUSH1 0xE1 SHL DUP5 MSTORE CALLER SWAP1 DUP5 ADD PUSH2 0x2896 JUMP JUMPDEST SUB SWAP3 GAS CALL DUP1 ISZERO PUSH2 0x1A03 JUMPI PUSH2 0x19E2 JUMPI JUMPDEST DUP1 PUSH2 0x197D JUMP JUMPDEST SWAP4 PUSH2 0x19FC PUSH1 0x0 DUP1 MLOAD PUSH1 0x20 PUSH2 0x29EA DUP4 CODECOPY DUP2 MLOAD SWAP2 MSTORE SWAP5 SWAP6 PUSH2 0x1F16 JUMP JUMPDEST SWAP4 SWAP3 PUSH2 0x19DC JUMP JUMPDEST DUP4 MLOAD RETURNDATASIZE DUP8 DUP3 RETURNDATACOPY RETURNDATASIZE SWAP1 REVERT JUMPDEST DUP3 MLOAD PUSH3 0x461BCD PUSH1 0xE5 SHL DUP2 MSTORE SWAP1 DUP2 ADD DUP7 SWAP1 MSTORE PUSH1 0xD PUSH1 0x24 DUP3 ADD MSTORE PUSH13 0x2A27A5A2A729AFA32927AD22A7 PUSH1 0x99 SHL PUSH1 0x44 DUP3 ADD MSTORE PUSH1 0x64 SWAP1 REVERT JUMPDEST POP CALLVALUE PUSH2 0x301 JUMPI PUSH1 0x60 CALLDATASIZE PUSH1 0x3 NOT ADD SLT PUSH2 0x301 JUMPI PUSH2 0x1A5A PUSH2 0x20E2 JUMP JUMPDEST SWAP3 PUSH1 0x44 CALLDATALOAD SWAP1 PUSH1 0x1 PUSH1 0x1 PUSH1 0x40 SHL SUB DUP3 GT PUSH2 0x4E1 JUMPI POP SWAP3 PUSH2 0x1A82 PUSH2 0x124F SWAP3 PUSH2 0xD9E SWAP6 CALLDATASIZE SWAP2 ADD PUSH2 0x1E7E JUMP JUMPDEST POP POP PUSH1 0x24 CALLDATALOAD SWAP1 CALLER PUSH2 0x221D JUMP JUMPDEST POP CALLVALUE PUSH2 0x301 JUMPI DUP3 PUSH1 0x3 NOT CALLDATASIZE ADD SLT PUSH2 0x301 JUMPI PUSH1 0x20 SWAP3 POP SLOAD SWAP1 MLOAD SWAP1 DUP2 MSTORE RETURN JUMPDEST POP POP CALLVALUE PUSH2 0x32E JUMPI PUSH1 0x20 CALLDATASIZE PUSH1 0x3 NOT ADD SLT PUSH2 0x32E JUMPI PUSH1 0x20 SWAP1 PUSH2 0xFFFF PUSH2 0x1AD4 PUSH2 0x1ACF PUSH2 0x20E2 JUMP JUMPDEST PUSH2 0x2915 JUMP JUMPDEST SWAP2 MLOAD SWAP2 AND DUP2 MSTORE RETURN JUMPDEST POP POP CALLVALUE PUSH2 0x32E JUMPI DUP2 PUSH1 0x3 NOT CALLDATASIZE ADD SLT PUSH2 0x32E JUMPI PUSH1 0x5 SLOAD SWAP1 MLOAD PUSH1 0x1 PUSH1 0x1 PUSH1 0xA0 SHL SUB SWAP1 SWAP2 AND DUP2 MSTORE PUSH1 0x20 SWAP1 RETURN JUMPDEST POP POP CALLVALUE PUSH2 0x32E JUMPI DUP2 PUSH1 0x3 NOT CALLDATASIZE ADD SLT PUSH2 0x32E JUMPI PUSH1 0x20 SWAP1 MLOAD PUSH1 0x0 DUP1 MLOAD PUSH1 0x20 PUSH2 0x29AA DUP4 CODECOPY DUP2 MLOAD SWAP2 MSTORE DUP2 MSTORE RETURN JUMPDEST POP POP CALLVALUE PUSH2 0x32E JUMPI DUP2 PUSH1 0x3 NOT CALLDATASIZE ADD SLT PUSH2 0x32E JUMPI DUP1 MLOAD SWAP1 DUP3 PUSH1 0x2 SLOAD PUSH2 0x1B50 DUP2 PUSH2 0x1EAB JUMP JUMPDEST DUP1 DUP6 MSTORE SWAP1 PUSH1 0x1 SWAP1 DUP2 DUP2 AND SWAP1 DUP2 ISZERO PUSH2 0x1BD5 JUMPI POP PUSH1 0x1 EQ PUSH2 0x1B7C JUMPI JUMPDEST POP POP POP PUSH2 0xE07 DUP3 PUSH2 0xD9E SWAP5 SUB DUP4 PUSH2 0x1F29 JUMP JUMPDEST PUSH1 0x2 DUP4 MSTORE PUSH1 0x20 SWAP6 POP PUSH32 0x405787FA12A823E0F2B7631CC41B3BA8828B3321CA811111FA75CD3AA3BB5ACE JUMPDEST DUP3 DUP5 LT PUSH2 0x1BC2 JUMPI POP POP POP DUP3 PUSH2 0xD9E SWAP5 PUSH2 0xE07 SWAP3 DUP3 ADD ADD SWAP5 PUSH2 0x1B6A JUMP JUMPDEST DUP1 SLOAD DUP7 DUP6 ADD DUP9 ADD MSTORE SWAP3 DUP7 ADD SWAP3 DUP2 ADD PUSH2 0x1BA6 JUMP JUMPDEST PUSH2 0xD9E SWAP8 POP PUSH2 0xE07 SWAP5 POP PUSH1 0x20 SWAP3 POP DUP7 SWAP4 SWAP2 POP PUSH1 0xFF NOT AND DUP3 DUP5 ADD MSTORE ISZERO ISZERO PUSH1 0x5 SHL DUP3 ADD ADD SWAP5 PUSH2 0x1B6A JUMP JUMPDEST POP DUP3 SWAP1 CALLVALUE PUSH2 0x32E JUMPI PUSH1 0x60 CALLDATASIZE PUSH1 0x3 NOT ADD SLT PUSH2 0x32E JUMPI PUSH1 0x1 PUSH1 0x1 PUSH1 0x40 SHL SUB SWAP3 DUP2 CALLDATALOAD SWAP2 SWAP1 PUSH1 0x24 CALLDATALOAD DUP6 DUP2 GT PUSH2 0x865 JUMPI PUSH2 0x1C35 SWAP1 CALLDATASIZE SWAP1 DUP5 ADD PUSH2 0x1E7E JUMP JUMPDEST SWAP3 SWAP1 SWAP6 PUSH1 0x44 CALLDATALOAD SWAP1 PUSH2 0x1C44 PUSH2 0x2194 JUMP JUMPDEST DUP6 DUP8 MSTORE PUSH1 0x20 SWAP3 PUSH1 0x13 DUP5 MSTORE PUSH1 0x2 DUP6 DUP10 KECCAK256 ADD SLOAD ISZERO PUSH2 0x1E3D JUMPI JUMPDEST DUP5 MLOAD SWAP2 PUSH2 0x1C67 DUP4 PUSH2 0x1EE5 JUMP JUMPDEST DUP1 DUP8 GT PUSH2 0x1E2A JUMPI DUP6 MLOAD PUSH1 0x1F NOT SWAP2 SWAP1 PUSH2 0x1C86 PUSH1 0x1F DUP11 ADD DUP5 AND DUP9 ADD DUP3 PUSH2 0x1F29 JUMP JUMPDEST DUP9 DUP2 MSTORE CALLDATASIZE DUP10 DUP14 ADD GT PUSH2 0x1E26 JUMPI DUP9 DUP13 DUP9 DUP4 ADD CALLDATACOPY DUP11 DUP8 DUP11 DUP4 ADD ADD MSTORE DUP5 MSTORE DUP6 DUP5 ADD SWAP2 DUP6 DUP4 MSTORE DUP8 DUP6 ADD SWAP4 TIMESTAMP DUP6 MSTORE DUP11 DUP13 MSTORE PUSH1 0x13 DUP9 MSTORE DUP9 DUP13 KECCAK256 SWAP6 MLOAD SWAP1 DUP2 MLOAD SWAP4 DUP5 GT PUSH2 0x1E13 JUMPI POP PUSH2 0x1CD0 DUP7 SLOAD PUSH2 0x1EAB JUMP JUMPDEST PUSH1 0x1F DUP2 GT PUSH2 0x1DCB JUMPI JUMPDEST POP DUP8 SWAP2 PUSH1 0x1F DUP5 GT PUSH1 0x1 EQ PUSH2 0x1D51 JUMPI POP SWAP3 DUP3 PUSH1 0x2 SWAP4 DUP14 SWAP15 SWAP7 SWAP4 PUSH2 0x1D3C SWAP9 SWAP7 PUSH1 0x0 DUP1 MLOAD PUSH1 0x20 PUSH2 0x29CA DUP4 CODECOPY DUP2 MLOAD SWAP2 MSTORE SWAP15 SWAP16 SWAP3 PUSH2 0x1D46 JUMPI JUMPDEST POP POP DUP2 PUSH1 0x1 SHL SWAP2 PUSH1 0x0 NOT SWAP1 PUSH1 0x3 SHL SHR NOT AND OR DUP5 SSTORE JUMPDEST MLOAD PUSH1 0x1 DUP5 ADD SSTORE MLOAD SWAP2 ADD SSTORE DUP5 MLOAD SWAP6 DUP6 DUP8 SWAP7 DUP8 MSTORE DUP7 ADD SWAP2 PUSH2 0x28F4 JUMP JUMPDEST SWAP2 DUP4 ADD MSTORE SUB SWAP1 LOG2 DUP1 RETURN JUMPDEST ADD MLOAD SWAP1 POP DUP16 DUP1 PUSH2 0x1D0D JUMP JUMPDEST DUP7 DUP14 MSTORE DUP9 DUP14 KECCAK256 SWAP3 SWAP2 SWAP1 DUP5 AND DUP14 JUMPDEST DUP2 DUP2 LT PUSH2 0x1DB4 JUMPI POP SWAP4 PUSH1 0x0 DUP1 MLOAD PUSH1 0x20 PUSH2 0x29CA DUP4 CODECOPY DUP2 MLOAD SWAP2 MSTORE SWAP13 SWAP14 SWAP15 SWAP7 SWAP4 PUSH2 0x1D3C SWAP9 SWAP7 SWAP4 PUSH1 0x1 SWAP4 DUP4 PUSH1 0x2 SWAP9 LT PUSH2 0x1D9B JUMPI JUMPDEST POP POP POP DUP2 SHL ADD DUP5 SSTORE PUSH2 0x1D22 JUMP JUMPDEST ADD MLOAD PUSH1 0x0 NOT PUSH1 0xF8 DUP5 PUSH1 0x3 SHL AND SHR NOT AND SWAP1 SSTORE DUP16 DUP1 DUP1 PUSH2 0x1D8E JUMP JUMPDEST SWAP3 SWAP4 DUP11 PUSH1 0x1 DUP2 SWAP3 DUP8 DUP7 ADD MLOAD DUP2 SSTORE ADD SWAP6 ADD SWAP4 ADD PUSH2 0x1D5E JUMP JUMPDEST DUP7 DUP14 MSTORE DUP9 DUP14 KECCAK256 PUSH1 0x1F DUP6 ADD PUSH1 0x5 SHR DUP2 ADD SWAP2 DUP11 DUP7 LT PUSH2 0x1E09 JUMPI JUMPDEST PUSH1 0x1F ADD PUSH1 0x5 SHR ADD SWAP1 DUP14 SWAP1 JUMPDEST DUP3 DUP2 LT PUSH2 0x1DFC JUMPI POP POP PUSH2 0x1CD9 JUMP JUMPDEST PUSH1 0x1 SWAP2 DUP2 SSTORE ADD DUP14 SWAP1 PUSH2 0x1DEE JUMP JUMPDEST SWAP1 SWAP2 POP DUP2 SWAP1 PUSH2 0x1DE3 JUMP JUMPDEST PUSH4 0x4E487B71 PUSH1 0xE0 SHL DUP14 MSTORE PUSH1 0x41 SWAP1 MSTORE PUSH1 0x24 DUP13 REVERT JUMPDEST DUP11 DUP1 REVERT JUMPDEST PUSH4 0x4E487B71 PUSH1 0xE0 SHL DUP10 MSTORE PUSH1 0x41 DUP3 MSTORE PUSH1 0x24 DUP10 REVERT JUMPDEST PUSH1 0x14 SLOAD PUSH1 0x1 PUSH1 0x40 SHL DUP2 LT ISZERO PUSH2 0x1E2A JUMPI PUSH1 0x1 DUP2 ADD DUP1 PUSH1 0x14 SSTORE DUP2 LT ISZERO PUSH2 0x1E6B JUMPI DUP8 SWAP1 PUSH1 0x14 DUP11 MSTORE DUP6 DUP11 KECCAK256 ADD SSTORE PUSH2 0x1C5B JUMP JUMPDEST PUSH4 0x4E487B71 PUSH1 0xE0 SHL DUP10 MSTORE PUSH1 0x32 DUP3 MSTORE PUSH1 0x24 DUP10 REVERT JUMPDEST SWAP2 DUP2 PUSH1 0x1F DUP5 ADD SLT ISZERO PUSH2 0xC69 JUMPI DUP3 CALLDATALOAD SWAP2 PUSH1 0x1 PUSH1 0x1 PUSH1 0x40 SHL SUB DUP4 GT PUSH2 0xC69 JUMPI PUSH1 0x20 DUP4 DUP2 DUP7 ADD SWAP6 ADD ADD GT PUSH2 0xC69 JUMPI JUMP JUMPDEST SWAP1 PUSH1 0x1 DUP3 DUP2 SHR SWAP3 AND DUP1 ISZERO PUSH2 0x1EDB JUMPI JUMPDEST PUSH1 0x20 DUP4 LT EQ PUSH2 0x1EC5 JUMPI JUMP JUMPDEST PUSH4 0x4E487B71 PUSH1 0xE0 SHL PUSH1 0x0 MSTORE PUSH1 0x22 PUSH1 0x4 MSTORE PUSH1 0x24 PUSH1 0x0 REVERT JUMPDEST SWAP2 PUSH1 0x7F AND SWAP2 PUSH2 0x1EBA JUMP JUMPDEST PUSH1 0x60 DUP2 ADD SWAP1 DUP2 LT PUSH1 0x1 PUSH1 0x1 PUSH1 0x40 SHL SUB DUP3 GT OR PUSH2 0x1F00 JUMPI PUSH1 0x40 MSTORE JUMP JUMPDEST PUSH4 0x4E487B71 PUSH1 0xE0 SHL PUSH1 0x0 MSTORE PUSH1 0x41 PUSH1 0x4 MSTORE PUSH1 0x24 PUSH1 0x0 REVERT JUMPDEST PUSH1 0x1 PUSH1 0x1 PUSH1 0x40 SHL SUB DUP2 GT PUSH2 0x1F00 JUMPI PUSH1 0x40 MSTORE JUMP JUMPDEST PUSH1 0x1F SWAP1 SWAP2 ADD PUSH1 0x1F NOT AND DUP2 ADD SWAP1 PUSH1 0x1 PUSH1 0x1 PUSH1 0x40 SHL SUB DUP3 GT SWAP1 DUP3 LT OR PUSH2 0x1F00 JUMPI PUSH1 0x40 MSTORE JUMP JUMPDEST PUSH1 0x40 MLOAD SWAP1 PUSH1 0x0 DUP3 PUSH1 0x7 SLOAD SWAP2 PUSH2 0x1F60 DUP4 PUSH2 0x1EAB JUMP JUMPDEST DUP1 DUP4 MSTORE PUSH1 0x1 SWAP4 DUP1 DUP6 AND SWAP1 DUP2 ISZERO PUSH2 0x1FE8 JUMPI POP PUSH1 0x1 EQ PUSH2 0x1F88 JUMPI JUMPDEST POP PUSH2 0x1F86 SWAP3 POP SUB DUP4 PUSH2 0x1F29 JUMP JUMPDEST JUMP JUMPDEST PUSH1 0x7 PUSH1 0x0 SWAP1 DUP2 MSTORE PUSH32 0xA66CC928B5EDB82AF9BD49922954155AB7B0942694BEA4CE44661D9A8736C688 SWAP5 PUSH1 0x20 SWAP4 POP SWAP1 SWAP2 SWAP1 JUMPDEST DUP2 DUP4 LT PUSH2 0x1FD0 JUMPI POP POP PUSH2 0x1F86 SWAP4 POP DUP3 ADD ADD CODESIZE PUSH2 0x1F79 JUMP JUMPDEST DUP6 SLOAD DUP9 DUP5 ADD DUP6 ADD MSTORE SWAP5 DUP6 ADD SWAP5 DUP8 SWAP5 POP SWAP2 DUP4 ADD SWAP2 PUSH2 0x1FB9 JUMP JUMPDEST SWAP1 POP PUSH2 0x1F86 SWAP5 POP PUSH1 0x20 SWAP3 POP PUSH1 0xFF NOT AND DUP3 DUP5 ADD MSTORE ISZERO ISZERO PUSH1 0x5 SHL DUP3 ADD ADD CODESIZE PUSH2 0x1F79 JUMP JUMPDEST PUSH1 0x40 MLOAD SWAP1 PUSH1 0x0 DUP3 PUSH1 0xB SLOAD SWAP2 PUSH2 0x201D DUP4 PUSH2 0x1EAB JUMP JUMPDEST DUP1 DUP4 MSTORE PUSH1 0x1 SWAP4 DUP1 DUP6 AND SWAP1 DUP2 ISZERO PUSH2 0x1FE8 JUMPI POP PUSH1 0x1 EQ PUSH2 0x2042 JUMPI POP PUSH2 0x1F86 SWAP3 POP SUB DUP4 PUSH2 0x1F29 JUMP JUMPDEST PUSH1 0xB PUSH1 0x0 SWAP1 DUP2 MSTORE PUSH32 0x175B7A638427703F0DBE7BB9BBF987A2551717B34E79F33B5B1008D1FA01DB9 SWAP5 PUSH1 0x20 SWAP4 POP SWAP1 SWAP2 SWAP1 JUMPDEST DUP2 DUP4 LT PUSH2 0x208A JUMPI POP POP PUSH2 0x1F86 SWAP4 POP DUP3 ADD ADD CODESIZE PUSH2 0x1F79 JUMP JUMPDEST DUP6 SLOAD DUP9 DUP5 ADD DUP6 ADD MSTORE SWAP5 DUP6 ADD SWAP5 DUP8 SWAP5 POP SWAP2 DUP4 ADD SWAP2 PUSH2 0x2073 JUMP JUMPDEST SWAP2 SWAP1 DUP3 MLOAD SWAP3 DUP4 DUP3 MSTORE PUSH1 0x0 JUMPDEST DUP5 DUP2 LT PUSH2 0x20CE JUMPI POP POP DUP3 PUSH1 0x0 PUSH1 0x20 DUP1 SWAP5 SWAP6 DUP5 ADD ADD MSTORE PUSH1 0x1F DUP1 NOT SWAP2 ADD AND ADD ADD SWAP1 JUMP JUMPDEST PUSH1 0x20 DUP2 DUP4 ADD DUP2 ADD MLOAD DUP5 DUP4 ADD DUP3 ADD MSTORE ADD PUSH2 0x20AD JUMP JUMPDEST PUSH1 0x4 CALLDATALOAD SWAP1 PUSH1 0x1 PUSH1 0x1 PUSH1 0xA0 SHL SUB DUP3 AND DUP3 SUB PUSH2 0xC69 JUMPI JUMP JUMPDEST PUSH1 0x24 CALLDATALOAD SWAP1 PUSH1 0x1 PUSH1 0x1 PUSH1 0xA0 SHL SUB DUP3 AND DUP3 SUB PUSH2 0xC69 JUMPI JUMP JUMPDEST PUSH1 0x20 SWAP1 DUP2 PUSH1 0x40 DUP2 DUP4 ADD SWAP3 DUP3 DUP2 MSTORE DUP6 MLOAD DUP1 SWAP5 MSTORE ADD SWAP4 ADD SWAP2 PUSH1 0x0 JUMPDEST DUP3 DUP2 LT PUSH2 0x2135 JUMPI POP POP POP POP SWAP1 JUMP JUMPDEST DUP4 MLOAD DUP6 MSTORE SWAP4 DUP2 ADD SWAP4 SWAP3 DUP2 ADD SWAP3 PUSH1 0x1 ADD PUSH2 0x2127 JUMP JUMPDEST SWAP1 PUSH1 0x80 PUSH1 0x3 NOT DUP4 ADD SLT PUSH2 0xC69 JUMPI PUSH1 0x4 CALLDATALOAD SWAP2 PUSH1 0x24 CALLDATALOAD PUSH1 0x1 PUSH1 0x1 PUSH1 0xA0 SHL SUB DUP2 AND DUP2 SUB PUSH2 0xC69 JUMPI SWAP2 PUSH1 0x44 CALLDATALOAD SWAP2 PUSH1 0x64 CALLDATALOAD SWAP1 PUSH1 0x1 PUSH1 0x1 PUSH1 0x40 SHL SUB DUP3 GT PUSH2 0xC69 JUMPI PUSH2 0x2190 SWAP2 PUSH1 0x4 ADD PUSH2 0x1E7E JUMP JUMPDEST SWAP1 SWAP2 JUMP JUMPDEST PUSH1 0x0 SLOAD PUSH1 0x1 PUSH1 0x1 PUSH1 0xA0 SHL SUB AND CALLER SUB PUSH2 0x21A8 JUMPI JUMP JUMPDEST PUSH1 0x40 MLOAD PUSH4 0x118CDAA7 PUSH1 0xE0 SHL DUP2 MSTORE CALLER PUSH1 0x4 DUP3 ADD MSTORE PUSH1 0x24 SWAP1 REVERT JUMPDEST SWAP1 DUP2 PUSH1 0x20 SWAP2 SUB SLT PUSH2 0xC69 JUMPI MLOAD DUP1 ISZERO ISZERO DUP2 SUB PUSH2 0xC69 JUMPI SWAP1 JUMP JUMPDEST PUSH1 0x1 PUSH1 0x1 PUSH1 0xA0 SHL SUB SWAP2 DUP3 AND DUP2 MSTORE SWAP2 AND PUSH1 0x20 DUP3 ADD MSTORE PUSH1 0x40 DUP2 ADD SWAP2 SWAP1 SWAP2 MSTORE PUSH1 0x60 ADD SWAP1 JUMP JUMPDEST SWAP2 SWAP1 DUP3 SUB SWAP2 DUP3 GT PUSH2 0x2207 JUMPI JUMP JUMPDEST PUSH4 0x4E487B71 PUSH1 0xE0 SHL PUSH1 0x0 MSTORE PUSH1 0x11 PUSH1 0x4 MSTORE PUSH1 0x24 PUSH1 0x0 REVERT JUMPDEST SWAP3 SWAP2 SWAP1 PUSH1 0xFF PUSH1 0x10 SLOAD AND PUSH2 0x24C8 JUMPI PUSH1 0x1 DUP1 PUSH1 0xA0 SHL SUB DUP1 DUP6 AND PUSH1 0x0 SWAP6 DUP2 DUP8 MSTORE PUSH1 0x20 SWAP4 PUSH1 0x11 DUP6 MSTORE PUSH1 0x40 SWAP4 PUSH1 0xFF DUP6 DUP11 KECCAK256 SLOAD AND PUSH2 0x24A5 JUMPI DUP1 DUP3 AND DUP1 DUP11 MSTORE PUSH1 0xFF DUP7 DUP12 KECCAK256 SLOAD AND PUSH2 0x247F JUMPI SWAP1 DUP8 SWAP4 SWAP3 SWAP2 DUP2 PUSH1 0x5 SLOAD AND SWAP1 DUP2 PUSH2 0x2370 JUMPI JUMPDEST POP POP PUSH1 0x6 SLOAD AND SWAP2 DUP3 PUSH2 0x22E0 JUMPI JUMPDEST POP POP PUSH1 0x0 DUP1 MLOAD PUSH1 0x20 PUSH2 0x2A2A DUP4 CODECOPY DUP2 MLOAD SWAP2 MSTORE DUP9 MSTORE POP POP PUSH1 0xD DUP4 MSTORE DUP2 DUP7 KECCAK256 SWAP1 DUP7 MSTORE DUP3 MSTORE DUP1 DUP6 KECCAK256 SLOAD PUSH1 0x12 SWAP1 SWAP3 MSTORE DUP5 KECCAK256 SLOAD PUSH2 0x22B4 SWAP2 PUSH2 0x21FA JUMP JUMPDEST LT PUSH2 0x22C2 JUMPI PUSH1 0x51 PUSH1 0xF8 SHL SWAP2 SWAP1 JUMP JUMPDEST PUSH1 0x29 PUSH1 0xF9 SHL SWAP2 POP PUSH16 0x125394D551919250D251539517D09053 PUSH1 0x82 SHL SWAP1 JUMP JUMPDEST DUP6 MLOAD PUSH4 0x72331C73 PUSH1 0xE1 SHL DUP2 MSTORE SWAP4 DUP8 SWAP4 DUP6 SWAP4 SWAP1 SWAP3 DUP5 SWAP3 DUP4 SWAP3 PUSH2 0x2304 SWAP3 PUSH1 0x4 DUP6 ADD PUSH2 0x21D8 JUMP JUMPDEST SUB SWAP2 GAS STATICCALL SWAP1 DUP2 ISZERO PUSH2 0x2366 JUMPI DUP8 SWAP2 PUSH2 0x2349 JUMPI JUMPDEST POP ISZERO PUSH2 0x2325 JUMPI DUP4 CODESIZE DUP1 DUP1 PUSH2 0x227E JUMP JUMPDEST POP PUSH1 0xB PUSH1 0xFB SHL SWAP5 POP PUSH17 0x10D3D3541312505390D157D19052531151 PUSH1 0x7A SHL SWAP4 SWAP3 POP POP POP JUMP JUMPDEST PUSH2 0x2360 SWAP2 POP DUP5 RETURNDATASIZE DUP7 GT PUSH2 0x912 JUMPI PUSH2 0x904 DUP2 DUP4 PUSH2 0x1F29 JUMP JUMPDEST CODESIZE PUSH2 0x2316 JUMP JUMPDEST DUP4 MLOAD RETURNDATASIZE DUP10 DUP3 RETURNDATACOPY RETURNDATASIZE SWAP1 REVERT JUMPDEST SWAP1 SWAP2 SWAP3 SWAP4 SWAP5 POP DUP7 MLOAD PUSH4 0xB9209E33 PUSH1 0xE0 SHL SWAP1 DUP2 DUP2 MSTORE DUP8 PUSH1 0x4 DUP3 ADD MSTORE DUP10 DUP2 PUSH1 0x24 DUP2 DUP8 GAS STATICCALL SWAP1 DUP2 ISZERO PUSH2 0x2475 JUMPI DUP14 SWAP2 PUSH2 0x2458 JUMPI JUMPDEST POP ISZERO PUSH2 0x242C JUMPI SWAP1 PUSH1 0x24 DUP10 SWAP3 DUP10 MLOAD SWAP5 DUP6 SWAP4 DUP5 SWAP3 DUP4 MSTORE PUSH1 0x4 DUP4 ADD MSTORE GAS STATICCALL SWAP1 DUP2 ISZERO PUSH2 0x2422 JUMPI DUP11 SWAP2 PUSH2 0x2405 JUMPI JUMPDEST POP ISZERO PUSH2 0x23DA JUMPI SWAP1 DUP7 SWAP3 SWAP2 CODESIZE DUP1 PUSH2 0x2271 JUMP JUMPDEST POP PUSH1 0x57 PUSH1 0xF8 SHL SWAP8 POP PUSH21 0x149150D15255915497D393D517D591549251925151 PUSH1 0x5A SHL SWAP7 SWAP6 POP POP POP POP POP POP JUMP JUMPDEST PUSH2 0x241C SWAP2 POP DUP8 RETURNDATASIZE DUP10 GT PUSH2 0x912 JUMPI PUSH2 0x904 DUP2 DUP4 PUSH2 0x1F29 JUMP JUMPDEST CODESIZE PUSH2 0x23C9 JUMP JUMPDEST DUP7 MLOAD RETURNDATASIZE DUP13 DUP3 RETURNDATACOPY RETURNDATASIZE SWAP1 REVERT JUMPDEST POP PUSH1 0x2B PUSH1 0xF9 SHL SWAP11 POP PUSH19 0x14D15391115497D393D517D591549251925151 PUSH1 0x6A SHL SWAP10 SWAP9 POP POP POP POP POP POP POP POP POP JUMP JUMPDEST PUSH2 0x246F SWAP2 POP DUP11 RETURNDATASIZE DUP13 GT PUSH2 0x912 JUMPI PUSH2 0x904 DUP2 DUP4 PUSH2 0x1F29 JUMP JUMPDEST CODESIZE PUSH2 0x23A0 JUMP JUMPDEST DUP10 MLOAD RETURNDATASIZE DUP16 DUP3 RETURNDATACOPY RETURNDATASIZE SWAP1 REVERT JUMPDEST POP PUSH1 0x57 PUSH1 0xF8 SHL SWAP9 POP PUSH15 0x2922A1A2A4AB22A92FA32927AD22A7 PUSH1 0x89 SHL SWAP8 SWAP7 POP POP POP POP POP POP POP JUMP JUMPDEST POP PUSH1 0x2B PUSH1 0xF9 SHL SWAP8 POP PUSH13 0x29A2A72222A92FA32927AD22A7 PUSH1 0x99 SHL SWAP7 SWAP6 POP POP POP POP POP POP JUMP JUMPDEST POP PUSH1 0x55 PUSH1 0xF8 SHL SWAP3 POP PUSH12 0x1513D2D15397D4105554D151 PUSH1 0xA2 SHL SWAP2 SWAP1 POP JUMP JUMPDEST SWAP4 SWAP3 PUSH1 0xFF PUSH1 0x10 SLOAD AND PUSH2 0x275D JUMPI PUSH1 0x1 DUP1 PUSH1 0xA0 SHL SUB SWAP1 DUP2 DUP7 AND SWAP1 PUSH1 0x0 SWAP7 DUP3 DUP9 MSTORE PUSH1 0x20 SWAP5 PUSH1 0x11 DUP7 MSTORE PUSH1 0x40 SWAP5 PUSH1 0xFF DUP7 DUP12 KECCAK256 SLOAD AND PUSH2 0x2739 JUMPI DUP1 DUP3 AND DUP1 DUP12 MSTORE PUSH1 0xFF DUP8 DUP13 KECCAK256 SLOAD AND PUSH2 0x2712 JUMPI SWAP1 DUP9 SWAP4 SWAP3 SWAP2 DUP2 PUSH1 0x5 SLOAD AND SWAP1 DUP2 PUSH2 0x2600 JUMPI JUMPDEST POP POP PUSH1 0x6 SLOAD AND SWAP2 DUP3 PUSH2 0x256F JUMPI JUMPDEST POP POP POP SWAP1 DUP8 MSTORE POP PUSH1 0xD DUP4 MSTORE DUP2 DUP7 KECCAK256 SWAP1 DUP7 MSTORE DUP3 MSTORE DUP1 DUP6 KECCAK256 SLOAD PUSH1 0x12 SWAP1 SWAP3 MSTORE DUP5 KECCAK256 SLOAD PUSH2 0x22B4 SWAP2 PUSH2 0x21FA JUMP JUMPDEST DUP7 MLOAD PUSH4 0x72331C73 PUSH1 0xE1 SHL DUP2 MSTORE SWAP4 DUP9 SWAP4 DUP6 SWAP4 SWAP1 SWAP3 DUP5 SWAP3 DUP4 SWAP3 PUSH2 0x2593 SWAP3 PUSH1 0x4 DUP6 ADD PUSH2 0x21D8 JUMP JUMPDEST SUB SWAP2 GAS STATICCALL SWAP1 DUP2 ISZERO PUSH2 0x25F6 JUMPI DUP9 SWAP2 PUSH2 0x25D9 JUMPI JUMPDEST POP ISZERO PUSH2 0x25B4 JUMPI DUP5 CODESIZE DUP1 DUP1 PUSH2 0x2547 JUMP JUMPDEST POP PUSH1 0xB PUSH1 0xFB SHL SWAP6 POP PUSH17 0x10D3D3541312505390D157D19052531151 PUSH1 0x7A SHL SWAP5 SWAP4 POP POP POP POP JUMP JUMPDEST PUSH2 0x25F0 SWAP2 POP DUP6 RETURNDATASIZE DUP8 GT PUSH2 0x912 JUMPI PUSH2 0x904 DUP2 DUP4 PUSH2 0x1F29 JUMP JUMPDEST CODESIZE PUSH2 0x25A5 JUMP JUMPDEST DUP5 MLOAD RETURNDATASIZE DUP11 DUP3 RETURNDATACOPY RETURNDATASIZE SWAP1 REVERT JUMPDEST SWAP1 SWAP2 SWAP3 SWAP4 SWAP5 POP DUP8 MLOAD DUP13 PUSH4 0xB9209E33 PUSH1 0xE0 SHL SWAP2 DUP3 DUP2 MSTORE DUP10 PUSH1 0x4 DUP3 ADD MSTORE DUP12 DUP2 PUSH1 0x24 DUP2 DUP9 GAS STATICCALL SWAP2 DUP3 ISZERO PUSH2 0x2707 JUMPI SWAP2 PUSH2 0x26EA JUMPI JUMPDEST POP ISZERO PUSH2 0x26BD JUMPI SWAP1 PUSH1 0x24 DUP11 SWAP3 DUP11 MLOAD SWAP5 DUP6 SWAP4 DUP5 SWAP3 DUP4 MSTORE PUSH1 0x4 DUP4 ADD MSTORE GAS STATICCALL SWAP1 DUP2 ISZERO PUSH2 0x26B3 JUMPI DUP12 SWAP2 PUSH2 0x2696 JUMPI JUMPDEST POP ISZERO PUSH2 0x266A JUMPI SWAP1 DUP8 SWAP3 SWAP2 CODESIZE DUP1 PUSH2 0x253A JUMP JUMPDEST POP PUSH1 0x57 PUSH1 0xF8 SHL SWAP9 POP PUSH21 0x149150D15255915497D393D517D591549251925151 PUSH1 0x5A SHL SWAP8 SWAP7 POP POP POP POP POP POP POP JUMP JUMPDEST PUSH2 0x26AD SWAP2 POP DUP9 RETURNDATASIZE DUP11 GT PUSH2 0x912 JUMPI PUSH2 0x904 DUP2 DUP4 PUSH2 0x1F29 JUMP JUMPDEST CODESIZE PUSH2 0x2659 JUMP JUMPDEST DUP8 MLOAD RETURNDATASIZE DUP14 DUP3 RETURNDATACOPY RETURNDATASIZE SWAP1 REVERT JUMPDEST POP PUSH1 0x2B PUSH1 0xF9 SHL SWAP12 POP PUSH19 0x14D15391115497D393D517D591549251925151 PUSH1 0x6A SHL SWAP11 SWAP10 POP POP POP POP POP POP POP POP POP POP JUMP JUMPDEST PUSH2 0x2701 SWAP2 POP DUP12 RETURNDATASIZE DUP14 GT PUSH2 0x912 JUMPI PUSH2 0x904 DUP2 DUP4 PUSH2 0x1F29 JUMP JUMPDEST CODESIZE PUSH2 0x2630 JUMP JUMPDEST DUP12 MLOAD SWAP1 RETURNDATASIZE SWAP1 DUP3 RETURNDATACOPY RETURNDATASIZE SWAP1 REVERT JUMPDEST POP PUSH1 0x57 PUSH1 0xF8 SHL SWAP10 POP PUSH15 0x2922A1A2A4AB22A92FA32927AD22A7 PUSH1 0x89 SHL SWAP9 SWAP8 POP POP POP POP POP POP POP POP JUMP JUMPDEST POP PUSH1 0x2B PUSH1 0xF9 SHL SWAP9 POP PUSH13 0x29A2A72222A92FA32927AD22A7 PUSH1 0x99 SHL SWAP8 SWAP7 POP POP POP POP POP POP POP JUMP JUMPDEST POP PUSH1 0x55 PUSH1 0xF8 SHL SWAP4 POP PUSH12 0x1513D2D15397D4105554D151 PUSH1 0xA2 SHL SWAP3 SWAP2 POP POP JUMP JUMPDEST ISZERO PUSH2 0x2782 JUMPI JUMP JUMPDEST PUSH1 0x40 MLOAD PUSH3 0x461BCD PUSH1 0xE5 SHL DUP2 MSTORE PUSH1 0x20 PUSH1 0x4 DUP3 ADD MSTORE PUSH1 0xC PUSH1 0x24 DUP3 ADD MSTORE PUSH12 0x1513D2D15397D4105554D151 PUSH1 0xA2 SHL PUSH1 0x44 DUP3 ADD MSTORE PUSH1 0x64 SWAP1 REVERT JUMPDEST PUSH1 0x2 PUSH1 0x1 SLOAD EQ PUSH2 0x27C7 JUMPI PUSH1 0x2 PUSH1 0x1 SSTORE JUMP JUMPDEST PUSH1 0x40 MLOAD PUSH4 0x3EE5AEB5 PUSH1 0xE0 SHL DUP2 MSTORE PUSH1 0x4 SWAP1 REVERT JUMPDEST SWAP2 SWAP1 DUP3 ADD DUP1 SWAP3 GT PUSH2 0x2207 JUMPI JUMP JUMPDEST PUSH1 0x1 PUSH1 0x1 PUSH1 0xA0 SHL SUB SWAP1 DUP2 AND PUSH1 0x0 DUP2 DUP2 MSTORE PUSH32 0xF03F8047692CB11E5DC30D3A50E5E651FC447D79923E48AC7237A4DE0554FD09 PUSH1 0x20 SWAP1 DUP2 MSTORE PUSH1 0x40 DUP1 DUP4 KECCAK256 DUP1 SLOAD PUSH2 0x2892 SWAP8 SWAP3 SWAP7 SWAP5 SWAP6 PUSH1 0xE SWAP6 SWAP1 SWAP3 SWAP1 SWAP2 PUSH1 0x0 DUP1 MLOAD PUSH1 0x20 PUSH2 0x2A2A DUP4 CODECOPY DUP2 MLOAD SWAP2 MSTORE SWAP2 SWAP1 PUSH2 0x284E SWAP1 DUP13 SWAP1 PUSH2 0x21FA JUMP JUMPDEST SWAP1 SSTORE DUP7 MSTORE PUSH1 0xD DUP5 MSTORE DUP7 DUP7 KECCAK256 SWAP3 AND SWAP2 DUP3 DUP7 MSTORE DUP4 MSTORE DUP6 DUP6 KECCAK256 PUSH2 0x286F DUP10 DUP3 SLOAD PUSH2 0x27D9 JUMP JUMPDEST SWAP1 SSTORE DUP5 MSTORE DUP3 DUP3 MSTORE DUP5 DUP5 KECCAK256 PUSH2 0x2884 DUP9 DUP3 SLOAD PUSH2 0x21FA JUMP JUMPDEST SWAP1 SSTORE DUP4 MSTORE MSTORE KECCAK256 SWAP2 DUP3 SLOAD PUSH2 0x27D9 JUMP JUMPDEST SWAP1 SSTORE JUMP JUMPDEST PUSH1 0x1 PUSH1 0x1 PUSH1 0xA0 SHL SUB SWAP1 SWAP2 AND DUP2 MSTORE PUSH1 0x20 DUP2 ADD SWAP2 SWAP1 SWAP2 MSTORE PUSH1 0x40 ADD SWAP1 JUMP JUMPDEST ISZERO PUSH2 0x28B8 JUMPI JUMP JUMPDEST PUSH1 0x40 MLOAD PUSH3 0x461BCD PUSH1 0xE5 SHL DUP2 MSTORE PUSH1 0x20 PUSH1 0x4 DUP3 ADD MSTORE PUSH1 0x14 PUSH1 0x24 DUP3 ADD MSTORE PUSH20 0x494E53554646494349454E545F42414C414E4345 PUSH1 0x60 SHL PUSH1 0x44 DUP3 ADD MSTORE PUSH1 0x64 SWAP1 REVERT JUMPDEST SWAP1 DUP1 PUSH1 0x20 SWAP4 SWAP3 DUP2 DUP5 MSTORE DUP5 DUP5 ADD CALLDATACOPY PUSH1 0x0 DUP3 DUP3 ADD DUP5 ADD MSTORE PUSH1 0x1F ADD PUSH1 0x1F NOT AND ADD ADD SWAP1 JUMP JUMPDEST PUSH1 0x5 SLOAD PUSH1 0x1 PUSH1 0x1 PUSH1 0xA0 SHL SUB SWAP1 DUP2 AND SWAP2 SWAP1 DUP3 ISZERO PUSH2 0x29A1 JUMPI PUSH1 0x24 PUSH1 0x20 SWAP3 PUSH1 0x40 MLOAD SWAP5 DUP6 SWAP4 DUP5 SWAP3 PUSH4 0x7E42683B PUSH1 0xE0 SHL DUP5 MSTORE AND PUSH1 0x4 DUP4 ADD MSTORE GAS STATICCALL SWAP1 DUP2 ISZERO PUSH2 0x2995 JUMPI PUSH1 0x0 SWAP2 PUSH2 0x295C JUMPI POP SWAP1 JUMP JUMPDEST PUSH1 0x20 DUP2 RETURNDATASIZE DUP3 GT PUSH2 0x298D JUMPI JUMPDEST DUP2 PUSH2 0x2974 PUSH1 0x20 SWAP4 DUP4 PUSH2 0x1F29 JUMP JUMPDEST DUP2 ADD SUB SLT PUSH2 0x32E JUMPI MLOAD SWAP1 PUSH2 0xFFFF DUP3 AND DUP3 SUB PUSH2 0x4E1 JUMPI POP SWAP1 JUMP JUMPDEST RETURNDATASIZE SWAP2 POP PUSH2 0x2967 JUMP JUMPDEST PUSH1 0x40 MLOAD RETURNDATASIZE PUSH1 0x0 DUP3 RETURNDATACOPY RETURNDATASIZE SWAP1 REVERT JUMPDEST POP POP POP PUSH1 0x0 SWAP1 JUMP INVALID GT SWAP3 0xB9 ORIGIN EXP 0xDE ADDRESS 0xD9 SWAP9 0xA9 0xDA 0xB7 BASEFEE SLT DUP12 NOT SAR CALL 0xD6 0xD7 0x5D 0xC1 DUP10 PUSH9 0x9897CD4308163486B4 0xC2 0x2D PUSH1 0xCD SSTORE EXP DUP2 JUMPI PREVRANDAO CREATE 0x4E EXTCODEHASH CREATE2 0x27 DUP12 CALL SWAP7 DUP5 JUMP 0x5E 0xE0 0xE 0x2B ADDMOD BLOCKHASH COINBASE 0xB6 MUL 0x4B 0xD6 0xF6 EXTCODESIZE 0xE2 0xED 0xEA GASLIMIT DUP11 0xE9 0xD9 0xDD DUP9 GAS SWAP7 0xAA 0x23 0xC9 DUP9 0xB1 MSTORE PUSH24 0xEC0F613D273E6FCC4A27E610FF8BE0079C531659141344CD 0x1F 0xD0 LOG4 CALLCODE DUP5 NOT 0x49 PUSH32 0x9722A3DAAFE3B4186F6B6457E058C79AE79FBE82C16DFA44996F2E5B5AE2E8C2 0xAB PUSH13 0x4C85CFB5FA475F0462ADB6A264 PUSH10 0x70667358221220CBF4F3 0xAB TIMESTAMP 0xAA 0xF9 LOG1 PUSH6 0xC25FF11F3B08 0xC6 0xE2 0xF6 0xD7 PUSH16 0xA322438AB625A0D46F50FF564736F6C PUSH4 0x43000814 STOP CALLER BLOCKHASH JUMPI DUP8 STATICCALL SLT 0xA8 0x23 0xE0 CALLCODE 0xB7 PUSH4 0x1CC41B3B 0xA8 DUP3 DUP12 CALLER 0x21 0xCA DUP2 GT GT STATICCALL PUSH22 0xCD3AA3BB5ACE00000000000000000000000000000000 "},"methodIdentifiers":{"COMPLIANCE_FAILURE()":"36f6efc6","FUNDS_LOCKED()":"9418c91a","INSUFFICIENT_BALANCE()":"50b1f356","INVALID_RECEIVER()":"2b0ddb91","INVALID_SENDER()":"b78bd21b","PRIMARY_PARTITION()":"88f2740d","SECONDARY_PARTITION()":"08881afa","SUCCESS()":"d0a6d1a6","balanceOf(address)":"70a08231","balanceOfByPartition(bytes32,address)":"30e82803","canTransfer(address,uint256,bytes)":"1badb25c","canTransferByPartition(bytes32,address,uint256,bytes)":"92127126","compliance()":"6290865d","controller()":"f77c4791","controllerTransfer(address,address,uint256,bytes,bytes)":"f282527a","decimals()":"313ce567","freezeAddress(address,bool)":"694df50a","freezeTokens(address,uint256)":"a4df6c6a","frozen(address)":"d0516650","frozenTokens(address)":"bfd85808","getAllDocuments()":"9fa5f50b","getComplianceStatus(address)":"7c8fd218","getDocument(bytes32)":"b10d6b41","getFrozenTokens(address)":"158b1a57","getInvestorCountry(address)":"13b1d144","getLoanSummary()":"6ce5891d","identityRegistry()":"134e18f4","isControllable()":"4c783bf5","isFrozen(address)":"e5839836","issue(address,uint256,bytes32)":"ea3f068d","loanDetails()":"95cb741d","name()":"06fdde03","owner()":"8da5cb5b","partitionsOf(address)":"740ab8f4","pause()":"8456cb59","paused()":"5c975abb","recoveryAddress(address,address,address)":"9285948a","redeem(uint256,bytes32)":"22e4e61d","renounceOwnership()":"715018a6","setCompliance(address)":"f8981789","setControllable(bool)":"a66b0f3a","setController(address)":"92eefe9b","setDocument(bytes32,string,bytes32)":"010648ca","setIdentityRegistry(address)":"cbf3f861","symbol()":"95d89b41","totalSupply()":"18160ddd","transferByPartition(bytes32,address,uint256,bytes)":"f3d490db","transferOwnership(address)":"f2fde38b","unfreezeTokens(address,uint256)":"e9b2f0ad","unpause()":"3f4ba83a","updateDocumentHash(bytes32)":"77777e0c","updateNelProtocolId(string)":"38389e58"}}}}}