{"contracts/LoanTokenFactoryLight.sol":{"LoanTokenFactoryLight":{"abi":[{"inputs":[{"internalType":"address","name":"_claimTopicsRegistry","type":"address"},{"internalType":"address","name":"_trustedIssuersRegistry","type":"address"}],"stateMutability":"nonpayable","type":"constructor"},{"inputs":[{"internalType":"address","name":"owner","type":"address"}],"name":"OwnableInvalidOwner","type":"error"},{"inputs":[{"internalType":"address","name":"account","type":"address"}],"name":"OwnableUnauthorizedAccount","type":"error"},{"anonymous":false,"inputs":[{"indexed":false,"internalType":"address","name":"claimTopicsRegistry","type":"address"},{"indexed":false,"internalType":"address","name":"trustedIssuersRegistry","type":"address"}],"name":"InfrastructureSet","type":"event"},{"anonymous":false,"inputs":[{"indexed":true,"internalType":"address","name":"tokenAddress","type":"address"},{"indexed":false,"internalType":"string","name":"nelProtocolId","type":"string"},{"indexed":true,"internalType":"address","name":"creator","type":"address"},{"indexed":false,"internalType":"address","name":"identityRegistry","type":"address"},{"indexed":false,"internalType":"address","name":"compliance","type":"address"}],"name":"LoanTokenRegistered","type":"event"},{"anonymous":false,"inputs":[{"indexed":true,"internalType":"address","name":"previousOwner","type":"address"},{"indexed":true,"internalType":"address","name":"newOwner","type":"address"}],"name":"OwnershipTransferred","type":"event"},{"inputs":[{"internalType":"uint256","name":"","type":"uint256"}],"name":"deployedTokens","outputs":[{"internalType":"address","name":"","type":"address"}],"stateMutability":"view","type":"function"},{"inputs":[],"name":"getDeployedTokens","outputs":[{"internalType":"address[]","name":"","type":"address[]"}],"stateMutability":"view","type":"function"},{"inputs":[],"name":"getDeployedTokensCount","outputs":[{"internalType":"uint256","name":"","type":"uint256"}],"stateMutability":"view","type":"function"},{"inputs":[{"internalType":"string","name":"nelId","type":"string"}],"name":"getTokenByNelId","outputs":[{"internalType":"address","name":"","type":"address"}],"stateMutability":"view","type":"function"},{"inputs":[{"internalType":"address","name":"token","type":"address"}],"name":"getTokenInfrastructure","outputs":[{"internalType":"address","name":"_identityRegistry","type":"address"},{"internalType":"address","name":"_compliance","type":"address"},{"internalType":"address","name":"_claimTopicsRegistry","type":"address"},{"internalType":"address","name":"_trustedIssuersRegistry","type":"address"}],"stateMutability":"view","type":"function"},{"inputs":[{"internalType":"address","name":"","type":"address"}],"name":"isDeployedToken","outputs":[{"internalType":"bool","name":"","type":"bool"}],"stateMutability":"view","type":"function"},{"inputs":[],"name":"owner","outputs":[{"internalType":"address","name":"","type":"address"}],"stateMutability":"view","type":"function"},{"inputs":[{"internalType":"address","name":"_tokenAddress","type":"address"},{"internalType":"string","name":"_nelProtocolId","type":"string"},{"internalType":"address","name":"_identityRegistry","type":"address"},{"internalType":"address","name":"_compliance","type":"address"}],"name":"registerLoanToken","outputs":[],"stateMutability":"nonpayable","type":"function"},{"inputs":[],"name":"renounceOwnership","outputs":[],"stateMutability":"nonpayable","type":"function"},{"inputs":[],"name":"sharedClaimTopicsRegistry","outputs":[{"internalType":"address","name":"","type":"address"}],"stateMutability":"view","type":"function"},{"inputs":[],"name":"sharedTrustedIssuersRegistry","outputs":[{"internalType":"address","name":"","type":"address"}],"stateMutability":"view","type":"function"},{"inputs":[{"internalType":"string","name":"","type":"string"}],"name":"tokenByNelId","outputs":[{"internalType":"address","name":"","type":"address"}],"stateMutability":"view","type":"function"},{"inputs":[{"internalType":"address","name":"","type":"address"}],"name":"tokenCompliance","outputs":[{"internalType":"address","name":"","type":"address"}],"stateMutability":"view","type":"function"},{"inputs":[{"internalType":"address","name":"","type":"address"}],"name":"tokenIdentityRegistry","outputs":[{"internalType":"address","name":"","type":"address"}],"stateMutability":"view","type":"function"},{"inputs":[{"internalType":"address","name":"newOwner","type":"address"}],"name":"transferOwnership","outputs":[],"stateMutability":"nonpayable","type":"function"}],"evm":{"bytecode":{"linkReferences":{},"object":"60803461010f5761098290601f38839003908101601f19168201906001600160401b03821183831017610114578083916040958694855283398101031261010f57610055602061004e8361012a565b920161012a565b9033156100f7577fa70d38545e0361ae758d5a14ba99eb5c324051d897f64bda663b616192bacb309183916000549160018060a01b031991338385161760005584519360018060a01b03918291823391167f8be0079c531659141344cd1fd0a4f28419497f9722a3daafe3b4186f6b6457e0600080a3169182846001541617600155168092600254161760025582526020820152a151610843908161013f8239f35b8251631e4fbdf760e01b815260006004820152602490fd5b600080fd5b634e487b7160e01b600052604160045260246000fd5b51906001600160a01b038216820361010f5756fe6080604081815260048036101561001557600080fd5b600092833560e01c908163240608041461068b5750806325f1be1f1461066c5780632747294b146106435780634c1c7ddf14610607578063533f01f014610182578063622ae7aa14610542578063715018a6146104fa57806377d88660146104995780638da5cb5b14610471578063b21e0cf914610436578063c0b490c314610217578063c5f15c7b146101ea578063d562de3d14610182578063ec81aadb1461013f5763f2fde38b146100c857600080fd5b3461013b57602036600319011261013b576100e16106c3565b906100ea6107c1565b6001600160a01b0391821692831561012557505082546001600160a01b0319811683178455166000805160206107ee8339815191528380a380f35b51631e4fbdf760e01b8152908101849052602490fd5b8280fd5b503461013b57602036600319011261013b57359160035483101561017f5750610169602092610790565b60018060a01b0391549060031b1c169051908152f35b80fd5b50913461017f57602036600319011261017f578235906001600160401b03821161017f57506020926101b691369101610717565b826101c98351928381519384920161076d565b6005908201908152819003830190205490516001600160a01b039091168152f35b50503461021357816003193601126102135760015490516001600160a01b039091168152602090f35b5080fd5b50919034610213576080366003190112610213576102336106c3565b906024356001600160401b038111610432576102529036908601610717565b6001600160a01b0391604435838116919082900361042e576064359184831680930361042a576102806107c1565b81518096868287516020948161029b8793848d019e8f61076d565b8101600581520301902054166103f75786169586895289825260ff848a2054166103c557600354600160401b8110156103b257906103048260017f1fd793746bfce795a56397305ddd49d2df759870976ecb9f68142dd50b26d1649a9b9c9d9401600355610790565b819291549060031b918b831b921b1916179055878a528152828920600160ff19825416179055825181818061033d8c8a5192839161076d565b8101600581520301902060018060a01b0319908882825416179055878a5260068252838a2083828254161790556007825284848b209182541617905561039683519560608752518099816060890152608088019061076d565b8401528201523393601f01601f1916810181900360800190a380f35b634e487b7160e01b8a5260418b5260248afd5b835162461bcd60e51b8152808b01839052600c60248201526b544f4b454e5f45584953545360a01b6044820152606490fd5b835162461bcd60e51b8152808b01839052600d60248201526c4e454c5f49445f45584953545360981b6044820152606490fd5b8680fd5b8580fd5b8380fd5b505034610213576020366003190112610213576020916001600160a01b03908290826104606106c3565b168152600785522054169051908152f35b505034610213578160031936011261021357905490516001600160a01b039091168152602090f35b50503461021357602036600319011261021357608091906001600160a01b03806104c16106c3565b16835260066020528082818186205416946007602052205416918160015416916002541692815194855260208501528301526060820152f35b833461017f578060031936011261017f576105136107c1565b80546001600160a01b03198116825581906001600160a01b03166000805160206107ee8339815191528280a380f35b82843461017f578060031936011261017f578151600380548083529083526020939284830192909183907fc2575a0e9e593c00f959f8c92f12db2869c3395a3b0502d05e2516446f71f85b90845b8181106105ea57505050816105a69103826106de565b83519485948186019282875251809352850193925b8281106105ca57505050500390f35b83516001600160a01b0316855286955093810193928101926001016105bb565b82546001600160a01b031684529288019260019283019201610590565b503461013b57602036600319011261013b5760209260ff918391906001600160a01b036106326106c3565b168252855220541690519015158152f35b50503461021357816003193601126102135760025490516001600160a01b039091168152602090f35b5050346102135781600319360112610213576020906003549051908152f35b8490843461013b57602036600319011261013b576020926001600160a01b039190826106b56106c3565b168152600685522054168152f35b600435906001600160a01b03821682036106d957565b600080fd5b601f909101601f19168101906001600160401b0382119082101761070157604052565b634e487b7160e01b600052604160045260246000fd5b81601f820112156106d9578035906001600160401b038211610701576040519261074b601f8401601f1916602001856106de565b828452602083830101116106d957816000926020809301838601378301015290565b60005b8381106107805750506000910152565b8181015183820152602001610770565b6003548110156107ab57600360005260206000200190600090565b634e487b7160e01b600052603260045260246000fd5b6000546001600160a01b031633036107d557565b60405163118cdaa760e01b8152336004820152602490fdfe8be0079c531659141344cd1fd0a4f28419497f9722a3daafe3b4186f6b6457e0a264697066735822122032c44603c693cfa529816caabeb5cf84f2c28259df55e778f3cf6f50769b12f864736f6c63430008140033","opcodes":"PUSH1 0x80 CALLVALUE PUSH2 0x10F JUMPI PUSH2 0x982 SWAP1 PUSH1 0x1F CODESIZE DUP4 SWAP1 SUB SWAP1 DUP2 ADD PUSH1 0x1F NOT AND DUP3 ADD SWAP1 PUSH1 0x1 PUSH1 0x1 PUSH1 0x40 SHL SUB DUP3 GT DUP4 DUP4 LT OR PUSH2 0x114 JUMPI DUP1 DUP4 SWAP2 PUSH1 0x40 SWAP6 DUP7 SWAP5 DUP6 MSTORE DUP4 CODECOPY DUP2 ADD SUB SLT PUSH2 0x10F JUMPI PUSH2 0x55 PUSH1 0x20 PUSH2 0x4E DUP4 PUSH2 0x12A JUMP JUMPDEST SWAP3 ADD PUSH2 0x12A JUMP JUMPDEST SWAP1 CALLER ISZERO PUSH2 0xF7 JUMPI PUSH32 0xA70D38545E0361AE758D5A14BA99EB5C324051D897F64BDA663B616192BACB30 SWAP2 DUP4 SWAP2 PUSH1 0x0 SLOAD SWAP2 PUSH1 0x1 DUP1 PUSH1 0xA0 SHL SUB NOT SWAP2 CALLER DUP4 DUP6 AND OR PUSH1 0x0 SSTORE DUP5 MLOAD SWAP4 PUSH1 0x1 DUP1 PUSH1 0xA0 SHL SUB SWAP2 DUP3 SWAP2 DUP3 CALLER SWAP2 AND PUSH32 0x8BE0079C531659141344CD1FD0A4F28419497F9722A3DAAFE3B4186F6B6457E0 PUSH1 0x0 DUP1 LOG3 AND SWAP2 DUP3 DUP5 PUSH1 0x1 SLOAD AND OR PUSH1 0x1 SSTORE AND DUP1 SWAP3 PUSH1 0x2 SLOAD AND OR PUSH1 0x2 SSTORE DUP3 MSTORE PUSH1 0x20 DUP3 ADD MSTORE LOG1 MLOAD PUSH2 0x843 SWAP1 DUP2 PUSH2 0x13F DUP3 CODECOPY RETURN JUMPDEST DUP3 MLOAD PUSH4 0x1E4FBDF7 PUSH1 0xE0 SHL DUP2 MSTORE PUSH1 0x0 PUSH1 0x4 DUP3 ADD MSTORE PUSH1 0x24 SWAP1 REVERT JUMPDEST PUSH1 0x0 DUP1 REVERT JUMPDEST PUSH4 0x4E487B71 PUSH1 0xE0 SHL PUSH1 0x0 MSTORE PUSH1 0x41 PUSH1 0x4 MSTORE PUSH1 0x24 PUSH1 0x0 REVERT JUMPDEST MLOAD SWAP1 PUSH1 0x1 PUSH1 0x1 PUSH1 0xA0 SHL SUB DUP3 AND DUP3 SUB PUSH2 0x10F JUMPI JUMP INVALID PUSH1 0x80 PUSH1 0x40 DUP2 DUP2 MSTORE PUSH1 0x4 DUP1 CALLDATASIZE LT ISZERO PUSH2 0x15 JUMPI PUSH1 0x0 DUP1 REVERT JUMPDEST PUSH1 0x0 SWAP3 DUP4 CALLDATALOAD PUSH1 0xE0 SHR SWAP1 DUP2 PUSH4 0x24060804 EQ PUSH2 0x68B JUMPI POP DUP1 PUSH4 0x25F1BE1F EQ PUSH2 0x66C JUMPI DUP1 PUSH4 0x2747294B EQ PUSH2 0x643 JUMPI DUP1 PUSH4 0x4C1C7DDF EQ PUSH2 0x607 JUMPI DUP1 PUSH4 0x533F01F0 EQ PUSH2 0x182 JUMPI DUP1 PUSH4 0x622AE7AA EQ PUSH2 0x542 JUMPI DUP1 PUSH4 0x715018A6 EQ PUSH2 0x4FA JUMPI DUP1 PUSH4 0x77D88660 EQ PUSH2 0x499 JUMPI DUP1 PUSH4 0x8DA5CB5B EQ PUSH2 0x471 JUMPI DUP1 PUSH4 0xB21E0CF9 EQ PUSH2 0x436 JUMPI DUP1 PUSH4 0xC0B490C3 EQ PUSH2 0x217 JUMPI DUP1 PUSH4 0xC5F15C7B EQ PUSH2 0x1EA JUMPI DUP1 PUSH4 0xD562DE3D EQ PUSH2 0x182 JUMPI DUP1 PUSH4 0xEC81AADB EQ PUSH2 0x13F JUMPI PUSH4 0xF2FDE38B EQ PUSH2 0xC8 JUMPI PUSH1 0x0 DUP1 REVERT JUMPDEST CALLVALUE PUSH2 0x13B JUMPI PUSH1 0x20 CALLDATASIZE PUSH1 0x3 NOT ADD SLT PUSH2 0x13B JUMPI PUSH2 0xE1 PUSH2 0x6C3 JUMP JUMPDEST SWAP1 PUSH2 0xEA PUSH2 0x7C1 JUMP JUMPDEST PUSH1 0x1 PUSH1 0x1 PUSH1 0xA0 SHL SUB SWAP2 DUP3 AND SWAP3 DUP4 ISZERO PUSH2 0x125 JUMPI POP POP DUP3 SLOAD PUSH1 0x1 PUSH1 0x1 PUSH1 0xA0 SHL SUB NOT DUP2 AND DUP4 OR DUP5 SSTORE AND PUSH1 0x0 DUP1 MLOAD PUSH1 0x20 PUSH2 0x7EE DUP4 CODECOPY DUP2 MLOAD SWAP2 MSTORE DUP4 DUP1 LOG3 DUP1 RETURN JUMPDEST MLOAD PUSH4 0x1E4FBDF7 PUSH1 0xE0 SHL DUP2 MSTORE SWAP1 DUP2 ADD DUP5 SWAP1 MSTORE PUSH1 0x24 SWAP1 REVERT JUMPDEST DUP3 DUP1 REVERT JUMPDEST POP CALLVALUE PUSH2 0x13B JUMPI PUSH1 0x20 CALLDATASIZE PUSH1 0x3 NOT ADD SLT PUSH2 0x13B JUMPI CALLDATALOAD SWAP2 PUSH1 0x3 SLOAD DUP4 LT ISZERO PUSH2 0x17F JUMPI POP PUSH2 0x169 PUSH1 0x20 SWAP3 PUSH2 0x790 JUMP JUMPDEST PUSH1 0x1 DUP1 PUSH1 0xA0 SHL SUB SWAP2 SLOAD SWAP1 PUSH1 0x3 SHL SHR AND SWAP1 MLOAD SWAP1 DUP2 MSTORE RETURN JUMPDEST DUP1 REVERT JUMPDEST POP SWAP2 CALLVALUE PUSH2 0x17F JUMPI PUSH1 0x20 CALLDATASIZE PUSH1 0x3 NOT ADD SLT PUSH2 0x17F JUMPI DUP3 CALLDATALOAD SWAP1 PUSH1 0x1 PUSH1 0x1 PUSH1 0x40 SHL SUB DUP3 GT PUSH2 0x17F JUMPI POP PUSH1 0x20 SWAP3 PUSH2 0x1B6 SWAP2 CALLDATASIZE SWAP2 ADD PUSH2 0x717 JUMP JUMPDEST DUP3 PUSH2 0x1C9 DUP4 MLOAD SWAP3 DUP4 DUP2 MLOAD SWAP4 DUP5 SWAP3 ADD PUSH2 0x76D JUMP JUMPDEST PUSH1 0x5 SWAP1 DUP3 ADD SWAP1 DUP2 MSTORE DUP2 SWAP1 SUB DUP4 ADD SWAP1 KECCAK256 SLOAD SWAP1 MLOAD PUSH1 0x1 PUSH1 0x1 PUSH1 0xA0 SHL SUB SWAP1 SWAP2 AND DUP2 MSTORE RETURN JUMPDEST POP POP CALLVALUE PUSH2 0x213 JUMPI DUP2 PUSH1 0x3 NOT CALLDATASIZE ADD SLT PUSH2 0x213 JUMPI PUSH1 0x1 SLOAD SWAP1 MLOAD PUSH1 0x1 PUSH1 0x1 PUSH1 0xA0 SHL SUB SWAP1 SWAP2 AND DUP2 MSTORE PUSH1 0x20 SWAP1 RETURN JUMPDEST POP DUP1 REVERT JUMPDEST POP SWAP2 SWAP1 CALLVALUE PUSH2 0x213 JUMPI PUSH1 0x80 CALLDATASIZE PUSH1 0x3 NOT ADD SLT PUSH2 0x213 JUMPI PUSH2 0x233 PUSH2 0x6C3 JUMP JUMPDEST SWAP1 PUSH1 0x24 CALLDATALOAD PUSH1 0x1 PUSH1 0x1 PUSH1 0x40 SHL SUB DUP2 GT PUSH2 0x432 JUMPI PUSH2 0x252 SWAP1 CALLDATASIZE SWAP1 DUP7 ADD PUSH2 0x717 JUMP JUMPDEST PUSH1 0x1 PUSH1 0x1 PUSH1 0xA0 SHL SUB SWAP2 PUSH1 0x44 CALLDATALOAD DUP4 DUP2 AND SWAP2 SWAP1 DUP3 SWAP1 SUB PUSH2 0x42E JUMPI PUSH1 0x64 CALLDATALOAD SWAP2 DUP5 DUP4 AND DUP1 SWAP4 SUB PUSH2 0x42A JUMPI PUSH2 0x280 PUSH2 0x7C1 JUMP JUMPDEST DUP2 MLOAD DUP1 SWAP7 DUP7 DUP3 DUP8 MLOAD PUSH1 0x20 SWAP5 DUP2 PUSH2 0x29B DUP8 SWAP4 DUP5 DUP14 ADD SWAP15 DUP16 PUSH2 0x76D JUMP JUMPDEST DUP2 ADD PUSH1 0x5 DUP2 MSTORE SUB ADD SWAP1 KECCAK256 SLOAD AND PUSH2 0x3F7 JUMPI DUP7 AND SWAP6 DUP7 DUP10 MSTORE DUP10 DUP3 MSTORE PUSH1 0xFF DUP5 DUP11 KECCAK256 SLOAD AND PUSH2 0x3C5 JUMPI PUSH1 0x3 SLOAD PUSH1 0x1 PUSH1 0x40 SHL DUP2 LT ISZERO PUSH2 0x3B2 JUMPI SWAP1 PUSH2 0x304 DUP3 PUSH1 0x1 PUSH32 0x1FD793746BFCE795A56397305DDD49D2DF759870976ECB9F68142DD50B26D164 SWAP11 SWAP12 SWAP13 SWAP14 SWAP5 ADD PUSH1 0x3 SSTORE PUSH2 0x790 JUMP JUMPDEST DUP2 SWAP3 SWAP2 SLOAD SWAP1 PUSH1 0x3 SHL SWAP2 DUP12 DUP4 SHL SWAP3 SHL NOT AND OR SWAP1 SSTORE DUP8 DUP11 MSTORE DUP2 MSTORE DUP3 DUP10 KECCAK256 PUSH1 0x1 PUSH1 0xFF NOT DUP3 SLOAD AND OR SWAP1 SSTORE DUP3 MLOAD DUP2 DUP2 DUP1 PUSH2 0x33D DUP13 DUP11 MLOAD SWAP3 DUP4 SWAP2 PUSH2 0x76D JUMP JUMPDEST DUP2 ADD PUSH1 0x5 DUP2 MSTORE SUB ADD SWAP1 KECCAK256 PUSH1 0x1 DUP1 PUSH1 0xA0 SHL SUB NOT SWAP1 DUP9 DUP3 DUP3 SLOAD AND OR SWAP1 SSTORE DUP8 DUP11 MSTORE PUSH1 0x6 DUP3 MSTORE DUP4 DUP11 KECCAK256 DUP4 DUP3 DUP3 SLOAD AND OR SWAP1 SSTORE PUSH1 0x7 DUP3 MSTORE DUP5 DUP5 DUP12 KECCAK256 SWAP2 DUP3 SLOAD AND OR SWAP1 SSTORE PUSH2 0x396 DUP4 MLOAD SWAP6 PUSH1 0x60 DUP8 MSTORE MLOAD DUP1 SWAP10 DUP2 PUSH1 0x60 DUP10 ADD MSTORE PUSH1 0x80 DUP9 ADD SWAP1 PUSH2 0x76D JUMP JUMPDEST DUP5 ADD MSTORE DUP3 ADD MSTORE CALLER SWAP4 PUSH1 0x1F ADD PUSH1 0x1F NOT AND DUP2 ADD DUP2 SWAP1 SUB PUSH1 0x80 ADD SWAP1 LOG3 DUP1 RETURN JUMPDEST PUSH4 0x4E487B71 PUSH1 0xE0 SHL DUP11 MSTORE PUSH1 0x41 DUP12 MSTORE PUSH1 0x24 DUP11 REVERT JUMPDEST DUP4 MLOAD PUSH3 0x461BCD PUSH1 0xE5 SHL DUP2 MSTORE DUP1 DUP12 ADD DUP4 SWAP1 MSTORE PUSH1 0xC PUSH1 0x24 DUP3 ADD MSTORE PUSH12 0x544F4B454E5F455849535453 PUSH1 0xA0 SHL PUSH1 0x44 DUP3 ADD MSTORE PUSH1 0x64 SWAP1 REVERT JUMPDEST DUP4 MLOAD PUSH3 0x461BCD PUSH1 0xE5 SHL DUP2 MSTORE DUP1 DUP12 ADD DUP4 SWAP1 MSTORE PUSH1 0xD PUSH1 0x24 DUP3 ADD MSTORE PUSH13 0x4E454C5F49445F455849535453 PUSH1 0x98 SHL PUSH1 0x44 DUP3 ADD MSTORE PUSH1 0x64 SWAP1 REVERT JUMPDEST DUP7 DUP1 REVERT JUMPDEST DUP6 DUP1 REVERT JUMPDEST DUP4 DUP1 REVERT JUMPDEST POP POP CALLVALUE PUSH2 0x213 JUMPI PUSH1 0x20 CALLDATASIZE PUSH1 0x3 NOT ADD SLT PUSH2 0x213 JUMPI PUSH1 0x20 SWAP2 PUSH1 0x1 PUSH1 0x1 PUSH1 0xA0 SHL SUB SWAP1 DUP3 SWAP1 DUP3 PUSH2 0x460 PUSH2 0x6C3 JUMP JUMPDEST AND DUP2 MSTORE PUSH1 0x7 DUP6 MSTORE KECCAK256 SLOAD AND SWAP1 MLOAD SWAP1 DUP2 MSTORE RETURN JUMPDEST POP POP CALLVALUE PUSH2 0x213 JUMPI DUP2 PUSH1 0x3 NOT CALLDATASIZE ADD SLT PUSH2 0x213 JUMPI SWAP1 SLOAD SWAP1 MLOAD PUSH1 0x1 PUSH1 0x1 PUSH1 0xA0 SHL SUB SWAP1 SWAP2 AND DUP2 MSTORE PUSH1 0x20 SWAP1 RETURN JUMPDEST POP POP CALLVALUE PUSH2 0x213 JUMPI PUSH1 0x20 CALLDATASIZE PUSH1 0x3 NOT ADD SLT PUSH2 0x213 JUMPI PUSH1 0x80 SWAP2 SWAP1 PUSH1 0x1 PUSH1 0x1 PUSH1 0xA0 SHL SUB DUP1 PUSH2 0x4C1 PUSH2 0x6C3 JUMP JUMPDEST AND DUP4 MSTORE PUSH1 0x6 PUSH1 0x20 MSTORE DUP1 DUP3 DUP2 DUP2 DUP7 KECCAK256 SLOAD AND SWAP5 PUSH1 0x7 PUSH1 0x20 MSTORE KECCAK256 SLOAD AND SWAP2 DUP2 PUSH1 0x1 SLOAD AND SWAP2 PUSH1 0x2 SLOAD AND SWAP3 DUP2 MLOAD SWAP5 DUP6 MSTORE PUSH1 0x20 DUP6 ADD MSTORE DUP4 ADD MSTORE PUSH1 0x60 DUP3 ADD MSTORE RETURN JUMPDEST DUP4 CALLVALUE PUSH2 0x17F JUMPI DUP1 PUSH1 0x3 NOT CALLDATASIZE ADD SLT PUSH2 0x17F JUMPI PUSH2 0x513 PUSH2 0x7C1 JUMP JUMPDEST DUP1 SLOAD PUSH1 0x1 PUSH1 0x1 PUSH1 0xA0 SHL SUB NOT DUP2 AND DUP3 SSTORE DUP2 SWAP1 PUSH1 0x1 PUSH1 0x1 PUSH1 0xA0 SHL SUB AND PUSH1 0x0 DUP1 MLOAD PUSH1 0x20 PUSH2 0x7EE DUP4 CODECOPY DUP2 MLOAD SWAP2 MSTORE DUP3 DUP1 LOG3 DUP1 RETURN JUMPDEST DUP3 DUP5 CALLVALUE PUSH2 0x17F JUMPI DUP1 PUSH1 0x3 NOT CALLDATASIZE ADD SLT PUSH2 0x17F JUMPI DUP2 MLOAD PUSH1 0x3 DUP1 SLOAD DUP1 DUP4 MSTORE SWAP1 DUP4 MSTORE PUSH1 0x20 SWAP4 SWAP3 DUP5 DUP4 ADD SWAP3 SWAP1 SWAP2 DUP4 SWAP1 PUSH32 0xC2575A0E9E593C00F959F8C92F12DB2869C3395A3B0502D05E2516446F71F85B SWAP1 DUP5 JUMPDEST DUP2 DUP2 LT PUSH2 0x5EA JUMPI POP POP POP DUP2 PUSH2 0x5A6 SWAP2 SUB DUP3 PUSH2 0x6DE JUMP JUMPDEST DUP4 MLOAD SWAP5 DUP6 SWAP5 DUP2 DUP7 ADD SWAP3 DUP3 DUP8 MSTORE MLOAD DUP1 SWAP4 MSTORE DUP6 ADD SWAP4 SWAP3 JUMPDEST DUP3 DUP2 LT PUSH2 0x5CA JUMPI POP POP POP POP SUB SWAP1 RETURN JUMPDEST DUP4 MLOAD PUSH1 0x1 PUSH1 0x1 PUSH1 0xA0 SHL SUB AND DUP6 MSTORE DUP7 SWAP6 POP SWAP4 DUP2 ADD SWAP4 SWAP3 DUP2 ADD SWAP3 PUSH1 0x1 ADD PUSH2 0x5BB JUMP JUMPDEST DUP3 SLOAD PUSH1 0x1 PUSH1 0x1 PUSH1 0xA0 SHL SUB AND DUP5 MSTORE SWAP3 DUP9 ADD SWAP3 PUSH1 0x1 SWAP3 DUP4 ADD SWAP3 ADD PUSH2 0x590 JUMP JUMPDEST POP CALLVALUE PUSH2 0x13B JUMPI PUSH1 0x20 CALLDATASIZE PUSH1 0x3 NOT ADD SLT PUSH2 0x13B JUMPI PUSH1 0x20 SWAP3 PUSH1 0xFF SWAP2 DUP4 SWAP2 SWAP1 PUSH1 0x1 PUSH1 0x1 PUSH1 0xA0 SHL SUB PUSH2 0x632 PUSH2 0x6C3 JUMP JUMPDEST AND DUP3 MSTORE DUP6 MSTORE KECCAK256 SLOAD AND SWAP1 MLOAD SWAP1 ISZERO ISZERO DUP2 MSTORE RETURN JUMPDEST POP POP CALLVALUE PUSH2 0x213 JUMPI DUP2 PUSH1 0x3 NOT CALLDATASIZE ADD SLT PUSH2 0x213 JUMPI PUSH1 0x2 SLOAD SWAP1 MLOAD PUSH1 0x1 PUSH1 0x1 PUSH1 0xA0 SHL SUB SWAP1 SWAP2 AND DUP2 MSTORE PUSH1 0x20 SWAP1 RETURN JUMPDEST POP POP CALLVALUE PUSH2 0x213 JUMPI DUP2 PUSH1 0x3 NOT CALLDATASIZE ADD SLT PUSH2 0x213 JUMPI PUSH1 0x20 SWAP1 PUSH1 0x3 SLOAD SWAP1 MLOAD SWAP1 DUP2 MSTORE RETURN JUMPDEST DUP5 SWAP1 DUP5 CALLVALUE PUSH2 0x13B JUMPI PUSH1 0x20 CALLDATASIZE PUSH1 0x3 NOT ADD SLT PUSH2 0x13B JUMPI PUSH1 0x20 SWAP3 PUSH1 0x1 PUSH1 0x1 PUSH1 0xA0 SHL SUB SWAP2 SWAP1 DUP3 PUSH2 0x6B5 PUSH2 0x6C3 JUMP JUMPDEST AND DUP2 MSTORE PUSH1 0x6 DUP6 MSTORE KECCAK256 SLOAD AND DUP2 MSTORE RETURN JUMPDEST PUSH1 0x4 CALLDATALOAD SWAP1 PUSH1 0x1 PUSH1 0x1 PUSH1 0xA0 SHL SUB DUP3 AND DUP3 SUB PUSH2 0x6D9 JUMPI JUMP JUMPDEST PUSH1 0x0 DUP1 REVERT JUMPDEST PUSH1 0x1F SWAP1 SWAP2 ADD PUSH1 0x1F NOT AND DUP2 ADD SWAP1 PUSH1 0x1 PUSH1 0x1 PUSH1 0x40 SHL SUB DUP3 GT SWAP1 DUP3 LT OR PUSH2 0x701 JUMPI PUSH1 0x40 MSTORE JUMP JUMPDEST PUSH4 0x4E487B71 PUSH1 0xE0 SHL PUSH1 0x0 MSTORE PUSH1 0x41 PUSH1 0x4 MSTORE PUSH1 0x24 PUSH1 0x0 REVERT JUMPDEST DUP2 PUSH1 0x1F DUP3 ADD SLT ISZERO PUSH2 0x6D9 JUMPI DUP1 CALLDATALOAD SWAP1 PUSH1 0x1 PUSH1 0x1 PUSH1 0x40 SHL SUB DUP3 GT PUSH2 0x701 JUMPI PUSH1 0x40 MLOAD SWAP3 PUSH2 0x74B PUSH1 0x1F DUP5 ADD PUSH1 0x1F NOT AND PUSH1 0x20 ADD DUP6 PUSH2 0x6DE JUMP JUMPDEST DUP3 DUP5 MSTORE PUSH1 0x20 DUP4 DUP4 ADD ADD GT PUSH2 0x6D9 JUMPI DUP2 PUSH1 0x0 SWAP3 PUSH1 0x20 DUP1 SWAP4 ADD DUP4 DUP7 ADD CALLDATACOPY DUP4 ADD ADD MSTORE SWAP1 JUMP JUMPDEST PUSH1 0x0 JUMPDEST DUP4 DUP2 LT PUSH2 0x780 JUMPI POP POP PUSH1 0x0 SWAP2 ADD MSTORE JUMP JUMPDEST DUP2 DUP2 ADD MLOAD DUP4 DUP3 ADD MSTORE PUSH1 0x20 ADD PUSH2 0x770 JUMP JUMPDEST PUSH1 0x3 SLOAD DUP2 LT ISZERO PUSH2 0x7AB JUMPI PUSH1 0x3 PUSH1 0x0 MSTORE PUSH1 0x20 PUSH1 0x0 KECCAK256 ADD SWAP1 PUSH1 0x0 SWAP1 JUMP JUMPDEST PUSH4 0x4E487B71 PUSH1 0xE0 SHL PUSH1 0x0 MSTORE PUSH1 0x32 PUSH1 0x4 MSTORE PUSH1 0x24 PUSH1 0x0 REVERT JUMPDEST PUSH1 0x0 SLOAD PUSH1 0x1 PUSH1 0x1 PUSH1 0xA0 SHL SUB AND CALLER SUB PUSH2 0x7D5 JUMPI JUMP JUMPDEST PUSH1 0x40 MLOAD PUSH4 0x118CDAA7 PUSH1 0xE0 SHL DUP2 MSTORE CALLER PUSH1 0x4 DUP3 ADD MSTORE PUSH1 0x24 SWAP1 REVERT INVALID DUP12 0xE0 SMOD SWAP13 MSTORE8 AND MSIZE EQ SGT PREVRANDAO 0xCD 0x1F 0xD0 LOG4 CALLCODE DUP5 NOT 0x49 PUSH32 0x9722A3DAAFE3B4186F6B6457E0A264697066735822122032C44603C693CFA529 DUP2 PUSH13 0xAABEB5CF84F2C28259DF55E778 RETURN 0xCF PUSH16 0x50769B12F864736F6C63430008140033 "},"methodIdentifiers":{"deployedTokens(uint256)":"ec81aadb","getDeployedTokens()":"622ae7aa","getDeployedTokensCount()":"25f1be1f","getTokenByNelId(string)":"533f01f0","getTokenInfrastructure(address)":"77d88660","isDeployedToken(address)":"4c1c7ddf","owner()":"8da5cb5b","registerLoanToken(address,string,address,address)":"c0b490c3","renounceOwnership()":"715018a6","sharedClaimTopicsRegistry()":"c5f15c7b","sharedTrustedIssuersRegistry()":"2747294b","tokenByNelId(string)":"d562de3d","tokenCompliance(address)":"b21e0cf9","tokenIdentityRegistry(address)":"24060804","transferOwnership(address)":"f2fde38b"}}}}}