{"contracts/erc3643/ClaimTopicsRegistry.sol":{"ClaimTopicsRegistry":{"abi":[{"inputs":[],"stateMutability":"nonpayable","type":"constructor"},{"inputs":[{"internalType":"address","name":"owner","type":"address"}],"name":"OwnableInvalidOwner","type":"error"},{"inputs":[{"internalType":"address","name":"account","type":"address"}],"name":"OwnableUnauthorizedAccount","type":"error"},{"anonymous":false,"inputs":[{"indexed":true,"internalType":"uint256","name":"claimTopic","type":"uint256"}],"name":"ClaimTopicAdded","type":"event"},{"anonymous":false,"inputs":[{"indexed":true,"internalType":"uint256","name":"claimTopic","type":"uint256"}],"name":"ClaimTopicRemoved","type":"event"},{"anonymous":false,"inputs":[{"indexed":true,"internalType":"address","name":"previousOwner","type":"address"},{"indexed":true,"internalType":"address","name":"newOwner","type":"address"}],"name":"OwnershipTransferred","type":"event"},{"inputs":[],"name":"CLAIM_TOPIC_ACCREDITATION","outputs":[{"internalType":"uint256","name":"","type":"uint256"}],"stateMutability":"view","type":"function"},{"inputs":[],"name":"CLAIM_TOPIC_AML","outputs":[{"internalType":"uint256","name":"","type":"uint256"}],"stateMutability":"view","type":"function"},{"inputs":[],"name":"CLAIM_TOPIC_JURISDICTION","outputs":[{"internalType":"uint256","name":"","type":"uint256"}],"stateMutability":"view","type":"function"},{"inputs":[],"name":"CLAIM_TOPIC_KYC","outputs":[{"internalType":"uint256","name":"","type":"uint256"}],"stateMutability":"view","type":"function"},{"inputs":[],"name":"CLAIM_TOPIC_QUALIFIED_INVESTOR","outputs":[{"internalType":"uint256","name":"","type":"uint256"}],"stateMutability":"view","type":"function"},{"inputs":[{"internalType":"uint256","name":"claimTopic","type":"uint256"}],"name":"addClaimTopic","outputs":[],"stateMutability":"nonpayable","type":"function"},{"inputs":[],"name":"getClaimTopics","outputs":[{"internalType":"uint256[]","name":"","type":"uint256[]"}],"stateMutability":"view","type":"function"},{"inputs":[{"internalType":"uint256","name":"claimTopic","type":"uint256"}],"name":"isClaimTopicRequired","outputs":[{"internalType":"bool","name":"","type":"bool"}],"stateMutability":"view","type":"function"},{"inputs":[],"name":"owner","outputs":[{"internalType":"address","name":"","type":"address"}],"stateMutability":"view","type":"function"},{"inputs":[{"internalType":"uint256","name":"claimTopic","type":"uint256"}],"name":"removeClaimTopic","outputs":[],"stateMutability":"nonpayable","type":"function"},{"inputs":[],"name":"renounceOwnership","outputs":[],"stateMutability":"nonpayable","type":"function"},{"inputs":[{"internalType":"address","name":"newOwner","type":"address"}],"name":"transferOwnership","outputs":[],"stateMutability":"nonpayable","type":"function"}],"evm":{"bytecode":{"linkReferences":{},"object":"60806040908082523461020f5733156101f9575060008054336001600160a01b0319821681178355906001600160a01b03167f8be0079c531659141344cd1fd0a4f28419497f9722a3daafe3b4186f6b6457e08380a36001808252600291602083815260ff85832054166101b6578254926801000000000000000093848110156101a25781810180835581101561018e57819081855283852001558482528583209160ff199282848254161790557f01c928b7f7ade2949e92366aa9454dbef3a416b731cf6ec786ba9595bbd814d69482868680a286855260ff888620541661014a578254908110156101365782810180845581101561012257908680928487528287200155818552528583209182541617905580a25161062c90816102158239f35b634e487b7160e01b85526032600452602485fd5b634e487b7160e01b85526041600452602485fd5b875162461bcd60e51b815260048101839052601460248201527f544f5049435f414c52454144595f4558495354530000000000000000000000006044820152606490fd5b634e487b7160e01b84526032600452602484fd5b634e487b7160e01b84526041600452602484fd5b60649085519062461bcd60e51b82526004820152601460248201527f544f5049435f414c52454144595f4558495354530000000000000000000000006044820152fd5b631e4fbdf760e01b815260006004820152602490fd5b600080fdfe60406080815260048036101561001457600080fd5b600091823560e01c806308297846146104035780635cf0c3f2146103e757806360d37cdb146103cc578063715018a61461038157806373778b2f146103655780637af695b0146103495780638da5cb5b14610321578063a14010b714610301578063be36359f146102d4578063c7b22551146101de578063df09d604146101225763f2fde38b146100a457600080fd5b3461011e57602036600319011261011e576001600160a01b0382358181169391929084900361011a576100d5610579565b831561010457505082546001600160a01b0319811683178455166000805160206105d78339815191528380a380f35b51631e4fbdf760e01b8152908101849052602490fd5b8480fd5b8280fd5b503461011e578260031936011261011e578051806001948554938483526020808094018096898552828520908a865b8281106101c95750505050859003601f01601f191685019690506001600160401b038711858810176101b6575092869284878096528186019282875251809352850195925b8281106101a35785870386f35b8351875295810195928101928401610196565b634e487b7160e01b835260419052602482fd5b83548552889590940193928101928101610151565b503461011e57602036600319011261011e578135916101fb610579565b828452600260205260ff828520541661029b5760015490600160401b82101561028857508261023382600161024c94016001556105a5565b90919082549060031b91821b91600019901b1916179055565b81835260026020528220805460ff191660011790557f01c928b7f7ade2949e92366aa9454dbef3a416b731cf6ec786ba9595bbd814d68280a280f35b634e487b7160e01b855260419052602484fd5b6020606492519162461bcd60e51b83528201526014602482015273544f5049435f414c52454144595f45584953545360601b6044820152fd5b50903461011e57602036600319011261011e578160209360ff923581526002855220541690519015158152f35b83823461031d578160031936011261031d576020905160058152f35b5080fd5b83823461031d578160031936011261031d57905490516001600160a01b039091168152602090f35b83823461031d578160031936011261031d576020905160028152f35b83823461031d578160031936011261031d576020905160018152f35b83346103c957806003193601126103c95761039a610579565b80546001600160a01b03198116825581906001600160a01b03166000805160206105d78339815191528280a380f35b80fd5b503461011e578260031936011261011e576020925051908152f35b83823461031d578160031936011261031d576020905160038152f35b5091903461031d57602036600319011261031d578035610421610579565b808352600260205260ff84842054161561054357825b60018054808310156105375790839161044f846105a5565b939054600394851b1c1461048457505050600019811461047157600101610437565b634e487b7160e01b845260118352602484fd5b919395969490926000199283810190811161052457906102336104a96104b5936105a5565b905490881b1c916105a5565b825490811561051157508101926104cb846105a5565b81939154921b1b19169055555b81835260026020528220805460ff191690557f0b1381093c776453c1bbe54fd68be1b235c65db61d099cb50d194b2991e0eec58280a280f35b634e487b7160e01b885260319052602487fd5b634e487b7160e01b895260118352602489fd5b505050919290506104d8565b835162461bcd60e51b8152602081840152601060248201526f544f5049435f4e4f545f45584953545360801b6044820152606490fd5b6000546001600160a01b0316330361058d57565b60405163118cdaa760e01b8152336004820152602490fd5b6001548110156105c057600160005260206000200190600090565b634e487b7160e01b600052603260045260246000fdfe8be0079c531659141344cd1fd0a4f28419497f9722a3daafe3b4186f6b6457e0a2646970667358221220eb1a0d2b475c5f3466b14a9d9df57bcec2e18037e041fdf2879e7b898e533bac64736f6c63430008140033","opcodes":"PUSH1 0x80 PUSH1 0x40 SWAP1 DUP1 DUP3 MSTORE CALLVALUE PUSH2 0x20F JUMPI CALLER ISZERO PUSH2 0x1F9 JUMPI POP PUSH1 0x0 DUP1 SLOAD CALLER PUSH1 0x1 PUSH1 0x1 PUSH1 0xA0 SHL SUB NOT DUP3 AND DUP2 OR DUP4 SSTORE SWAP1 PUSH1 0x1 PUSH1 0x1 PUSH1 0xA0 SHL SUB AND PUSH32 0x8BE0079C531659141344CD1FD0A4F28419497F9722A3DAAFE3B4186F6B6457E0 DUP4 DUP1 LOG3 PUSH1 0x1 DUP1 DUP3 MSTORE PUSH1 0x2 SWAP2 PUSH1 0x20 DUP4 DUP2 MSTORE PUSH1 0xFF DUP6 DUP4 KECCAK256 SLOAD AND PUSH2 0x1B6 JUMPI DUP3 SLOAD SWAP3 PUSH9 0x10000000000000000 SWAP4 DUP5 DUP2 LT ISZERO PUSH2 0x1A2 JUMPI DUP2 DUP2 ADD DUP1 DUP4 SSTORE DUP2 LT ISZERO PUSH2 0x18E JUMPI DUP2 SWAP1 DUP2 DUP6 MSTORE DUP4 DUP6 KECCAK256 ADD SSTORE DUP5 DUP3 MSTORE DUP6 DUP4 KECCAK256 SWAP2 PUSH1 0xFF NOT SWAP3 DUP3 DUP5 DUP3 SLOAD AND OR SWAP1 SSTORE PUSH32 0x1C928B7F7ADE2949E92366AA9454DBEF3A416B731CF6EC786BA9595BBD814D6 SWAP5 DUP3 DUP7 DUP7 DUP1 LOG2 DUP7 DUP6 MSTORE PUSH1 0xFF DUP9 DUP7 KECCAK256 SLOAD AND PUSH2 0x14A JUMPI DUP3 SLOAD SWAP1 DUP2 LT ISZERO PUSH2 0x136 JUMPI DUP3 DUP2 ADD DUP1 DUP5 SSTORE DUP2 LT ISZERO PUSH2 0x122 JUMPI SWAP1 DUP7 DUP1 SWAP3 DUP5 DUP8 MSTORE DUP3 DUP8 KECCAK256 ADD SSTORE DUP2 DUP6 MSTORE MSTORE DUP6 DUP4 KECCAK256 SWAP2 DUP3 SLOAD AND OR SWAP1 SSTORE DUP1 LOG2 MLOAD PUSH2 0x62C SWAP1 DUP2 PUSH2 0x215 DUP3 CODECOPY RETURN JUMPDEST PUSH4 0x4E487B71 PUSH1 0xE0 SHL DUP6 MSTORE PUSH1 0x32 PUSH1 0x4 MSTORE PUSH1 0x24 DUP6 REVERT JUMPDEST PUSH4 0x4E487B71 PUSH1 0xE0 SHL DUP6 MSTORE PUSH1 0x41 PUSH1 0x4 MSTORE PUSH1 0x24 DUP6 REVERT JUMPDEST DUP8 MLOAD PUSH3 0x461BCD PUSH1 0xE5 SHL DUP2 MSTORE PUSH1 0x4 DUP2 ADD DUP4 SWAP1 MSTORE PUSH1 0x14 PUSH1 0x24 DUP3 ADD MSTORE PUSH32 0x544F5049435F414C52454144595F455849535453000000000000000000000000 PUSH1 0x44 DUP3 ADD MSTORE PUSH1 0x64 SWAP1 REVERT JUMPDEST PUSH4 0x4E487B71 PUSH1 0xE0 SHL DUP5 MSTORE PUSH1 0x32 PUSH1 0x4 MSTORE PUSH1 0x24 DUP5 REVERT JUMPDEST PUSH4 0x4E487B71 PUSH1 0xE0 SHL DUP5 MSTORE PUSH1 0x41 PUSH1 0x4 MSTORE PUSH1 0x24 DUP5 REVERT JUMPDEST PUSH1 0x64 SWAP1 DUP6 MLOAD SWAP1 PUSH3 0x461BCD PUSH1 0xE5 SHL DUP3 MSTORE PUSH1 0x4 DUP3 ADD MSTORE PUSH1 0x14 PUSH1 0x24 DUP3 ADD MSTORE PUSH32 0x544F5049435F414C52454144595F455849535453000000000000000000000000 PUSH1 0x44 DUP3 ADD MSTORE REVERT JUMPDEST PUSH4 0x1E4FBDF7 PUSH1 0xE0 SHL DUP2 MSTORE PUSH1 0x0 PUSH1 0x4 DUP3 ADD MSTORE PUSH1 0x24 SWAP1 REVERT JUMPDEST PUSH1 0x0 DUP1 REVERT INVALID PUSH1 0x40 PUSH1 0x80 DUP2 MSTORE PUSH1 0x4 DUP1 CALLDATASIZE LT ISZERO PUSH2 0x14 JUMPI PUSH1 0x0 DUP1 REVERT JUMPDEST PUSH1 0x0 SWAP2 DUP3 CALLDATALOAD PUSH1 0xE0 SHR DUP1 PUSH4 0x8297846 EQ PUSH2 0x403 JUMPI DUP1 PUSH4 0x5CF0C3F2 EQ PUSH2 0x3E7 JUMPI DUP1 PUSH4 0x60D37CDB EQ PUSH2 0x3CC JUMPI DUP1 PUSH4 0x715018A6 EQ PUSH2 0x381 JUMPI DUP1 PUSH4 0x73778B2F EQ PUSH2 0x365 JUMPI DUP1 PUSH4 0x7AF695B0 EQ PUSH2 0x349 JUMPI DUP1 PUSH4 0x8DA5CB5B EQ PUSH2 0x321 JUMPI DUP1 PUSH4 0xA14010B7 EQ PUSH2 0x301 JUMPI DUP1 PUSH4 0xBE36359F EQ PUSH2 0x2D4 JUMPI DUP1 PUSH4 0xC7B22551 EQ PUSH2 0x1DE JUMPI DUP1 PUSH4 0xDF09D604 EQ PUSH2 0x122 JUMPI PUSH4 0xF2FDE38B EQ PUSH2 0xA4 JUMPI PUSH1 0x0 DUP1 REVERT JUMPDEST CALLVALUE PUSH2 0x11E JUMPI PUSH1 0x20 CALLDATASIZE PUSH1 0x3 NOT ADD SLT PUSH2 0x11E JUMPI PUSH1 0x1 PUSH1 0x1 PUSH1 0xA0 SHL SUB DUP3 CALLDATALOAD DUP2 DUP2 AND SWAP4 SWAP2 SWAP3 SWAP1 DUP5 SWAP1 SUB PUSH2 0x11A JUMPI PUSH2 0xD5 PUSH2 0x579 JUMP JUMPDEST DUP4 ISZERO PUSH2 0x104 JUMPI POP POP DUP3 SLOAD PUSH1 0x1 PUSH1 0x1 PUSH1 0xA0 SHL SUB NOT DUP2 AND DUP4 OR DUP5 SSTORE AND PUSH1 0x0 DUP1 MLOAD PUSH1 0x20 PUSH2 0x5D7 DUP4 CODECOPY DUP2 MLOAD SWAP2 MSTORE DUP4 DUP1 LOG3 DUP1 RETURN JUMPDEST MLOAD PUSH4 0x1E4FBDF7 PUSH1 0xE0 SHL DUP2 MSTORE SWAP1 DUP2 ADD DUP5 SWAP1 MSTORE PUSH1 0x24 SWAP1 REVERT JUMPDEST DUP5 DUP1 REVERT JUMPDEST DUP3 DUP1 REVERT JUMPDEST POP CALLVALUE PUSH2 0x11E JUMPI DUP3 PUSH1 0x3 NOT CALLDATASIZE ADD SLT PUSH2 0x11E JUMPI DUP1 MLOAD DUP1 PUSH1 0x1 SWAP5 DUP6 SLOAD SWAP4 DUP5 DUP4 MSTORE PUSH1 0x20 DUP1 DUP1 SWAP5 ADD DUP1 SWAP7 DUP10 DUP6 MSTORE DUP3 DUP6 KECCAK256 SWAP1 DUP11 DUP7 JUMPDEST DUP3 DUP2 LT PUSH2 0x1C9 JUMPI POP POP POP POP DUP6 SWAP1 SUB PUSH1 0x1F ADD PUSH1 0x1F NOT AND DUP6 ADD SWAP7 SWAP1 POP PUSH1 0x1 PUSH1 0x1 PUSH1 0x40 SHL SUB DUP8 GT DUP6 DUP9 LT OR PUSH2 0x1B6 JUMPI POP SWAP3 DUP7 SWAP3 DUP5 DUP8 DUP1 SWAP7 MSTORE DUP2 DUP7 ADD SWAP3 DUP3 DUP8 MSTORE MLOAD DUP1 SWAP4 MSTORE DUP6 ADD SWAP6 SWAP3 JUMPDEST DUP3 DUP2 LT PUSH2 0x1A3 JUMPI DUP6 DUP8 SUB DUP7 RETURN JUMPDEST DUP4 MLOAD DUP8 MSTORE SWAP6 DUP2 ADD SWAP6 SWAP3 DUP2 ADD SWAP3 DUP5 ADD PUSH2 0x196 JUMP JUMPDEST PUSH4 0x4E487B71 PUSH1 0xE0 SHL DUP4 MSTORE PUSH1 0x41 SWAP1 MSTORE PUSH1 0x24 DUP3 REVERT JUMPDEST DUP4 SLOAD DUP6 MSTORE DUP9 SWAP6 SWAP1 SWAP5 ADD SWAP4 SWAP3 DUP2 ADD SWAP3 DUP2 ADD PUSH2 0x151 JUMP JUMPDEST POP CALLVALUE PUSH2 0x11E JUMPI PUSH1 0x20 CALLDATASIZE PUSH1 0x3 NOT ADD SLT PUSH2 0x11E JUMPI DUP2 CALLDATALOAD SWAP2 PUSH2 0x1FB PUSH2 0x579 JUMP JUMPDEST DUP3 DUP5 MSTORE PUSH1 0x2 PUSH1 0x20 MSTORE PUSH1 0xFF DUP3 DUP6 KECCAK256 SLOAD AND PUSH2 0x29B JUMPI PUSH1 0x1 SLOAD SWAP1 PUSH1 0x1 PUSH1 0x40 SHL DUP3 LT ISZERO PUSH2 0x288 JUMPI POP DUP3 PUSH2 0x233 DUP3 PUSH1 0x1 PUSH2 0x24C SWAP5 ADD PUSH1 0x1 SSTORE PUSH2 0x5A5 JUMP JUMPDEST SWAP1 SWAP2 SWAP1 DUP3 SLOAD SWAP1 PUSH1 0x3 SHL SWAP2 DUP3 SHL SWAP2 PUSH1 0x0 NOT SWAP1 SHL NOT AND OR SWAP1 SSTORE JUMP JUMPDEST DUP2 DUP4 MSTORE PUSH1 0x2 PUSH1 0x20 MSTORE DUP3 KECCAK256 DUP1 SLOAD PUSH1 0xFF NOT AND PUSH1 0x1 OR SWAP1 SSTORE PUSH32 0x1C928B7F7ADE2949E92366AA9454DBEF3A416B731CF6EC786BA9595BBD814D6 DUP3 DUP1 LOG2 DUP1 RETURN JUMPDEST PUSH4 0x4E487B71 PUSH1 0xE0 SHL DUP6 MSTORE PUSH1 0x41 SWAP1 MSTORE PUSH1 0x24 DUP5 REVERT JUMPDEST PUSH1 0x20 PUSH1 0x64 SWAP3 MLOAD SWAP2 PUSH3 0x461BCD PUSH1 0xE5 SHL DUP4 MSTORE DUP3 ADD MSTORE PUSH1 0x14 PUSH1 0x24 DUP3 ADD MSTORE PUSH20 0x544F5049435F414C52454144595F455849535453 PUSH1 0x60 SHL PUSH1 0x44 DUP3 ADD MSTORE REVERT JUMPDEST POP SWAP1 CALLVALUE PUSH2 0x11E JUMPI PUSH1 0x20 CALLDATASIZE PUSH1 0x3 NOT ADD SLT PUSH2 0x11E JUMPI DUP2 PUSH1 0x20 SWAP4 PUSH1 0xFF SWAP3 CALLDATALOAD DUP2 MSTORE PUSH1 0x2 DUP6 MSTORE KECCAK256 SLOAD AND SWAP1 MLOAD SWAP1 ISZERO ISZERO DUP2 MSTORE RETURN JUMPDEST DUP4 DUP3 CALLVALUE PUSH2 0x31D JUMPI DUP2 PUSH1 0x3 NOT CALLDATASIZE ADD SLT PUSH2 0x31D JUMPI PUSH1 0x20 SWAP1 MLOAD PUSH1 0x5 DUP2 MSTORE RETURN JUMPDEST POP DUP1 REVERT JUMPDEST DUP4 DUP3 CALLVALUE PUSH2 0x31D JUMPI DUP2 PUSH1 0x3 NOT CALLDATASIZE ADD SLT PUSH2 0x31D JUMPI SWAP1 SLOAD SWAP1 MLOAD PUSH1 0x1 PUSH1 0x1 PUSH1 0xA0 SHL SUB SWAP1 SWAP2 AND DUP2 MSTORE PUSH1 0x20 SWAP1 RETURN JUMPDEST DUP4 DUP3 CALLVALUE PUSH2 0x31D JUMPI DUP2 PUSH1 0x3 NOT CALLDATASIZE ADD SLT PUSH2 0x31D JUMPI PUSH1 0x20 SWAP1 MLOAD PUSH1 0x2 DUP2 MSTORE RETURN JUMPDEST DUP4 DUP3 CALLVALUE PUSH2 0x31D JUMPI DUP2 PUSH1 0x3 NOT CALLDATASIZE ADD SLT PUSH2 0x31D JUMPI PUSH1 0x20 SWAP1 MLOAD PUSH1 0x1 DUP2 MSTORE RETURN JUMPDEST DUP4 CALLVALUE PUSH2 0x3C9 JUMPI DUP1 PUSH1 0x3 NOT CALLDATASIZE ADD SLT PUSH2 0x3C9 JUMPI PUSH2 0x39A PUSH2 0x579 JUMP JUMPDEST DUP1 SLOAD PUSH1 0x1 PUSH1 0x1 PUSH1 0xA0 SHL SUB NOT DUP2 AND DUP3 SSTORE DUP2 SWAP1 PUSH1 0x1 PUSH1 0x1 PUSH1 0xA0 SHL SUB AND PUSH1 0x0 DUP1 MLOAD PUSH1 0x20 PUSH2 0x5D7 DUP4 CODECOPY DUP2 MLOAD SWAP2 MSTORE DUP3 DUP1 LOG3 DUP1 RETURN JUMPDEST DUP1 REVERT JUMPDEST POP CALLVALUE PUSH2 0x11E JUMPI DUP3 PUSH1 0x3 NOT CALLDATASIZE ADD SLT PUSH2 0x11E JUMPI PUSH1 0x20 SWAP3 POP MLOAD SWAP1 DUP2 MSTORE RETURN JUMPDEST DUP4 DUP3 CALLVALUE PUSH2 0x31D JUMPI DUP2 PUSH1 0x3 NOT CALLDATASIZE ADD SLT PUSH2 0x31D JUMPI PUSH1 0x20 SWAP1 MLOAD PUSH1 0x3 DUP2 MSTORE RETURN JUMPDEST POP SWAP2 SWAP1 CALLVALUE PUSH2 0x31D JUMPI PUSH1 0x20 CALLDATASIZE PUSH1 0x3 NOT ADD SLT PUSH2 0x31D JUMPI DUP1 CALLDATALOAD PUSH2 0x421 PUSH2 0x579 JUMP JUMPDEST DUP1 DUP4 MSTORE PUSH1 0x2 PUSH1 0x20 MSTORE PUSH1 0xFF DUP5 DUP5 KECCAK256 SLOAD AND ISZERO PUSH2 0x543 JUMPI DUP3 JUMPDEST PUSH1 0x1 DUP1 SLOAD DUP1 DUP4 LT ISZERO PUSH2 0x537 JUMPI SWAP1 DUP4 SWAP2 PUSH2 0x44F DUP5 PUSH2 0x5A5 JUMP JUMPDEST SWAP4 SWAP1 SLOAD PUSH1 0x3 SWAP5 DUP6 SHL SHR EQ PUSH2 0x484 JUMPI POP POP POP PUSH1 0x0 NOT DUP2 EQ PUSH2 0x471 JUMPI PUSH1 0x1 ADD PUSH2 0x437 JUMP JUMPDEST PUSH4 0x4E487B71 PUSH1 0xE0 SHL DUP5 MSTORE PUSH1 0x11 DUP4 MSTORE PUSH1 0x24 DUP5 REVERT JUMPDEST SWAP2 SWAP4 SWAP6 SWAP7 SWAP5 SWAP1 SWAP3 PUSH1 0x0 NOT SWAP3 DUP4 DUP2 ADD SWAP1 DUP2 GT PUSH2 0x524 JUMPI SWAP1 PUSH2 0x233 PUSH2 0x4A9 PUSH2 0x4B5 SWAP4 PUSH2 0x5A5 JUMP JUMPDEST SWAP1 SLOAD SWAP1 DUP9 SHL SHR SWAP2 PUSH2 0x5A5 JUMP JUMPDEST DUP3 SLOAD SWAP1 DUP2 ISZERO PUSH2 0x511 JUMPI POP DUP2 ADD SWAP3 PUSH2 0x4CB DUP5 PUSH2 0x5A5 JUMP JUMPDEST DUP2 SWAP4 SWAP2 SLOAD SWAP3 SHL SHL NOT AND SWAP1 SSTORE SSTORE JUMPDEST DUP2 DUP4 MSTORE PUSH1 0x2 PUSH1 0x20 MSTORE DUP3 KECCAK256 DUP1 SLOAD PUSH1 0xFF NOT AND SWAP1 SSTORE PUSH32 0xB1381093C776453C1BBE54FD68BE1B235C65DB61D099CB50D194B2991E0EEC5 DUP3 DUP1 LOG2 DUP1 RETURN JUMPDEST PUSH4 0x4E487B71 PUSH1 0xE0 SHL DUP9 MSTORE PUSH1 0x31 SWAP1 MSTORE PUSH1 0x24 DUP8 REVERT JUMPDEST PUSH4 0x4E487B71 PUSH1 0xE0 SHL DUP10 MSTORE PUSH1 0x11 DUP4 MSTORE PUSH1 0x24 DUP10 REVERT JUMPDEST POP POP POP SWAP2 SWAP3 SWAP1 POP PUSH2 0x4D8 JUMP JUMPDEST DUP4 MLOAD PUSH3 0x461BCD PUSH1 0xE5 SHL DUP2 MSTORE PUSH1 0x20 DUP2 DUP5 ADD MSTORE PUSH1 0x10 PUSH1 0x24 DUP3 ADD MSTORE PUSH16 0x544F5049435F4E4F545F455849535453 PUSH1 0x80 SHL PUSH1 0x44 DUP3 ADD MSTORE PUSH1 0x64 SWAP1 REVERT JUMPDEST PUSH1 0x0 SLOAD PUSH1 0x1 PUSH1 0x1 PUSH1 0xA0 SHL SUB AND CALLER SUB PUSH2 0x58D JUMPI JUMP JUMPDEST PUSH1 0x40 MLOAD PUSH4 0x118CDAA7 PUSH1 0xE0 SHL DUP2 MSTORE CALLER PUSH1 0x4 DUP3 ADD MSTORE PUSH1 0x24 SWAP1 REVERT JUMPDEST PUSH1 0x1 SLOAD DUP2 LT ISZERO PUSH2 0x5C0 JUMPI PUSH1 0x1 PUSH1 0x0 MSTORE PUSH1 0x20 PUSH1 0x0 KECCAK256 ADD SWAP1 PUSH1 0x0 SWAP1 JUMP JUMPDEST PUSH4 0x4E487B71 PUSH1 0xE0 SHL PUSH1 0x0 MSTORE PUSH1 0x32 PUSH1 0x4 MSTORE PUSH1 0x24 PUSH1 0x0 REVERT INVALID DUP12 0xE0 SMOD SWAP13 MSTORE8 AND MSIZE EQ SGT PREVRANDAO 0xCD 0x1F 0xD0 LOG4 CALLCODE DUP5 NOT 0x49 PUSH32 0x9722A3DAAFE3B4186F6B6457E0A2646970667358221220EB1A0D2B475C5F3466 0xB1 0x4A SWAP14 SWAP14 CREATE2 PUSH28 0xCEC2E18037E041FDF2879E7B898E533BAC64736F6C63430008140033 "},"methodIdentifiers":{"CLAIM_TOPIC_ACCREDITATION()":"7af695b0","CLAIM_TOPIC_AML()":"60d37cdb","CLAIM_TOPIC_JURISDICTION()":"5cf0c3f2","CLAIM_TOPIC_KYC()":"73778b2f","CLAIM_TOPIC_QUALIFIED_INVESTOR()":"a14010b7","addClaimTopic(uint256)":"c7b22551","getClaimTopics()":"df09d604","isClaimTopicRequired(uint256)":"be36359f","owner()":"8da5cb5b","removeClaimTopic(uint256)":"08297846","renounceOwnership()":"715018a6","transferOwnership(address)":"f2fde38b"}}}}}