{"contracts/erc3643/Compliance.sol":{"Compliance":{"abi":[{"inputs":[],"stateMutability":"nonpayable","type":"constructor"},{"inputs":[{"internalType":"address","name":"owner","type":"address"}],"name":"OwnableInvalidOwner","type":"error"},{"inputs":[{"internalType":"address","name":"account","type":"address"}],"name":"OwnableUnauthorizedAccount","type":"error"},{"anonymous":false,"inputs":[{"indexed":true,"internalType":"uint16","name":"country","type":"uint16"},{"indexed":false,"internalType":"bool","name":"blacklisted","type":"bool"},{"indexed":false,"internalType":"uint256","name":"maxInvestors","type":"uint256"}],"name":"CountryRestrictionSet","type":"event"},{"anonymous":false,"inputs":[{"indexed":true,"internalType":"address","name":"investor","type":"address"},{"indexed":false,"internalType":"uint256","name":"maxBalance","type":"uint256"}],"name":"MaxBalanceSet","type":"event"},{"anonymous":false,"inputs":[{"indexed":false,"internalType":"uint256","name":"maxHolders","type":"uint256"}],"name":"MaxHoldersSet","type":"event"},{"anonymous":false,"inputs":[{"indexed":true,"internalType":"address","name":"previousOwner","type":"address"},{"indexed":true,"internalType":"address","name":"newOwner","type":"address"}],"name":"OwnershipTransferred","type":"event"},{"anonymous":false,"inputs":[{"indexed":true,"internalType":"address","name":"token","type":"address"}],"name":"TokenBound","type":"event"},{"anonymous":false,"inputs":[{"indexed":true,"internalType":"address","name":"token","type":"address"}],"name":"TokenUnbound","type":"event"},{"anonymous":false,"inputs":[{"indexed":false,"internalType":"uint256","name":"minAmount","type":"uint256"},{"indexed":false,"internalType":"uint256","name":"maxAmount","type":"uint256"}],"name":"TransferLimitsSet","type":"event"},{"anonymous":false,"inputs":[{"indexed":true,"internalType":"address","name":"investor","type":"address"},{"indexed":false,"internalType":"uint256","name":"endTime","type":"uint256"}],"name":"TransferLockupSet","type":"event"},{"inputs":[{"internalType":"address","name":"token","type":"address"}],"name":"bindToken","outputs":[],"stateMutability":"nonpayable","type":"function"},{"inputs":[{"internalType":"address","name":"from","type":"address"},{"internalType":"address","name":"to","type":"address"},{"internalType":"uint256","name":"amount","type":"uint256"}],"name":"canTransfer","outputs":[{"internalType":"bool","name":"","type":"bool"}],"stateMutability":"view","type":"function"},{"inputs":[{"internalType":"uint16","name":"","type":"uint16"}],"name":"countryRestrictions","outputs":[{"internalType":"bool","name":"isBlacklisted","type":"bool"},{"internalType":"uint256","name":"maxInvestors","type":"uint256"}],"stateMutability":"view","type":"function"},{"inputs":[{"internalType":"address","name":"to","type":"address"},{"internalType":"uint256","name":"amount","type":"uint256"}],"name":"created","outputs":[],"stateMutability":"nonpayable","type":"function"},{"inputs":[],"name":"currentHolders","outputs":[{"internalType":"uint256","name":"","type":"uint256"}],"stateMutability":"view","type":"function"},{"inputs":[],"name":"defaultMaxBalance","outputs":[{"internalType":"uint256","name":"","type":"uint256"}],"stateMutability":"view","type":"function"},{"inputs":[{"internalType":"address","name":"from","type":"address"},{"internalType":"uint256","name":"amount","type":"uint256"}],"name":"destroyed","outputs":[],"stateMutability":"nonpayable","type":"function"},{"inputs":[],"name":"getBoundTokens","outputs":[{"internalType":"address[]","name":"","type":"address[]"}],"stateMutability":"view","type":"function"},{"inputs":[{"internalType":"uint16","name":"","type":"uint16"}],"name":"investorCountByCountry","outputs":[{"internalType":"uint256","name":"","type":"uint256"}],"stateMutability":"view","type":"function"},{"inputs":[{"internalType":"uint16","name":"country","type":"uint16"}],"name":"isCountryBlacklisted","outputs":[{"internalType":"bool","name":"","type":"bool"}],"stateMutability":"view","type":"function"},{"inputs":[{"internalType":"address","name":"token","type":"address"}],"name":"isTokenBound","outputs":[{"internalType":"bool","name":"","type":"bool"}],"stateMutability":"view","type":"function"},{"inputs":[{"internalType":"address","name":"","type":"address"}],"name":"maxBalance","outputs":[{"internalType":"uint256","name":"","type":"uint256"}],"stateMutability":"view","type":"function"},{"inputs":[],"name":"maxHolders","outputs":[{"internalType":"uint256","name":"","type":"uint256"}],"stateMutability":"view","type":"function"},{"inputs":[],"name":"maxTransferAmount","outputs":[{"internalType":"uint256","name":"","type":"uint256"}],"stateMutability":"view","type":"function"},{"inputs":[],"name":"minTransferAmount","outputs":[{"internalType":"uint256","name":"","type":"uint256"}],"stateMutability":"view","type":"function"},{"inputs":[],"name":"owner","outputs":[{"internalType":"address","name":"","type":"address"}],"stateMutability":"view","type":"function"},{"inputs":[],"name":"renounceOwnership","outputs":[],"stateMutability":"nonpayable","type":"function"},{"inputs":[{"internalType":"uint16","name":"country","type":"uint16"},{"internalType":"bool","name":"blacklisted","type":"bool"},{"internalType":"uint256","name":"maxInvestorsFromCountry","type":"uint256"}],"name":"setCountryRestriction","outputs":[],"stateMutability":"nonpayable","type":"function"},{"inputs":[{"internalType":"address","name":"investor","type":"address"},{"internalType":"uint256","name":"_maxBalance","type":"uint256"}],"name":"setMaxBalance","outputs":[],"stateMutability":"nonpayable","type":"function"},{"inputs":[{"internalType":"uint256","name":"_maxHolders","type":"uint256"}],"name":"setMaxHolders","outputs":[],"stateMutability":"nonpayable","type":"function"},{"inputs":[{"internalType":"uint256","name":"minAmount","type":"uint256"},{"internalType":"uint256","name":"maxAmount","type":"uint256"}],"name":"setTransferLimits","outputs":[],"stateMutability":"nonpayable","type":"function"},{"inputs":[{"internalType":"address","name":"investor","type":"address"},{"internalType":"uint256","name":"endTime","type":"uint256"}],"name":"setTransferLockup","outputs":[],"stateMutability":"nonpayable","type":"function"},{"inputs":[{"internalType":"address","name":"","type":"address"}],"name":"transferLockupEnd","outputs":[{"internalType":"uint256","name":"","type":"uint256"}],"stateMutability":"view","type":"function"},{"inputs":[{"internalType":"address","name":"newOwner","type":"address"}],"name":"transferOwnership","outputs":[],"stateMutability":"nonpayable","type":"function"},{"inputs":[{"internalType":"address","name":"from","type":"address"},{"internalType":"address","name":"to","type":"address"},{"internalType":"uint256","name":"amount","type":"uint256"}],"name":"transferred","outputs":[],"stateMutability":"nonpayable","type":"function"},{"inputs":[{"internalType":"address","name":"token","type":"address"}],"name":"unbindToken","outputs":[],"stateMutability":"nonpayable","type":"function"}],"evm":{"bytecode":{"linkReferences":{},"object":"6080806040523461012c5733156101165760008054336001600160a01b0319821681178355906001600160a01b03167f8be0079c531659141344cd1fd0a4f28419497f9722a3daafe3b4186f6b6457e08380a36127106005556000198060095560019081600855600b55610071610131565b818152602090818101908482526101988552600383528360408620915115159260ff199360ff858554169116178355519101556100ac610131565b8381528383820186815261016c875260038552604087209251151560ff8585541691161783555191015560ff60406100e2610131565b958587526003858801958287526102f8835252209451151591855416911617835551910155604051610c9890816101678239f35b631e4fbdf760e01b815260006004820152602490fd5b600080fd5b60408051919082016001600160401b0381118382101761015057604052565b634e487b7160e01b600052604160045260246000fdfe6040608081526004908136101561001557600080fd5b600091823560e01c80630389d8d614610a4e5780631947c213146109fa5780631ed23c3e146109c3578063386971cb1461098b5780633cb32f771461096c5780633ff5aa021461084857806340db3b501461069357806346059287146105c25780634c5a3a78146105a35780635f8dead3146104155780636884143114610584578063715018a61461053c57806375ec49b7146104a65780638365066b146104595780638baf29b4146104395780638bf5c4ee1461041a5780638d2ea772146104155780638d56cc9c146103ad5780638da5cb5b14610385578063993e8b9514610347578063a725013a1461030f578063a9e75723146102f0578063aa6909131461020f578063c2a58d2e146101df578063e46638e6146101b65763f2fde38b1461013f57600080fd5b346101b25760203660031901126101b257610158610ab6565b90610161610b3b565b6001600160a01b0391821692831561019c57505082546001600160a01b031981168317845516600080516020610c438339815191528380a380f35b51631e4fbdf760e01b8152908101849052602490fd5b8280fd5b5050346101db576020906101d26101cc36610b06565b91610b98565b90519015158152f35b5080fd5b50346101b25760203660031901126101b257602092829161ffff610201610ad1565b168252845220549051908152f35b509190346101db5760603660031901126101db5761022b610ad1565b90602435801515918282036102ec5760443592610246610b3b565b8151908183016001600160401b038111838210176102d9579183916102d3937f6cce5670f4b122c15cb23ebe2117b4e8a1833bab12eb4b347398d0d029eddfe0979695528152600161ffff6020830198878a521697888a526003602052838a209251151560ff80198554169116178355519101555192839283602090939291936040810194151581520152565b0390a280f35b634e487b7160e01b885260418952602488fd5b8480fd5b5050346101db57816003193601126101db576020906009549051908152f35b5050346101db5760203660031901126101db5760209181906001600160a01b03610337610ab6565b1681526007845220549051908152f35b5050346101db5760203660031901126101db5760209160ff9082906001600160a01b03610372610ab6565b1681526001855220541690519015158152f35b5050346101db57816003193601126101db57905490516001600160a01b039091168152602090f35b5050346101db57806003193601126101db577f8bec153ee727d17f3f63aa27cbb6bd64eb978b88821b30002a4b5517aeb10cec60206103ea610ab6565b602435906103f6610b3b565b6001600160a01b0316808652600a83528486208290559351908152a280f35b610ae2565b5050346101db57816003193601126101db576020906005549051908152f35b83346104565761044836610b06565b505050610453610bf2565b80f35b80fd5b50346101b25760203660031901126101b2577fd95f6c53e97f4296dd8ed1d779512e13c947410183d93ca8d54e5a913c20505591602091359061049a610b3b565b8160055551908152a180f35b509190346101db57806003193601126101db578235602435936104c7610b3b565b84821161050857507f106460806200bb17eb3172a19a68d4bf2131871d489bce659a2700f63e114ba79293816008558060095582519182526020820152a180f35b606490602084519162461bcd60e51b8352820152600e60248201526d494e56414c49445f4c494d49545360901b6044820152fd5b8334610456578060031936011261045657610555610b3b565b80546001600160a01b03198116825581906001600160a01b0316600080516020610c438339815191528280a380f35b5050346101db57816003193601126101db576020906008549051908152f35b5050346101db57816003193601126101db57602090600b549051908152f35b5091346104565780600319360112610456578151809160025493848352602080930180956002845284842090845b868282106106765750505050849003601f01601f19168401956001600160401b03871185881017610663575085815282865292518583018190528594938501939290915b82811061064357505050500390f35b83516001600160a01b031685528695509381019392810192600101610634565b634e487b7160e01b835260419052602482fd5b83546001600160a01b0316855290930192600192830192016105f0565b508290346101db5760203660031901126101db576106af610ab6565b6106b7610b3b565b60018060a01b03809116918284526001918260205260ff868620541615610813578385526020839052858520805460ff1916905584835b61071c575b85857f28a4ca7134a3b3f9aff286e79ad3daadb4a06d1b43d037a3a98bdc074edd9b7a8280a280f35b60028054908183101561080c5783918761073585610b67565b949054600395861b1c161461076b575050506000198114610758578301836106ee565b634e487b7160e01b865260118352602486fd5b919550936000199290918381019081116107f9579061079d856107906107bc94610b67565b9054908a1b1c1691610b67565b90919082549060031b9160018060a01b03809116831b921b1916179055565b83549081156107e6575001926107d184610b67565b81939154921b1b1916905555828080806106f3565b634e487b7160e01b885260319052602487fd5b634e487b7160e01b895260118352602489fd5b50506106f3565b855162461bcd60e51b8152602081840152600f60248201526e1513d2d15397d393d517d093d55391608a1b6044820152606490fd5b509190346101db5760203660031901126101db57610864610ab6565b61086c610b3b565b6001600160a01b03811691821561093a57828452600160205260ff81852054166109025782845260016020528320600160ff19825416179055600254600160401b8110156108ef579061079d8260016108c89401600255610b67565b7f2de35142b19ed5a07796cf30791959c592018f70b1d2d7c460eef8ffe713692b8280a280f35b634e487b7160e01b845260418552602484fd5b5162461bcd60e51b815260208186015260136024820152721513d2d15397d053149150511657d093d55391606a1b6044820152606490fd5b5162461bcd60e51b8152602081860152600d60248201526c24a72b20a624a22faa27a5a2a760991b6044820152606490fd5b5050346101db57816003193601126101db576020906006549051908152f35b5050346101db5760203660031901126101db5760209181906001600160a01b036109b3610ab6565b168152600a845220549051908152f35b5050346101db5760203660031901126101db5760ff8160209361ffff6109e7610ad1565b1681526003855220541690519015158152f35b5050346101db5760203660031901126101db57809161ffff610a1a610ad1565b168152600360205220610a4a600160ff835416920154925192839283602090939291936040810194151581520152565b0390f35b5050346101db57806003193601126101db577fb49d751375623d59f397ec662fa803dcbe61606143148a7281d8cab67cca74cb6020610a8b610ab6565b60243590610a97610b3b565b6001600160a01b0316808652600783528486208290559351908152a280f35b600435906001600160a01b0382168203610acc57565b600080fd5b6004359061ffff82168203610acc57565b34610acc576040366003190112610acc57610afb610ab6565b50610b04610bf2565b005b6060906003190112610acc576001600160a01b03906004358281168103610acc57916024359081168103610acc579060443590565b6000546001600160a01b03163303610b4f57565b60405163118cdaa760e01b8152336004820152602490fd5b600254811015610b8257600260005260206000200190600090565b634e487b7160e01b600052603260045260246000fd5b9160018060a01b0380931660005260076020526040600020544210610bea576008548110908115610bde575b50610bd75716600052600a602052600190565b5050600090565b90506009541038610bc4565b505050600090565b33600052600160205260ff6040600020541615610c0b57565b60405162461bcd60e51b815260206004820152600f60248201526e2727aa2fa127aaa7222faa27a5a2a760891b6044820152606490fdfe8be0079c531659141344cd1fd0a4f28419497f9722a3daafe3b4186f6b6457e0a2646970667358221220fe869be6f8e11b019bd601d3ef4c967511d01dd7a7347cba3406a97a53bd4ace64736f6c63430008140033","opcodes":"PUSH1 0x80 DUP1 PUSH1 0x40 MSTORE CALLVALUE PUSH2 0x12C JUMPI CALLER ISZERO PUSH2 0x116 JUMPI PUSH1 0x0 DUP1 SLOAD CALLER PUSH1 0x1 PUSH1 0x1 PUSH1 0xA0 SHL SUB NOT DUP3 AND DUP2 OR DUP4 SSTORE SWAP1 PUSH1 0x1 PUSH1 0x1 PUSH1 0xA0 SHL SUB AND PUSH32 0x8BE0079C531659141344CD1FD0A4F28419497F9722A3DAAFE3B4186F6B6457E0 DUP4 DUP1 LOG3 PUSH2 0x2710 PUSH1 0x5 SSTORE PUSH1 0x0 NOT DUP1 PUSH1 0x9 SSTORE PUSH1 0x1 SWAP1 DUP2 PUSH1 0x8 SSTORE PUSH1 0xB SSTORE PUSH2 0x71 PUSH2 0x131 JUMP JUMPDEST DUP2 DUP2 MSTORE PUSH1 0x20 SWAP1 DUP2 DUP2 ADD SWAP1 DUP5 DUP3 MSTORE PUSH2 0x198 DUP6 MSTORE PUSH1 0x3 DUP4 MSTORE DUP4 PUSH1 0x40 DUP7 KECCAK256 SWAP2 MLOAD ISZERO ISZERO SWAP3 PUSH1 0xFF NOT SWAP4 PUSH1 0xFF DUP6 DUP6 SLOAD AND SWAP2 AND OR DUP4 SSTORE MLOAD SWAP2 ADD SSTORE PUSH2 0xAC PUSH2 0x131 JUMP JUMPDEST DUP4 DUP2 MSTORE DUP4 DUP4 DUP3 ADD DUP7 DUP2 MSTORE PUSH2 0x16C DUP8 MSTORE PUSH1 0x3 DUP6 MSTORE PUSH1 0x40 DUP8 KECCAK256 SWAP3 MLOAD ISZERO ISZERO PUSH1 0xFF DUP6 DUP6 SLOAD AND SWAP2 AND OR DUP4 SSTORE MLOAD SWAP2 ADD SSTORE PUSH1 0xFF PUSH1 0x40 PUSH2 0xE2 PUSH2 0x131 JUMP JUMPDEST SWAP6 DUP6 DUP8 MSTORE PUSH1 0x3 DUP6 DUP9 ADD SWAP6 DUP3 DUP8 MSTORE PUSH2 0x2F8 DUP4 MSTORE MSTORE KECCAK256 SWAP5 MLOAD ISZERO ISZERO SWAP2 DUP6 SLOAD AND SWAP2 AND OR DUP4 SSTORE MLOAD SWAP2 ADD SSTORE PUSH1 0x40 MLOAD PUSH2 0xC98 SWAP1 DUP2 PUSH2 0x167 DUP3 CODECOPY RETURN JUMPDEST PUSH4 0x1E4FBDF7 PUSH1 0xE0 SHL DUP2 MSTORE PUSH1 0x0 PUSH1 0x4 DUP3 ADD MSTORE PUSH1 0x24 SWAP1 REVERT JUMPDEST PUSH1 0x0 DUP1 REVERT JUMPDEST PUSH1 0x40 DUP1 MLOAD SWAP2 SWAP1 DUP3 ADD PUSH1 0x1 PUSH1 0x1 PUSH1 0x40 SHL SUB DUP2 GT DUP4 DUP3 LT OR PUSH2 0x150 JUMPI PUSH1 0x40 MSTORE JUMP JUMPDEST PUSH4 0x4E487B71 PUSH1 0xE0 SHL PUSH1 0x0 MSTORE PUSH1 0x41 PUSH1 0x4 MSTORE PUSH1 0x24 PUSH1 0x0 REVERT INVALID PUSH1 0x40 PUSH1 0x80 DUP2 MSTORE PUSH1 0x4 SWAP1 DUP2 CALLDATASIZE LT ISZERO PUSH2 0x15 JUMPI PUSH1 0x0 DUP1 REVERT JUMPDEST PUSH1 0x0 SWAP2 DUP3 CALLDATALOAD PUSH1 0xE0 SHR DUP1 PUSH4 0x389D8D6 EQ PUSH2 0xA4E JUMPI DUP1 PUSH4 0x1947C213 EQ PUSH2 0x9FA JUMPI DUP1 PUSH4 0x1ED23C3E EQ PUSH2 0x9C3 JUMPI DUP1 PUSH4 0x386971CB EQ PUSH2 0x98B JUMPI DUP1 PUSH4 0x3CB32F77 EQ PUSH2 0x96C JUMPI DUP1 PUSH4 0x3FF5AA02 EQ PUSH2 0x848 JUMPI DUP1 PUSH4 0x40DB3B50 EQ PUSH2 0x693 JUMPI DUP1 PUSH4 0x46059287 EQ PUSH2 0x5C2 JUMPI DUP1 PUSH4 0x4C5A3A78 EQ PUSH2 0x5A3 JUMPI DUP1 PUSH4 0x5F8DEAD3 EQ PUSH2 0x415 JUMPI DUP1 PUSH4 0x68841431 EQ PUSH2 0x584 JUMPI DUP1 PUSH4 0x715018A6 EQ PUSH2 0x53C JUMPI DUP1 PUSH4 0x75EC49B7 EQ PUSH2 0x4A6 JUMPI DUP1 PUSH4 0x8365066B EQ PUSH2 0x459 JUMPI DUP1 PUSH4 0x8BAF29B4 EQ PUSH2 0x439 JUMPI DUP1 PUSH4 0x8BF5C4EE EQ PUSH2 0x41A JUMPI DUP1 PUSH4 0x8D2EA772 EQ PUSH2 0x415 JUMPI DUP1 PUSH4 0x8D56CC9C EQ PUSH2 0x3AD JUMPI DUP1 PUSH4 0x8DA5CB5B EQ PUSH2 0x385 JUMPI DUP1 PUSH4 0x993E8B95 EQ PUSH2 0x347 JUMPI DUP1 PUSH4 0xA725013A EQ PUSH2 0x30F JUMPI DUP1 PUSH4 0xA9E75723 EQ PUSH2 0x2F0 JUMPI DUP1 PUSH4 0xAA690913 EQ PUSH2 0x20F JUMPI DUP1 PUSH4 0xC2A58D2E EQ PUSH2 0x1DF JUMPI DUP1 PUSH4 0xE46638E6 EQ PUSH2 0x1B6 JUMPI PUSH4 0xF2FDE38B EQ PUSH2 0x13F JUMPI PUSH1 0x0 DUP1 REVERT JUMPDEST CALLVALUE PUSH2 0x1B2 JUMPI PUSH1 0x20 CALLDATASIZE PUSH1 0x3 NOT ADD SLT PUSH2 0x1B2 JUMPI PUSH2 0x158 PUSH2 0xAB6 JUMP JUMPDEST SWAP1 PUSH2 0x161 PUSH2 0xB3B JUMP JUMPDEST PUSH1 0x1 PUSH1 0x1 PUSH1 0xA0 SHL SUB SWAP2 DUP3 AND SWAP3 DUP4 ISZERO PUSH2 0x19C JUMPI POP POP DUP3 SLOAD PUSH1 0x1 PUSH1 0x1 PUSH1 0xA0 SHL SUB NOT DUP2 AND DUP4 OR DUP5 SSTORE AND PUSH1 0x0 DUP1 MLOAD PUSH1 0x20 PUSH2 0xC43 DUP4 CODECOPY DUP2 MLOAD SWAP2 MSTORE DUP4 DUP1 LOG3 DUP1 RETURN JUMPDEST MLOAD PUSH4 0x1E4FBDF7 PUSH1 0xE0 SHL DUP2 MSTORE SWAP1 DUP2 ADD DUP5 SWAP1 MSTORE PUSH1 0x24 SWAP1 REVERT JUMPDEST DUP3 DUP1 REVERT JUMPDEST POP POP CALLVALUE PUSH2 0x1DB JUMPI PUSH1 0x20 SWAP1 PUSH2 0x1D2 PUSH2 0x1CC CALLDATASIZE PUSH2 0xB06 JUMP JUMPDEST SWAP2 PUSH2 0xB98 JUMP JUMPDEST SWAP1 MLOAD SWAP1 ISZERO ISZERO DUP2 MSTORE RETURN JUMPDEST POP DUP1 REVERT JUMPDEST POP CALLVALUE PUSH2 0x1B2 JUMPI PUSH1 0x20 CALLDATASIZE PUSH1 0x3 NOT ADD SLT PUSH2 0x1B2 JUMPI PUSH1 0x20 SWAP3 DUP3 SWAP2 PUSH2 0xFFFF PUSH2 0x201 PUSH2 0xAD1 JUMP JUMPDEST AND DUP3 MSTORE DUP5 MSTORE KECCAK256 SLOAD SWAP1 MLOAD SWAP1 DUP2 MSTORE RETURN JUMPDEST POP SWAP2 SWAP1 CALLVALUE PUSH2 0x1DB JUMPI PUSH1 0x60 CALLDATASIZE PUSH1 0x3 NOT ADD SLT PUSH2 0x1DB JUMPI PUSH2 0x22B PUSH2 0xAD1 JUMP JUMPDEST SWAP1 PUSH1 0x24 CALLDATALOAD DUP1 ISZERO ISZERO SWAP2 DUP3 DUP3 SUB PUSH2 0x2EC JUMPI PUSH1 0x44 CALLDATALOAD SWAP3 PUSH2 0x246 PUSH2 0xB3B JUMP JUMPDEST DUP2 MLOAD SWAP1 DUP2 DUP4 ADD PUSH1 0x1 PUSH1 0x1 PUSH1 0x40 SHL SUB DUP2 GT DUP4 DUP3 LT OR PUSH2 0x2D9 JUMPI SWAP2 DUP4 SWAP2 PUSH2 0x2D3 SWAP4 PUSH32 0x6CCE5670F4B122C15CB23EBE2117B4E8A1833BAB12EB4B347398D0D029EDDFE0 SWAP8 SWAP7 SWAP6 MSTORE DUP2 MSTORE PUSH1 0x1 PUSH2 0xFFFF PUSH1 0x20 DUP4 ADD SWAP9 DUP8 DUP11 MSTORE AND SWAP8 DUP9 DUP11 MSTORE PUSH1 0x3 PUSH1 0x20 MSTORE DUP4 DUP11 KECCAK256 SWAP3 MLOAD ISZERO ISZERO PUSH1 0xFF DUP1 NOT DUP6 SLOAD AND SWAP2 AND OR DUP4 SSTORE MLOAD SWAP2 ADD SSTORE MLOAD SWAP3 DUP4 SWAP3 DUP4 PUSH1 0x20 SWAP1 SWAP4 SWAP3 SWAP2 SWAP4 PUSH1 0x40 DUP2 ADD SWAP5 ISZERO ISZERO DUP2 MSTORE ADD MSTORE JUMP JUMPDEST SUB SWAP1 LOG2 DUP1 RETURN JUMPDEST PUSH4 0x4E487B71 PUSH1 0xE0 SHL DUP9 MSTORE PUSH1 0x41 DUP10 MSTORE PUSH1 0x24 DUP9 REVERT JUMPDEST DUP5 DUP1 REVERT JUMPDEST POP POP CALLVALUE PUSH2 0x1DB JUMPI DUP2 PUSH1 0x3 NOT CALLDATASIZE ADD SLT PUSH2 0x1DB JUMPI PUSH1 0x20 SWAP1 PUSH1 0x9 SLOAD SWAP1 MLOAD SWAP1 DUP2 MSTORE RETURN JUMPDEST POP POP CALLVALUE PUSH2 0x1DB JUMPI PUSH1 0x20 CALLDATASIZE PUSH1 0x3 NOT ADD SLT PUSH2 0x1DB JUMPI PUSH1 0x20 SWAP2 DUP2 SWAP1 PUSH1 0x1 PUSH1 0x1 PUSH1 0xA0 SHL SUB PUSH2 0x337 PUSH2 0xAB6 JUMP JUMPDEST AND DUP2 MSTORE PUSH1 0x7 DUP5 MSTORE KECCAK256 SLOAD SWAP1 MLOAD SWAP1 DUP2 MSTORE RETURN JUMPDEST POP POP CALLVALUE PUSH2 0x1DB JUMPI PUSH1 0x20 CALLDATASIZE PUSH1 0x3 NOT ADD SLT PUSH2 0x1DB JUMPI PUSH1 0x20 SWAP2 PUSH1 0xFF SWAP1 DUP3 SWAP1 PUSH1 0x1 PUSH1 0x1 PUSH1 0xA0 SHL SUB PUSH2 0x372 PUSH2 0xAB6 JUMP JUMPDEST AND DUP2 MSTORE PUSH1 0x1 DUP6 MSTORE KECCAK256 SLOAD AND SWAP1 MLOAD SWAP1 ISZERO ISZERO DUP2 MSTORE RETURN JUMPDEST POP POP CALLVALUE PUSH2 0x1DB JUMPI DUP2 PUSH1 0x3 NOT CALLDATASIZE ADD SLT PUSH2 0x1DB JUMPI SWAP1 SLOAD SWAP1 MLOAD PUSH1 0x1 PUSH1 0x1 PUSH1 0xA0 SHL SUB SWAP1 SWAP2 AND DUP2 MSTORE PUSH1 0x20 SWAP1 RETURN JUMPDEST POP POP CALLVALUE PUSH2 0x1DB JUMPI DUP1 PUSH1 0x3 NOT CALLDATASIZE ADD SLT PUSH2 0x1DB JUMPI PUSH32 0x8BEC153EE727D17F3F63AA27CBB6BD64EB978B88821B30002A4B5517AEB10CEC PUSH1 0x20 PUSH2 0x3EA PUSH2 0xAB6 JUMP JUMPDEST PUSH1 0x24 CALLDATALOAD SWAP1 PUSH2 0x3F6 PUSH2 0xB3B JUMP JUMPDEST PUSH1 0x1 PUSH1 0x1 PUSH1 0xA0 SHL SUB AND DUP1 DUP7 MSTORE PUSH1 0xA DUP4 MSTORE DUP5 DUP7 KECCAK256 DUP3 SWAP1 SSTORE SWAP4 MLOAD SWAP1 DUP2 MSTORE LOG2 DUP1 RETURN JUMPDEST PUSH2 0xAE2 JUMP JUMPDEST POP POP CALLVALUE PUSH2 0x1DB JUMPI DUP2 PUSH1 0x3 NOT CALLDATASIZE ADD SLT PUSH2 0x1DB JUMPI PUSH1 0x20 SWAP1 PUSH1 0x5 SLOAD SWAP1 MLOAD SWAP1 DUP2 MSTORE RETURN JUMPDEST DUP4 CALLVALUE PUSH2 0x456 JUMPI PUSH2 0x448 CALLDATASIZE PUSH2 0xB06 JUMP JUMPDEST POP POP POP PUSH2 0x453 PUSH2 0xBF2 JUMP JUMPDEST DUP1 RETURN JUMPDEST DUP1 REVERT JUMPDEST POP CALLVALUE PUSH2 0x1B2 JUMPI PUSH1 0x20 CALLDATASIZE PUSH1 0x3 NOT ADD SLT PUSH2 0x1B2 JUMPI PUSH32 0xD95F6C53E97F4296DD8ED1D779512E13C947410183D93CA8D54E5A913C205055 SWAP2 PUSH1 0x20 SWAP2 CALLDATALOAD SWAP1 PUSH2 0x49A PUSH2 0xB3B JUMP JUMPDEST DUP2 PUSH1 0x5 SSTORE MLOAD SWAP1 DUP2 MSTORE LOG1 DUP1 RETURN JUMPDEST POP SWAP2 SWAP1 CALLVALUE PUSH2 0x1DB JUMPI DUP1 PUSH1 0x3 NOT CALLDATASIZE ADD SLT PUSH2 0x1DB JUMPI DUP3 CALLDATALOAD PUSH1 0x24 CALLDATALOAD SWAP4 PUSH2 0x4C7 PUSH2 0xB3B JUMP JUMPDEST DUP5 DUP3 GT PUSH2 0x508 JUMPI POP PUSH32 0x106460806200BB17EB3172A19A68D4BF2131871D489BCE659A2700F63E114BA7 SWAP3 SWAP4 DUP2 PUSH1 0x8 SSTORE DUP1 PUSH1 0x9 SSTORE DUP3 MLOAD SWAP2 DUP3 MSTORE PUSH1 0x20 DUP3 ADD MSTORE LOG1 DUP1 RETURN JUMPDEST PUSH1 0x64 SWAP1 PUSH1 0x20 DUP5 MLOAD SWAP2 PUSH3 0x461BCD PUSH1 0xE5 SHL DUP4 MSTORE DUP3 ADD MSTORE PUSH1 0xE PUSH1 0x24 DUP3 ADD MSTORE PUSH14 0x494E56414C49445F4C494D495453 PUSH1 0x90 SHL PUSH1 0x44 DUP3 ADD MSTORE REVERT JUMPDEST DUP4 CALLVALUE PUSH2 0x456 JUMPI DUP1 PUSH1 0x3 NOT CALLDATASIZE ADD SLT PUSH2 0x456 JUMPI PUSH2 0x555 PUSH2 0xB3B JUMP JUMPDEST DUP1 SLOAD PUSH1 0x1 PUSH1 0x1 PUSH1 0xA0 SHL SUB NOT DUP2 AND DUP3 SSTORE DUP2 SWAP1 PUSH1 0x1 PUSH1 0x1 PUSH1 0xA0 SHL SUB AND PUSH1 0x0 DUP1 MLOAD PUSH1 0x20 PUSH2 0xC43 DUP4 CODECOPY DUP2 MLOAD SWAP2 MSTORE DUP3 DUP1 LOG3 DUP1 RETURN JUMPDEST POP POP CALLVALUE PUSH2 0x1DB JUMPI DUP2 PUSH1 0x3 NOT CALLDATASIZE ADD SLT PUSH2 0x1DB JUMPI PUSH1 0x20 SWAP1 PUSH1 0x8 SLOAD SWAP1 MLOAD SWAP1 DUP2 MSTORE RETURN JUMPDEST POP POP CALLVALUE PUSH2 0x1DB JUMPI DUP2 PUSH1 0x3 NOT CALLDATASIZE ADD SLT PUSH2 0x1DB JUMPI PUSH1 0x20 SWAP1 PUSH1 0xB SLOAD SWAP1 MLOAD SWAP1 DUP2 MSTORE RETURN JUMPDEST POP SWAP2 CALLVALUE PUSH2 0x456 JUMPI DUP1 PUSH1 0x3 NOT CALLDATASIZE ADD SLT PUSH2 0x456 JUMPI DUP2 MLOAD DUP1 SWAP2 PUSH1 0x2 SLOAD SWAP4 DUP5 DUP4 MSTORE PUSH1 0x20 DUP1 SWAP4 ADD DUP1 SWAP6 PUSH1 0x2 DUP5 MSTORE DUP5 DUP5 KECCAK256 SWAP1 DUP5 JUMPDEST DUP7 DUP3 DUP3 LT PUSH2 0x676 JUMPI POP POP POP POP DUP5 SWAP1 SUB PUSH1 0x1F ADD PUSH1 0x1F NOT AND DUP5 ADD SWAP6 PUSH1 0x1 PUSH1 0x1 PUSH1 0x40 SHL SUB DUP8 GT DUP6 DUP9 LT OR PUSH2 0x663 JUMPI POP DUP6 DUP2 MSTORE DUP3 DUP7 MSTORE SWAP3 MLOAD DUP6 DUP4 ADD DUP2 SWAP1 MSTORE DUP6 SWAP5 SWAP4 DUP6 ADD SWAP4 SWAP3 SWAP1 SWAP2 JUMPDEST DUP3 DUP2 LT PUSH2 0x643 JUMPI POP POP POP POP SUB SWAP1 RETURN JUMPDEST DUP4 MLOAD PUSH1 0x1 PUSH1 0x1 PUSH1 0xA0 SHL SUB AND DUP6 MSTORE DUP7 SWAP6 POP SWAP4 DUP2 ADD SWAP4 SWAP3 DUP2 ADD SWAP3 PUSH1 0x1 ADD PUSH2 0x634 JUMP JUMPDEST PUSH4 0x4E487B71 PUSH1 0xE0 SHL DUP4 MSTORE PUSH1 0x41 SWAP1 MSTORE PUSH1 0x24 DUP3 REVERT JUMPDEST DUP4 SLOAD PUSH1 0x1 PUSH1 0x1 PUSH1 0xA0 SHL SUB AND DUP6 MSTORE SWAP1 SWAP4 ADD SWAP3 PUSH1 0x1 SWAP3 DUP4 ADD SWAP3 ADD PUSH2 0x5F0 JUMP JUMPDEST POP DUP3 SWAP1 CALLVALUE PUSH2 0x1DB JUMPI PUSH1 0x20 CALLDATASIZE PUSH1 0x3 NOT ADD SLT PUSH2 0x1DB JUMPI PUSH2 0x6AF PUSH2 0xAB6 JUMP JUMPDEST PUSH2 0x6B7 PUSH2 0xB3B JUMP JUMPDEST PUSH1 0x1 DUP1 PUSH1 0xA0 SHL SUB DUP1 SWAP2 AND SWAP2 DUP3 DUP5 MSTORE PUSH1 0x1 SWAP2 DUP3 PUSH1 0x20 MSTORE PUSH1 0xFF DUP7 DUP7 KECCAK256 SLOAD AND ISZERO PUSH2 0x813 JUMPI DUP4 DUP6 MSTORE PUSH1 0x20 DUP4 SWAP1 MSTORE DUP6 DUP6 KECCAK256 DUP1 SLOAD PUSH1 0xFF NOT AND SWAP1 SSTORE DUP5 DUP4 JUMPDEST PUSH2 0x71C JUMPI JUMPDEST DUP6 DUP6 PUSH32 0x28A4CA7134A3B3F9AFF286E79AD3DAADB4A06D1B43D037A3A98BDC074EDD9B7A DUP3 DUP1 LOG2 DUP1 RETURN JUMPDEST PUSH1 0x2 DUP1 SLOAD SWAP1 DUP2 DUP4 LT ISZERO PUSH2 0x80C JUMPI DUP4 SWAP2 DUP8 PUSH2 0x735 DUP6 PUSH2 0xB67 JUMP JUMPDEST SWAP5 SWAP1 SLOAD PUSH1 0x3 SWAP6 DUP7 SHL SHR AND EQ PUSH2 0x76B JUMPI POP POP POP PUSH1 0x0 NOT DUP2 EQ PUSH2 0x758 JUMPI DUP4 ADD DUP4 PUSH2 0x6EE JUMP JUMPDEST PUSH4 0x4E487B71 PUSH1 0xE0 SHL DUP7 MSTORE PUSH1 0x11 DUP4 MSTORE PUSH1 0x24 DUP7 REVERT JUMPDEST SWAP2 SWAP6 POP SWAP4 PUSH1 0x0 NOT SWAP3 SWAP1 SWAP2 DUP4 DUP2 ADD SWAP1 DUP2 GT PUSH2 0x7F9 JUMPI SWAP1 PUSH2 0x79D DUP6 PUSH2 0x790 PUSH2 0x7BC SWAP5 PUSH2 0xB67 JUMP JUMPDEST SWAP1 SLOAD SWAP1 DUP11 SHL SHR AND SWAP2 PUSH2 0xB67 JUMP JUMPDEST SWAP1 SWAP2 SWAP1 DUP3 SLOAD SWAP1 PUSH1 0x3 SHL SWAP2 PUSH1 0x1 DUP1 PUSH1 0xA0 SHL SUB DUP1 SWAP2 AND DUP4 SHL SWAP3 SHL NOT AND OR SWAP1 SSTORE JUMP JUMPDEST DUP4 SLOAD SWAP1 DUP2 ISZERO PUSH2 0x7E6 JUMPI POP ADD SWAP3 PUSH2 0x7D1 DUP5 PUSH2 0xB67 JUMP JUMPDEST DUP2 SWAP4 SWAP2 SLOAD SWAP3 SHL SHL NOT AND SWAP1 SSTORE SSTORE DUP3 DUP1 DUP1 DUP1 PUSH2 0x6F3 JUMP JUMPDEST PUSH4 0x4E487B71 PUSH1 0xE0 SHL DUP9 MSTORE PUSH1 0x31 SWAP1 MSTORE PUSH1 0x24 DUP8 REVERT JUMPDEST PUSH4 0x4E487B71 PUSH1 0xE0 SHL DUP10 MSTORE PUSH1 0x11 DUP4 MSTORE PUSH1 0x24 DUP10 REVERT JUMPDEST POP POP PUSH2 0x6F3 JUMP JUMPDEST DUP6 MLOAD PUSH3 0x461BCD PUSH1 0xE5 SHL DUP2 MSTORE PUSH1 0x20 DUP2 DUP5 ADD MSTORE PUSH1 0xF PUSH1 0x24 DUP3 ADD MSTORE PUSH15 0x1513D2D15397D393D517D093D55391 PUSH1 0x8A SHL PUSH1 0x44 DUP3 ADD MSTORE PUSH1 0x64 SWAP1 REVERT JUMPDEST POP SWAP2 SWAP1 CALLVALUE PUSH2 0x1DB JUMPI PUSH1 0x20 CALLDATASIZE PUSH1 0x3 NOT ADD SLT PUSH2 0x1DB JUMPI PUSH2 0x864 PUSH2 0xAB6 JUMP JUMPDEST PUSH2 0x86C PUSH2 0xB3B JUMP JUMPDEST PUSH1 0x1 PUSH1 0x1 PUSH1 0xA0 SHL SUB DUP2 AND SWAP2 DUP3 ISZERO PUSH2 0x93A JUMPI DUP3 DUP5 MSTORE PUSH1 0x1 PUSH1 0x20 MSTORE PUSH1 0xFF DUP2 DUP6 KECCAK256 SLOAD AND PUSH2 0x902 JUMPI DUP3 DUP5 MSTORE PUSH1 0x1 PUSH1 0x20 MSTORE DUP4 KECCAK256 PUSH1 0x1 PUSH1 0xFF NOT DUP3 SLOAD AND OR SWAP1 SSTORE PUSH1 0x2 SLOAD PUSH1 0x1 PUSH1 0x40 SHL DUP2 LT ISZERO PUSH2 0x8EF JUMPI SWAP1 PUSH2 0x79D DUP3 PUSH1 0x1 PUSH2 0x8C8 SWAP5 ADD PUSH1 0x2 SSTORE PUSH2 0xB67 JUMP JUMPDEST PUSH32 0x2DE35142B19ED5A07796CF30791959C592018F70B1D2D7C460EEF8FFE713692B DUP3 DUP1 LOG2 DUP1 RETURN JUMPDEST PUSH4 0x4E487B71 PUSH1 0xE0 SHL DUP5 MSTORE PUSH1 0x41 DUP6 MSTORE PUSH1 0x24 DUP5 REVERT JUMPDEST MLOAD PUSH3 0x461BCD PUSH1 0xE5 SHL DUP2 MSTORE PUSH1 0x20 DUP2 DUP7 ADD MSTORE PUSH1 0x13 PUSH1 0x24 DUP3 ADD MSTORE PUSH19 0x1513D2D15397D053149150511657D093D55391 PUSH1 0x6A SHL PUSH1 0x44 DUP3 ADD MSTORE PUSH1 0x64 SWAP1 REVERT JUMPDEST MLOAD PUSH3 0x461BCD PUSH1 0xE5 SHL DUP2 MSTORE PUSH1 0x20 DUP2 DUP7 ADD MSTORE PUSH1 0xD PUSH1 0x24 DUP3 ADD MSTORE PUSH13 0x24A72B20A624A22FAA27A5A2A7 PUSH1 0x99 SHL PUSH1 0x44 DUP3 ADD MSTORE PUSH1 0x64 SWAP1 REVERT JUMPDEST POP POP CALLVALUE PUSH2 0x1DB JUMPI DUP2 PUSH1 0x3 NOT CALLDATASIZE ADD SLT PUSH2 0x1DB JUMPI PUSH1 0x20 SWAP1 PUSH1 0x6 SLOAD SWAP1 MLOAD SWAP1 DUP2 MSTORE RETURN JUMPDEST POP POP CALLVALUE PUSH2 0x1DB JUMPI PUSH1 0x20 CALLDATASIZE PUSH1 0x3 NOT ADD SLT PUSH2 0x1DB JUMPI PUSH1 0x20 SWAP2 DUP2 SWAP1 PUSH1 0x1 PUSH1 0x1 PUSH1 0xA0 SHL SUB PUSH2 0x9B3 PUSH2 0xAB6 JUMP JUMPDEST AND DUP2 MSTORE PUSH1 0xA DUP5 MSTORE KECCAK256 SLOAD SWAP1 MLOAD SWAP1 DUP2 MSTORE RETURN JUMPDEST POP POP CALLVALUE PUSH2 0x1DB JUMPI PUSH1 0x20 CALLDATASIZE PUSH1 0x3 NOT ADD SLT PUSH2 0x1DB JUMPI PUSH1 0xFF DUP2 PUSH1 0x20 SWAP4 PUSH2 0xFFFF PUSH2 0x9E7 PUSH2 0xAD1 JUMP JUMPDEST AND DUP2 MSTORE PUSH1 0x3 DUP6 MSTORE KECCAK256 SLOAD AND SWAP1 MLOAD SWAP1 ISZERO ISZERO DUP2 MSTORE RETURN JUMPDEST POP POP CALLVALUE PUSH2 0x1DB JUMPI PUSH1 0x20 CALLDATASIZE PUSH1 0x3 NOT ADD SLT PUSH2 0x1DB JUMPI DUP1 SWAP2 PUSH2 0xFFFF PUSH2 0xA1A PUSH2 0xAD1 JUMP JUMPDEST AND DUP2 MSTORE PUSH1 0x3 PUSH1 0x20 MSTORE KECCAK256 PUSH2 0xA4A PUSH1 0x1 PUSH1 0xFF DUP4 SLOAD AND SWAP3 ADD SLOAD SWAP3 MLOAD SWAP3 DUP4 SWAP3 DUP4 PUSH1 0x20 SWAP1 SWAP4 SWAP3 SWAP2 SWAP4 PUSH1 0x40 DUP2 ADD SWAP5 ISZERO ISZERO DUP2 MSTORE ADD MSTORE JUMP JUMPDEST SUB SWAP1 RETURN JUMPDEST POP POP CALLVALUE PUSH2 0x1DB JUMPI DUP1 PUSH1 0x3 NOT CALLDATASIZE ADD SLT PUSH2 0x1DB JUMPI PUSH32 0xB49D751375623D59F397EC662FA803DCBE61606143148A7281D8CAB67CCA74CB PUSH1 0x20 PUSH2 0xA8B PUSH2 0xAB6 JUMP JUMPDEST PUSH1 0x24 CALLDATALOAD SWAP1 PUSH2 0xA97 PUSH2 0xB3B JUMP JUMPDEST PUSH1 0x1 PUSH1 0x1 PUSH1 0xA0 SHL SUB AND DUP1 DUP7 MSTORE PUSH1 0x7 DUP4 MSTORE DUP5 DUP7 KECCAK256 DUP3 SWAP1 SSTORE SWAP4 MLOAD SWAP1 DUP2 MSTORE LOG2 DUP1 RETURN JUMPDEST PUSH1 0x4 CALLDATALOAD SWAP1 PUSH1 0x1 PUSH1 0x1 PUSH1 0xA0 SHL SUB DUP3 AND DUP3 SUB PUSH2 0xACC JUMPI JUMP JUMPDEST PUSH1 0x0 DUP1 REVERT JUMPDEST PUSH1 0x4 CALLDATALOAD SWAP1 PUSH2 0xFFFF DUP3 AND DUP3 SUB PUSH2 0xACC JUMPI JUMP JUMPDEST CALLVALUE PUSH2 0xACC JUMPI PUSH1 0x40 CALLDATASIZE PUSH1 0x3 NOT ADD SLT PUSH2 0xACC JUMPI PUSH2 0xAFB PUSH2 0xAB6 JUMP JUMPDEST POP PUSH2 0xB04 PUSH2 0xBF2 JUMP JUMPDEST STOP JUMPDEST PUSH1 0x60 SWAP1 PUSH1 0x3 NOT ADD SLT PUSH2 0xACC JUMPI PUSH1 0x1 PUSH1 0x1 PUSH1 0xA0 SHL SUB SWAP1 PUSH1 0x4 CALLDATALOAD DUP3 DUP2 AND DUP2 SUB PUSH2 0xACC JUMPI SWAP2 PUSH1 0x24 CALLDATALOAD SWAP1 DUP2 AND DUP2 SUB PUSH2 0xACC JUMPI SWAP1 PUSH1 0x44 CALLDATALOAD SWAP1 JUMP JUMPDEST PUSH1 0x0 SLOAD PUSH1 0x1 PUSH1 0x1 PUSH1 0xA0 SHL SUB AND CALLER SUB PUSH2 0xB4F JUMPI JUMP JUMPDEST PUSH1 0x40 MLOAD PUSH4 0x118CDAA7 PUSH1 0xE0 SHL DUP2 MSTORE CALLER PUSH1 0x4 DUP3 ADD MSTORE PUSH1 0x24 SWAP1 REVERT JUMPDEST PUSH1 0x2 SLOAD DUP2 LT ISZERO PUSH2 0xB82 JUMPI PUSH1 0x2 PUSH1 0x0 MSTORE PUSH1 0x20 PUSH1 0x0 KECCAK256 ADD SWAP1 PUSH1 0x0 SWAP1 JUMP JUMPDEST PUSH4 0x4E487B71 PUSH1 0xE0 SHL PUSH1 0x0 MSTORE PUSH1 0x32 PUSH1 0x4 MSTORE PUSH1 0x24 PUSH1 0x0 REVERT JUMPDEST SWAP2 PUSH1 0x1 DUP1 PUSH1 0xA0 SHL SUB DUP1 SWAP4 AND PUSH1 0x0 MSTORE PUSH1 0x7 PUSH1 0x20 MSTORE PUSH1 0x40 PUSH1 0x0 KECCAK256 SLOAD TIMESTAMP LT PUSH2 0xBEA JUMPI PUSH1 0x8 SLOAD DUP2 LT SWAP1 DUP2 ISZERO PUSH2 0xBDE JUMPI JUMPDEST POP PUSH2 0xBD7 JUMPI AND PUSH1 0x0 MSTORE PUSH1 0xA PUSH1 0x20 MSTORE PUSH1 0x1 SWAP1 JUMP JUMPDEST POP POP PUSH1 0x0 SWAP1 JUMP JUMPDEST SWAP1 POP PUSH1 0x9 SLOAD LT CODESIZE PUSH2 0xBC4 JUMP JUMPDEST POP POP POP PUSH1 0x0 SWAP1 JUMP JUMPDEST CALLER PUSH1 0x0 MSTORE PUSH1 0x1 PUSH1 0x20 MSTORE PUSH1 0xFF PUSH1 0x40 PUSH1 0x0 KECCAK256 SLOAD AND ISZERO PUSH2 0xC0B JUMPI JUMP JUMPDEST PUSH1 0x40 MLOAD PUSH3 0x461BCD PUSH1 0xE5 SHL DUP2 MSTORE PUSH1 0x20 PUSH1 0x4 DUP3 ADD MSTORE PUSH1 0xF PUSH1 0x24 DUP3 ADD MSTORE PUSH15 0x2727AA2FA127AAA7222FAA27A5A2A7 PUSH1 0x89 SHL PUSH1 0x44 DUP3 ADD MSTORE PUSH1 0x64 SWAP1 REVERT INVALID DUP12 0xE0 SMOD SWAP13 MSTORE8 AND MSIZE EQ SGT PREVRANDAO 0xCD 0x1F 0xD0 LOG4 CALLCODE DUP5 NOT 0x49 PUSH32 0x9722A3DAAFE3B4186F6B6457E0A2646970667358221220FE869BE6F8E11B019B 0xD6 ADD 0xD3 0xEF 0x4C SWAP7 PUSH22 0x11D01DD7A7347CBA3406A97A53BD4ACE64736F6C6343 STOP ADDMOD EQ STOP CALLER "},"methodIdentifiers":{"bindToken(address)":"3ff5aa02","canTransfer(address,address,uint256)":"e46638e6","countryRestrictions(uint16)":"1947c213","created(address,uint256)":"5f8dead3","currentHolders()":"3cb32f77","defaultMaxBalance()":"4c5a3a78","destroyed(address,uint256)":"8d2ea772","getBoundTokens()":"46059287","investorCountByCountry(uint16)":"c2a58d2e","isCountryBlacklisted(uint16)":"1ed23c3e","isTokenBound(address)":"993e8b95","maxBalance(address)":"386971cb","maxHolders()":"8bf5c4ee","maxTransferAmount()":"a9e75723","minTransferAmount()":"68841431","owner()":"8da5cb5b","renounceOwnership()":"715018a6","setCountryRestriction(uint16,bool,uint256)":"aa690913","setMaxBalance(address,uint256)":"8d56cc9c","setMaxHolders(uint256)":"8365066b","setTransferLimits(uint256,uint256)":"75ec49b7","setTransferLockup(address,uint256)":"0389d8d6","transferLockupEnd(address)":"a725013a","transferOwnership(address)":"f2fde38b","transferred(address,address,uint256)":"8baf29b4","unbindToken(address)":"40db3b50"}}}}}