{"contracts/erc3643/IdentityRegistry.sol":{"IdentityRegistry":{"abi":[{"inputs":[{"internalType":"address","name":"claimTopicsRegistryAddr","type":"address"},{"internalType":"address","name":"trustedIssuersRegistryAddr","type":"address"}],"stateMutability":"nonpayable","type":"constructor"},{"inputs":[{"internalType":"address","name":"owner","type":"address"}],"name":"OwnableInvalidOwner","type":"error"},{"inputs":[{"internalType":"address","name":"account","type":"address"}],"name":"OwnableUnauthorizedAccount","type":"error"},{"anonymous":false,"inputs":[{"indexed":true,"internalType":"address","name":"claimTopicsRegistry","type":"address"}],"name":"ClaimTopicsRegistrySet","type":"event"},{"anonymous":false,"inputs":[{"indexed":true,"internalType":"address","name":"investorAddress","type":"address"},{"indexed":true,"internalType":"uint16","name":"country","type":"uint16"}],"name":"CountryUpdated","type":"event"},{"anonymous":false,"inputs":[{"indexed":true,"internalType":"address","name":"investorAddress","type":"address"},{"indexed":true,"internalType":"address","name":"identity","type":"address"}],"name":"IdentityRegistered","type":"event"},{"anonymous":false,"inputs":[{"indexed":true,"internalType":"address","name":"investorAddress","type":"address"},{"indexed":true,"internalType":"address","name":"identity","type":"address"}],"name":"IdentityRemoved","type":"event"},{"anonymous":false,"inputs":[{"indexed":true,"internalType":"address","name":"identityStorage","type":"address"}],"name":"IdentityStorageSet","type":"event"},{"anonymous":false,"inputs":[{"indexed":true,"internalType":"address","name":"oldIdentity","type":"address"},{"indexed":true,"internalType":"address","name":"newIdentity","type":"address"}],"name":"IdentityUpdated","type":"event"},{"anonymous":false,"inputs":[{"indexed":true,"internalType":"address","name":"previousOwner","type":"address"},{"indexed":true,"internalType":"address","name":"newOwner","type":"address"}],"name":"OwnershipTransferred","type":"event"},{"anonymous":false,"inputs":[{"indexed":true,"internalType":"address","name":"trustedIssuersRegistry","type":"address"}],"name":"TrustedIssuersRegistrySet","type":"event"},{"inputs":[],"name":"SIGNATURE_SCHEME","outputs":[{"internalType":"uint256","name":"","type":"uint256"}],"stateMutability":"view","type":"function"},{"inputs":[{"internalType":"address[]","name":"userAddresses","type":"address[]"},{"internalType":"address[]","name":"identities","type":"address[]"},{"internalType":"uint16[]","name":"countries","type":"uint16[]"}],"name":"batchRegisterIdentity","outputs":[],"stateMutability":"nonpayable","type":"function"},{"inputs":[],"name":"claimTopicsRegistry","outputs":[{"internalType":"address","name":"","type":"address"}],"stateMutability":"view","type":"function"},{"inputs":[{"internalType":"address","name":"userAddress","type":"address"}],"name":"contains","outputs":[{"internalType":"bool","name":"","type":"bool"}],"stateMutability":"view","type":"function"},{"inputs":[{"internalType":"address","name":"userAddress","type":"address"}],"name":"deleteIdentity","outputs":[],"stateMutability":"nonpayable","type":"function"},{"inputs":[{"internalType":"address","name":"userAddress","type":"address"}],"name":"identity","outputs":[{"internalType":"address","name":"","type":"address"}],"stateMutability":"view","type":"function"},{"inputs":[],"name":"identityStorage","outputs":[{"internalType":"address","name":"","type":"address"}],"stateMutability":"view","type":"function"},{"inputs":[{"internalType":"address","name":"userAddress","type":"address"}],"name":"investorCountry","outputs":[{"internalType":"uint16","name":"","type":"uint16"}],"stateMutability":"view","type":"function"},{"inputs":[{"internalType":"address","name":"userAddress","type":"address"}],"name":"isVerified","outputs":[{"internalType":"bool","name":"","type":"bool"}],"stateMutability":"view","type":"function"},{"inputs":[],"name":"owner","outputs":[{"internalType":"address","name":"","type":"address"}],"stateMutability":"view","type":"function"},{"inputs":[{"internalType":"address","name":"userAddress","type":"address"},{"internalType":"address","name":"identityAddr","type":"address"},{"internalType":"uint16","name":"country","type":"uint16"}],"name":"registerIdentity","outputs":[],"stateMutability":"nonpayable","type":"function"},{"inputs":[],"name":"renounceOwnership","outputs":[],"stateMutability":"nonpayable","type":"function"},{"inputs":[{"internalType":"address","name":"newOwner","type":"address"}],"name":"transferOwnership","outputs":[],"stateMutability":"nonpayable","type":"function"},{"inputs":[],"name":"trustedIssuersRegistry","outputs":[{"internalType":"address","name":"","type":"address"}],"stateMutability":"view","type":"function"},{"inputs":[{"internalType":"address","name":"userAddress","type":"address"},{"internalType":"uint16","name":"country","type":"uint16"}],"name":"updateCountry","outputs":[],"stateMutability":"nonpayable","type":"function"},{"inputs":[{"internalType":"address","name":"userAddress","type":"address"},{"internalType":"address","name":"identityAddr","type":"address"}],"name":"updateIdentity","outputs":[],"stateMutability":"nonpayable","type":"function"}],"evm":{"bytecode":{"linkReferences":{},"object":"608034620002ee5762001b93906001600160401b0390600090601f38859003908101601f191682019084821183831017620002da5780839160409788948552833981010312620002d6576200006260206200005a83620002f3565b9201620002f3565b3315620002be578254336001600160a01b0319808316821786558751966001600160a01b039591949093909286929183167f8be0079c531659141344cd1fd0a4f28419497f9722a3daafe3b4186f6b6457e08980a3169586156200027c57508316918215620002385785816002541617600255828160035416176003558651610a78808201908282108583111762000224579082916200111b8339039086f080156200021657841680916001541617600155803b156200022057908480926024895180958193634273cc2160e11b83523060048401525af180156200021657620001cb575b50507f2fa8b95c1db7afe99e3398f3792f008135cedc1fa26b0bb2ecd2352cd166d53c92939451947f7170bf15b246e880b2369cd7c67d057760d8a35149e8c64dde91efa22bcc76d08580a27f1b98cb79e6f73020175fe87333f1b91ad6a881519c0afe30340c2599b2b4bde08480a2600154169180a2610e129081620003098239f35b8196949611620002025783529193917f2fa8b95c1db7afe99e3398f3792f008135cedc1fa26b0bb2ecd2352cd166d53c3862000147565b634e487b7160e01b86526041600452602486fd5b87513d87823e3d90fd5b8480fd5b634e487b7160e01b88526041600452602488fd5b865162461bcd60e51b815260206004820152601760248201527f494e56414c49445f545255535445445f495353554552530000000000000000006044820152606490fd5b62461bcd60e51b815260206004820152601460248201527f494e56414c49445f434c41494d5f544f504943530000000000000000000000006044820152606490fd5b8451631e4fbdf760e01b815260048101849052602490fd5b5080fd5b634e487b7160e01b84526041600452602484fd5b600080fd5b51906001600160a01b0382168203620002ee5756fe608060408181526004918236101561001657600080fd5b600092833560e01c9182630876132414610a00575081633b239a7f14610941578163454a03e0146108335781635dbe47e814610798578163639f78751461077c578163653dc9f1146105b0578163715018a6146105685781637e42683b146104b45781638da5cb5b1461048c5781638e098ca114610376578163a8d29d1d14610270578163b9209e3314610241578163f0eb5e54146101a4578163f11abfd81461017b578163f2fde38b14610100575063fb703a7b146100d557600080fd5b346100fc57816003193601126100fc5760035490516001600160a01b039091168152602090f35b5080fd5b9050346101775760203660031901126101775761011b610a25565b90610124610a81565b6001600160a01b039182169283156101615750506000548260018060a01b031982161760005516600080516020610d9d833981519152600080a380f35b51631e4fbdf760e01b8152908101849052602490fd5b8280fd5b5050346100fc57816003193601126100fc5760015490516001600160a01b039091168152602090f35b919050346101775760203660031901126101775760249060206101c5610a25565b6001548351637988d3a560e01b81526001600160a01b039283169681019690965290938591829086165afa9283156102375760209493610208575b505191168152f35b610229919350843d8111610230575b6102218183610b15565b810190610b5d565b9138610200565b503d610217565b81513d86823e3d90fd5b5050346100fc5760203660031901126100fc57602090610267610262610a25565b610b94565b90519015158152f35b919050346101775760203660031901126101775761028c610a25565b610294610a81565b8360018060a01b039283600154169084815194637988d3a560e01b865216958681860152602085602481865afa94851561036c57849561034c575b50823b1561033f578660248592838551968794859363cf191bcd60e01b85528401525af1908115610343575061032b575b505016907f59d6590e225b81befe259af056324092801080acbb7feab310eb34678871f3278380a380f35b61033490610aec565b61033f578338610300565b8380fd5b513d84823e3d90fd5b61036591955060203d8111610230576102218183610b15565b93386102cf565b82513d86823e3d90fd5b905034610177578160031936011261017757610390610a25565b83610399610a3b565b926103a2610a81565b6001600160a01b03938416946103b9861515610aad565b84600154169185825195637988d3a560e01b8752168082870152602086602481875afa958615610482578596610462575b50833b1561045e57604485928385519687948593637402e7c360e11b85528401528b60248401525af1908115610343575061044a575b5050167fe98082932c8056a0f514da9104e4a66bc2cbaef102ad59d90c4b24220ebf60108380a380f35b61045390610aec565b61033f578338610420565b8480fd5b61047b91965060203d8111610230576102218183610b15565b94386103ea565b83513d87823e3d90fd5b5050346100fc57816003193601126100fc57905490516001600160a01b039091168152602090f35b91905034610177576020928360031936011261055257836104d3610a25565b6001548451630b02972960e21b81526001600160a01b039283169681019690965285916024918391165afa92831561055c578193610519575b505061ffff905191168152f35b909192508381813d8311610555575b6105328183610b15565b810103126100fc57519061ffff8216820361055257509061ffff3861050c565b80fd5b503d610528565b509051903d90823e3d90fd5b8334610552578060031936011261055257610581610a81565b600080546001600160a01b0319811682556001600160a01b0316600080516020610d9d8339815191528280a380f35b91905034610177576060366003190112610177576001600160401b0391803583811161045e576105e39036908301610a51565b93906024948535838111610778576105fe9036908601610a51565b919093604435908111610774576106189036908701610a51565b9390610622610a81565b8383148061076b575b1561073757895b83811061063d578a80f35b6001546001600160a01b03908c9082168961066d610662868b61066783838e8e610d62565b610d88565b94610d62565b610678868c89610d62565b359261ffff8416840361045e57803b1561045e5784928f8f6106ae8692519788968795869463a53410dd60e01b86528501610b38565b03925af1801561072d57610715575b50506106cd610662838787610d62565b90806106dd610662858a8d610d62565b169116600080516020610dbd8339815191528d80a3600019811461070357600101610632565b634e487b7160e01b8b5260118852898bfd5b61071e90610aec565b610729578b386106bd565b8b80fd5b8c513d84823e3d90fd5b875162461bcd60e51b8152602081890152600f818b01526e0988a9c8ea890be9a92a69a82a8869608b1b6044820152606490fd5b5084831461062b565b8880fd5b8780fd5b5050346100fc57816003193601126100fc576020905160018152f35b919050346101775760203660031901126101775760206107b6610a25565b6001548351630bb7c8fd60e31b81526001600160a01b039283169581019590955284916024918391165afa91821561082957602093926107fa575b50519015158152f35b61081b919250833d8111610822575b6108138183610b15565b810190610b7c565b90386107f1565b503d610809565b81513d85823e3d90fd5b9050346101775760603660031901126101775761084e610a25565b90610857610a3b565b926044359161ffff8316830361093c5761086f610a81565b6001600160a01b03948486169485156109025790879493929187821697610897891515610aad565b6001541690813b156108fe578680946108c387519889968795869463a53410dd60e01b86528501610b38565b03925af190811561034357506108ea575b5080600080516020610dbd83398151915291a380f35b6108f390610aec565b6101775782386108d4565b8680fd5b835162461bcd60e51b81526020818501526014602482015273494e56414c49445f555345525f4144445245535360601b6044820152606490fd5b600080fd5b90503461017757816003193601126101775761095b610a25565b6024359261ffff841680940361045e57610973610a81565b6001546001600160a01b0390811692869190843b1561017757604490838551968794859363401bcaad60e11b85521680998401528960248401525af19081156109f757506109e4575b507f04ed3b726495c2dca1ff1215d9ca54e1a4030abb5e82b0f6ce55702416cee8538380a380f35b6109f090939193610aec565b91386109bc565b513d86823e3d90fd5b8490346100fc57816003193601126100fc576002546001600160a01b03168152602090f35b600435906001600160a01b038216820361093c57565b602435906001600160a01b038216820361093c57565b9181601f8401121561093c578235916001600160401b03831161093c576020808501948460051b01011161093c57565b6000546001600160a01b03163303610a9557565b60405163118cdaa760e01b8152336004820152602490fd5b15610ab457565b60405162461bcd60e51b815260206004820152601060248201526f494e56414c49445f4944454e5449545960801b6044820152606490fd5b6001600160401b038111610aff57604052565b634e487b7160e01b600052604160045260246000fd5b601f909101601f19168101906001600160401b03821190821017610aff57604052565b6001600160a01b0391821681529116602082015261ffff909116604082015260600190565b9081602091031261093c57516001600160a01b038116810361093c5790565b9081602091031261093c5751801515810361093c5790565b60015460408051630bb7c8fd60e31b81526001600160a01b0393841660048201819052919392602092908416918381602481865afa908115610d5757600091610d3a575b5015610d305782906024865180948193637988d3a560e01b835260048301525afa908115610d2557908391600091610d08575b501615610d00576000600492600254168451938480926337c2758160e21b82525afa928315610cf657600093610c50575b50505051158015610c4a5790565b50600190565b929091923d8083863e610c638186610b15565b84019183858403126105525784516001600160401b039586821161017757019083601f83011215610552578151958611610ce2578560051b925195610caa86850188610b15565b8652848087019383010193841161055257508301905b828210610cd35750505050388080610c3c565b81518152908301908301610cc0565b634e487b7160e01b81526041600452602490fd5b513d6000823e3d90fd5b505050600090565b610d1f9150833d8511610230576102218183610b15565b38610c0b565b84513d6000823e3d90fd5b5050505050600090565b610d519150843d8611610822576108138183610b15565b38610bd8565b86513d6000823e3d90fd5b9190811015610d725760051b0190565b634e487b7160e01b600052603260045260246000fd5b356001600160a01b038116810361093c579056fe8be0079c531659141344cd1fd0a4f28419497f9722a3daafe3b4186f6b6457e06ae73635c50d24a45af6fbd5e016ac4bed179addbc8bf24e04ff0fcc6d33af19a2646970667358221220e82c03f65a6708a7739fba00c7796876762b39e1ee40a6c890c81bd90c5cfe4364736f6c634300081400336080806040523461007a5733156100645760008054336001600160a01b03198216811783556040519290916001600160a01b0316907f8be0079c531659141344cd1fd0a4f28419497f9722a3daafe3b4186f6b6457e09080a36109f890816100808239f35b631e4fbdf760e01b815260006004820152602490fd5b600080fdfe6080604081815260048036101561001557600080fd5b600092833560e01c9081631ffbb0641461085f57508063227ef0611461078e5780632c0a5ca4146107515780635dbe47e814610715578063715018a6146106ca5780637988d3a51461068f5780638037955a146105f557806384e79842146105535780638da5cb5b1461052b57806397a6278e146104c1578063a53410dd14610386578063cf191bcd146101cd578063e805cf86146101345763f2fde38b146100bd57600080fd5b34610130576020366003190112610130576100d661089a565b906100df6108cb565b6001600160a01b0391821692831561011a57505082546001600160a01b0319811683178455166000805160206109a38339815191528380a380f35b51631e4fbdf760e01b8152908101849052602490fd5b8280fd5b50903461013057806003193601126101305761014e61089a565b906101576108b5565b92338552600560205260ff828620541680156101ba575b610177906108f7565b6001600160a01b039283168086526020919091528185205461019b9060ff16610965565b84526001602052832080546001600160a01b0319169190921617905580f35b5084546001600160a01b0316331461016e565b50903461013057602090816003193601126103825782906101ec61089a565b903386526005845260ff8187205416801561036f575b61020e909695966108f7565b6001600160a01b03918216808652838552818620549091906102329060ff16610965565b818652600180865281872080546001600160a01b031916905560028652818720805461ffff1916905596909452928420805460ff19169055929384939092835b61027a578480f35b60038054808810156103695782846102918a610934565b905490851b1c16146102c557505060001986146102b2579483019483610272565b634e487b7160e01b855260118352602485fd5b93929596915093506000199283810190811161035657906102f9866102ec61031894610934565b905490881b1c1691610934565b90919082549060031b9160018060a01b03809116831b921b1916179055565b82549081156103435750019161032d83610934565b9091825491841b1b191690555580388080808480f35b634e487b7160e01b865260319052602485fd5b634e487b7160e01b875260118352602487fd5b50508480f35b5085546001600160a01b03163314610202565b8380fd5b5034610130576060366003190112610130576103a061089a565b6103a86108b5565b6044359161ffff83168093036104bd573386526020926005845260ff868820541680156104aa575b6103d9906108f7565b6001600160a01b03828116808952868652878920549094919060ff16610472578489526001865287892080546001600160a01b0319169190921617905560028452858720805461ffff19169091179055600354600160401b81101561045f57906102f982600161044c9401600355610934565b8452528120805460ff1916600117905580f35b634e487b7160e01b875260418552602487fd5b875162461bcd60e51b815280880187905260126024820152711053149150511657d49151d254d51154915160721b6044820152606490fd5b5086546001600160a01b031633146103d0565b8580fd5b505034610527576020366003190112610527576104dc61089a565b6104e46108cb565b6001600160a01b03168083526005602052908220805460ff191690557fed9c8ad8d5a0a66898ea49d2956929c93ae2e8bd50281b2ed897c5d1a6737e0b8280a280f35b5080fd5b505034610527578160031936011261052757905490516001600160a01b039091168152602090f35b5090346101305760203660031901126101305761056e61089a565b6105766108cb565b6001600160a01b03169182156105c3575081835260056020528220805460ff191660011790557ff68e73cec97f2d70aa641fb26e87a4383686e2efacb648f2165aeb02ac562ec58280a280f35b6020606492519162461bcd60e51b8352820152600d60248201526c1253959053125117d051d15395609a1b6044820152fd5b50903461013057806003193601126101305761060f61089a565b916024359261ffff841680940361068b57338552600560205260ff83862054168015610678575b61063f906108f7565b6001600160a01b0316808552602091909152818420546106619060ff16610965565b8352600260205282209061ffff1982541617905580f35b5084546001600160a01b03163314610636565b8480fd5b505034610527576020366003190112610527576020916001600160a01b03908290826106b961089a565b168152600185522054169051908152f35b83346107125780600319360112610712576106e36108cb565b80546001600160a01b03198116825581906001600160a01b03166000805160206109a38339815191528280a380f35b80fd5b50346101305760203660031901126101305760209260ff918391906001600160a01b0361074061089a565b168252855220541690519015158152f35b5050346105275760203660031901126105275760209161ffff9082906001600160a01b0361077d61089a565b168152600285522054169051908152f35b5091346107125780600319360112610712578151809160035493848352602080930180956003845284842090845b868282106108425750505050849003601f01601f19168401956001600160401b0387118588101761082f575085815282865292518583018190528594938501939290915b82811061080f57505050500390f35b83516001600160a01b031685528695509381019392810192600101610800565b634e487b7160e01b835260419052602482fd5b83546001600160a01b0316855290930192600192830192016107bc565b849084346101305760203660031901126101305760209260ff91906001600160a01b0361088a61089a565b1681526005855220541615158152f35b600435906001600160a01b03821682036108b057565b600080fd5b602435906001600160a01b03821682036108b057565b6000546001600160a01b031633036108df57565b60405163118cdaa760e01b8152336004820152602490fd5b156108fe57565b60405162461bcd60e51b815260206004820152600e60248201526d1393d517d055551213d49256915160921b6044820152606490fd5b60035481101561094f57600360005260206000200190600090565b634e487b7160e01b600052603260045260246000fd5b1561096c57565b60405162461bcd60e51b815260206004820152600e60248201526d1393d517d49151d254d51154915160921b6044820152606490fdfe8be0079c531659141344cd1fd0a4f28419497f9722a3daafe3b4186f6b6457e0a26469706673582212206bc6091820e2736a28dff12688db1af3388474378b3c5d98cb012172d373ff0964736f6c63430008140033","opcodes":"PUSH1 0x80 CALLVALUE PUSH3 0x2EE JUMPI PUSH3 0x1B93 SWAP1 PUSH1 0x1 PUSH1 0x1 PUSH1 0x40 SHL SUB SWAP1 PUSH1 0x0 SWAP1 PUSH1 0x1F CODESIZE DUP6 SWAP1 SUB SWAP1 DUP2 ADD PUSH1 0x1F NOT AND DUP3 ADD SWAP1 DUP5 DUP3 GT DUP4 DUP4 LT OR PUSH3 0x2DA JUMPI DUP1 DUP4 SWAP2 PUSH1 0x40 SWAP8 DUP9 SWAP5 DUP6 MSTORE DUP4 CODECOPY DUP2 ADD SUB SLT PUSH3 0x2D6 JUMPI PUSH3 0x62 PUSH1 0x20 PUSH3 0x5A DUP4 PUSH3 0x2F3 JUMP JUMPDEST SWAP3 ADD PUSH3 0x2F3 JUMP JUMPDEST CALLER ISZERO PUSH3 0x2BE JUMPI DUP3 SLOAD CALLER PUSH1 0x1 PUSH1 0x1 PUSH1 0xA0 SHL SUB NOT DUP1 DUP4 AND DUP3 OR DUP7 SSTORE DUP8 MLOAD SWAP7 PUSH1 0x1 PUSH1 0x1 PUSH1 0xA0 SHL SUB SWAP6 SWAP2 SWAP5 SWAP1 SWAP4 SWAP1 SWAP3 DUP7 SWAP3 SWAP2 DUP4 AND PUSH32 0x8BE0079C531659141344CD1FD0A4F28419497F9722A3DAAFE3B4186F6B6457E0 DUP10 DUP1 LOG3 AND SWAP6 DUP7 ISZERO PUSH3 0x27C JUMPI POP DUP4 AND SWAP2 DUP3 ISZERO PUSH3 0x238 JUMPI DUP6 DUP2 PUSH1 0x2 SLOAD AND OR PUSH1 0x2 SSTORE DUP3 DUP2 PUSH1 0x3 SLOAD AND OR PUSH1 0x3 SSTORE DUP7 MLOAD PUSH2 0xA78 DUP1 DUP3 ADD SWAP1 DUP3 DUP3 LT DUP6 DUP4 GT OR PUSH3 0x224 JUMPI SWAP1 DUP3 SWAP2 PUSH3 0x111B DUP4 CODECOPY SUB SWAP1 DUP7 CREATE DUP1 ISZERO PUSH3 0x216 JUMPI DUP5 AND DUP1 SWAP2 PUSH1 0x1 SLOAD AND OR PUSH1 0x1 SSTORE DUP1 EXTCODESIZE ISZERO PUSH3 0x220 JUMPI SWAP1 DUP5 DUP1 SWAP3 PUSH1 0x24 DUP10 MLOAD DUP1 SWAP6 DUP2 SWAP4 PUSH4 0x4273CC21 PUSH1 0xE1 SHL DUP4 MSTORE ADDRESS PUSH1 0x4 DUP5 ADD MSTORE GAS CALL DUP1 ISZERO PUSH3 0x216 JUMPI PUSH3 0x1CB JUMPI JUMPDEST POP POP PUSH32 0x2FA8B95C1DB7AFE99E3398F3792F008135CEDC1FA26B0BB2ECD2352CD166D53C SWAP3 SWAP4 SWAP5 MLOAD SWAP5 PUSH32 0x7170BF15B246E880B2369CD7C67D057760D8A35149E8C64DDE91EFA22BCC76D0 DUP6 DUP1 LOG2 PUSH32 0x1B98CB79E6F73020175FE87333F1B91AD6A881519C0AFE30340C2599B2B4BDE0 DUP5 DUP1 LOG2 PUSH1 0x1 SLOAD AND SWAP2 DUP1 LOG2 PUSH2 0xE12 SWAP1 DUP2 PUSH3 0x309 DUP3 CODECOPY RETURN JUMPDEST DUP2 SWAP7 SWAP5 SWAP7 GT PUSH3 0x202 JUMPI DUP4 MSTORE SWAP2 SWAP4 SWAP2 PUSH32 0x2FA8B95C1DB7AFE99E3398F3792F008135CEDC1FA26B0BB2ECD2352CD166D53C CODESIZE PUSH3 0x147 JUMP JUMPDEST PUSH4 0x4E487B71 PUSH1 0xE0 SHL DUP7 MSTORE PUSH1 0x41 PUSH1 0x4 MSTORE PUSH1 0x24 DUP7 REVERT JUMPDEST DUP8 MLOAD RETURNDATASIZE DUP8 DUP3 RETURNDATACOPY RETURNDATASIZE SWAP1 REVERT JUMPDEST DUP5 DUP1 REVERT JUMPDEST PUSH4 0x4E487B71 PUSH1 0xE0 SHL DUP9 MSTORE PUSH1 0x41 PUSH1 0x4 MSTORE PUSH1 0x24 DUP9 REVERT JUMPDEST DUP7 MLOAD PUSH3 0x461BCD PUSH1 0xE5 SHL DUP2 MSTORE PUSH1 0x20 PUSH1 0x4 DUP3 ADD MSTORE PUSH1 0x17 PUSH1 0x24 DUP3 ADD MSTORE PUSH32 0x494E56414C49445F545255535445445F49535355455253000000000000000000 PUSH1 0x44 DUP3 ADD MSTORE PUSH1 0x64 SWAP1 REVERT JUMPDEST PUSH3 0x461BCD PUSH1 0xE5 SHL DUP2 MSTORE PUSH1 0x20 PUSH1 0x4 DUP3 ADD MSTORE PUSH1 0x14 PUSH1 0x24 DUP3 ADD MSTORE PUSH32 0x494E56414C49445F434C41494D5F544F50494353000000000000000000000000 PUSH1 0x44 DUP3 ADD MSTORE PUSH1 0x64 SWAP1 REVERT JUMPDEST DUP5 MLOAD PUSH4 0x1E4FBDF7 PUSH1 0xE0 SHL DUP2 MSTORE PUSH1 0x4 DUP2 ADD DUP5 SWAP1 MSTORE PUSH1 0x24 SWAP1 REVERT JUMPDEST POP DUP1 REVERT JUMPDEST PUSH4 0x4E487B71 PUSH1 0xE0 SHL DUP5 MSTORE PUSH1 0x41 PUSH1 0x4 MSTORE PUSH1 0x24 DUP5 REVERT JUMPDEST PUSH1 0x0 DUP1 REVERT JUMPDEST MLOAD SWAP1 PUSH1 0x1 PUSH1 0x1 PUSH1 0xA0 SHL SUB DUP3 AND DUP3 SUB PUSH3 0x2EE JUMPI JUMP INVALID PUSH1 0x80 PUSH1 0x40 DUP2 DUP2 MSTORE PUSH1 0x4 SWAP2 DUP3 CALLDATASIZE LT ISZERO PUSH2 0x16 JUMPI PUSH1 0x0 DUP1 REVERT JUMPDEST PUSH1 0x0 SWAP3 DUP4 CALLDATALOAD PUSH1 0xE0 SHR SWAP2 DUP3 PUSH4 0x8761324 EQ PUSH2 0xA00 JUMPI POP DUP2 PUSH4 0x3B239A7F EQ PUSH2 0x941 JUMPI DUP2 PUSH4 0x454A03E0 EQ PUSH2 0x833 JUMPI DUP2 PUSH4 0x5DBE47E8 EQ PUSH2 0x798 JUMPI DUP2 PUSH4 0x639F7875 EQ PUSH2 0x77C JUMPI DUP2 PUSH4 0x653DC9F1 EQ PUSH2 0x5B0 JUMPI DUP2 PUSH4 0x715018A6 EQ PUSH2 0x568 JUMPI DUP2 PUSH4 0x7E42683B EQ PUSH2 0x4B4 JUMPI DUP2 PUSH4 0x8DA5CB5B EQ PUSH2 0x48C JUMPI DUP2 PUSH4 0x8E098CA1 EQ PUSH2 0x376 JUMPI DUP2 PUSH4 0xA8D29D1D EQ PUSH2 0x270 JUMPI DUP2 PUSH4 0xB9209E33 EQ PUSH2 0x241 JUMPI DUP2 PUSH4 0xF0EB5E54 EQ PUSH2 0x1A4 JUMPI DUP2 PUSH4 0xF11ABFD8 EQ PUSH2 0x17B JUMPI DUP2 PUSH4 0xF2FDE38B EQ PUSH2 0x100 JUMPI POP PUSH4 0xFB703A7B EQ PUSH2 0xD5 JUMPI PUSH1 0x0 DUP1 REVERT JUMPDEST CALLVALUE PUSH2 0xFC JUMPI DUP2 PUSH1 0x3 NOT CALLDATASIZE ADD SLT PUSH2 0xFC JUMPI PUSH1 0x3 SLOAD SWAP1 MLOAD PUSH1 0x1 PUSH1 0x1 PUSH1 0xA0 SHL SUB SWAP1 SWAP2 AND DUP2 MSTORE PUSH1 0x20 SWAP1 RETURN JUMPDEST POP DUP1 REVERT JUMPDEST SWAP1 POP CALLVALUE PUSH2 0x177 JUMPI PUSH1 0x20 CALLDATASIZE PUSH1 0x3 NOT ADD SLT PUSH2 0x177 JUMPI PUSH2 0x11B PUSH2 0xA25 JUMP JUMPDEST SWAP1 PUSH2 0x124 PUSH2 0xA81 JUMP JUMPDEST PUSH1 0x1 PUSH1 0x1 PUSH1 0xA0 SHL SUB SWAP2 DUP3 AND SWAP3 DUP4 ISZERO PUSH2 0x161 JUMPI POP POP PUSH1 0x0 SLOAD DUP3 PUSH1 0x1 DUP1 PUSH1 0xA0 SHL SUB NOT DUP3 AND OR PUSH1 0x0 SSTORE AND PUSH1 0x0 DUP1 MLOAD PUSH1 0x20 PUSH2 0xD9D DUP4 CODECOPY DUP2 MLOAD SWAP2 MSTORE PUSH1 0x0 DUP1 LOG3 DUP1 RETURN JUMPDEST MLOAD PUSH4 0x1E4FBDF7 PUSH1 0xE0 SHL DUP2 MSTORE SWAP1 DUP2 ADD DUP5 SWAP1 MSTORE PUSH1 0x24 SWAP1 REVERT JUMPDEST DUP3 DUP1 REVERT JUMPDEST POP POP CALLVALUE PUSH2 0xFC JUMPI DUP2 PUSH1 0x3 NOT CALLDATASIZE ADD SLT PUSH2 0xFC JUMPI PUSH1 0x1 SLOAD SWAP1 MLOAD PUSH1 0x1 PUSH1 0x1 PUSH1 0xA0 SHL SUB SWAP1 SWAP2 AND DUP2 MSTORE PUSH1 0x20 SWAP1 RETURN JUMPDEST SWAP2 SWAP1 POP CALLVALUE PUSH2 0x177 JUMPI PUSH1 0x20 CALLDATASIZE PUSH1 0x3 NOT ADD SLT PUSH2 0x177 JUMPI PUSH1 0x24 SWAP1 PUSH1 0x20 PUSH2 0x1C5 PUSH2 0xA25 JUMP JUMPDEST PUSH1 0x1 SLOAD DUP4 MLOAD PUSH4 0x7988D3A5 PUSH1 0xE0 SHL DUP2 MSTORE PUSH1 0x1 PUSH1 0x1 PUSH1 0xA0 SHL SUB SWAP3 DUP4 AND SWAP7 DUP2 ADD SWAP7 SWAP1 SWAP7 MSTORE SWAP1 SWAP4 DUP6 SWAP2 DUP3 SWAP1 DUP7 AND GAS STATICCALL SWAP3 DUP4 ISZERO PUSH2 0x237 JUMPI PUSH1 0x20 SWAP5 SWAP4 PUSH2 0x208 JUMPI JUMPDEST POP MLOAD SWAP2 AND DUP2 MSTORE RETURN JUMPDEST PUSH2 0x229 SWAP2 SWAP4 POP DUP5 RETURNDATASIZE DUP2 GT PUSH2 0x230 JUMPI JUMPDEST PUSH2 0x221 DUP2 DUP4 PUSH2 0xB15 JUMP JUMPDEST DUP2 ADD SWAP1 PUSH2 0xB5D JUMP JUMPDEST SWAP2 CODESIZE PUSH2 0x200 JUMP JUMPDEST POP RETURNDATASIZE PUSH2 0x217 JUMP JUMPDEST DUP2 MLOAD RETURNDATASIZE DUP7 DUP3 RETURNDATACOPY RETURNDATASIZE SWAP1 REVERT JUMPDEST POP POP CALLVALUE PUSH2 0xFC JUMPI PUSH1 0x20 CALLDATASIZE PUSH1 0x3 NOT ADD SLT PUSH2 0xFC JUMPI PUSH1 0x20 SWAP1 PUSH2 0x267 PUSH2 0x262 PUSH2 0xA25 JUMP JUMPDEST PUSH2 0xB94 JUMP JUMPDEST SWAP1 MLOAD SWAP1 ISZERO ISZERO DUP2 MSTORE RETURN JUMPDEST SWAP2 SWAP1 POP CALLVALUE PUSH2 0x177 JUMPI PUSH1 0x20 CALLDATASIZE PUSH1 0x3 NOT ADD SLT PUSH2 0x177 JUMPI PUSH2 0x28C PUSH2 0xA25 JUMP JUMPDEST PUSH2 0x294 PUSH2 0xA81 JUMP JUMPDEST DUP4 PUSH1 0x1 DUP1 PUSH1 0xA0 SHL SUB SWAP3 DUP4 PUSH1 0x1 SLOAD AND SWAP1 DUP5 DUP2 MLOAD SWAP5 PUSH4 0x7988D3A5 PUSH1 0xE0 SHL DUP7 MSTORE AND SWAP6 DUP7 DUP2 DUP7 ADD MSTORE PUSH1 0x20 DUP6 PUSH1 0x24 DUP2 DUP7 GAS STATICCALL SWAP5 DUP6 ISZERO PUSH2 0x36C JUMPI DUP5 SWAP6 PUSH2 0x34C JUMPI JUMPDEST POP DUP3 EXTCODESIZE ISZERO PUSH2 0x33F JUMPI DUP7 PUSH1 0x24 DUP6 SWAP3 DUP4 DUP6 MLOAD SWAP7 DUP8 SWAP5 DUP6 SWAP4 PUSH4 0xCF191BCD PUSH1 0xE0 SHL DUP6 MSTORE DUP5 ADD MSTORE GAS CALL SWAP1 DUP2 ISZERO PUSH2 0x343 JUMPI POP PUSH2 0x32B JUMPI JUMPDEST POP POP AND SWAP1 PUSH32 0x59D6590E225B81BEFE259AF056324092801080ACBB7FEAB310EB34678871F327 DUP4 DUP1 LOG3 DUP1 RETURN JUMPDEST PUSH2 0x334 SWAP1 PUSH2 0xAEC JUMP JUMPDEST PUSH2 0x33F JUMPI DUP4 CODESIZE PUSH2 0x300 JUMP JUMPDEST DUP4 DUP1 REVERT JUMPDEST MLOAD RETURNDATASIZE DUP5 DUP3 RETURNDATACOPY RETURNDATASIZE SWAP1 REVERT JUMPDEST PUSH2 0x365 SWAP2 SWAP6 POP PUSH1 0x20 RETURNDATASIZE DUP2 GT PUSH2 0x230 JUMPI PUSH2 0x221 DUP2 DUP4 PUSH2 0xB15 JUMP JUMPDEST SWAP4 CODESIZE PUSH2 0x2CF JUMP JUMPDEST DUP3 MLOAD RETURNDATASIZE DUP7 DUP3 RETURNDATACOPY RETURNDATASIZE SWAP1 REVERT JUMPDEST SWAP1 POP CALLVALUE PUSH2 0x177 JUMPI DUP2 PUSH1 0x3 NOT CALLDATASIZE ADD SLT PUSH2 0x177 JUMPI PUSH2 0x390 PUSH2 0xA25 JUMP JUMPDEST DUP4 PUSH2 0x399 PUSH2 0xA3B JUMP JUMPDEST SWAP3 PUSH2 0x3A2 PUSH2 0xA81 JUMP JUMPDEST PUSH1 0x1 PUSH1 0x1 PUSH1 0xA0 SHL SUB SWAP4 DUP5 AND SWAP5 PUSH2 0x3B9 DUP7 ISZERO ISZERO PUSH2 0xAAD JUMP JUMPDEST DUP5 PUSH1 0x1 SLOAD AND SWAP2 DUP6 DUP3 MLOAD SWAP6 PUSH4 0x7988D3A5 PUSH1 0xE0 SHL DUP8 MSTORE AND DUP1 DUP3 DUP8 ADD MSTORE PUSH1 0x20 DUP7 PUSH1 0x24 DUP2 DUP8 GAS STATICCALL SWAP6 DUP7 ISZERO PUSH2 0x482 JUMPI DUP6 SWAP7 PUSH2 0x462 JUMPI JUMPDEST POP DUP4 EXTCODESIZE ISZERO PUSH2 0x45E JUMPI PUSH1 0x44 DUP6 SWAP3 DUP4 DUP6 MLOAD SWAP7 DUP8 SWAP5 DUP6 SWAP4 PUSH4 0x7402E7C3 PUSH1 0xE1 SHL DUP6 MSTORE DUP5 ADD MSTORE DUP12 PUSH1 0x24 DUP5 ADD MSTORE GAS CALL SWAP1 DUP2 ISZERO PUSH2 0x343 JUMPI POP PUSH2 0x44A JUMPI JUMPDEST POP POP AND PUSH32 0xE98082932C8056A0F514DA9104E4A66BC2CBAEF102AD59D90C4B24220EBF6010 DUP4 DUP1 LOG3 DUP1 RETURN JUMPDEST PUSH2 0x453 SWAP1 PUSH2 0xAEC JUMP JUMPDEST PUSH2 0x33F JUMPI DUP4 CODESIZE PUSH2 0x420 JUMP JUMPDEST DUP5 DUP1 REVERT JUMPDEST PUSH2 0x47B SWAP2 SWAP7 POP PUSH1 0x20 RETURNDATASIZE DUP2 GT PUSH2 0x230 JUMPI PUSH2 0x221 DUP2 DUP4 PUSH2 0xB15 JUMP JUMPDEST SWAP5 CODESIZE PUSH2 0x3EA JUMP JUMPDEST DUP4 MLOAD RETURNDATASIZE DUP8 DUP3 RETURNDATACOPY RETURNDATASIZE SWAP1 REVERT JUMPDEST POP POP CALLVALUE PUSH2 0xFC JUMPI DUP2 PUSH1 0x3 NOT CALLDATASIZE ADD SLT PUSH2 0xFC JUMPI SWAP1 SLOAD SWAP1 MLOAD PUSH1 0x1 PUSH1 0x1 PUSH1 0xA0 SHL SUB SWAP1 SWAP2 AND DUP2 MSTORE PUSH1 0x20 SWAP1 RETURN JUMPDEST SWAP2 SWAP1 POP CALLVALUE PUSH2 0x177 JUMPI PUSH1 0x20 SWAP3 DUP4 PUSH1 0x3 NOT CALLDATASIZE ADD SLT PUSH2 0x552 JUMPI DUP4 PUSH2 0x4D3 PUSH2 0xA25 JUMP JUMPDEST PUSH1 0x1 SLOAD DUP5 MLOAD PUSH4 0xB029729 PUSH1 0xE2 SHL DUP2 MSTORE PUSH1 0x1 PUSH1 0x1 PUSH1 0xA0 SHL SUB SWAP3 DUP4 AND SWAP7 DUP2 ADD SWAP7 SWAP1 SWAP7 MSTORE DUP6 SWAP2 PUSH1 0x24 SWAP2 DUP4 SWAP2 AND GAS STATICCALL SWAP3 DUP4 ISZERO PUSH2 0x55C JUMPI DUP2 SWAP4 PUSH2 0x519 JUMPI JUMPDEST POP POP PUSH2 0xFFFF SWAP1 MLOAD SWAP2 AND DUP2 MSTORE RETURN JUMPDEST SWAP1 SWAP2 SWAP3 POP DUP4 DUP2 DUP2 RETURNDATASIZE DUP4 GT PUSH2 0x555 JUMPI JUMPDEST PUSH2 0x532 DUP2 DUP4 PUSH2 0xB15 JUMP JUMPDEST DUP2 ADD SUB SLT PUSH2 0xFC JUMPI MLOAD SWAP1 PUSH2 0xFFFF DUP3 AND DUP3 SUB PUSH2 0x552 JUMPI POP SWAP1 PUSH2 0xFFFF CODESIZE PUSH2 0x50C JUMP JUMPDEST DUP1 REVERT JUMPDEST POP RETURNDATASIZE PUSH2 0x528 JUMP JUMPDEST POP SWAP1 MLOAD SWAP1 RETURNDATASIZE SWAP1 DUP3 RETURNDATACOPY RETURNDATASIZE SWAP1 REVERT JUMPDEST DUP4 CALLVALUE PUSH2 0x552 JUMPI DUP1 PUSH1 0x3 NOT CALLDATASIZE ADD SLT PUSH2 0x552 JUMPI PUSH2 0x581 PUSH2 0xA81 JUMP JUMPDEST PUSH1 0x0 DUP1 SLOAD PUSH1 0x1 PUSH1 0x1 PUSH1 0xA0 SHL SUB NOT DUP2 AND DUP3 SSTORE PUSH1 0x1 PUSH1 0x1 PUSH1 0xA0 SHL SUB AND PUSH1 0x0 DUP1 MLOAD PUSH1 0x20 PUSH2 0xD9D DUP4 CODECOPY DUP2 MLOAD SWAP2 MSTORE DUP3 DUP1 LOG3 DUP1 RETURN JUMPDEST SWAP2 SWAP1 POP CALLVALUE PUSH2 0x177 JUMPI PUSH1 0x60 CALLDATASIZE PUSH1 0x3 NOT ADD SLT PUSH2 0x177 JUMPI PUSH1 0x1 PUSH1 0x1 PUSH1 0x40 SHL SUB SWAP2 DUP1 CALLDATALOAD DUP4 DUP2 GT PUSH2 0x45E JUMPI PUSH2 0x5E3 SWAP1 CALLDATASIZE SWAP1 DUP4 ADD PUSH2 0xA51 JUMP JUMPDEST SWAP4 SWAP1 PUSH1 0x24 SWAP5 DUP6 CALLDATALOAD DUP4 DUP2 GT PUSH2 0x778 JUMPI PUSH2 0x5FE SWAP1 CALLDATASIZE SWAP1 DUP7 ADD PUSH2 0xA51 JUMP JUMPDEST SWAP2 SWAP1 SWAP4 PUSH1 0x44 CALLDATALOAD SWAP1 DUP2 GT PUSH2 0x774 JUMPI PUSH2 0x618 SWAP1 CALLDATASIZE SWAP1 DUP8 ADD PUSH2 0xA51 JUMP JUMPDEST SWAP4 SWAP1 PUSH2 0x622 PUSH2 0xA81 JUMP JUMPDEST DUP4 DUP4 EQ DUP1 PUSH2 0x76B JUMPI JUMPDEST ISZERO PUSH2 0x737 JUMPI DUP10 JUMPDEST DUP4 DUP2 LT PUSH2 0x63D JUMPI DUP11 DUP1 RETURN JUMPDEST PUSH1 0x1 SLOAD PUSH1 0x1 PUSH1 0x1 PUSH1 0xA0 SHL SUB SWAP1 DUP13 SWAP1 DUP3 AND DUP10 PUSH2 0x66D PUSH2 0x662 DUP7 DUP12 PUSH2 0x667 DUP4 DUP4 DUP15 DUP15 PUSH2 0xD62 JUMP JUMPDEST PUSH2 0xD88 JUMP JUMPDEST SWAP5 PUSH2 0xD62 JUMP JUMPDEST PUSH2 0x678 DUP7 DUP13 DUP10 PUSH2 0xD62 JUMP JUMPDEST CALLDATALOAD SWAP3 PUSH2 0xFFFF DUP5 AND DUP5 SUB PUSH2 0x45E JUMPI DUP1 EXTCODESIZE ISZERO PUSH2 0x45E JUMPI DUP5 SWAP3 DUP16 DUP16 PUSH2 0x6AE DUP7 SWAP3 MLOAD SWAP8 DUP9 SWAP7 DUP8 SWAP6 DUP7 SWAP5 PUSH4 0xA53410DD PUSH1 0xE0 SHL DUP7 MSTORE DUP6 ADD PUSH2 0xB38 JUMP JUMPDEST SUB SWAP3 GAS CALL DUP1 ISZERO PUSH2 0x72D JUMPI PUSH2 0x715 JUMPI JUMPDEST POP POP PUSH2 0x6CD PUSH2 0x662 DUP4 DUP8 DUP8 PUSH2 0xD62 JUMP JUMPDEST SWAP1 DUP1 PUSH2 0x6DD PUSH2 0x662 DUP6 DUP11 DUP14 PUSH2 0xD62 JUMP JUMPDEST AND SWAP2 AND PUSH1 0x0 DUP1 MLOAD PUSH1 0x20 PUSH2 0xDBD DUP4 CODECOPY DUP2 MLOAD SWAP2 MSTORE DUP14 DUP1 LOG3 PUSH1 0x0 NOT DUP2 EQ PUSH2 0x703 JUMPI PUSH1 0x1 ADD PUSH2 0x632 JUMP JUMPDEST PUSH4 0x4E487B71 PUSH1 0xE0 SHL DUP12 MSTORE PUSH1 0x11 DUP9 MSTORE DUP10 DUP12 REVERT JUMPDEST PUSH2 0x71E SWAP1 PUSH2 0xAEC JUMP JUMPDEST PUSH2 0x729 JUMPI DUP12 CODESIZE PUSH2 0x6BD JUMP JUMPDEST DUP12 DUP1 REVERT JUMPDEST DUP13 MLOAD RETURNDATASIZE DUP5 DUP3 RETURNDATACOPY RETURNDATASIZE SWAP1 REVERT JUMPDEST DUP8 MLOAD PUSH3 0x461BCD PUSH1 0xE5 SHL DUP2 MSTORE PUSH1 0x20 DUP2 DUP10 ADD MSTORE PUSH1 0xF DUP2 DUP12 ADD MSTORE PUSH15 0x988A9C8EA890BE9A92A69A82A8869 PUSH1 0x8B SHL PUSH1 0x44 DUP3 ADD MSTORE PUSH1 0x64 SWAP1 REVERT JUMPDEST POP DUP5 DUP4 EQ PUSH2 0x62B JUMP JUMPDEST DUP9 DUP1 REVERT JUMPDEST DUP8 DUP1 REVERT JUMPDEST POP POP CALLVALUE PUSH2 0xFC JUMPI DUP2 PUSH1 0x3 NOT CALLDATASIZE ADD SLT PUSH2 0xFC JUMPI PUSH1 0x20 SWAP1 MLOAD PUSH1 0x1 DUP2 MSTORE RETURN JUMPDEST SWAP2 SWAP1 POP CALLVALUE PUSH2 0x177 JUMPI PUSH1 0x20 CALLDATASIZE PUSH1 0x3 NOT ADD SLT PUSH2 0x177 JUMPI PUSH1 0x20 PUSH2 0x7B6 PUSH2 0xA25 JUMP JUMPDEST PUSH1 0x1 SLOAD DUP4 MLOAD PUSH4 0xBB7C8FD PUSH1 0xE3 SHL DUP2 MSTORE PUSH1 0x1 PUSH1 0x1 PUSH1 0xA0 SHL SUB SWAP3 DUP4 AND SWAP6 DUP2 ADD SWAP6 SWAP1 SWAP6 MSTORE DUP5 SWAP2 PUSH1 0x24 SWAP2 DUP4 SWAP2 AND GAS STATICCALL SWAP2 DUP3 ISZERO PUSH2 0x829 JUMPI PUSH1 0x20 SWAP4 SWAP3 PUSH2 0x7FA JUMPI JUMPDEST POP MLOAD SWAP1 ISZERO ISZERO DUP2 MSTORE RETURN JUMPDEST PUSH2 0x81B SWAP2 SWAP3 POP DUP4 RETURNDATASIZE DUP2 GT PUSH2 0x822 JUMPI JUMPDEST PUSH2 0x813 DUP2 DUP4 PUSH2 0xB15 JUMP JUMPDEST DUP2 ADD SWAP1 PUSH2 0xB7C JUMP JUMPDEST SWAP1 CODESIZE PUSH2 0x7F1 JUMP JUMPDEST POP RETURNDATASIZE PUSH2 0x809 JUMP JUMPDEST DUP2 MLOAD RETURNDATASIZE DUP6 DUP3 RETURNDATACOPY RETURNDATASIZE SWAP1 REVERT JUMPDEST SWAP1 POP CALLVALUE PUSH2 0x177 JUMPI PUSH1 0x60 CALLDATASIZE PUSH1 0x3 NOT ADD SLT PUSH2 0x177 JUMPI PUSH2 0x84E PUSH2 0xA25 JUMP JUMPDEST SWAP1 PUSH2 0x857 PUSH2 0xA3B JUMP JUMPDEST SWAP3 PUSH1 0x44 CALLDATALOAD SWAP2 PUSH2 0xFFFF DUP4 AND DUP4 SUB PUSH2 0x93C JUMPI PUSH2 0x86F PUSH2 0xA81 JUMP JUMPDEST PUSH1 0x1 PUSH1 0x1 PUSH1 0xA0 SHL SUB SWAP5 DUP5 DUP7 AND SWAP5 DUP6 ISZERO PUSH2 0x902 JUMPI SWAP1 DUP8 SWAP5 SWAP4 SWAP3 SWAP2 DUP8 DUP3 AND SWAP8 PUSH2 0x897 DUP10 ISZERO ISZERO PUSH2 0xAAD JUMP JUMPDEST PUSH1 0x1 SLOAD AND SWAP1 DUP2 EXTCODESIZE ISZERO PUSH2 0x8FE JUMPI DUP7 DUP1 SWAP5 PUSH2 0x8C3 DUP8 MLOAD SWAP9 DUP10 SWAP7 DUP8 SWAP6 DUP7 SWAP5 PUSH4 0xA53410DD PUSH1 0xE0 SHL DUP7 MSTORE DUP6 ADD PUSH2 0xB38 JUMP JUMPDEST SUB SWAP3 GAS CALL SWAP1 DUP2 ISZERO PUSH2 0x343 JUMPI POP PUSH2 0x8EA JUMPI JUMPDEST POP DUP1 PUSH1 0x0 DUP1 MLOAD PUSH1 0x20 PUSH2 0xDBD DUP4 CODECOPY DUP2 MLOAD SWAP2 MSTORE SWAP2 LOG3 DUP1 RETURN JUMPDEST PUSH2 0x8F3 SWAP1 PUSH2 0xAEC JUMP JUMPDEST PUSH2 0x177 JUMPI DUP3 CODESIZE PUSH2 0x8D4 JUMP JUMPDEST DUP7 DUP1 REVERT JUMPDEST DUP4 MLOAD PUSH3 0x461BCD PUSH1 0xE5 SHL DUP2 MSTORE PUSH1 0x20 DUP2 DUP6 ADD MSTORE PUSH1 0x14 PUSH1 0x24 DUP3 ADD MSTORE PUSH20 0x494E56414C49445F555345525F41444452455353 PUSH1 0x60 SHL PUSH1 0x44 DUP3 ADD MSTORE PUSH1 0x64 SWAP1 REVERT JUMPDEST PUSH1 0x0 DUP1 REVERT JUMPDEST SWAP1 POP CALLVALUE PUSH2 0x177 JUMPI DUP2 PUSH1 0x3 NOT CALLDATASIZE ADD SLT PUSH2 0x177 JUMPI PUSH2 0x95B PUSH2 0xA25 JUMP JUMPDEST PUSH1 0x24 CALLDATALOAD SWAP3 PUSH2 0xFFFF DUP5 AND DUP1 SWAP5 SUB PUSH2 0x45E JUMPI PUSH2 0x973 PUSH2 0xA81 JUMP JUMPDEST PUSH1 0x1 SLOAD PUSH1 0x1 PUSH1 0x1 PUSH1 0xA0 SHL SUB SWAP1 DUP2 AND SWAP3 DUP7 SWAP2 SWAP1 DUP5 EXTCODESIZE ISZERO PUSH2 0x177 JUMPI PUSH1 0x44 SWAP1 DUP4 DUP6 MLOAD SWAP7 DUP8 SWAP5 DUP6 SWAP4 PUSH4 0x401BCAAD PUSH1 0xE1 SHL DUP6 MSTORE AND DUP1 SWAP10 DUP5 ADD MSTORE DUP10 PUSH1 0x24 DUP5 ADD MSTORE GAS CALL SWAP1 DUP2 ISZERO PUSH2 0x9F7 JUMPI POP PUSH2 0x9E4 JUMPI JUMPDEST POP PUSH32 0x4ED3B726495C2DCA1FF1215D9CA54E1A4030ABB5E82B0F6CE55702416CEE853 DUP4 DUP1 LOG3 DUP1 RETURN JUMPDEST PUSH2 0x9F0 SWAP1 SWAP4 SWAP2 SWAP4 PUSH2 0xAEC JUMP JUMPDEST SWAP2 CODESIZE PUSH2 0x9BC JUMP JUMPDEST MLOAD RETURNDATASIZE DUP7 DUP3 RETURNDATACOPY RETURNDATASIZE SWAP1 REVERT JUMPDEST DUP5 SWAP1 CALLVALUE PUSH2 0xFC JUMPI DUP2 PUSH1 0x3 NOT CALLDATASIZE ADD SLT PUSH2 0xFC JUMPI PUSH1 0x2 SLOAD PUSH1 0x1 PUSH1 0x1 PUSH1 0xA0 SHL SUB AND DUP2 MSTORE PUSH1 0x20 SWAP1 RETURN JUMPDEST PUSH1 0x4 CALLDATALOAD SWAP1 PUSH1 0x1 PUSH1 0x1 PUSH1 0xA0 SHL SUB DUP3 AND DUP3 SUB PUSH2 0x93C JUMPI JUMP JUMPDEST PUSH1 0x24 CALLDATALOAD SWAP1 PUSH1 0x1 PUSH1 0x1 PUSH1 0xA0 SHL SUB DUP3 AND DUP3 SUB PUSH2 0x93C JUMPI JUMP JUMPDEST SWAP2 DUP2 PUSH1 0x1F DUP5 ADD SLT ISZERO PUSH2 0x93C JUMPI DUP3 CALLDATALOAD SWAP2 PUSH1 0x1 PUSH1 0x1 PUSH1 0x40 SHL SUB DUP4 GT PUSH2 0x93C JUMPI PUSH1 0x20 DUP1 DUP6 ADD SWAP5 DUP5 PUSH1 0x5 SHL ADD ADD GT PUSH2 0x93C JUMPI JUMP JUMPDEST PUSH1 0x0 SLOAD PUSH1 0x1 PUSH1 0x1 PUSH1 0xA0 SHL SUB AND CALLER SUB PUSH2 0xA95 JUMPI JUMP JUMPDEST PUSH1 0x40 MLOAD PUSH4 0x118CDAA7 PUSH1 0xE0 SHL DUP2 MSTORE CALLER PUSH1 0x4 DUP3 ADD MSTORE PUSH1 0x24 SWAP1 REVERT JUMPDEST ISZERO PUSH2 0xAB4 JUMPI JUMP JUMPDEST PUSH1 0x40 MLOAD PUSH3 0x461BCD PUSH1 0xE5 SHL DUP2 MSTORE PUSH1 0x20 PUSH1 0x4 DUP3 ADD MSTORE PUSH1 0x10 PUSH1 0x24 DUP3 ADD MSTORE PUSH16 0x494E56414C49445F4944454E54495459 PUSH1 0x80 SHL PUSH1 0x44 DUP3 ADD MSTORE PUSH1 0x64 SWAP1 REVERT JUMPDEST PUSH1 0x1 PUSH1 0x1 PUSH1 0x40 SHL SUB DUP2 GT PUSH2 0xAFF JUMPI PUSH1 0x40 MSTORE JUMP JUMPDEST PUSH4 0x4E487B71 PUSH1 0xE0 SHL PUSH1 0x0 MSTORE PUSH1 0x41 PUSH1 0x4 MSTORE PUSH1 0x24 PUSH1 0x0 REVERT JUMPDEST PUSH1 0x1F SWAP1 SWAP2 ADD PUSH1 0x1F NOT AND DUP2 ADD SWAP1 PUSH1 0x1 PUSH1 0x1 PUSH1 0x40 SHL SUB DUP3 GT SWAP1 DUP3 LT OR PUSH2 0xAFF JUMPI PUSH1 0x40 MSTORE JUMP JUMPDEST PUSH1 0x1 PUSH1 0x1 PUSH1 0xA0 SHL SUB SWAP2 DUP3 AND DUP2 MSTORE SWAP2 AND PUSH1 0x20 DUP3 ADD MSTORE PUSH2 0xFFFF SWAP1 SWAP2 AND PUSH1 0x40 DUP3 ADD MSTORE PUSH1 0x60 ADD SWAP1 JUMP JUMPDEST SWAP1 DUP2 PUSH1 0x20 SWAP2 SUB SLT PUSH2 0x93C JUMPI MLOAD PUSH1 0x1 PUSH1 0x1 PUSH1 0xA0 SHL SUB DUP2 AND DUP2 SUB PUSH2 0x93C JUMPI SWAP1 JUMP JUMPDEST SWAP1 DUP2 PUSH1 0x20 SWAP2 SUB SLT PUSH2 0x93C JUMPI MLOAD DUP1 ISZERO ISZERO DUP2 SUB PUSH2 0x93C JUMPI SWAP1 JUMP JUMPDEST PUSH1 0x1 SLOAD PUSH1 0x40 DUP1 MLOAD PUSH4 0xBB7C8FD PUSH1 0xE3 SHL DUP2 MSTORE PUSH1 0x1 PUSH1 0x1 PUSH1 0xA0 SHL SUB SWAP4 DUP5 AND PUSH1 0x4 DUP3 ADD DUP2 SWAP1 MSTORE SWAP2 SWAP4 SWAP3 PUSH1 0x20 SWAP3 SWAP1 DUP5 AND SWAP2 DUP4 DUP2 PUSH1 0x24 DUP2 DUP7 GAS STATICCALL SWAP1 DUP2 ISZERO PUSH2 0xD57 JUMPI PUSH1 0x0 SWAP2 PUSH2 0xD3A JUMPI JUMPDEST POP ISZERO PUSH2 0xD30 JUMPI DUP3 SWAP1 PUSH1 0x24 DUP7 MLOAD DUP1 SWAP5 DUP2 SWAP4 PUSH4 0x7988D3A5 PUSH1 0xE0 SHL DUP4 MSTORE PUSH1 0x4 DUP4 ADD MSTORE GAS STATICCALL SWAP1 DUP2 ISZERO PUSH2 0xD25 JUMPI SWAP1 DUP4 SWAP2 PUSH1 0x0 SWAP2 PUSH2 0xD08 JUMPI JUMPDEST POP AND ISZERO PUSH2 0xD00 JUMPI PUSH1 0x0 PUSH1 0x4 SWAP3 PUSH1 0x2 SLOAD AND DUP5 MLOAD SWAP4 DUP5 DUP1 SWAP3 PUSH4 0x37C27581 PUSH1 0xE2 SHL DUP3 MSTORE GAS STATICCALL SWAP3 DUP4 ISZERO PUSH2 0xCF6 JUMPI PUSH1 0x0 SWAP4 PUSH2 0xC50 JUMPI JUMPDEST POP POP POP MLOAD ISZERO DUP1 ISZERO PUSH2 0xC4A JUMPI SWAP1 JUMP JUMPDEST POP PUSH1 0x1 SWAP1 JUMP JUMPDEST SWAP3 SWAP1 SWAP2 SWAP3 RETURNDATASIZE DUP1 DUP4 DUP7 RETURNDATACOPY PUSH2 0xC63 DUP2 DUP7 PUSH2 0xB15 JUMP JUMPDEST DUP5 ADD SWAP2 DUP4 DUP6 DUP5 SUB SLT PUSH2 0x552 JUMPI DUP5 MLOAD PUSH1 0x1 PUSH1 0x1 PUSH1 0x40 SHL SUB SWAP6 DUP7 DUP3 GT PUSH2 0x177 JUMPI ADD SWAP1 DUP4 PUSH1 0x1F DUP4 ADD SLT ISZERO PUSH2 0x552 JUMPI DUP2 MLOAD SWAP6 DUP7 GT PUSH2 0xCE2 JUMPI DUP6 PUSH1 0x5 SHL SWAP3 MLOAD SWAP6 PUSH2 0xCAA DUP7 DUP6 ADD DUP9 PUSH2 0xB15 JUMP JUMPDEST DUP7 MSTORE DUP5 DUP1 DUP8 ADD SWAP4 DUP4 ADD ADD SWAP4 DUP5 GT PUSH2 0x552 JUMPI POP DUP4 ADD SWAP1 JUMPDEST DUP3 DUP3 LT PUSH2 0xCD3 JUMPI POP POP POP POP CODESIZE DUP1 DUP1 PUSH2 0xC3C JUMP JUMPDEST DUP2 MLOAD DUP2 MSTORE SWAP1 DUP4 ADD SWAP1 DUP4 ADD PUSH2 0xCC0 JUMP JUMPDEST PUSH4 0x4E487B71 PUSH1 0xE0 SHL DUP2 MSTORE PUSH1 0x41 PUSH1 0x4 MSTORE PUSH1 0x24 SWAP1 REVERT JUMPDEST MLOAD RETURNDATASIZE PUSH1 0x0 DUP3 RETURNDATACOPY RETURNDATASIZE SWAP1 REVERT JUMPDEST POP POP POP PUSH1 0x0 SWAP1 JUMP JUMPDEST PUSH2 0xD1F SWAP2 POP DUP4 RETURNDATASIZE DUP6 GT PUSH2 0x230 JUMPI PUSH2 0x221 DUP2 DUP4 PUSH2 0xB15 JUMP JUMPDEST CODESIZE PUSH2 0xC0B JUMP JUMPDEST DUP5 MLOAD RETURNDATASIZE PUSH1 0x0 DUP3 RETURNDATACOPY RETURNDATASIZE SWAP1 REVERT JUMPDEST POP POP POP POP POP PUSH1 0x0 SWAP1 JUMP JUMPDEST PUSH2 0xD51 SWAP2 POP DUP5 RETURNDATASIZE DUP7 GT PUSH2 0x822 JUMPI PUSH2 0x813 DUP2 DUP4 PUSH2 0xB15 JUMP JUMPDEST CODESIZE PUSH2 0xBD8 JUMP JUMPDEST DUP7 MLOAD RETURNDATASIZE PUSH1 0x0 DUP3 RETURNDATACOPY RETURNDATASIZE SWAP1 REVERT JUMPDEST SWAP2 SWAP1 DUP2 LT ISZERO PUSH2 0xD72 JUMPI PUSH1 0x5 SHL ADD SWAP1 JUMP JUMPDEST PUSH4 0x4E487B71 PUSH1 0xE0 SHL PUSH1 0x0 MSTORE PUSH1 0x32 PUSH1 0x4 MSTORE PUSH1 0x24 PUSH1 0x0 REVERT JUMPDEST CALLDATALOAD PUSH1 0x1 PUSH1 0x1 PUSH1 0xA0 SHL SUB DUP2 AND DUP2 SUB PUSH2 0x93C JUMPI SWAP1 JUMP INVALID DUP12 0xE0 SMOD SWAP13 MSTORE8 AND MSIZE EQ SGT PREVRANDAO 0xCD 0x1F 0xD0 LOG4 CALLCODE DUP5 NOT 0x49 PUSH32 0x9722A3DAAFE3B4186F6B6457E06AE73635C50D24A45AF6FBD5E016AC4BED179A 0xDD 0xBC DUP12 CALLCODE 0x4E DIV SELFDESTRUCT 0xF 0xCC PUSH14 0x33AF19A2646970667358221220E8 0x2C SUB 0xF6 GAS PUSH8 0x8A7739FBA00C779 PUSH9 0x76762B39E1EE40A6C8 SWAP1 0xC8 SHL 0xD9 0xC 0x5C INVALID NUMBER PUSH5 0x736F6C6343 STOP ADDMOD EQ STOP CALLER PUSH1 0x80 DUP1 PUSH1 0x40 MSTORE CALLVALUE PUSH2 0x7A JUMPI CALLER ISZERO PUSH2 0x64 JUMPI PUSH1 0x0 DUP1 SLOAD CALLER PUSH1 0x1 PUSH1 0x1 PUSH1 0xA0 SHL SUB NOT DUP3 AND DUP2 OR DUP4 SSTORE PUSH1 0x40 MLOAD SWAP3 SWAP1 SWAP2 PUSH1 0x1 PUSH1 0x1 PUSH1 0xA0 SHL SUB AND SWAP1 PUSH32 0x8BE0079C531659141344CD1FD0A4F28419497F9722A3DAAFE3B4186F6B6457E0 SWAP1 DUP1 LOG3 PUSH2 0x9F8 SWAP1 DUP2 PUSH2 0x80 DUP3 CODECOPY RETURN JUMPDEST PUSH4 0x1E4FBDF7 PUSH1 0xE0 SHL DUP2 MSTORE PUSH1 0x0 PUSH1 0x4 DUP3 ADD MSTORE PUSH1 0x24 SWAP1 REVERT JUMPDEST PUSH1 0x0 DUP1 REVERT INVALID PUSH1 0x80 PUSH1 0x40 DUP2 DUP2 MSTORE PUSH1 0x4 DUP1 CALLDATASIZE LT ISZERO PUSH2 0x15 JUMPI PUSH1 0x0 DUP1 REVERT JUMPDEST PUSH1 0x0 SWAP3 DUP4 CALLDATALOAD PUSH1 0xE0 SHR SWAP1 DUP2 PUSH4 0x1FFBB064 EQ PUSH2 0x85F JUMPI POP DUP1 PUSH4 0x227EF061 EQ PUSH2 0x78E JUMPI DUP1 PUSH4 0x2C0A5CA4 EQ PUSH2 0x751 JUMPI DUP1 PUSH4 0x5DBE47E8 EQ PUSH2 0x715 JUMPI DUP1 PUSH4 0x715018A6 EQ PUSH2 0x6CA JUMPI DUP1 PUSH4 0x7988D3A5 EQ PUSH2 0x68F JUMPI DUP1 PUSH4 0x8037955A EQ PUSH2 0x5F5 JUMPI DUP1 PUSH4 0x84E79842 EQ PUSH2 0x553 JUMPI DUP1 PUSH4 0x8DA5CB5B EQ PUSH2 0x52B JUMPI DUP1 PUSH4 0x97A6278E EQ PUSH2 0x4C1 JUMPI DUP1 PUSH4 0xA53410DD EQ PUSH2 0x386 JUMPI DUP1 PUSH4 0xCF191BCD EQ PUSH2 0x1CD JUMPI DUP1 PUSH4 0xE805CF86 EQ PUSH2 0x134 JUMPI PUSH4 0xF2FDE38B EQ PUSH2 0xBD JUMPI PUSH1 0x0 DUP1 REVERT JUMPDEST CALLVALUE PUSH2 0x130 JUMPI PUSH1 0x20 CALLDATASIZE PUSH1 0x3 NOT ADD SLT PUSH2 0x130 JUMPI PUSH2 0xD6 PUSH2 0x89A JUMP JUMPDEST SWAP1 PUSH2 0xDF PUSH2 0x8CB JUMP JUMPDEST PUSH1 0x1 PUSH1 0x1 PUSH1 0xA0 SHL SUB SWAP2 DUP3 AND SWAP3 DUP4 ISZERO PUSH2 0x11A JUMPI POP POP DUP3 SLOAD PUSH1 0x1 PUSH1 0x1 PUSH1 0xA0 SHL SUB NOT DUP2 AND DUP4 OR DUP5 SSTORE AND PUSH1 0x0 DUP1 MLOAD PUSH1 0x20 PUSH2 0x9A3 DUP4 CODECOPY DUP2 MLOAD SWAP2 MSTORE DUP4 DUP1 LOG3 DUP1 RETURN JUMPDEST MLOAD PUSH4 0x1E4FBDF7 PUSH1 0xE0 SHL DUP2 MSTORE SWAP1 DUP2 ADD DUP5 SWAP1 MSTORE PUSH1 0x24 SWAP1 REVERT JUMPDEST DUP3 DUP1 REVERT JUMPDEST POP SWAP1 CALLVALUE PUSH2 0x130 JUMPI DUP1 PUSH1 0x3 NOT CALLDATASIZE ADD SLT PUSH2 0x130 JUMPI PUSH2 0x14E PUSH2 0x89A JUMP JUMPDEST SWAP1 PUSH2 0x157 PUSH2 0x8B5 JUMP JUMPDEST SWAP3 CALLER DUP6 MSTORE PUSH1 0x5 PUSH1 0x20 MSTORE PUSH1 0xFF DUP3 DUP7 KECCAK256 SLOAD AND DUP1 ISZERO PUSH2 0x1BA JUMPI JUMPDEST PUSH2 0x177 SWAP1 PUSH2 0x8F7 JUMP JUMPDEST PUSH1 0x1 PUSH1 0x1 PUSH1 0xA0 SHL SUB SWAP3 DUP4 AND DUP1 DUP7 MSTORE PUSH1 0x20 SWAP2 SWAP1 SWAP2 MSTORE DUP2 DUP6 KECCAK256 SLOAD PUSH2 0x19B SWAP1 PUSH1 0xFF AND PUSH2 0x965 JUMP JUMPDEST DUP5 MSTORE PUSH1 0x1 PUSH1 0x20 MSTORE DUP4 KECCAK256 DUP1 SLOAD PUSH1 0x1 PUSH1 0x1 PUSH1 0xA0 SHL SUB NOT AND SWAP2 SWAP1 SWAP3 AND OR SWAP1 SSTORE DUP1 RETURN JUMPDEST POP DUP5 SLOAD PUSH1 0x1 PUSH1 0x1 PUSH1 0xA0 SHL SUB AND CALLER EQ PUSH2 0x16E JUMP JUMPDEST POP SWAP1 CALLVALUE PUSH2 0x130 JUMPI PUSH1 0x20 SWAP1 DUP2 PUSH1 0x3 NOT CALLDATASIZE ADD SLT PUSH2 0x382 JUMPI DUP3 SWAP1 PUSH2 0x1EC PUSH2 0x89A JUMP JUMPDEST SWAP1 CALLER DUP7 MSTORE PUSH1 0x5 DUP5 MSTORE PUSH1 0xFF DUP2 DUP8 KECCAK256 SLOAD AND DUP1 ISZERO PUSH2 0x36F JUMPI JUMPDEST PUSH2 0x20E SWAP1 SWAP7 SWAP6 SWAP7 PUSH2 0x8F7 JUMP JUMPDEST PUSH1 0x1 PUSH1 0x1 PUSH1 0xA0 SHL SUB SWAP2 DUP3 AND DUP1 DUP7 MSTORE DUP4 DUP6 MSTORE DUP2 DUP7 KECCAK256 SLOAD SWAP1 SWAP2 SWAP1 PUSH2 0x232 SWAP1 PUSH1 0xFF AND PUSH2 0x965 JUMP JUMPDEST DUP2 DUP7 MSTORE PUSH1 0x1 DUP1 DUP7 MSTORE DUP2 DUP8 KECCAK256 DUP1 SLOAD PUSH1 0x1 PUSH1 0x1 PUSH1 0xA0 SHL SUB NOT AND SWAP1 SSTORE PUSH1 0x2 DUP7 MSTORE DUP2 DUP8 KECCAK256 DUP1 SLOAD PUSH2 0xFFFF NOT AND SWAP1 SSTORE SWAP7 SWAP1 SWAP5 MSTORE SWAP3 DUP5 KECCAK256 DUP1 SLOAD PUSH1 0xFF NOT AND SWAP1 SSTORE SWAP3 SWAP4 DUP5 SWAP4 SWAP1 SWAP3 DUP4 JUMPDEST PUSH2 0x27A JUMPI DUP5 DUP1 RETURN JUMPDEST PUSH1 0x3 DUP1 SLOAD DUP1 DUP9 LT ISZERO PUSH2 0x369 JUMPI DUP3 DUP5 PUSH2 0x291 DUP11 PUSH2 0x934 JUMP JUMPDEST SWAP1 SLOAD SWAP1 DUP6 SHL SHR AND EQ PUSH2 0x2C5 JUMPI POP POP PUSH1 0x0 NOT DUP7 EQ PUSH2 0x2B2 JUMPI SWAP5 DUP4 ADD SWAP5 DUP4 PUSH2 0x272 JUMP JUMPDEST PUSH4 0x4E487B71 PUSH1 0xE0 SHL DUP6 MSTORE PUSH1 0x11 DUP4 MSTORE PUSH1 0x24 DUP6 REVERT JUMPDEST SWAP4 SWAP3 SWAP6 SWAP7 SWAP2 POP SWAP4 POP PUSH1 0x0 NOT SWAP3 DUP4 DUP2 ADD SWAP1 DUP2 GT PUSH2 0x356 JUMPI SWAP1 PUSH2 0x2F9 DUP7 PUSH2 0x2EC PUSH2 0x318 SWAP5 PUSH2 0x934 JUMP JUMPDEST SWAP1 SLOAD SWAP1 DUP9 SHL SHR AND SWAP2 PUSH2 0x934 JUMP JUMPDEST SWAP1 SWAP2 SWAP1 DUP3 SLOAD SWAP1 PUSH1 0x3 SHL SWAP2 PUSH1 0x1 DUP1 PUSH1 0xA0 SHL SUB DUP1 SWAP2 AND DUP4 SHL SWAP3 SHL NOT AND OR SWAP1 SSTORE JUMP JUMPDEST DUP3 SLOAD SWAP1 DUP2 ISZERO PUSH2 0x343 JUMPI POP ADD SWAP2 PUSH2 0x32D DUP4 PUSH2 0x934 JUMP JUMPDEST SWAP1 SWAP2 DUP3 SLOAD SWAP2 DUP5 SHL SHL NOT AND SWAP1 SSTORE SSTORE DUP1 CODESIZE DUP1 DUP1 DUP1 DUP5 DUP1 RETURN JUMPDEST PUSH4 0x4E487B71 PUSH1 0xE0 SHL DUP7 MSTORE PUSH1 0x31 SWAP1 MSTORE PUSH1 0x24 DUP6 REVERT JUMPDEST PUSH4 0x4E487B71 PUSH1 0xE0 SHL DUP8 MSTORE PUSH1 0x11 DUP4 MSTORE PUSH1 0x24 DUP8 REVERT JUMPDEST POP POP DUP5 DUP1 RETURN JUMPDEST POP DUP6 SLOAD PUSH1 0x1 PUSH1 0x1 PUSH1 0xA0 SHL SUB AND CALLER EQ PUSH2 0x202 JUMP JUMPDEST DUP4 DUP1 REVERT JUMPDEST POP CALLVALUE PUSH2 0x130 JUMPI PUSH1 0x60 CALLDATASIZE PUSH1 0x3 NOT ADD SLT PUSH2 0x130 JUMPI PUSH2 0x3A0 PUSH2 0x89A JUMP JUMPDEST PUSH2 0x3A8 PUSH2 0x8B5 JUMP JUMPDEST PUSH1 0x44 CALLDATALOAD SWAP2 PUSH2 0xFFFF DUP4 AND DUP1 SWAP4 SUB PUSH2 0x4BD JUMPI CALLER DUP7 MSTORE PUSH1 0x20 SWAP3 PUSH1 0x5 DUP5 MSTORE PUSH1 0xFF DUP7 DUP9 KECCAK256 SLOAD AND DUP1 ISZERO PUSH2 0x4AA JUMPI JUMPDEST PUSH2 0x3D9 SWAP1 PUSH2 0x8F7 JUMP JUMPDEST PUSH1 0x1 PUSH1 0x1 PUSH1 0xA0 SHL SUB DUP3 DUP2 AND DUP1 DUP10 MSTORE DUP7 DUP7 MSTORE DUP8 DUP10 KECCAK256 SLOAD SWAP1 SWAP5 SWAP2 SWAP1 PUSH1 0xFF AND PUSH2 0x472 JUMPI DUP5 DUP10 MSTORE PUSH1 0x1 DUP7 MSTORE DUP8 DUP10 KECCAK256 DUP1 SLOAD PUSH1 0x1 PUSH1 0x1 PUSH1 0xA0 SHL SUB NOT AND SWAP2 SWAP1 SWAP3 AND OR SWAP1 SSTORE PUSH1 0x2 DUP5 MSTORE DUP6 DUP8 KECCAK256 DUP1 SLOAD PUSH2 0xFFFF NOT AND SWAP1 SWAP2 OR SWAP1 SSTORE PUSH1 0x3 SLOAD PUSH1 0x1 PUSH1 0x40 SHL DUP2 LT ISZERO PUSH2 0x45F JUMPI SWAP1 PUSH2 0x2F9 DUP3 PUSH1 0x1 PUSH2 0x44C SWAP5 ADD PUSH1 0x3 SSTORE PUSH2 0x934 JUMP JUMPDEST DUP5 MSTORE MSTORE DUP2 KECCAK256 DUP1 SLOAD PUSH1 0xFF NOT AND PUSH1 0x1 OR SWAP1 SSTORE DUP1 RETURN JUMPDEST PUSH4 0x4E487B71 PUSH1 0xE0 SHL DUP8 MSTORE PUSH1 0x41 DUP6 MSTORE PUSH1 0x24 DUP8 REVERT JUMPDEST DUP8 MLOAD PUSH3 0x461BCD PUSH1 0xE5 SHL DUP2 MSTORE DUP1 DUP9 ADD DUP8 SWAP1 MSTORE PUSH1 0x12 PUSH1 0x24 DUP3 ADD MSTORE PUSH18 0x1053149150511657D49151D254D511549151 PUSH1 0x72 SHL PUSH1 0x44 DUP3 ADD MSTORE PUSH1 0x64 SWAP1 REVERT JUMPDEST POP DUP7 SLOAD PUSH1 0x1 PUSH1 0x1 PUSH1 0xA0 SHL SUB AND CALLER EQ PUSH2 0x3D0 JUMP JUMPDEST DUP6 DUP1 REVERT JUMPDEST POP POP CALLVALUE PUSH2 0x527 JUMPI PUSH1 0x20 CALLDATASIZE PUSH1 0x3 NOT ADD SLT PUSH2 0x527 JUMPI PUSH2 0x4DC PUSH2 0x89A JUMP JUMPDEST PUSH2 0x4E4 PUSH2 0x8CB JUMP JUMPDEST PUSH1 0x1 PUSH1 0x1 PUSH1 0xA0 SHL SUB AND DUP1 DUP4 MSTORE PUSH1 0x5 PUSH1 0x20 MSTORE SWAP1 DUP3 KECCAK256 DUP1 SLOAD PUSH1 0xFF NOT AND SWAP1 SSTORE PUSH32 0xED9C8AD8D5A0A66898EA49D2956929C93AE2E8BD50281B2ED897C5D1A6737E0B DUP3 DUP1 LOG2 DUP1 RETURN JUMPDEST POP DUP1 REVERT JUMPDEST POP POP CALLVALUE PUSH2 0x527 JUMPI DUP2 PUSH1 0x3 NOT CALLDATASIZE ADD SLT PUSH2 0x527 JUMPI SWAP1 SLOAD SWAP1 MLOAD PUSH1 0x1 PUSH1 0x1 PUSH1 0xA0 SHL SUB SWAP1 SWAP2 AND DUP2 MSTORE PUSH1 0x20 SWAP1 RETURN JUMPDEST POP SWAP1 CALLVALUE PUSH2 0x130 JUMPI PUSH1 0x20 CALLDATASIZE PUSH1 0x3 NOT ADD SLT PUSH2 0x130 JUMPI PUSH2 0x56E PUSH2 0x89A JUMP JUMPDEST PUSH2 0x576 PUSH2 0x8CB JUMP JUMPDEST PUSH1 0x1 PUSH1 0x1 PUSH1 0xA0 SHL SUB AND SWAP2 DUP3 ISZERO PUSH2 0x5C3 JUMPI POP DUP2 DUP4 MSTORE PUSH1 0x5 PUSH1 0x20 MSTORE DUP3 KECCAK256 DUP1 SLOAD PUSH1 0xFF NOT AND PUSH1 0x1 OR SWAP1 SSTORE PUSH32 0xF68E73CEC97F2D70AA641FB26E87A4383686E2EFACB648F2165AEB02AC562EC5 DUP3 DUP1 LOG2 DUP1 RETURN JUMPDEST PUSH1 0x20 PUSH1 0x64 SWAP3 MLOAD SWAP2 PUSH3 0x461BCD PUSH1 0xE5 SHL DUP4 MSTORE DUP3 ADD MSTORE PUSH1 0xD PUSH1 0x24 DUP3 ADD MSTORE PUSH13 0x1253959053125117D051D15395 PUSH1 0x9A SHL PUSH1 0x44 DUP3 ADD MSTORE REVERT JUMPDEST POP SWAP1 CALLVALUE PUSH2 0x130 JUMPI DUP1 PUSH1 0x3 NOT CALLDATASIZE ADD SLT PUSH2 0x130 JUMPI PUSH2 0x60F PUSH2 0x89A JUMP JUMPDEST SWAP2 PUSH1 0x24 CALLDATALOAD SWAP3 PUSH2 0xFFFF DUP5 AND DUP1 SWAP5 SUB PUSH2 0x68B JUMPI CALLER DUP6 MSTORE PUSH1 0x5 PUSH1 0x20 MSTORE PUSH1 0xFF DUP4 DUP7 KECCAK256 SLOAD AND DUP1 ISZERO PUSH2 0x678 JUMPI JUMPDEST PUSH2 0x63F SWAP1 PUSH2 0x8F7 JUMP JUMPDEST PUSH1 0x1 PUSH1 0x1 PUSH1 0xA0 SHL SUB AND DUP1 DUP6 MSTORE PUSH1 0x20 SWAP2 SWAP1 SWAP2 MSTORE DUP2 DUP5 KECCAK256 SLOAD PUSH2 0x661 SWAP1 PUSH1 0xFF AND PUSH2 0x965 JUMP JUMPDEST DUP4 MSTORE PUSH1 0x2 PUSH1 0x20 MSTORE DUP3 KECCAK256 SWAP1 PUSH2 0xFFFF NOT DUP3 SLOAD AND OR SWAP1 SSTORE DUP1 RETURN JUMPDEST POP DUP5 SLOAD PUSH1 0x1 PUSH1 0x1 PUSH1 0xA0 SHL SUB AND CALLER EQ PUSH2 0x636 JUMP JUMPDEST DUP5 DUP1 REVERT JUMPDEST POP POP CALLVALUE PUSH2 0x527 JUMPI PUSH1 0x20 CALLDATASIZE PUSH1 0x3 NOT ADD SLT PUSH2 0x527 JUMPI PUSH1 0x20 SWAP2 PUSH1 0x1 PUSH1 0x1 PUSH1 0xA0 SHL SUB SWAP1 DUP3 SWAP1 DUP3 PUSH2 0x6B9 PUSH2 0x89A JUMP JUMPDEST AND DUP2 MSTORE PUSH1 0x1 DUP6 MSTORE KECCAK256 SLOAD AND SWAP1 MLOAD SWAP1 DUP2 MSTORE RETURN JUMPDEST DUP4 CALLVALUE PUSH2 0x712 JUMPI DUP1 PUSH1 0x3 NOT CALLDATASIZE ADD SLT PUSH2 0x712 JUMPI PUSH2 0x6E3 PUSH2 0x8CB JUMP JUMPDEST DUP1 SLOAD PUSH1 0x1 PUSH1 0x1 PUSH1 0xA0 SHL SUB NOT DUP2 AND DUP3 SSTORE DUP2 SWAP1 PUSH1 0x1 PUSH1 0x1 PUSH1 0xA0 SHL SUB AND PUSH1 0x0 DUP1 MLOAD PUSH1 0x20 PUSH2 0x9A3 DUP4 CODECOPY DUP2 MLOAD SWAP2 MSTORE DUP3 DUP1 LOG3 DUP1 RETURN JUMPDEST DUP1 REVERT JUMPDEST POP CALLVALUE PUSH2 0x130 JUMPI PUSH1 0x20 CALLDATASIZE PUSH1 0x3 NOT ADD SLT PUSH2 0x130 JUMPI PUSH1 0x20 SWAP3 PUSH1 0xFF SWAP2 DUP4 SWAP2 SWAP1 PUSH1 0x1 PUSH1 0x1 PUSH1 0xA0 SHL SUB PUSH2 0x740 PUSH2 0x89A JUMP JUMPDEST AND DUP3 MSTORE DUP6 MSTORE KECCAK256 SLOAD AND SWAP1 MLOAD SWAP1 ISZERO ISZERO DUP2 MSTORE RETURN JUMPDEST POP POP CALLVALUE PUSH2 0x527 JUMPI PUSH1 0x20 CALLDATASIZE PUSH1 0x3 NOT ADD SLT PUSH2 0x527 JUMPI PUSH1 0x20 SWAP2 PUSH2 0xFFFF SWAP1 DUP3 SWAP1 PUSH1 0x1 PUSH1 0x1 PUSH1 0xA0 SHL SUB PUSH2 0x77D PUSH2 0x89A JUMP JUMPDEST AND DUP2 MSTORE PUSH1 0x2 DUP6 MSTORE KECCAK256 SLOAD AND SWAP1 MLOAD SWAP1 DUP2 MSTORE RETURN JUMPDEST POP SWAP2 CALLVALUE PUSH2 0x712 JUMPI DUP1 PUSH1 0x3 NOT CALLDATASIZE ADD SLT PUSH2 0x712 JUMPI DUP2 MLOAD DUP1 SWAP2 PUSH1 0x3 SLOAD SWAP4 DUP5 DUP4 MSTORE PUSH1 0x20 DUP1 SWAP4 ADD DUP1 SWAP6 PUSH1 0x3 DUP5 MSTORE DUP5 DUP5 KECCAK256 SWAP1 DUP5 JUMPDEST DUP7 DUP3 DUP3 LT PUSH2 0x842 JUMPI POP POP POP POP DUP5 SWAP1 SUB PUSH1 0x1F ADD PUSH1 0x1F NOT AND DUP5 ADD SWAP6 PUSH1 0x1 PUSH1 0x1 PUSH1 0x40 SHL SUB DUP8 GT DUP6 DUP9 LT OR PUSH2 0x82F JUMPI POP DUP6 DUP2 MSTORE DUP3 DUP7 MSTORE SWAP3 MLOAD DUP6 DUP4 ADD DUP2 SWAP1 MSTORE DUP6 SWAP5 SWAP4 DUP6 ADD SWAP4 SWAP3 SWAP1 SWAP2 JUMPDEST DUP3 DUP2 LT PUSH2 0x80F JUMPI POP POP POP POP SUB SWAP1 RETURN JUMPDEST DUP4 MLOAD PUSH1 0x1 PUSH1 0x1 PUSH1 0xA0 SHL SUB AND DUP6 MSTORE DUP7 SWAP6 POP SWAP4 DUP2 ADD SWAP4 SWAP3 DUP2 ADD SWAP3 PUSH1 0x1 ADD PUSH2 0x800 JUMP JUMPDEST PUSH4 0x4E487B71 PUSH1 0xE0 SHL DUP4 MSTORE PUSH1 0x41 SWAP1 MSTORE PUSH1 0x24 DUP3 REVERT JUMPDEST DUP4 SLOAD PUSH1 0x1 PUSH1 0x1 PUSH1 0xA0 SHL SUB AND DUP6 MSTORE SWAP1 SWAP4 ADD SWAP3 PUSH1 0x1 SWAP3 DUP4 ADD SWAP3 ADD PUSH2 0x7BC JUMP JUMPDEST DUP5 SWAP1 DUP5 CALLVALUE PUSH2 0x130 JUMPI PUSH1 0x20 CALLDATASIZE PUSH1 0x3 NOT ADD SLT PUSH2 0x130 JUMPI PUSH1 0x20 SWAP3 PUSH1 0xFF SWAP2 SWAP1 PUSH1 0x1 PUSH1 0x1 PUSH1 0xA0 SHL SUB PUSH2 0x88A PUSH2 0x89A JUMP JUMPDEST AND DUP2 MSTORE PUSH1 0x5 DUP6 MSTORE KECCAK256 SLOAD AND ISZERO ISZERO DUP2 MSTORE RETURN JUMPDEST PUSH1 0x4 CALLDATALOAD SWAP1 PUSH1 0x1 PUSH1 0x1 PUSH1 0xA0 SHL SUB DUP3 AND DUP3 SUB PUSH2 0x8B0 JUMPI JUMP JUMPDEST PUSH1 0x0 DUP1 REVERT JUMPDEST PUSH1 0x24 CALLDATALOAD SWAP1 PUSH1 0x1 PUSH1 0x1 PUSH1 0xA0 SHL SUB DUP3 AND DUP3 SUB PUSH2 0x8B0 JUMPI JUMP JUMPDEST PUSH1 0x0 SLOAD PUSH1 0x1 PUSH1 0x1 PUSH1 0xA0 SHL SUB AND CALLER SUB PUSH2 0x8DF JUMPI JUMP JUMPDEST PUSH1 0x40 MLOAD PUSH4 0x118CDAA7 PUSH1 0xE0 SHL DUP2 MSTORE CALLER PUSH1 0x4 DUP3 ADD MSTORE PUSH1 0x24 SWAP1 REVERT JUMPDEST ISZERO PUSH2 0x8FE JUMPI JUMP JUMPDEST PUSH1 0x40 MLOAD PUSH3 0x461BCD PUSH1 0xE5 SHL DUP2 MSTORE PUSH1 0x20 PUSH1 0x4 DUP3 ADD MSTORE PUSH1 0xE PUSH1 0x24 DUP3 ADD MSTORE PUSH14 0x1393D517D055551213D492569151 PUSH1 0x92 SHL PUSH1 0x44 DUP3 ADD MSTORE PUSH1 0x64 SWAP1 REVERT JUMPDEST PUSH1 0x3 SLOAD DUP2 LT ISZERO PUSH2 0x94F JUMPI PUSH1 0x3 PUSH1 0x0 MSTORE PUSH1 0x20 PUSH1 0x0 KECCAK256 ADD SWAP1 PUSH1 0x0 SWAP1 JUMP JUMPDEST PUSH4 0x4E487B71 PUSH1 0xE0 SHL PUSH1 0x0 MSTORE PUSH1 0x32 PUSH1 0x4 MSTORE PUSH1 0x24 PUSH1 0x0 REVERT JUMPDEST ISZERO PUSH2 0x96C JUMPI JUMP JUMPDEST PUSH1 0x40 MLOAD PUSH3 0x461BCD PUSH1 0xE5 SHL DUP2 MSTORE PUSH1 0x20 PUSH1 0x4 DUP3 ADD MSTORE PUSH1 0xE PUSH1 0x24 DUP3 ADD MSTORE PUSH14 0x1393D517D49151D254D511549151 PUSH1 0x92 SHL PUSH1 0x44 DUP3 ADD MSTORE PUSH1 0x64 SWAP1 REVERT INVALID DUP12 0xE0 SMOD SWAP13 MSTORE8 AND MSIZE EQ SGT PREVRANDAO 0xCD 0x1F 0xD0 LOG4 CALLCODE DUP5 NOT 0x49 PUSH32 0x9722A3DAAFE3B4186F6B6457E0A26469706673582212206BC6091820E2736A28 0xDF CALL 0x26 DUP9 0xDB BYTE RETURN CODESIZE DUP5 PUSH21 0x378B3C5D98CB012172D373FF0964736F6C63430008 EQ STOP CALLER "},"methodIdentifiers":{"SIGNATURE_SCHEME()":"639f7875","batchRegisterIdentity(address[],address[],uint16[])":"653dc9f1","claimTopicsRegistry()":"08761324","contains(address)":"5dbe47e8","deleteIdentity(address)":"a8d29d1d","identity(address)":"f0eb5e54","identityStorage()":"f11abfd8","investorCountry(address)":"7e42683b","isVerified(address)":"b9209e33","owner()":"8da5cb5b","registerIdentity(address,address,uint16)":"454a03e0","renounceOwnership()":"715018a6","transferOwnership(address)":"f2fde38b","trustedIssuersRegistry()":"fb703a7b","updateCountry(address,uint16)":"3b239a7f","updateIdentity(address,address)":"8e098ca1"}}}}}