{"contracts/erc3643/TrustedIssuersRegistry.sol":{"TrustedIssuersRegistry":{"abi":[{"inputs":[],"stateMutability":"nonpayable","type":"constructor"},{"inputs":[{"internalType":"address","name":"owner","type":"address"}],"name":"OwnableInvalidOwner","type":"error"},{"inputs":[{"internalType":"address","name":"account","type":"address"}],"name":"OwnableUnauthorizedAccount","type":"error"},{"anonymous":false,"inputs":[{"indexed":true,"internalType":"address","name":"trustedIssuer","type":"address"},{"indexed":false,"internalType":"uint256[]","name":"claimTopics","type":"uint256[]"}],"name":"ClaimTopicsUpdated","type":"event"},{"anonymous":false,"inputs":[{"indexed":true,"internalType":"address","name":"previousOwner","type":"address"},{"indexed":true,"internalType":"address","name":"newOwner","type":"address"}],"name":"OwnershipTransferred","type":"event"},{"anonymous":false,"inputs":[{"indexed":true,"internalType":"address","name":"trustedIssuer","type":"address"},{"indexed":false,"internalType":"uint256[]","name":"claimTopics","type":"uint256[]"}],"name":"TrustedIssuerAdded","type":"event"},{"anonymous":false,"inputs":[{"indexed":true,"internalType":"address","name":"trustedIssuer","type":"address"}],"name":"TrustedIssuerRemoved","type":"event"},{"inputs":[{"internalType":"address","name":"trustedIssuer","type":"address"},{"internalType":"uint256[]","name":"claimTopics","type":"uint256[]"}],"name":"addTrustedIssuer","outputs":[],"stateMutability":"nonpayable","type":"function"},{"inputs":[{"internalType":"address","name":"trustedIssuer","type":"address"}],"name":"getTrustedIssuerClaimTopics","outputs":[{"internalType":"uint256[]","name":"","type":"uint256[]"}],"stateMutability":"view","type":"function"},{"inputs":[],"name":"getTrustedIssuers","outputs":[{"internalType":"address[]","name":"","type":"address[]"}],"stateMutability":"view","type":"function"},{"inputs":[{"internalType":"address","name":"issuer","type":"address"},{"internalType":"uint256","name":"claimTopic","type":"uint256"}],"name":"hasClaimTopic","outputs":[{"internalType":"bool","name":"","type":"bool"}],"stateMutability":"view","type":"function"},{"inputs":[{"internalType":"address","name":"issuer","type":"address"}],"name":"isTrustedIssuer","outputs":[{"internalType":"bool","name":"","type":"bool"}],"stateMutability":"view","type":"function"},{"inputs":[],"name":"owner","outputs":[{"internalType":"address","name":"","type":"address"}],"stateMutability":"view","type":"function"},{"inputs":[{"internalType":"address","name":"trustedIssuer","type":"address"}],"name":"removeTrustedIssuer","outputs":[],"stateMutability":"nonpayable","type":"function"},{"inputs":[],"name":"renounceOwnership","outputs":[],"stateMutability":"nonpayable","type":"function"},{"inputs":[{"internalType":"address","name":"newOwner","type":"address"}],"name":"transferOwnership","outputs":[],"stateMutability":"nonpayable","type":"function"},{"inputs":[{"internalType":"address","name":"trustedIssuer","type":"address"},{"internalType":"uint256[]","name":"claimTopics","type":"uint256[]"}],"name":"updateIssuerClaimTopics","outputs":[],"stateMutability":"nonpayable","type":"function"}],"evm":{"bytecode":{"linkReferences":{},"object":"6080806040523461007a5733156100645760008054336001600160a01b03198216811783556040519290916001600160a01b0316907f8be0079c531659141344cd1fd0a4f28419497f9722a3daafe3b4186f6b6457e09080a3610b3b90816100808239f35b631e4fbdf760e01b815260006004820152602490fd5b600080fdfe6040608081526004908136101561001557600080fd5b600091823560e01c806304bc7e841461071057806334a89987146106cb578063715018a6146106835780638da5cb5b1461065b5780639f63ea98146104b8578063b93d28eb146102b3578063c28fb27814610203578063d9dd24c514610148578063ef2ed1a4146101065763f2fde38b1461008f57600080fd5b34610102576020366003190112610102576100a8610885565b906100b1610900565b6001600160a01b039182169283156100ec57505082546001600160a01b031981168317845516600080516020610ae68339815191528380a380f35b51631e4fbdf760e01b8152908101849052602490fd5b8280fd5b5050346101445760203660031901126101445760209160ff9082906001600160a01b03610131610885565b1681526002855220541690519015158152f35b5080fd5b50503461014457816003193601126101445780516001805480835281855260208084019592939186907fb10e2d527612073b26eecdfd717e6a320cf44b4afac2b0732d9fcbe2b7fa0cf690855b8181106101e757505050826101ab910383610a79565b8451948186019282875251809352850195925b8281106101cb5785870386f35b83516001600160a01b03168752958101959281019284016101be565b82546001600160a01b0316845292840192918701918701610195565b8284346102b057602090816003193601126102b05782906001600160a01b0361022a610885565b16815260038352818120908251808584549182815201908194845286842090845b81811061029c5750505081610261910382610a79565b83519485948186019282875251809352850193925b82811061028557505050500390f35b835185528695509381019392810192600101610276565b82548452928801926001928301920161024b565b80fd5b508290346101445760209283600319360112610102576102d1610885565b926102da610900565b6001600160a01b0393841680825260028652828220549095906102ff9060ff16610a38565b815b60018054808310156104ab579087918961031a8561096a565b949054600395861b1c161461033a575050506103359061099b565b610301565b90926000989294959697981991828101908111610498579061036f8461036261038e9461096a565b905490891b1c169161096a565b90919082549060031b9160018060a01b03809116831b921b1916179055565b825480156104855701926103a18461096a565b81939154921b1b19169055555b84825260038152828220908351808383829554938481520190865283862092865b8582821061046f575050506103e692500383610a79565b825b82518110156104225761041d908785528683528585206104088286610a9c565b5186528352858520805460ff1916905561099b565b6103e8565b8387866002858385526003815261043a838620610ab0565b838552528220805460ff191690557f2214ded40113cc3fb63fc206cafee88270b0a903dac7245d54efdde30ebb03218280a280f35b85548452600195860195889550930192016103cf565b634e487b7160e01b875260318952602487fd5b634e487b7160e01b885260118a52602488fd5b50505090919293506103ae565b509034610102576104c8366108a0565b929091936104d4610900565b6001600160a01b03851694851561061f578587526020906002825260ff84892054166105e55761050586151561092c565b6001908154600160401b8110156105d2579061036f82846105289401855561096a565b868852600282528388209160ff19928284825416179055885b8781106105815789897ffedc33fd34859594822c0ff6f3f4f9fc279cc6d5cae53068f706a088e45008728a8a61057b8b5192839283610a0f565b0390a280f35b6105cd90898b52600383526105a4878c2061059d838c8c6109c0565b35906109d0565b898b52858352868b206105b8828b8b6109c0565b358c528352868b20848682541617905561099b565b610541565b634e487b7160e01b8a526041855260248afd5b50606492519162461bcd60e51b835282015260166024820152751254d4d5515497d053149150511657d5149554d5115160521b6044820152fd5b506020606492519162461bcd60e51b83528201526016602482015275494e56414c49445f4953535545525f4144445245535360501b6044820152fd5b505034610144578160031936011261014457905490516001600160a01b039091168152602090f35b83346102b057806003193601126102b05761069c610900565b80546001600160a01b03198116825581906001600160a01b0316600080516020610ae68339815191528280a380f35b503461010257816003193601126101025760209260ff918391906001600160a01b036106f5610885565b16825285528181206024358252855220541690519015158152f35b5091903461014457610721366108a0565b90939161072c610900565b60018060a01b0316948583526020906002825261074e60ff8686205416610a38565b61075983151561092c565b868452600396878352858520938651808686829854938481520190895286892092895b8882821061086f5750505061079392500386610a79565b855b85518110156107cf576107ca908388528486528888206107b58289610a9c565b5189528652888820805460ff1916905561099b565b610795565b508789889588958587528282526107e7888820610ab0565b865b8581106108235787877fec753cfc52044f61676f18a11e500093a9f2b1cd5e4942bc476f2b0438159bcf888861057b8e5192839283610a0f565b61086a9087895284845261083e8a8a2061059d838a8a6109c0565b8789528284528989206108528289896109c0565b358a528452898920805460ff1916600117905561099b565b6107e9565b855484526001958601958b95509301920161077c565b600435906001600160a01b038216820361089b57565b600080fd5b604060031982011261089b576004356001600160a01b038116810361089b57916001600160401b03916024359083821161089b578060238301121561089b57816004013593841161089b5760248460051b8301011161089b576024019190565b6000546001600160a01b0316330361091457565b60405163118cdaa760e01b8152336004820152602490fd5b1561093357565b60405162461bcd60e51b815260206004820152600f60248201526e4e4f5f434c41494d5f544f5049435360881b6044820152606490fd5b60015481101561098557600160005260206000200190600090565b634e487b7160e01b600052603260045260246000fd5b60001981146109aa5760010190565b634e487b7160e01b600052601160045260246000fd5b91908110156109855760051b0190565b805490600160401b8210156109f957600182018082558210156109855760005260206000200155565b634e487b7160e01b600052604160045260246000fd5b602080825281018390526001600160fb1b03831161089b5760409260051b809284830137010190565b15610a3f57565b60405162461bcd60e51b81526020600482015260126024820152711254d4d5515497d393d517d5149554d5115160721b6044820152606490fd5b601f909101601f19168101906001600160401b038211908210176109f957604052565b80518210156109855760209160051b010190565b80549060009081815582610ac357505050565b815260208120918201915b828110610ada57505050565b818155600101610ace56fe8be0079c531659141344cd1fd0a4f28419497f9722a3daafe3b4186f6b6457e0a264697066735822122005f5c92c3c36d35a5a4e6600c03f3cf4aa5a6392a0bdca28de655b84b85a657864736f6c63430008140033","opcodes":"PUSH1 0x80 DUP1 PUSH1 0x40 MSTORE CALLVALUE PUSH2 0x7A JUMPI CALLER ISZERO PUSH2 0x64 JUMPI PUSH1 0x0 DUP1 SLOAD CALLER PUSH1 0x1 PUSH1 0x1 PUSH1 0xA0 SHL SUB NOT DUP3 AND DUP2 OR DUP4 SSTORE PUSH1 0x40 MLOAD SWAP3 SWAP1 SWAP2 PUSH1 0x1 PUSH1 0x1 PUSH1 0xA0 SHL SUB AND SWAP1 PUSH32 0x8BE0079C531659141344CD1FD0A4F28419497F9722A3DAAFE3B4186F6B6457E0 SWAP1 DUP1 LOG3 PUSH2 0xB3B SWAP1 DUP2 PUSH2 0x80 DUP3 CODECOPY RETURN JUMPDEST PUSH4 0x1E4FBDF7 PUSH1 0xE0 SHL DUP2 MSTORE PUSH1 0x0 PUSH1 0x4 DUP3 ADD MSTORE PUSH1 0x24 SWAP1 REVERT JUMPDEST PUSH1 0x0 DUP1 REVERT INVALID PUSH1 0x40 PUSH1 0x80 DUP2 MSTORE PUSH1 0x4 SWAP1 DUP2 CALLDATASIZE LT ISZERO PUSH2 0x15 JUMPI PUSH1 0x0 DUP1 REVERT JUMPDEST PUSH1 0x0 SWAP2 DUP3 CALLDATALOAD PUSH1 0xE0 SHR DUP1 PUSH4 0x4BC7E84 EQ PUSH2 0x710 JUMPI DUP1 PUSH4 0x34A89987 EQ PUSH2 0x6CB JUMPI DUP1 PUSH4 0x715018A6 EQ PUSH2 0x683 JUMPI DUP1 PUSH4 0x8DA5CB5B EQ PUSH2 0x65B JUMPI DUP1 PUSH4 0x9F63EA98 EQ PUSH2 0x4B8 JUMPI DUP1 PUSH4 0xB93D28EB EQ PUSH2 0x2B3 JUMPI DUP1 PUSH4 0xC28FB278 EQ PUSH2 0x203 JUMPI DUP1 PUSH4 0xD9DD24C5 EQ PUSH2 0x148 JUMPI DUP1 PUSH4 0xEF2ED1A4 EQ PUSH2 0x106 JUMPI PUSH4 0xF2FDE38B EQ PUSH2 0x8F JUMPI PUSH1 0x0 DUP1 REVERT JUMPDEST CALLVALUE PUSH2 0x102 JUMPI PUSH1 0x20 CALLDATASIZE PUSH1 0x3 NOT ADD SLT PUSH2 0x102 JUMPI PUSH2 0xA8 PUSH2 0x885 JUMP JUMPDEST SWAP1 PUSH2 0xB1 PUSH2 0x900 JUMP JUMPDEST PUSH1 0x1 PUSH1 0x1 PUSH1 0xA0 SHL SUB SWAP2 DUP3 AND SWAP3 DUP4 ISZERO PUSH2 0xEC JUMPI POP POP DUP3 SLOAD PUSH1 0x1 PUSH1 0x1 PUSH1 0xA0 SHL SUB NOT DUP2 AND DUP4 OR DUP5 SSTORE AND PUSH1 0x0 DUP1 MLOAD PUSH1 0x20 PUSH2 0xAE6 DUP4 CODECOPY DUP2 MLOAD SWAP2 MSTORE DUP4 DUP1 LOG3 DUP1 RETURN JUMPDEST MLOAD PUSH4 0x1E4FBDF7 PUSH1 0xE0 SHL DUP2 MSTORE SWAP1 DUP2 ADD DUP5 SWAP1 MSTORE PUSH1 0x24 SWAP1 REVERT JUMPDEST DUP3 DUP1 REVERT JUMPDEST POP POP CALLVALUE PUSH2 0x144 JUMPI PUSH1 0x20 CALLDATASIZE PUSH1 0x3 NOT ADD SLT PUSH2 0x144 JUMPI PUSH1 0x20 SWAP2 PUSH1 0xFF SWAP1 DUP3 SWAP1 PUSH1 0x1 PUSH1 0x1 PUSH1 0xA0 SHL SUB PUSH2 0x131 PUSH2 0x885 JUMP JUMPDEST AND DUP2 MSTORE PUSH1 0x2 DUP6 MSTORE KECCAK256 SLOAD AND SWAP1 MLOAD SWAP1 ISZERO ISZERO DUP2 MSTORE RETURN JUMPDEST POP DUP1 REVERT JUMPDEST POP POP CALLVALUE PUSH2 0x144 JUMPI DUP2 PUSH1 0x3 NOT CALLDATASIZE ADD SLT PUSH2 0x144 JUMPI DUP1 MLOAD PUSH1 0x1 DUP1 SLOAD DUP1 DUP4 MSTORE DUP2 DUP6 MSTORE PUSH1 0x20 DUP1 DUP5 ADD SWAP6 SWAP3 SWAP4 SWAP2 DUP7 SWAP1 PUSH32 0xB10E2D527612073B26EECDFD717E6A320CF44B4AFAC2B0732D9FCBE2B7FA0CF6 SWAP1 DUP6 JUMPDEST DUP2 DUP2 LT PUSH2 0x1E7 JUMPI POP POP POP DUP3 PUSH2 0x1AB SWAP2 SUB DUP4 PUSH2 0xA79 JUMP JUMPDEST DUP5 MLOAD SWAP5 DUP2 DUP7 ADD SWAP3 DUP3 DUP8 MSTORE MLOAD DUP1 SWAP4 MSTORE DUP6 ADD SWAP6 SWAP3 JUMPDEST DUP3 DUP2 LT PUSH2 0x1CB JUMPI DUP6 DUP8 SUB DUP7 RETURN JUMPDEST DUP4 MLOAD PUSH1 0x1 PUSH1 0x1 PUSH1 0xA0 SHL SUB AND DUP8 MSTORE SWAP6 DUP2 ADD SWAP6 SWAP3 DUP2 ADD SWAP3 DUP5 ADD PUSH2 0x1BE JUMP JUMPDEST DUP3 SLOAD PUSH1 0x1 PUSH1 0x1 PUSH1 0xA0 SHL SUB AND DUP5 MSTORE SWAP3 DUP5 ADD SWAP3 SWAP2 DUP8 ADD SWAP2 DUP8 ADD PUSH2 0x195 JUMP JUMPDEST DUP3 DUP5 CALLVALUE PUSH2 0x2B0 JUMPI PUSH1 0x20 SWAP1 DUP2 PUSH1 0x3 NOT CALLDATASIZE ADD SLT PUSH2 0x2B0 JUMPI DUP3 SWAP1 PUSH1 0x1 PUSH1 0x1 PUSH1 0xA0 SHL SUB PUSH2 0x22A PUSH2 0x885 JUMP JUMPDEST AND DUP2 MSTORE PUSH1 0x3 DUP4 MSTORE DUP2 DUP2 KECCAK256 SWAP1 DUP3 MLOAD DUP1 DUP6 DUP5 SLOAD SWAP2 DUP3 DUP2 MSTORE ADD SWAP1 DUP2 SWAP5 DUP5 MSTORE DUP7 DUP5 KECCAK256 SWAP1 DUP5 JUMPDEST DUP2 DUP2 LT PUSH2 0x29C JUMPI POP POP POP DUP2 PUSH2 0x261 SWAP2 SUB DUP3 PUSH2 0xA79 JUMP JUMPDEST DUP4 MLOAD SWAP5 DUP6 SWAP5 DUP2 DUP7 ADD SWAP3 DUP3 DUP8 MSTORE MLOAD DUP1 SWAP4 MSTORE DUP6 ADD SWAP4 SWAP3 JUMPDEST DUP3 DUP2 LT PUSH2 0x285 JUMPI POP POP POP POP SUB SWAP1 RETURN JUMPDEST DUP4 MLOAD DUP6 MSTORE DUP7 SWAP6 POP SWAP4 DUP2 ADD SWAP4 SWAP3 DUP2 ADD SWAP3 PUSH1 0x1 ADD PUSH2 0x276 JUMP JUMPDEST DUP3 SLOAD DUP5 MSTORE SWAP3 DUP9 ADD SWAP3 PUSH1 0x1 SWAP3 DUP4 ADD SWAP3 ADD PUSH2 0x24B JUMP JUMPDEST DUP1 REVERT JUMPDEST POP DUP3 SWAP1 CALLVALUE PUSH2 0x144 JUMPI PUSH1 0x20 SWAP3 DUP4 PUSH1 0x3 NOT CALLDATASIZE ADD SLT PUSH2 0x102 JUMPI PUSH2 0x2D1 PUSH2 0x885 JUMP JUMPDEST SWAP3 PUSH2 0x2DA PUSH2 0x900 JUMP JUMPDEST PUSH1 0x1 PUSH1 0x1 PUSH1 0xA0 SHL SUB SWAP4 DUP5 AND DUP1 DUP3 MSTORE PUSH1 0x2 DUP7 MSTORE DUP3 DUP3 KECCAK256 SLOAD SWAP1 SWAP6 SWAP1 PUSH2 0x2FF SWAP1 PUSH1 0xFF AND PUSH2 0xA38 JUMP JUMPDEST DUP2 JUMPDEST PUSH1 0x1 DUP1 SLOAD DUP1 DUP4 LT ISZERO PUSH2 0x4AB JUMPI SWAP1 DUP8 SWAP2 DUP10 PUSH2 0x31A DUP6 PUSH2 0x96A JUMP JUMPDEST SWAP5 SWAP1 SLOAD PUSH1 0x3 SWAP6 DUP7 SHL SHR AND EQ PUSH2 0x33A JUMPI POP POP POP PUSH2 0x335 SWAP1 PUSH2 0x99B JUMP JUMPDEST PUSH2 0x301 JUMP JUMPDEST SWAP1 SWAP3 PUSH1 0x0 SWAP9 SWAP3 SWAP5 SWAP6 SWAP7 SWAP8 SWAP9 NOT SWAP2 DUP3 DUP2 ADD SWAP1 DUP2 GT PUSH2 0x498 JUMPI SWAP1 PUSH2 0x36F DUP5 PUSH2 0x362 PUSH2 0x38E SWAP5 PUSH2 0x96A JUMP JUMPDEST SWAP1 SLOAD SWAP1 DUP10 SHL SHR AND SWAP2 PUSH2 0x96A JUMP JUMPDEST SWAP1 SWAP2 SWAP1 DUP3 SLOAD SWAP1 PUSH1 0x3 SHL SWAP2 PUSH1 0x1 DUP1 PUSH1 0xA0 SHL SUB DUP1 SWAP2 AND DUP4 SHL SWAP3 SHL NOT AND OR SWAP1 SSTORE JUMP JUMPDEST DUP3 SLOAD DUP1 ISZERO PUSH2 0x485 JUMPI ADD SWAP3 PUSH2 0x3A1 DUP5 PUSH2 0x96A JUMP JUMPDEST DUP2 SWAP4 SWAP2 SLOAD SWAP3 SHL SHL NOT AND SWAP1 SSTORE SSTORE JUMPDEST DUP5 DUP3 MSTORE PUSH1 0x3 DUP2 MSTORE DUP3 DUP3 KECCAK256 SWAP1 DUP4 MLOAD DUP1 DUP4 DUP4 DUP3 SWAP6 SLOAD SWAP4 DUP5 DUP2 MSTORE ADD SWAP1 DUP7 MSTORE DUP4 DUP7 KECCAK256 SWAP3 DUP7 JUMPDEST DUP6 DUP3 DUP3 LT PUSH2 0x46F JUMPI POP POP POP PUSH2 0x3E6 SWAP3 POP SUB DUP4 PUSH2 0xA79 JUMP JUMPDEST DUP3 JUMPDEST DUP3 MLOAD DUP2 LT ISZERO PUSH2 0x422 JUMPI PUSH2 0x41D SWAP1 DUP8 DUP6 MSTORE DUP7 DUP4 MSTORE DUP6 DUP6 KECCAK256 PUSH2 0x408 DUP3 DUP7 PUSH2 0xA9C JUMP JUMPDEST MLOAD DUP7 MSTORE DUP4 MSTORE DUP6 DUP6 KECCAK256 DUP1 SLOAD PUSH1 0xFF NOT AND SWAP1 SSTORE PUSH2 0x99B JUMP JUMPDEST PUSH2 0x3E8 JUMP JUMPDEST DUP4 DUP8 DUP7 PUSH1 0x2 DUP6 DUP4 DUP6 MSTORE PUSH1 0x3 DUP2 MSTORE PUSH2 0x43A DUP4 DUP7 KECCAK256 PUSH2 0xAB0 JUMP JUMPDEST DUP4 DUP6 MSTORE MSTORE DUP3 KECCAK256 DUP1 SLOAD PUSH1 0xFF NOT AND SWAP1 SSTORE PUSH32 0x2214DED40113CC3FB63FC206CAFEE88270B0A903DAC7245D54EFDDE30EBB0321 DUP3 DUP1 LOG2 DUP1 RETURN JUMPDEST DUP6 SLOAD DUP5 MSTORE PUSH1 0x1 SWAP6 DUP7 ADD SWAP6 DUP9 SWAP6 POP SWAP4 ADD SWAP3 ADD PUSH2 0x3CF JUMP JUMPDEST PUSH4 0x4E487B71 PUSH1 0xE0 SHL DUP8 MSTORE PUSH1 0x31 DUP10 MSTORE PUSH1 0x24 DUP8 REVERT JUMPDEST PUSH4 0x4E487B71 PUSH1 0xE0 SHL DUP9 MSTORE PUSH1 0x11 DUP11 MSTORE PUSH1 0x24 DUP9 REVERT JUMPDEST POP POP POP SWAP1 SWAP2 SWAP3 SWAP4 POP PUSH2 0x3AE JUMP JUMPDEST POP SWAP1 CALLVALUE PUSH2 0x102 JUMPI PUSH2 0x4C8 CALLDATASIZE PUSH2 0x8A0 JUMP JUMPDEST SWAP3 SWAP1 SWAP2 SWAP4 PUSH2 0x4D4 PUSH2 0x900 JUMP JUMPDEST PUSH1 0x1 PUSH1 0x1 PUSH1 0xA0 SHL SUB DUP6 AND SWAP5 DUP6 ISZERO PUSH2 0x61F JUMPI DUP6 DUP8 MSTORE PUSH1 0x20 SWAP1 PUSH1 0x2 DUP3 MSTORE PUSH1 0xFF DUP5 DUP10 KECCAK256 SLOAD AND PUSH2 0x5E5 JUMPI PUSH2 0x505 DUP7 ISZERO ISZERO PUSH2 0x92C JUMP JUMPDEST PUSH1 0x1 SWAP1 DUP2 SLOAD PUSH1 0x1 PUSH1 0x40 SHL DUP2 LT ISZERO PUSH2 0x5D2 JUMPI SWAP1 PUSH2 0x36F DUP3 DUP5 PUSH2 0x528 SWAP5 ADD DUP6 SSTORE PUSH2 0x96A JUMP JUMPDEST DUP7 DUP9 MSTORE PUSH1 0x2 DUP3 MSTORE DUP4 DUP9 KECCAK256 SWAP2 PUSH1 0xFF NOT SWAP3 DUP3 DUP5 DUP3 SLOAD AND OR SWAP1 SSTORE DUP9 JUMPDEST DUP8 DUP2 LT PUSH2 0x581 JUMPI DUP10 DUP10 PUSH32 0xFEDC33FD34859594822C0FF6F3F4F9FC279CC6D5CAE53068F706A088E4500872 DUP11 DUP11 PUSH2 0x57B DUP12 MLOAD SWAP3 DUP4 SWAP3 DUP4 PUSH2 0xA0F JUMP JUMPDEST SUB SWAP1 LOG2 DUP1 RETURN JUMPDEST PUSH2 0x5CD SWAP1 DUP10 DUP12 MSTORE PUSH1 0x3 DUP4 MSTORE PUSH2 0x5A4 DUP8 DUP13 KECCAK256 PUSH2 0x59D DUP4 DUP13 DUP13 PUSH2 0x9C0 JUMP JUMPDEST CALLDATALOAD SWAP1 PUSH2 0x9D0 JUMP JUMPDEST DUP10 DUP12 MSTORE DUP6 DUP4 MSTORE DUP7 DUP12 KECCAK256 PUSH2 0x5B8 DUP3 DUP12 DUP12 PUSH2 0x9C0 JUMP JUMPDEST CALLDATALOAD DUP13 MSTORE DUP4 MSTORE DUP7 DUP12 KECCAK256 DUP5 DUP7 DUP3 SLOAD AND OR SWAP1 SSTORE PUSH2 0x99B JUMP JUMPDEST PUSH2 0x541 JUMP JUMPDEST PUSH4 0x4E487B71 PUSH1 0xE0 SHL DUP11 MSTORE PUSH1 0x41 DUP6 MSTORE PUSH1 0x24 DUP11 REVERT JUMPDEST POP PUSH1 0x64 SWAP3 MLOAD SWAP2 PUSH3 0x461BCD PUSH1 0xE5 SHL DUP4 MSTORE DUP3 ADD MSTORE PUSH1 0x16 PUSH1 0x24 DUP3 ADD MSTORE PUSH22 0x1254D4D5515497D053149150511657D5149554D51151 PUSH1 0x52 SHL PUSH1 0x44 DUP3 ADD MSTORE REVERT JUMPDEST POP PUSH1 0x20 PUSH1 0x64 SWAP3 MLOAD SWAP2 PUSH3 0x461BCD PUSH1 0xE5 SHL DUP4 MSTORE DUP3 ADD MSTORE PUSH1 0x16 PUSH1 0x24 DUP3 ADD MSTORE PUSH22 0x494E56414C49445F4953535545525F41444452455353 PUSH1 0x50 SHL PUSH1 0x44 DUP3 ADD MSTORE REVERT JUMPDEST POP POP CALLVALUE PUSH2 0x144 JUMPI DUP2 PUSH1 0x3 NOT CALLDATASIZE ADD SLT PUSH2 0x144 JUMPI SWAP1 SLOAD SWAP1 MLOAD PUSH1 0x1 PUSH1 0x1 PUSH1 0xA0 SHL SUB SWAP1 SWAP2 AND DUP2 MSTORE PUSH1 0x20 SWAP1 RETURN JUMPDEST DUP4 CALLVALUE PUSH2 0x2B0 JUMPI DUP1 PUSH1 0x3 NOT CALLDATASIZE ADD SLT PUSH2 0x2B0 JUMPI PUSH2 0x69C PUSH2 0x900 JUMP JUMPDEST DUP1 SLOAD PUSH1 0x1 PUSH1 0x1 PUSH1 0xA0 SHL SUB NOT DUP2 AND DUP3 SSTORE DUP2 SWAP1 PUSH1 0x1 PUSH1 0x1 PUSH1 0xA0 SHL SUB AND PUSH1 0x0 DUP1 MLOAD PUSH1 0x20 PUSH2 0xAE6 DUP4 CODECOPY DUP2 MLOAD SWAP2 MSTORE DUP3 DUP1 LOG3 DUP1 RETURN JUMPDEST POP CALLVALUE PUSH2 0x102 JUMPI DUP2 PUSH1 0x3 NOT CALLDATASIZE ADD SLT PUSH2 0x102 JUMPI PUSH1 0x20 SWAP3 PUSH1 0xFF SWAP2 DUP4 SWAP2 SWAP1 PUSH1 0x1 PUSH1 0x1 PUSH1 0xA0 SHL SUB PUSH2 0x6F5 PUSH2 0x885 JUMP JUMPDEST AND DUP3 MSTORE DUP6 MSTORE DUP2 DUP2 KECCAK256 PUSH1 0x24 CALLDATALOAD DUP3 MSTORE DUP6 MSTORE KECCAK256 SLOAD AND SWAP1 MLOAD SWAP1 ISZERO ISZERO DUP2 MSTORE RETURN JUMPDEST POP SWAP2 SWAP1 CALLVALUE PUSH2 0x144 JUMPI PUSH2 0x721 CALLDATASIZE PUSH2 0x8A0 JUMP JUMPDEST SWAP1 SWAP4 SWAP2 PUSH2 0x72C PUSH2 0x900 JUMP JUMPDEST PUSH1 0x1 DUP1 PUSH1 0xA0 SHL SUB AND SWAP5 DUP6 DUP4 MSTORE PUSH1 0x20 SWAP1 PUSH1 0x2 DUP3 MSTORE PUSH2 0x74E PUSH1 0xFF DUP7 DUP7 KECCAK256 SLOAD AND PUSH2 0xA38 JUMP JUMPDEST PUSH2 0x759 DUP4 ISZERO ISZERO PUSH2 0x92C JUMP JUMPDEST DUP7 DUP5 MSTORE PUSH1 0x3 SWAP7 DUP8 DUP4 MSTORE DUP6 DUP6 KECCAK256 SWAP4 DUP7 MLOAD DUP1 DUP7 DUP7 DUP3 SWAP9 SLOAD SWAP4 DUP5 DUP2 MSTORE ADD SWAP1 DUP10 MSTORE DUP7 DUP10 KECCAK256 SWAP3 DUP10 JUMPDEST DUP9 DUP3 DUP3 LT PUSH2 0x86F JUMPI POP POP POP PUSH2 0x793 SWAP3 POP SUB DUP7 PUSH2 0xA79 JUMP JUMPDEST DUP6 JUMPDEST DUP6 MLOAD DUP2 LT ISZERO PUSH2 0x7CF JUMPI PUSH2 0x7CA SWAP1 DUP4 DUP9 MSTORE DUP5 DUP7 MSTORE DUP9 DUP9 KECCAK256 PUSH2 0x7B5 DUP3 DUP10 PUSH2 0xA9C JUMP JUMPDEST MLOAD DUP10 MSTORE DUP7 MSTORE DUP9 DUP9 KECCAK256 DUP1 SLOAD PUSH1 0xFF NOT AND SWAP1 SSTORE PUSH2 0x99B JUMP JUMPDEST PUSH2 0x795 JUMP JUMPDEST POP DUP8 DUP10 DUP9 SWAP6 DUP9 SWAP6 DUP6 DUP8 MSTORE DUP3 DUP3 MSTORE PUSH2 0x7E7 DUP9 DUP9 KECCAK256 PUSH2 0xAB0 JUMP JUMPDEST DUP7 JUMPDEST DUP6 DUP2 LT PUSH2 0x823 JUMPI DUP8 DUP8 PUSH32 0xEC753CFC52044F61676F18A11E500093A9F2B1CD5E4942BC476F2B0438159BCF DUP9 DUP9 PUSH2 0x57B DUP15 MLOAD SWAP3 DUP4 SWAP3 DUP4 PUSH2 0xA0F JUMP JUMPDEST PUSH2 0x86A SWAP1 DUP8 DUP10 MSTORE DUP5 DUP5 MSTORE PUSH2 0x83E DUP11 DUP11 KECCAK256 PUSH2 0x59D DUP4 DUP11 DUP11 PUSH2 0x9C0 JUMP JUMPDEST DUP8 DUP10 MSTORE DUP3 DUP5 MSTORE DUP10 DUP10 KECCAK256 PUSH2 0x852 DUP3 DUP10 DUP10 PUSH2 0x9C0 JUMP JUMPDEST CALLDATALOAD DUP11 MSTORE DUP5 MSTORE DUP10 DUP10 KECCAK256 DUP1 SLOAD PUSH1 0xFF NOT AND PUSH1 0x1 OR SWAP1 SSTORE PUSH2 0x99B JUMP JUMPDEST PUSH2 0x7E9 JUMP JUMPDEST DUP6 SLOAD DUP5 MSTORE PUSH1 0x1 SWAP6 DUP7 ADD SWAP6 DUP12 SWAP6 POP SWAP4 ADD SWAP3 ADD PUSH2 0x77C JUMP JUMPDEST PUSH1 0x4 CALLDATALOAD SWAP1 PUSH1 0x1 PUSH1 0x1 PUSH1 0xA0 SHL SUB DUP3 AND DUP3 SUB PUSH2 0x89B JUMPI JUMP JUMPDEST PUSH1 0x0 DUP1 REVERT JUMPDEST PUSH1 0x40 PUSH1 0x3 NOT DUP3 ADD SLT PUSH2 0x89B JUMPI PUSH1 0x4 CALLDATALOAD PUSH1 0x1 PUSH1 0x1 PUSH1 0xA0 SHL SUB DUP2 AND DUP2 SUB PUSH2 0x89B JUMPI SWAP2 PUSH1 0x1 PUSH1 0x1 PUSH1 0x40 SHL SUB SWAP2 PUSH1 0x24 CALLDATALOAD SWAP1 DUP4 DUP3 GT PUSH2 0x89B JUMPI DUP1 PUSH1 0x23 DUP4 ADD SLT ISZERO PUSH2 0x89B JUMPI DUP2 PUSH1 0x4 ADD CALLDATALOAD SWAP4 DUP5 GT PUSH2 0x89B JUMPI PUSH1 0x24 DUP5 PUSH1 0x5 SHL DUP4 ADD ADD GT PUSH2 0x89B JUMPI PUSH1 0x24 ADD SWAP2 SWAP1 JUMP JUMPDEST PUSH1 0x0 SLOAD PUSH1 0x1 PUSH1 0x1 PUSH1 0xA0 SHL SUB AND CALLER SUB PUSH2 0x914 JUMPI JUMP JUMPDEST PUSH1 0x40 MLOAD PUSH4 0x118CDAA7 PUSH1 0xE0 SHL DUP2 MSTORE CALLER PUSH1 0x4 DUP3 ADD MSTORE PUSH1 0x24 SWAP1 REVERT JUMPDEST ISZERO PUSH2 0x933 JUMPI JUMP JUMPDEST PUSH1 0x40 MLOAD PUSH3 0x461BCD PUSH1 0xE5 SHL DUP2 MSTORE PUSH1 0x20 PUSH1 0x4 DUP3 ADD MSTORE PUSH1 0xF PUSH1 0x24 DUP3 ADD MSTORE PUSH15 0x4E4F5F434C41494D5F544F50494353 PUSH1 0x88 SHL PUSH1 0x44 DUP3 ADD MSTORE PUSH1 0x64 SWAP1 REVERT JUMPDEST PUSH1 0x1 SLOAD DUP2 LT ISZERO PUSH2 0x985 JUMPI PUSH1 0x1 PUSH1 0x0 MSTORE PUSH1 0x20 PUSH1 0x0 KECCAK256 ADD SWAP1 PUSH1 0x0 SWAP1 JUMP JUMPDEST PUSH4 0x4E487B71 PUSH1 0xE0 SHL PUSH1 0x0 MSTORE PUSH1 0x32 PUSH1 0x4 MSTORE PUSH1 0x24 PUSH1 0x0 REVERT JUMPDEST PUSH1 0x0 NOT DUP2 EQ PUSH2 0x9AA JUMPI PUSH1 0x1 ADD SWAP1 JUMP JUMPDEST PUSH4 0x4E487B71 PUSH1 0xE0 SHL PUSH1 0x0 MSTORE PUSH1 0x11 PUSH1 0x4 MSTORE PUSH1 0x24 PUSH1 0x0 REVERT JUMPDEST SWAP2 SWAP1 DUP2 LT ISZERO PUSH2 0x985 JUMPI PUSH1 0x5 SHL ADD SWAP1 JUMP JUMPDEST DUP1 SLOAD SWAP1 PUSH1 0x1 PUSH1 0x40 SHL DUP3 LT ISZERO PUSH2 0x9F9 JUMPI PUSH1 0x1 DUP3 ADD DUP1 DUP3 SSTORE DUP3 LT ISZERO PUSH2 0x985 JUMPI PUSH1 0x0 MSTORE PUSH1 0x20 PUSH1 0x0 KECCAK256 ADD SSTORE JUMP JUMPDEST PUSH4 0x4E487B71 PUSH1 0xE0 SHL PUSH1 0x0 MSTORE PUSH1 0x41 PUSH1 0x4 MSTORE PUSH1 0x24 PUSH1 0x0 REVERT JUMPDEST PUSH1 0x20 DUP1 DUP3 MSTORE DUP2 ADD DUP4 SWAP1 MSTORE PUSH1 0x1 PUSH1 0x1 PUSH1 0xFB SHL SUB DUP4 GT PUSH2 0x89B JUMPI PUSH1 0x40 SWAP3 PUSH1 0x5 SHL DUP1 SWAP3 DUP5 DUP4 ADD CALLDATACOPY ADD ADD SWAP1 JUMP JUMPDEST ISZERO PUSH2 0xA3F JUMPI JUMP JUMPDEST PUSH1 0x40 MLOAD PUSH3 0x461BCD PUSH1 0xE5 SHL DUP2 MSTORE PUSH1 0x20 PUSH1 0x4 DUP3 ADD MSTORE PUSH1 0x12 PUSH1 0x24 DUP3 ADD MSTORE PUSH18 0x1254D4D5515497D393D517D5149554D51151 PUSH1 0x72 SHL PUSH1 0x44 DUP3 ADD MSTORE PUSH1 0x64 SWAP1 REVERT JUMPDEST PUSH1 0x1F SWAP1 SWAP2 ADD PUSH1 0x1F NOT AND DUP2 ADD SWAP1 PUSH1 0x1 PUSH1 0x1 PUSH1 0x40 SHL SUB DUP3 GT SWAP1 DUP3 LT OR PUSH2 0x9F9 JUMPI PUSH1 0x40 MSTORE JUMP JUMPDEST DUP1 MLOAD DUP3 LT ISZERO PUSH2 0x985 JUMPI PUSH1 0x20 SWAP2 PUSH1 0x5 SHL ADD ADD SWAP1 JUMP JUMPDEST DUP1 SLOAD SWAP1 PUSH1 0x0 SWAP1 DUP2 DUP2 SSTORE DUP3 PUSH2 0xAC3 JUMPI POP POP POP JUMP JUMPDEST DUP2 MSTORE PUSH1 0x20 DUP2 KECCAK256 SWAP2 DUP3 ADD SWAP2 JUMPDEST DUP3 DUP2 LT PUSH2 0xADA JUMPI POP POP POP JUMP JUMPDEST DUP2 DUP2 SSTORE PUSH1 0x1 ADD PUSH2 0xACE JUMP INVALID DUP12 0xE0 SMOD SWAP13 MSTORE8 AND MSIZE EQ SGT PREVRANDAO 0xCD 0x1F 0xD0 LOG4 CALLCODE DUP5 NOT 0x49 PUSH32 0x9722A3DAAFE3B4186F6B6457E0A264697066735822122005F5C92C3C36D35A5A 0x4E PUSH7 0xC03F3CF4AA5A PUSH4 0x92A0BDCA 0x28 0xDE PUSH6 0x5B84B85A6578 PUSH5 0x736F6C6343 STOP ADDMOD EQ STOP CALLER "},"methodIdentifiers":{"addTrustedIssuer(address,uint256[])":"9f63ea98","getTrustedIssuerClaimTopics(address)":"c28fb278","getTrustedIssuers()":"d9dd24c5","hasClaimTopic(address,uint256)":"34a89987","isTrustedIssuer(address)":"ef2ed1a4","owner()":"8da5cb5b","removeTrustedIssuer(address)":"b93d28eb","renounceOwnership()":"715018a6","transferOwnership(address)":"f2fde38b","updateIssuerClaimTopics(address,uint256[])":"04bc7e84"}}}}}