{
  "_format": "hh-sol-artifact-1",
  "contractName": "ClaimTopicsRegistry",
  "sourceName": "contracts/erc3643/ClaimTopicsRegistry.sol",
  "abi": [
    {
      "inputs": [],
      "stateMutability": "nonpayable",
      "type": "constructor"
    },
    {
      "inputs": [
        {
          "internalType": "address",
          "name": "owner",
          "type": "address"
        }
      ],
      "name": "OwnableInvalidOwner",
      "type": "error"
    },
    {
      "inputs": [
        {
          "internalType": "address",
          "name": "account",
          "type": "address"
        }
      ],
      "name": "OwnableUnauthorizedAccount",
      "type": "error"
    },
    {
      "anonymous": false,
      "inputs": [
        {
          "indexed": true,
          "internalType": "uint256",
          "name": "claimTopic",
          "type": "uint256"
        }
      ],
      "name": "ClaimTopicAdded",
      "type": "event"
    },
    {
      "anonymous": false,
      "inputs": [
        {
          "indexed": true,
          "internalType": "uint256",
          "name": "claimTopic",
          "type": "uint256"
        }
      ],
      "name": "ClaimTopicRemoved",
      "type": "event"
    },
    {
      "anonymous": false,
      "inputs": [
        {
          "indexed": true,
          "internalType": "address",
          "name": "previousOwner",
          "type": "address"
        },
        {
          "indexed": true,
          "internalType": "address",
          "name": "newOwner",
          "type": "address"
        }
      ],
      "name": "OwnershipTransferred",
      "type": "event"
    },
    {
      "inputs": [],
      "name": "CLAIM_TOPIC_ACCREDITATION",
      "outputs": [
        {
          "internalType": "uint256",
          "name": "",
          "type": "uint256"
        }
      ],
      "stateMutability": "view",
      "type": "function"
    },
    {
      "inputs": [],
      "name": "CLAIM_TOPIC_AML",
      "outputs": [
        {
          "internalType": "uint256",
          "name": "",
          "type": "uint256"
        }
      ],
      "stateMutability": "view",
      "type": "function"
    },
    {
      "inputs": [],
      "name": "CLAIM_TOPIC_JURISDICTION",
      "outputs": [
        {
          "internalType": "uint256",
          "name": "",
          "type": "uint256"
        }
      ],
      "stateMutability": "view",
      "type": "function"
    },
    {
      "inputs": [],
      "name": "CLAIM_TOPIC_KYC",
      "outputs": [
        {
          "internalType": "uint256",
          "name": "",
          "type": "uint256"
        }
      ],
      "stateMutability": "view",
      "type": "function"
    },
    {
      "inputs": [],
      "name": "CLAIM_TOPIC_QUALIFIED_INVESTOR",
      "outputs": [
        {
          "internalType": "uint256",
          "name": "",
          "type": "uint256"
        }
      ],
      "stateMutability": "view",
      "type": "function"
    },
    {
      "inputs": [
        {
          "internalType": "uint256",
          "name": "claimTopic",
          "type": "uint256"
        }
      ],
      "name": "addClaimTopic",
      "outputs": [],
      "stateMutability": "nonpayable",
      "type": "function"
    },
    {
      "inputs": [],
      "name": "getClaimTopics",
      "outputs": [
        {
          "internalType": "uint256[]",
          "name": "",
          "type": "uint256[]"
        }
      ],
      "stateMutability": "view",
      "type": "function"
    },
    {
      "inputs": [
        {
          "internalType": "uint256",
          "name": "claimTopic",
          "type": "uint256"
        }
      ],
      "name": "isClaimTopicRequired",
      "outputs": [
        {
          "internalType": "bool",
          "name": "",
          "type": "bool"
        }
      ],
      "stateMutability": "view",
      "type": "function"
    },
    {
      "inputs": [],
      "name": "owner",
      "outputs": [
        {
          "internalType": "address",
          "name": "",
          "type": "address"
        }
      ],
      "stateMutability": "view",
      "type": "function"
    },
    {
      "inputs": [
        {
          "internalType": "uint256",
          "name": "claimTopic",
          "type": "uint256"
        }
      ],
      "name": "removeClaimTopic",
      "outputs": [],
      "stateMutability": "nonpayable",
      "type": "function"
    },
    {
      "inputs": [],
      "name": "renounceOwnership",
      "outputs": [],
      "stateMutability": "nonpayable",
      "type": "function"
    },
    {
      "inputs": [
        {
          "internalType": "address",
          "name": "newOwner",
          "type": "address"
        }
      ],
      "name": "transferOwnership",
      "outputs": [],
      "stateMutability": "nonpayable",
      "type": "function"
    }
  ],
  "bytecode": "0x60806040908082523461020f5733156101f9575060008054336001600160a01b0319821681178355906001600160a01b03167f8be0079c531659141344cd1fd0a4f28419497f9722a3daafe3b4186f6b6457e08380a36001808252600291602083815260ff85832054166101b6578254926801000000000000000093848110156101a25781810180835581101561018e57819081855283852001558482528583209160ff199282848254161790557f01c928b7f7ade2949e92366aa9454dbef3a416b731cf6ec786ba9595bbd814d69482868680a286855260ff888620541661014a578254908110156101365782810180845581101561012257908680928487528287200155818552528583209182541617905580a25161062c90816102158239f35b634e487b7160e01b85526032600452602485fd5b634e487b7160e01b85526041600452602485fd5b875162461bcd60e51b815260048101839052601460248201527f544f5049435f414c52454144595f4558495354530000000000000000000000006044820152606490fd5b634e487b7160e01b84526032600452602484fd5b634e487b7160e01b84526041600452602484fd5b60649085519062461bcd60e51b82526004820152601460248201527f544f5049435f414c52454144595f4558495354530000000000000000000000006044820152fd5b631e4fbdf760e01b815260006004820152602490fd5b600080fdfe60406080815260048036101561001457600080fd5b600091823560e01c806308297846146104035780635cf0c3f2146103e757806360d37cdb146103cc578063715018a61461038157806373778b2f146103655780637af695b0146103495780638da5cb5b14610321578063a14010b714610301578063be36359f146102d4578063c7b22551146101de578063df09d604146101225763f2fde38b146100a457600080fd5b3461011e57602036600319011261011e576001600160a01b0382358181169391929084900361011a576100d5610579565b831561010457505082546001600160a01b0319811683178455166000805160206105d78339815191528380a380f35b51631e4fbdf760e01b8152908101849052602490fd5b8480fd5b8280fd5b503461011e578260031936011261011e578051806001948554938483526020808094018096898552828520908a865b8281106101c95750505050859003601f01601f191685019690506001600160401b038711858810176101b6575092869284878096528186019282875251809352850195925b8281106101a35785870386f35b8351875295810195928101928401610196565b634e487b7160e01b835260419052602482fd5b83548552889590940193928101928101610151565b503461011e57602036600319011261011e578135916101fb610579565b828452600260205260ff828520541661029b5760015490600160401b82101561028857508261023382600161024c94016001556105a5565b90919082549060031b91821b91600019901b1916179055565b81835260026020528220805460ff191660011790557f01c928b7f7ade2949e92366aa9454dbef3a416b731cf6ec786ba9595bbd814d68280a280f35b634e487b7160e01b855260419052602484fd5b6020606492519162461bcd60e51b83528201526014602482015273544f5049435f414c52454144595f45584953545360601b6044820152fd5b50903461011e57602036600319011261011e578160209360ff923581526002855220541690519015158152f35b83823461031d578160031936011261031d576020905160058152f35b5080fd5b83823461031d578160031936011261031d57905490516001600160a01b039091168152602090f35b83823461031d578160031936011261031d576020905160028152f35b83823461031d578160031936011261031d576020905160018152f35b83346103c957806003193601126103c95761039a610579565b80546001600160a01b03198116825581906001600160a01b03166000805160206105d78339815191528280a380f35b80fd5b503461011e578260031936011261011e576020925051908152f35b83823461031d578160031936011261031d576020905160038152f35b5091903461031d57602036600319011261031d578035610421610579565b808352600260205260ff84842054161561054357825b60018054808310156105375790839161044f846105a5565b939054600394851b1c1461048457505050600019811461047157600101610437565b634e487b7160e01b845260118352602484fd5b919395969490926000199283810190811161052457906102336104a96104b5936105a5565b905490881b1c916105a5565b825490811561051157508101926104cb846105a5565b81939154921b1b19169055555b81835260026020528220805460ff191690557f0b1381093c776453c1bbe54fd68be1b235c65db61d099cb50d194b2991e0eec58280a280f35b634e487b7160e01b885260319052602487fd5b634e487b7160e01b895260118352602489fd5b505050919290506104d8565b835162461bcd60e51b8152602081840152601060248201526f544f5049435f4e4f545f45584953545360801b6044820152606490fd5b6000546001600160a01b0316330361058d57565b60405163118cdaa760e01b8152336004820152602490fd5b6001548110156105c057600160005260206000200190600090565b634e487b7160e01b600052603260045260246000fdfe8be0079c531659141344cd1fd0a4f28419497f9722a3daafe3b4186f6b6457e0a2646970667358221220eb1a0d2b475c5f3466b14a9d9df57bcec2e18037e041fdf2879e7b898e533bac64736f6c63430008140033",
  "linkReferences": {},
  "deployedLinkReferences": {}
}