{
  "_format": "hh-sol-artifact-1",
  "contractName": "IdentityRegistryStorage",
  "sourceName": "contracts/erc3643/IdentityRegistry.sol",
  "abi": [
    {
      "inputs": [],
      "stateMutability": "nonpayable",
      "type": "constructor"
    },
    {
      "inputs": [
        {
          "internalType": "address",
          "name": "owner",
          "type": "address"
        }
      ],
      "name": "OwnableInvalidOwner",
      "type": "error"
    },
    {
      "inputs": [
        {
          "internalType": "address",
          "name": "account",
          "type": "address"
        }
      ],
      "name": "OwnableUnauthorizedAccount",
      "type": "error"
    },
    {
      "anonymous": false,
      "inputs": [
        {
          "indexed": true,
          "internalType": "address",
          "name": "agent",
          "type": "address"
        }
      ],
      "name": "AgentAdded",
      "type": "event"
    },
    {
      "anonymous": false,
      "inputs": [
        {
          "indexed": true,
          "internalType": "address",
          "name": "agent",
          "type": "address"
        }
      ],
      "name": "AgentRemoved",
      "type": "event"
    },
    {
      "anonymous": false,
      "inputs": [
        {
          "indexed": true,
          "internalType": "address",
          "name": "previousOwner",
          "type": "address"
        },
        {
          "indexed": true,
          "internalType": "address",
          "name": "newOwner",
          "type": "address"
        }
      ],
      "name": "OwnershipTransferred",
      "type": "event"
    },
    {
      "inputs": [
        {
          "internalType": "address",
          "name": "agent",
          "type": "address"
        }
      ],
      "name": "addAgent",
      "outputs": [],
      "stateMutability": "nonpayable",
      "type": "function"
    },
    {
      "inputs": [
        {
          "internalType": "address",
          "name": "userAddress",
          "type": "address"
        },
        {
          "internalType": "address",
          "name": "identity",
          "type": "address"
        },
        {
          "internalType": "uint16",
          "name": "country",
          "type": "uint16"
        }
      ],
      "name": "addIdentityToStorage",
      "outputs": [],
      "stateMutability": "nonpayable",
      "type": "function"
    },
    {
      "inputs": [
        {
          "internalType": "address",
          "name": "userAddress",
          "type": "address"
        }
      ],
      "name": "contains",
      "outputs": [
        {
          "internalType": "bool",
          "name": "",
          "type": "bool"
        }
      ],
      "stateMutability": "view",
      "type": "function"
    },
    {
      "inputs": [],
      "name": "getRegisteredAddresses",
      "outputs": [
        {
          "internalType": "address[]",
          "name": "",
          "type": "address[]"
        }
      ],
      "stateMutability": "view",
      "type": "function"
    },
    {
      "inputs": [
        {
          "internalType": "address",
          "name": "agent",
          "type": "address"
        }
      ],
      "name": "isAgent",
      "outputs": [
        {
          "internalType": "bool",
          "name": "",
          "type": "bool"
        }
      ],
      "stateMutability": "view",
      "type": "function"
    },
    {
      "inputs": [
        {
          "internalType": "address",
          "name": "userAddress",
          "type": "address"
        },
        {
          "internalType": "uint16",
          "name": "country",
          "type": "uint16"
        }
      ],
      "name": "modifyStoredCountry",
      "outputs": [],
      "stateMutability": "nonpayable",
      "type": "function"
    },
    {
      "inputs": [
        {
          "internalType": "address",
          "name": "userAddress",
          "type": "address"
        },
        {
          "internalType": "address",
          "name": "identity",
          "type": "address"
        }
      ],
      "name": "modifyStoredIdentity",
      "outputs": [],
      "stateMutability": "nonpayable",
      "type": "function"
    },
    {
      "inputs": [],
      "name": "owner",
      "outputs": [
        {
          "internalType": "address",
          "name": "",
          "type": "address"
        }
      ],
      "stateMutability": "view",
      "type": "function"
    },
    {
      "inputs": [
        {
          "internalType": "address",
          "name": "agent",
          "type": "address"
        }
      ],
      "name": "removeAgent",
      "outputs": [],
      "stateMutability": "nonpayable",
      "type": "function"
    },
    {
      "inputs": [
        {
          "internalType": "address",
          "name": "userAddress",
          "type": "address"
        }
      ],
      "name": "removeIdentityFromStorage",
      "outputs": [],
      "stateMutability": "nonpayable",
      "type": "function"
    },
    {
      "inputs": [],
      "name": "renounceOwnership",
      "outputs": [],
      "stateMutability": "nonpayable",
      "type": "function"
    },
    {
      "inputs": [
        {
          "internalType": "address",
          "name": "userAddress",
          "type": "address"
        }
      ],
      "name": "storedCountry",
      "outputs": [
        {
          "internalType": "uint16",
          "name": "",
          "type": "uint16"
        }
      ],
      "stateMutability": "view",
      "type": "function"
    },
    {
      "inputs": [
        {
          "internalType": "address",
          "name": "userAddress",
          "type": "address"
        }
      ],
      "name": "storedIdentity",
      "outputs": [
        {
          "internalType": "address",
          "name": "",
          "type": "address"
        }
      ],
      "stateMutability": "view",
      "type": "function"
    },
    {
      "inputs": [
        {
          "internalType": "address",
          "name": "newOwner",
          "type": "address"
        }
      ],
      "name": "transferOwnership",
      "outputs": [],
      "stateMutability": "nonpayable",
      "type": "function"
    }
  ],
  "bytecode": "0x6080806040523461007a5733156100645760008054336001600160a01b03198216811783556040519290916001600160a01b0316907f8be0079c531659141344cd1fd0a4f28419497f9722a3daafe3b4186f6b6457e09080a36109f890816100808239f35b631e4fbdf760e01b815260006004820152602490fd5b600080fdfe6080604081815260048036101561001557600080fd5b600092833560e01c9081631ffbb0641461085f57508063227ef0611461078e5780632c0a5ca4146107515780635dbe47e814610715578063715018a6146106ca5780637988d3a51461068f5780638037955a146105f557806384e79842146105535780638da5cb5b1461052b57806397a6278e146104c1578063a53410dd14610386578063cf191bcd146101cd578063e805cf86146101345763f2fde38b146100bd57600080fd5b34610130576020366003190112610130576100d661089a565b906100df6108cb565b6001600160a01b0391821692831561011a57505082546001600160a01b0319811683178455166000805160206109a38339815191528380a380f35b51631e4fbdf760e01b8152908101849052602490fd5b8280fd5b50903461013057806003193601126101305761014e61089a565b906101576108b5565b92338552600560205260ff828620541680156101ba575b610177906108f7565b6001600160a01b039283168086526020919091528185205461019b9060ff16610965565b84526001602052832080546001600160a01b0319169190921617905580f35b5084546001600160a01b0316331461016e565b50903461013057602090816003193601126103825782906101ec61089a565b903386526005845260ff8187205416801561036f575b61020e909695966108f7565b6001600160a01b03918216808652838552818620549091906102329060ff16610965565b818652600180865281872080546001600160a01b031916905560028652818720805461ffff1916905596909452928420805460ff19169055929384939092835b61027a578480f35b60038054808810156103695782846102918a610934565b905490851b1c16146102c557505060001986146102b2579483019483610272565b634e487b7160e01b855260118352602485fd5b93929596915093506000199283810190811161035657906102f9866102ec61031894610934565b905490881b1c1691610934565b90919082549060031b9160018060a01b03809116831b921b1916179055565b82549081156103435750019161032d83610934565b9091825491841b1b191690555580388080808480f35b634e487b7160e01b865260319052602485fd5b634e487b7160e01b875260118352602487fd5b50508480f35b5085546001600160a01b03163314610202565b8380fd5b5034610130576060366003190112610130576103a061089a565b6103a86108b5565b6044359161ffff83168093036104bd573386526020926005845260ff868820541680156104aa575b6103d9906108f7565b6001600160a01b03828116808952868652878920549094919060ff16610472578489526001865287892080546001600160a01b0319169190921617905560028452858720805461ffff19169091179055600354600160401b81101561045f57906102f982600161044c9401600355610934565b8452528120805460ff1916600117905580f35b634e487b7160e01b875260418552602487fd5b875162461bcd60e51b815280880187905260126024820152711053149150511657d49151d254d51154915160721b6044820152606490fd5b5086546001600160a01b031633146103d0565b8580fd5b505034610527576020366003190112610527576104dc61089a565b6104e46108cb565b6001600160a01b03168083526005602052908220805460ff191690557fed9c8ad8d5a0a66898ea49d2956929c93ae2e8bd50281b2ed897c5d1a6737e0b8280a280f35b5080fd5b505034610527578160031936011261052757905490516001600160a01b039091168152602090f35b5090346101305760203660031901126101305761056e61089a565b6105766108cb565b6001600160a01b03169182156105c3575081835260056020528220805460ff191660011790557ff68e73cec97f2d70aa641fb26e87a4383686e2efacb648f2165aeb02ac562ec58280a280f35b6020606492519162461bcd60e51b8352820152600d60248201526c1253959053125117d051d15395609a1b6044820152fd5b50903461013057806003193601126101305761060f61089a565b916024359261ffff841680940361068b57338552600560205260ff83862054168015610678575b61063f906108f7565b6001600160a01b0316808552602091909152818420546106619060ff16610965565b8352600260205282209061ffff1982541617905580f35b5084546001600160a01b03163314610636565b8480fd5b505034610527576020366003190112610527576020916001600160a01b03908290826106b961089a565b168152600185522054169051908152f35b83346107125780600319360112610712576106e36108cb565b80546001600160a01b03198116825581906001600160a01b03166000805160206109a38339815191528280a380f35b80fd5b50346101305760203660031901126101305760209260ff918391906001600160a01b0361074061089a565b168252855220541690519015158152f35b5050346105275760203660031901126105275760209161ffff9082906001600160a01b0361077d61089a565b168152600285522054169051908152f35b5091346107125780600319360112610712578151809160035493848352602080930180956003845284842090845b868282106108425750505050849003601f01601f19168401956001600160401b0387118588101761082f575085815282865292518583018190528594938501939290915b82811061080f57505050500390f35b83516001600160a01b031685528695509381019392810192600101610800565b634e487b7160e01b835260419052602482fd5b83546001600160a01b0316855290930192600192830192016107bc565b849084346101305760203660031901126101305760209260ff91906001600160a01b0361088a61089a565b1681526005855220541615158152f35b600435906001600160a01b03821682036108b057565b600080fd5b602435906001600160a01b03821682036108b057565b6000546001600160a01b031633036108df57565b60405163118cdaa760e01b8152336004820152602490fd5b156108fe57565b60405162461bcd60e51b815260206004820152600e60248201526d1393d517d055551213d49256915160921b6044820152606490fd5b60035481101561094f57600360005260206000200190600090565b634e487b7160e01b600052603260045260246000fd5b1561096c57565b60405162461bcd60e51b815260206004820152600e60248201526d1393d517d49151d254d51154915160921b6044820152606490fdfe8be0079c531659141344cd1fd0a4f28419497f9722a3daafe3b4186f6b6457e0a26469706673582212206bc6091820e2736a28dff12688db1af3388474378b3c5d98cb012172d373ff0964736f6c63430008140033",
  "linkReferences": {},
  "deployedLinkReferences": {}
}