{
  "_format": "hh-sol-artifact-1",
  "contractName": "IdentityRegistry",
  "sourceName": "contracts/erc3643/IdentityRegistry.sol",
  "abi": [
    {
      "inputs": [
        {
          "internalType": "address",
          "name": "claimTopicsRegistryAddr",
          "type": "address"
        },
        {
          "internalType": "address",
          "name": "trustedIssuersRegistryAddr",
          "type": "address"
        }
      ],
      "stateMutability": "nonpayable",
      "type": "constructor"
    },
    {
      "inputs": [
        {
          "internalType": "address",
          "name": "owner",
          "type": "address"
        }
      ],
      "name": "OwnableInvalidOwner",
      "type": "error"
    },
    {
      "inputs": [
        {
          "internalType": "address",
          "name": "account",
          "type": "address"
        }
      ],
      "name": "OwnableUnauthorizedAccount",
      "type": "error"
    },
    {
      "anonymous": false,
      "inputs": [
        {
          "indexed": true,
          "internalType": "address",
          "name": "claimTopicsRegistry",
          "type": "address"
        }
      ],
      "name": "ClaimTopicsRegistrySet",
      "type": "event"
    },
    {
      "anonymous": false,
      "inputs": [
        {
          "indexed": true,
          "internalType": "address",
          "name": "investorAddress",
          "type": "address"
        },
        {
          "indexed": true,
          "internalType": "uint16",
          "name": "country",
          "type": "uint16"
        }
      ],
      "name": "CountryUpdated",
      "type": "event"
    },
    {
      "anonymous": false,
      "inputs": [
        {
          "indexed": true,
          "internalType": "address",
          "name": "investorAddress",
          "type": "address"
        },
        {
          "indexed": true,
          "internalType": "address",
          "name": "identity",
          "type": "address"
        }
      ],
      "name": "IdentityRegistered",
      "type": "event"
    },
    {
      "anonymous": false,
      "inputs": [
        {
          "indexed": true,
          "internalType": "address",
          "name": "investorAddress",
          "type": "address"
        },
        {
          "indexed": true,
          "internalType": "address",
          "name": "identity",
          "type": "address"
        }
      ],
      "name": "IdentityRemoved",
      "type": "event"
    },
    {
      "anonymous": false,
      "inputs": [
        {
          "indexed": true,
          "internalType": "address",
          "name": "identityStorage",
          "type": "address"
        }
      ],
      "name": "IdentityStorageSet",
      "type": "event"
    },
    {
      "anonymous": false,
      "inputs": [
        {
          "indexed": true,
          "internalType": "address",
          "name": "oldIdentity",
          "type": "address"
        },
        {
          "indexed": true,
          "internalType": "address",
          "name": "newIdentity",
          "type": "address"
        }
      ],
      "name": "IdentityUpdated",
      "type": "event"
    },
    {
      "anonymous": false,
      "inputs": [
        {
          "indexed": true,
          "internalType": "address",
          "name": "previousOwner",
          "type": "address"
        },
        {
          "indexed": true,
          "internalType": "address",
          "name": "newOwner",
          "type": "address"
        }
      ],
      "name": "OwnershipTransferred",
      "type": "event"
    },
    {
      "anonymous": false,
      "inputs": [
        {
          "indexed": true,
          "internalType": "address",
          "name": "trustedIssuersRegistry",
          "type": "address"
        }
      ],
      "name": "TrustedIssuersRegistrySet",
      "type": "event"
    },
    {
      "inputs": [],
      "name": "SIGNATURE_SCHEME",
      "outputs": [
        {
          "internalType": "uint256",
          "name": "",
          "type": "uint256"
        }
      ],
      "stateMutability": "view",
      "type": "function"
    },
    {
      "inputs": [
        {
          "internalType": "address[]",
          "name": "userAddresses",
          "type": "address[]"
        },
        {
          "internalType": "address[]",
          "name": "identities",
          "type": "address[]"
        },
        {
          "internalType": "uint16[]",
          "name": "countries",
          "type": "uint16[]"
        }
      ],
      "name": "batchRegisterIdentity",
      "outputs": [],
      "stateMutability": "nonpayable",
      "type": "function"
    },
    {
      "inputs": [],
      "name": "claimTopicsRegistry",
      "outputs": [
        {
          "internalType": "address",
          "name": "",
          "type": "address"
        }
      ],
      "stateMutability": "view",
      "type": "function"
    },
    {
      "inputs": [
        {
          "internalType": "address",
          "name": "userAddress",
          "type": "address"
        }
      ],
      "name": "contains",
      "outputs": [
        {
          "internalType": "bool",
          "name": "",
          "type": "bool"
        }
      ],
      "stateMutability": "view",
      "type": "function"
    },
    {
      "inputs": [
        {
          "internalType": "address",
          "name": "userAddress",
          "type": "address"
        }
      ],
      "name": "deleteIdentity",
      "outputs": [],
      "stateMutability": "nonpayable",
      "type": "function"
    },
    {
      "inputs": [
        {
          "internalType": "address",
          "name": "userAddress",
          "type": "address"
        }
      ],
      "name": "identity",
      "outputs": [
        {
          "internalType": "address",
          "name": "",
          "type": "address"
        }
      ],
      "stateMutability": "view",
      "type": "function"
    },
    {
      "inputs": [],
      "name": "identityStorage",
      "outputs": [
        {
          "internalType": "address",
          "name": "",
          "type": "address"
        }
      ],
      "stateMutability": "view",
      "type": "function"
    },
    {
      "inputs": [
        {
          "internalType": "address",
          "name": "userAddress",
          "type": "address"
        }
      ],
      "name": "investorCountry",
      "outputs": [
        {
          "internalType": "uint16",
          "name": "",
          "type": "uint16"
        }
      ],
      "stateMutability": "view",
      "type": "function"
    },
    {
      "inputs": [
        {
          "internalType": "address",
          "name": "userAddress",
          "type": "address"
        }
      ],
      "name": "isVerified",
      "outputs": [
        {
          "internalType": "bool",
          "name": "",
          "type": "bool"
        }
      ],
      "stateMutability": "view",
      "type": "function"
    },
    {
      "inputs": [],
      "name": "owner",
      "outputs": [
        {
          "internalType": "address",
          "name": "",
          "type": "address"
        }
      ],
      "stateMutability": "view",
      "type": "function"
    },
    {
      "inputs": [
        {
          "internalType": "address",
          "name": "userAddress",
          "type": "address"
        },
        {
          "internalType": "address",
          "name": "identityAddr",
          "type": "address"
        },
        {
          "internalType": "uint16",
          "name": "country",
          "type": "uint16"
        }
      ],
      "name": "registerIdentity",
      "outputs": [],
      "stateMutability": "nonpayable",
      "type": "function"
    },
    {
      "inputs": [],
      "name": "renounceOwnership",
      "outputs": [],
      "stateMutability": "nonpayable",
      "type": "function"
    },
    {
      "inputs": [
        {
          "internalType": "address",
          "name": "newOwner",
          "type": "address"
        }
      ],
      "name": "transferOwnership",
      "outputs": [],
      "stateMutability": "nonpayable",
      "type": "function"
    },
    {
      "inputs": [],
      "name": "trustedIssuersRegistry",
      "outputs": [
        {
          "internalType": "address",
          "name": "",
          "type": "address"
        }
      ],
      "stateMutability": "view",
      "type": "function"
    },
    {
      "inputs": [
        {
          "internalType": "address",
          "name": "userAddress",
          "type": "address"
        },
        {
          "internalType": "uint16",
          "name": "country",
          "type": "uint16"
        }
      ],
      "name": "updateCountry",
      "outputs": [],
      "stateMutability": "nonpayable",
      "type": "function"
    },
    {
      "inputs": [
        {
          "internalType": "address",
          "name": "userAddress",
          "type": "address"
        },
        {
          "internalType": "address",
          "name": "identityAddr",
          "type": "address"
        }
      ],
      "name": "updateIdentity",
      "outputs": [],
      "stateMutability": "nonpayable",
      "type": "function"
    }
  ],
  "bytecode": "0x608034620002ee5762001b93906001600160401b0390600090601f38859003908101601f191682019084821183831017620002da5780839160409788948552833981010312620002d6576200006260206200005a83620002f3565b9201620002f3565b3315620002be578254336001600160a01b0319808316821786558751966001600160a01b039591949093909286929183167f8be0079c531659141344cd1fd0a4f28419497f9722a3daafe3b4186f6b6457e08980a3169586156200027c57508316918215620002385785816002541617600255828160035416176003558651610a78808201908282108583111762000224579082916200111b8339039086f080156200021657841680916001541617600155803b156200022057908480926024895180958193634273cc2160e11b83523060048401525af180156200021657620001cb575b50507f2fa8b95c1db7afe99e3398f3792f008135cedc1fa26b0bb2ecd2352cd166d53c92939451947f7170bf15b246e880b2369cd7c67d057760d8a35149e8c64dde91efa22bcc76d08580a27f1b98cb79e6f73020175fe87333f1b91ad6a881519c0afe30340c2599b2b4bde08480a2600154169180a2610e129081620003098239f35b8196949611620002025783529193917f2fa8b95c1db7afe99e3398f3792f008135cedc1fa26b0bb2ecd2352cd166d53c3862000147565b634e487b7160e01b86526041600452602486fd5b87513d87823e3d90fd5b8480fd5b634e487b7160e01b88526041600452602488fd5b865162461bcd60e51b815260206004820152601760248201527f494e56414c49445f545255535445445f495353554552530000000000000000006044820152606490fd5b62461bcd60e51b815260206004820152601460248201527f494e56414c49445f434c41494d5f544f504943530000000000000000000000006044820152606490fd5b8451631e4fbdf760e01b815260048101849052602490fd5b5080fd5b634e487b7160e01b84526041600452602484fd5b600080fd5b51906001600160a01b0382168203620002ee5756fe608060408181526004918236101561001657600080fd5b600092833560e01c9182630876132414610a00575081633b239a7f14610941578163454a03e0146108335781635dbe47e814610798578163639f78751461077c578163653dc9f1146105b0578163715018a6146105685781637e42683b146104b45781638da5cb5b1461048c5781638e098ca114610376578163a8d29d1d14610270578163b9209e3314610241578163f0eb5e54146101a4578163f11abfd81461017b578163f2fde38b14610100575063fb703a7b146100d557600080fd5b346100fc57816003193601126100fc5760035490516001600160a01b039091168152602090f35b5080fd5b9050346101775760203660031901126101775761011b610a25565b90610124610a81565b6001600160a01b039182169283156101615750506000548260018060a01b031982161760005516600080516020610d9d833981519152600080a380f35b51631e4fbdf760e01b8152908101849052602490fd5b8280fd5b5050346100fc57816003193601126100fc5760015490516001600160a01b039091168152602090f35b919050346101775760203660031901126101775760249060206101c5610a25565b6001548351637988d3a560e01b81526001600160a01b039283169681019690965290938591829086165afa9283156102375760209493610208575b505191168152f35b610229919350843d8111610230575b6102218183610b15565b810190610b5d565b9138610200565b503d610217565b81513d86823e3d90fd5b5050346100fc5760203660031901126100fc57602090610267610262610a25565b610b94565b90519015158152f35b919050346101775760203660031901126101775761028c610a25565b610294610a81565b8360018060a01b039283600154169084815194637988d3a560e01b865216958681860152602085602481865afa94851561036c57849561034c575b50823b1561033f578660248592838551968794859363cf191bcd60e01b85528401525af1908115610343575061032b575b505016907f59d6590e225b81befe259af056324092801080acbb7feab310eb34678871f3278380a380f35b61033490610aec565b61033f578338610300565b8380fd5b513d84823e3d90fd5b61036591955060203d8111610230576102218183610b15565b93386102cf565b82513d86823e3d90fd5b905034610177578160031936011261017757610390610a25565b83610399610a3b565b926103a2610a81565b6001600160a01b03938416946103b9861515610aad565b84600154169185825195637988d3a560e01b8752168082870152602086602481875afa958615610482578596610462575b50833b1561045e57604485928385519687948593637402e7c360e11b85528401528b60248401525af1908115610343575061044a575b5050167fe98082932c8056a0f514da9104e4a66bc2cbaef102ad59d90c4b24220ebf60108380a380f35b61045390610aec565b61033f578338610420565b8480fd5b61047b91965060203d8111610230576102218183610b15565b94386103ea565b83513d87823e3d90fd5b5050346100fc57816003193601126100fc57905490516001600160a01b039091168152602090f35b91905034610177576020928360031936011261055257836104d3610a25565b6001548451630b02972960e21b81526001600160a01b039283169681019690965285916024918391165afa92831561055c578193610519575b505061ffff905191168152f35b909192508381813d8311610555575b6105328183610b15565b810103126100fc57519061ffff8216820361055257509061ffff3861050c565b80fd5b503d610528565b509051903d90823e3d90fd5b8334610552578060031936011261055257610581610a81565b600080546001600160a01b0319811682556001600160a01b0316600080516020610d9d8339815191528280a380f35b91905034610177576060366003190112610177576001600160401b0391803583811161045e576105e39036908301610a51565b93906024948535838111610778576105fe9036908601610a51565b919093604435908111610774576106189036908701610a51565b9390610622610a81565b8383148061076b575b1561073757895b83811061063d578a80f35b6001546001600160a01b03908c9082168961066d610662868b61066783838e8e610d62565b610d88565b94610d62565b610678868c89610d62565b359261ffff8416840361045e57803b1561045e5784928f8f6106ae8692519788968795869463a53410dd60e01b86528501610b38565b03925af1801561072d57610715575b50506106cd610662838787610d62565b90806106dd610662858a8d610d62565b169116600080516020610dbd8339815191528d80a3600019811461070357600101610632565b634e487b7160e01b8b5260118852898bfd5b61071e90610aec565b610729578b386106bd565b8b80fd5b8c513d84823e3d90fd5b875162461bcd60e51b8152602081890152600f818b01526e0988a9c8ea890be9a92a69a82a8869608b1b6044820152606490fd5b5084831461062b565b8880fd5b8780fd5b5050346100fc57816003193601126100fc576020905160018152f35b919050346101775760203660031901126101775760206107b6610a25565b6001548351630bb7c8fd60e31b81526001600160a01b039283169581019590955284916024918391165afa91821561082957602093926107fa575b50519015158152f35b61081b919250833d8111610822575b6108138183610b15565b810190610b7c565b90386107f1565b503d610809565b81513d85823e3d90fd5b9050346101775760603660031901126101775761084e610a25565b90610857610a3b565b926044359161ffff8316830361093c5761086f610a81565b6001600160a01b03948486169485156109025790879493929187821697610897891515610aad565b6001541690813b156108fe578680946108c387519889968795869463a53410dd60e01b86528501610b38565b03925af190811561034357506108ea575b5080600080516020610dbd83398151915291a380f35b6108f390610aec565b6101775782386108d4565b8680fd5b835162461bcd60e51b81526020818501526014602482015273494e56414c49445f555345525f4144445245535360601b6044820152606490fd5b600080fd5b90503461017757816003193601126101775761095b610a25565b6024359261ffff841680940361045e57610973610a81565b6001546001600160a01b0390811692869190843b1561017757604490838551968794859363401bcaad60e11b85521680998401528960248401525af19081156109f757506109e4575b507f04ed3b726495c2dca1ff1215d9ca54e1a4030abb5e82b0f6ce55702416cee8538380a380f35b6109f090939193610aec565b91386109bc565b513d86823e3d90fd5b8490346100fc57816003193601126100fc576002546001600160a01b03168152602090f35b600435906001600160a01b038216820361093c57565b602435906001600160a01b038216820361093c57565b9181601f8401121561093c578235916001600160401b03831161093c576020808501948460051b01011161093c57565b6000546001600160a01b03163303610a9557565b60405163118cdaa760e01b8152336004820152602490fd5b15610ab457565b60405162461bcd60e51b815260206004820152601060248201526f494e56414c49445f4944454e5449545960801b6044820152606490fd5b6001600160401b038111610aff57604052565b634e487b7160e01b600052604160045260246000fd5b601f909101601f19168101906001600160401b03821190821017610aff57604052565b6001600160a01b0391821681529116602082015261ffff909116604082015260600190565b9081602091031261093c57516001600160a01b038116810361093c5790565b9081602091031261093c5751801515810361093c5790565b60015460408051630bb7c8fd60e31b81526001600160a01b0393841660048201819052919392602092908416918381602481865afa908115610d5757600091610d3a575b5015610d305782906024865180948193637988d3a560e01b835260048301525afa908115610d2557908391600091610d08575b501615610d00576000600492600254168451938480926337c2758160e21b82525afa928315610cf657600093610c50575b50505051158015610c4a5790565b50600190565b929091923d8083863e610c638186610b15565b84019183858403126105525784516001600160401b039586821161017757019083601f83011215610552578151958611610ce2578560051b925195610caa86850188610b15565b8652848087019383010193841161055257508301905b828210610cd35750505050388080610c3c565b81518152908301908301610cc0565b634e487b7160e01b81526041600452602490fd5b513d6000823e3d90fd5b505050600090565b610d1f9150833d8511610230576102218183610b15565b38610c0b565b84513d6000823e3d90fd5b5050505050600090565b610d519150843d8611610822576108138183610b15565b38610bd8565b86513d6000823e3d90fd5b9190811015610d725760051b0190565b634e487b7160e01b600052603260045260246000fd5b356001600160a01b038116810361093c579056fe8be0079c531659141344cd1fd0a4f28419497f9722a3daafe3b4186f6b6457e06ae73635c50d24a45af6fbd5e016ac4bed179addbc8bf24e04ff0fcc6d33af19a2646970667358221220e82c03f65a6708a7739fba00c7796876762b39e1ee40a6c890c81bd90c5cfe4364736f6c634300081400336080806040523461007a5733156100645760008054336001600160a01b03198216811783556040519290916001600160a01b0316907f8be0079c531659141344cd1fd0a4f28419497f9722a3daafe3b4186f6b6457e09080a36109f890816100808239f35b631e4fbdf760e01b815260006004820152602490fd5b600080fdfe6080604081815260048036101561001557600080fd5b600092833560e01c9081631ffbb0641461085f57508063227ef0611461078e5780632c0a5ca4146107515780635dbe47e814610715578063715018a6146106ca5780637988d3a51461068f5780638037955a146105f557806384e79842146105535780638da5cb5b1461052b57806397a6278e146104c1578063a53410dd14610386578063cf191bcd146101cd578063e805cf86146101345763f2fde38b146100bd57600080fd5b34610130576020366003190112610130576100d661089a565b906100df6108cb565b6001600160a01b0391821692831561011a57505082546001600160a01b0319811683178455166000805160206109a38339815191528380a380f35b51631e4fbdf760e01b8152908101849052602490fd5b8280fd5b50903461013057806003193601126101305761014e61089a565b906101576108b5565b92338552600560205260ff828620541680156101ba575b610177906108f7565b6001600160a01b039283168086526020919091528185205461019b9060ff16610965565b84526001602052832080546001600160a01b0319169190921617905580f35b5084546001600160a01b0316331461016e565b50903461013057602090816003193601126103825782906101ec61089a565b903386526005845260ff8187205416801561036f575b61020e909695966108f7565b6001600160a01b03918216808652838552818620549091906102329060ff16610965565b818652600180865281872080546001600160a01b031916905560028652818720805461ffff1916905596909452928420805460ff19169055929384939092835b61027a578480f35b60038054808810156103695782846102918a610934565b905490851b1c16146102c557505060001986146102b2579483019483610272565b634e487b7160e01b855260118352602485fd5b93929596915093506000199283810190811161035657906102f9866102ec61031894610934565b905490881b1c1691610934565b90919082549060031b9160018060a01b03809116831b921b1916179055565b82549081156103435750019161032d83610934565b9091825491841b1b191690555580388080808480f35b634e487b7160e01b865260319052602485fd5b634e487b7160e01b875260118352602487fd5b50508480f35b5085546001600160a01b03163314610202565b8380fd5b5034610130576060366003190112610130576103a061089a565b6103a86108b5565b6044359161ffff83168093036104bd573386526020926005845260ff868820541680156104aa575b6103d9906108f7565b6001600160a01b03828116808952868652878920549094919060ff16610472578489526001865287892080546001600160a01b0319169190921617905560028452858720805461ffff19169091179055600354600160401b81101561045f57906102f982600161044c9401600355610934565b8452528120805460ff1916600117905580f35b634e487b7160e01b875260418552602487fd5b875162461bcd60e51b815280880187905260126024820152711053149150511657d49151d254d51154915160721b6044820152606490fd5b5086546001600160a01b031633146103d0565b8580fd5b505034610527576020366003190112610527576104dc61089a565b6104e46108cb565b6001600160a01b03168083526005602052908220805460ff191690557fed9c8ad8d5a0a66898ea49d2956929c93ae2e8bd50281b2ed897c5d1a6737e0b8280a280f35b5080fd5b505034610527578160031936011261052757905490516001600160a01b039091168152602090f35b5090346101305760203660031901126101305761056e61089a565b6105766108cb565b6001600160a01b03169182156105c3575081835260056020528220805460ff191660011790557ff68e73cec97f2d70aa641fb26e87a4383686e2efacb648f2165aeb02ac562ec58280a280f35b6020606492519162461bcd60e51b8352820152600d60248201526c1253959053125117d051d15395609a1b6044820152fd5b50903461013057806003193601126101305761060f61089a565b916024359261ffff841680940361068b57338552600560205260ff83862054168015610678575b61063f906108f7565b6001600160a01b0316808552602091909152818420546106619060ff16610965565b8352600260205282209061ffff1982541617905580f35b5084546001600160a01b03163314610636565b8480fd5b505034610527576020366003190112610527576020916001600160a01b03908290826106b961089a565b168152600185522054169051908152f35b83346107125780600319360112610712576106e36108cb565b80546001600160a01b03198116825581906001600160a01b03166000805160206109a38339815191528280a380f35b80fd5b50346101305760203660031901126101305760209260ff918391906001600160a01b0361074061089a565b168252855220541690519015158152f35b5050346105275760203660031901126105275760209161ffff9082906001600160a01b0361077d61089a565b168152600285522054169051908152f35b5091346107125780600319360112610712578151809160035493848352602080930180956003845284842090845b868282106108425750505050849003601f01601f19168401956001600160401b0387118588101761082f575085815282865292518583018190528594938501939290915b82811061080f57505050500390f35b83516001600160a01b031685528695509381019392810192600101610800565b634e487b7160e01b835260419052602482fd5b83546001600160a01b0316855290930192600192830192016107bc565b849084346101305760203660031901126101305760209260ff91906001600160a01b0361088a61089a565b1681526005855220541615158152f35b600435906001600160a01b03821682036108b057565b600080fd5b602435906001600160a01b03821682036108b057565b6000546001600160a01b031633036108df57565b60405163118cdaa760e01b8152336004820152602490fd5b156108fe57565b60405162461bcd60e51b815260206004820152600e60248201526d1393d517d055551213d49256915160921b6044820152606490fd5b60035481101561094f57600360005260206000200190600090565b634e487b7160e01b600052603260045260246000fd5b1561096c57565b60405162461bcd60e51b815260206004820152600e60248201526d1393d517d49151d254d51154915160921b6044820152606490fdfe8be0079c531659141344cd1fd0a4f28419497f9722a3daafe3b4186f6b6457e0a26469706673582212206bc6091820e2736a28dff12688db1af3388474378b3c5d98cb012172d373ff0964736f6c63430008140033",
  "linkReferences": {},
  "deployedLinkReferences": {}
}