{
  "_format": "hh-sol-artifact-1",
  "contractName": "TrustedIssuersRegistry",
  "sourceName": "contracts/erc3643/TrustedIssuersRegistry.sol",
  "abi": [
    {
      "inputs": [],
      "stateMutability": "nonpayable",
      "type": "constructor"
    },
    {
      "inputs": [
        {
          "internalType": "address",
          "name": "owner",
          "type": "address"
        }
      ],
      "name": "OwnableInvalidOwner",
      "type": "error"
    },
    {
      "inputs": [
        {
          "internalType": "address",
          "name": "account",
          "type": "address"
        }
      ],
      "name": "OwnableUnauthorizedAccount",
      "type": "error"
    },
    {
      "anonymous": false,
      "inputs": [
        {
          "indexed": true,
          "internalType": "address",
          "name": "trustedIssuer",
          "type": "address"
        },
        {
          "indexed": false,
          "internalType": "uint256[]",
          "name": "claimTopics",
          "type": "uint256[]"
        }
      ],
      "name": "ClaimTopicsUpdated",
      "type": "event"
    },
    {
      "anonymous": false,
      "inputs": [
        {
          "indexed": true,
          "internalType": "address",
          "name": "previousOwner",
          "type": "address"
        },
        {
          "indexed": true,
          "internalType": "address",
          "name": "newOwner",
          "type": "address"
        }
      ],
      "name": "OwnershipTransferred",
      "type": "event"
    },
    {
      "anonymous": false,
      "inputs": [
        {
          "indexed": true,
          "internalType": "address",
          "name": "trustedIssuer",
          "type": "address"
        },
        {
          "indexed": false,
          "internalType": "uint256[]",
          "name": "claimTopics",
          "type": "uint256[]"
        }
      ],
      "name": "TrustedIssuerAdded",
      "type": "event"
    },
    {
      "anonymous": false,
      "inputs": [
        {
          "indexed": true,
          "internalType": "address",
          "name": "trustedIssuer",
          "type": "address"
        }
      ],
      "name": "TrustedIssuerRemoved",
      "type": "event"
    },
    {
      "inputs": [
        {
          "internalType": "address",
          "name": "trustedIssuer",
          "type": "address"
        },
        {
          "internalType": "uint256[]",
          "name": "claimTopics",
          "type": "uint256[]"
        }
      ],
      "name": "addTrustedIssuer",
      "outputs": [],
      "stateMutability": "nonpayable",
      "type": "function"
    },
    {
      "inputs": [
        {
          "internalType": "address",
          "name": "trustedIssuer",
          "type": "address"
        }
      ],
      "name": "getTrustedIssuerClaimTopics",
      "outputs": [
        {
          "internalType": "uint256[]",
          "name": "",
          "type": "uint256[]"
        }
      ],
      "stateMutability": "view",
      "type": "function"
    },
    {
      "inputs": [],
      "name": "getTrustedIssuers",
      "outputs": [
        {
          "internalType": "address[]",
          "name": "",
          "type": "address[]"
        }
      ],
      "stateMutability": "view",
      "type": "function"
    },
    {
      "inputs": [
        {
          "internalType": "address",
          "name": "issuer",
          "type": "address"
        },
        {
          "internalType": "uint256",
          "name": "claimTopic",
          "type": "uint256"
        }
      ],
      "name": "hasClaimTopic",
      "outputs": [
        {
          "internalType": "bool",
          "name": "",
          "type": "bool"
        }
      ],
      "stateMutability": "view",
      "type": "function"
    },
    {
      "inputs": [
        {
          "internalType": "address",
          "name": "issuer",
          "type": "address"
        }
      ],
      "name": "isTrustedIssuer",
      "outputs": [
        {
          "internalType": "bool",
          "name": "",
          "type": "bool"
        }
      ],
      "stateMutability": "view",
      "type": "function"
    },
    {
      "inputs": [],
      "name": "owner",
      "outputs": [
        {
          "internalType": "address",
          "name": "",
          "type": "address"
        }
      ],
      "stateMutability": "view",
      "type": "function"
    },
    {
      "inputs": [
        {
          "internalType": "address",
          "name": "trustedIssuer",
          "type": "address"
        }
      ],
      "name": "removeTrustedIssuer",
      "outputs": [],
      "stateMutability": "nonpayable",
      "type": "function"
    },
    {
      "inputs": [],
      "name": "renounceOwnership",
      "outputs": [],
      "stateMutability": "nonpayable",
      "type": "function"
    },
    {
      "inputs": [
        {
          "internalType": "address",
          "name": "newOwner",
          "type": "address"
        }
      ],
      "name": "transferOwnership",
      "outputs": [],
      "stateMutability": "nonpayable",
      "type": "function"
    },
    {
      "inputs": [
        {
          "internalType": "address",
          "name": "trustedIssuer",
          "type": "address"
        },
        {
          "internalType": "uint256[]",
          "name": "claimTopics",
          "type": "uint256[]"
        }
      ],
      "name": "updateIssuerClaimTopics",
      "outputs": [],
      "stateMutability": "nonpayable",
      "type": "function"
    }
  ],
  "bytecode": "0x6080806040523461007a5733156100645760008054336001600160a01b03198216811783556040519290916001600160a01b0316907f8be0079c531659141344cd1fd0a4f28419497f9722a3daafe3b4186f6b6457e09080a3610b3b90816100808239f35b631e4fbdf760e01b815260006004820152602490fd5b600080fdfe6040608081526004908136101561001557600080fd5b600091823560e01c806304bc7e841461071057806334a89987146106cb578063715018a6146106835780638da5cb5b1461065b5780639f63ea98146104b8578063b93d28eb146102b3578063c28fb27814610203578063d9dd24c514610148578063ef2ed1a4146101065763f2fde38b1461008f57600080fd5b34610102576020366003190112610102576100a8610885565b906100b1610900565b6001600160a01b039182169283156100ec57505082546001600160a01b031981168317845516600080516020610ae68339815191528380a380f35b51631e4fbdf760e01b8152908101849052602490fd5b8280fd5b5050346101445760203660031901126101445760209160ff9082906001600160a01b03610131610885565b1681526002855220541690519015158152f35b5080fd5b50503461014457816003193601126101445780516001805480835281855260208084019592939186907fb10e2d527612073b26eecdfd717e6a320cf44b4afac2b0732d9fcbe2b7fa0cf690855b8181106101e757505050826101ab910383610a79565b8451948186019282875251809352850195925b8281106101cb5785870386f35b83516001600160a01b03168752958101959281019284016101be565b82546001600160a01b0316845292840192918701918701610195565b8284346102b057602090816003193601126102b05782906001600160a01b0361022a610885565b16815260038352818120908251808584549182815201908194845286842090845b81811061029c5750505081610261910382610a79565b83519485948186019282875251809352850193925b82811061028557505050500390f35b835185528695509381019392810192600101610276565b82548452928801926001928301920161024b565b80fd5b508290346101445760209283600319360112610102576102d1610885565b926102da610900565b6001600160a01b0393841680825260028652828220549095906102ff9060ff16610a38565b815b60018054808310156104ab579087918961031a8561096a565b949054600395861b1c161461033a575050506103359061099b565b610301565b90926000989294959697981991828101908111610498579061036f8461036261038e9461096a565b905490891b1c169161096a565b90919082549060031b9160018060a01b03809116831b921b1916179055565b825480156104855701926103a18461096a565b81939154921b1b19169055555b84825260038152828220908351808383829554938481520190865283862092865b8582821061046f575050506103e692500383610a79565b825b82518110156104225761041d908785528683528585206104088286610a9c565b5186528352858520805460ff1916905561099b565b6103e8565b8387866002858385526003815261043a838620610ab0565b838552528220805460ff191690557f2214ded40113cc3fb63fc206cafee88270b0a903dac7245d54efdde30ebb03218280a280f35b85548452600195860195889550930192016103cf565b634e487b7160e01b875260318952602487fd5b634e487b7160e01b885260118a52602488fd5b50505090919293506103ae565b509034610102576104c8366108a0565b929091936104d4610900565b6001600160a01b03851694851561061f578587526020906002825260ff84892054166105e55761050586151561092c565b6001908154600160401b8110156105d2579061036f82846105289401855561096a565b868852600282528388209160ff19928284825416179055885b8781106105815789897ffedc33fd34859594822c0ff6f3f4f9fc279cc6d5cae53068f706a088e45008728a8a61057b8b5192839283610a0f565b0390a280f35b6105cd90898b52600383526105a4878c2061059d838c8c6109c0565b35906109d0565b898b52858352868b206105b8828b8b6109c0565b358c528352868b20848682541617905561099b565b610541565b634e487b7160e01b8a526041855260248afd5b50606492519162461bcd60e51b835282015260166024820152751254d4d5515497d053149150511657d5149554d5115160521b6044820152fd5b506020606492519162461bcd60e51b83528201526016602482015275494e56414c49445f4953535545525f4144445245535360501b6044820152fd5b505034610144578160031936011261014457905490516001600160a01b039091168152602090f35b83346102b057806003193601126102b05761069c610900565b80546001600160a01b03198116825581906001600160a01b0316600080516020610ae68339815191528280a380f35b503461010257816003193601126101025760209260ff918391906001600160a01b036106f5610885565b16825285528181206024358252855220541690519015158152f35b5091903461014457610721366108a0565b90939161072c610900565b60018060a01b0316948583526020906002825261074e60ff8686205416610a38565b61075983151561092c565b868452600396878352858520938651808686829854938481520190895286892092895b8882821061086f5750505061079392500386610a79565b855b85518110156107cf576107ca908388528486528888206107b58289610a9c565b5189528652888820805460ff1916905561099b565b610795565b508789889588958587528282526107e7888820610ab0565b865b8581106108235787877fec753cfc52044f61676f18a11e500093a9f2b1cd5e4942bc476f2b0438159bcf888861057b8e5192839283610a0f565b61086a9087895284845261083e8a8a2061059d838a8a6109c0565b8789528284528989206108528289896109c0565b358a528452898920805460ff1916600117905561099b565b6107e9565b855484526001958601958b95509301920161077c565b600435906001600160a01b038216820361089b57565b600080fd5b604060031982011261089b576004356001600160a01b038116810361089b57916001600160401b03916024359083821161089b578060238301121561089b57816004013593841161089b5760248460051b8301011161089b576024019190565b6000546001600160a01b0316330361091457565b60405163118cdaa760e01b8152336004820152602490fd5b1561093357565b60405162461bcd60e51b815260206004820152600f60248201526e4e4f5f434c41494d5f544f5049435360881b6044820152606490fd5b60015481101561098557600160005260206000200190600090565b634e487b7160e01b600052603260045260246000fd5b60001981146109aa5760010190565b634e487b7160e01b600052601160045260246000fd5b91908110156109855760051b0190565b805490600160401b8210156109f957600182018082558210156109855760005260206000200155565b634e487b7160e01b600052604160045260246000fd5b602080825281018390526001600160fb1b03831161089b5760409260051b809284830137010190565b15610a3f57565b60405162461bcd60e51b81526020600482015260126024820152711254d4d5515497d393d517d5149554d5115160721b6044820152606490fd5b601f909101601f19168101906001600160401b038211908210176109f957604052565b80518210156109855760209160051b010190565b80549060009081815582610ac357505050565b815260208120918201915b828110610ada57505050565b818155600101610ace56fe8be0079c531659141344cd1fd0a4f28419497f9722a3daafe3b4186f6b6457e0a264697066735822122005f5c92c3c36d35a5a4e6600c03f3cf4aa5a6392a0bdca28de655b84b85a657864736f6c63430008140033",
  "linkReferences": {},
  "deployedLinkReferences": {}
}