{
  "_format": "hh-sol-artifact-1",
  "contractName": "LoanTokenFactoryLight",
  "sourceName": "contracts/LoanTokenFactoryLight.sol",
  "abi": [
    {
      "inputs": [
        {
          "internalType": "address",
          "name": "_claimTopicsRegistry",
          "type": "address"
        },
        {
          "internalType": "address",
          "name": "_trustedIssuersRegistry",
          "type": "address"
        }
      ],
      "stateMutability": "nonpayable",
      "type": "constructor"
    },
    {
      "inputs": [
        {
          "internalType": "address",
          "name": "owner",
          "type": "address"
        }
      ],
      "name": "OwnableInvalidOwner",
      "type": "error"
    },
    {
      "inputs": [
        {
          "internalType": "address",
          "name": "account",
          "type": "address"
        }
      ],
      "name": "OwnableUnauthorizedAccount",
      "type": "error"
    },
    {
      "anonymous": false,
      "inputs": [
        {
          "indexed": false,
          "internalType": "address",
          "name": "claimTopicsRegistry",
          "type": "address"
        },
        {
          "indexed": false,
          "internalType": "address",
          "name": "trustedIssuersRegistry",
          "type": "address"
        }
      ],
      "name": "InfrastructureSet",
      "type": "event"
    },
    {
      "anonymous": false,
      "inputs": [
        {
          "indexed": true,
          "internalType": "address",
          "name": "tokenAddress",
          "type": "address"
        },
        {
          "indexed": false,
          "internalType": "string",
          "name": "nelProtocolId",
          "type": "string"
        },
        {
          "indexed": true,
          "internalType": "address",
          "name": "creator",
          "type": "address"
        },
        {
          "indexed": false,
          "internalType": "address",
          "name": "identityRegistry",
          "type": "address"
        },
        {
          "indexed": false,
          "internalType": "address",
          "name": "compliance",
          "type": "address"
        }
      ],
      "name": "LoanTokenRegistered",
      "type": "event"
    },
    {
      "anonymous": false,
      "inputs": [
        {
          "indexed": true,
          "internalType": "address",
          "name": "previousOwner",
          "type": "address"
        },
        {
          "indexed": true,
          "internalType": "address",
          "name": "newOwner",
          "type": "address"
        }
      ],
      "name": "OwnershipTransferred",
      "type": "event"
    },
    {
      "inputs": [
        {
          "internalType": "uint256",
          "name": "",
          "type": "uint256"
        }
      ],
      "name": "deployedTokens",
      "outputs": [
        {
          "internalType": "address",
          "name": "",
          "type": "address"
        }
      ],
      "stateMutability": "view",
      "type": "function"
    },
    {
      "inputs": [],
      "name": "getDeployedTokens",
      "outputs": [
        {
          "internalType": "address[]",
          "name": "",
          "type": "address[]"
        }
      ],
      "stateMutability": "view",
      "type": "function"
    },
    {
      "inputs": [],
      "name": "getDeployedTokensCount",
      "outputs": [
        {
          "internalType": "uint256",
          "name": "",
          "type": "uint256"
        }
      ],
      "stateMutability": "view",
      "type": "function"
    },
    {
      "inputs": [
        {
          "internalType": "string",
          "name": "nelId",
          "type": "string"
        }
      ],
      "name": "getTokenByNelId",
      "outputs": [
        {
          "internalType": "address",
          "name": "",
          "type": "address"
        }
      ],
      "stateMutability": "view",
      "type": "function"
    },
    {
      "inputs": [
        {
          "internalType": "address",
          "name": "token",
          "type": "address"
        }
      ],
      "name": "getTokenInfrastructure",
      "outputs": [
        {
          "internalType": "address",
          "name": "_identityRegistry",
          "type": "address"
        },
        {
          "internalType": "address",
          "name": "_compliance",
          "type": "address"
        },
        {
          "internalType": "address",
          "name": "_claimTopicsRegistry",
          "type": "address"
        },
        {
          "internalType": "address",
          "name": "_trustedIssuersRegistry",
          "type": "address"
        }
      ],
      "stateMutability": "view",
      "type": "function"
    },
    {
      "inputs": [
        {
          "internalType": "address",
          "name": "",
          "type": "address"
        }
      ],
      "name": "isDeployedToken",
      "outputs": [
        {
          "internalType": "bool",
          "name": "",
          "type": "bool"
        }
      ],
      "stateMutability": "view",
      "type": "function"
    },
    {
      "inputs": [],
      "name": "owner",
      "outputs": [
        {
          "internalType": "address",
          "name": "",
          "type": "address"
        }
      ],
      "stateMutability": "view",
      "type": "function"
    },
    {
      "inputs": [
        {
          "internalType": "address",
          "name": "_tokenAddress",
          "type": "address"
        },
        {
          "internalType": "string",
          "name": "_nelProtocolId",
          "type": "string"
        },
        {
          "internalType": "address",
          "name": "_identityRegistry",
          "type": "address"
        },
        {
          "internalType": "address",
          "name": "_compliance",
          "type": "address"
        }
      ],
      "name": "registerLoanToken",
      "outputs": [],
      "stateMutability": "nonpayable",
      "type": "function"
    },
    {
      "inputs": [],
      "name": "renounceOwnership",
      "outputs": [],
      "stateMutability": "nonpayable",
      "type": "function"
    },
    {
      "inputs": [],
      "name": "sharedClaimTopicsRegistry",
      "outputs": [
        {
          "internalType": "address",
          "name": "",
          "type": "address"
        }
      ],
      "stateMutability": "view",
      "type": "function"
    },
    {
      "inputs": [],
      "name": "sharedTrustedIssuersRegistry",
      "outputs": [
        {
          "internalType": "address",
          "name": "",
          "type": "address"
        }
      ],
      "stateMutability": "view",
      "type": "function"
    },
    {
      "inputs": [
        {
          "internalType": "string",
          "name": "",
          "type": "string"
        }
      ],
      "name": "tokenByNelId",
      "outputs": [
        {
          "internalType": "address",
          "name": "",
          "type": "address"
        }
      ],
      "stateMutability": "view",
      "type": "function"
    },
    {
      "inputs": [
        {
          "internalType": "address",
          "name": "",
          "type": "address"
        }
      ],
      "name": "tokenCompliance",
      "outputs": [
        {
          "internalType": "address",
          "name": "",
          "type": "address"
        }
      ],
      "stateMutability": "view",
      "type": "function"
    },
    {
      "inputs": [
        {
          "internalType": "address",
          "name": "",
          "type": "address"
        }
      ],
      "name": "tokenIdentityRegistry",
      "outputs": [
        {
          "internalType": "address",
          "name": "",
          "type": "address"
        }
      ],
      "stateMutability": "view",
      "type": "function"
    },
    {
      "inputs": [
        {
          "internalType": "address",
          "name": "newOwner",
          "type": "address"
        }
      ],
      "name": "transferOwnership",
      "outputs": [],
      "stateMutability": "nonpayable",
      "type": "function"
    }
  ],
  "bytecode": "0x60803461010f5761098290601f38839003908101601f19168201906001600160401b03821183831017610114578083916040958694855283398101031261010f57610055602061004e8361012a565b920161012a565b9033156100f7577fa70d38545e0361ae758d5a14ba99eb5c324051d897f64bda663b616192bacb309183916000549160018060a01b031991338385161760005584519360018060a01b03918291823391167f8be0079c531659141344cd1fd0a4f28419497f9722a3daafe3b4186f6b6457e0600080a3169182846001541617600155168092600254161760025582526020820152a151610843908161013f8239f35b8251631e4fbdf760e01b815260006004820152602490fd5b600080fd5b634e487b7160e01b600052604160045260246000fd5b51906001600160a01b038216820361010f5756fe6080604081815260048036101561001557600080fd5b600092833560e01c908163240608041461068b5750806325f1be1f1461066c5780632747294b146106435780634c1c7ddf14610607578063533f01f014610182578063622ae7aa14610542578063715018a6146104fa57806377d88660146104995780638da5cb5b14610471578063b21e0cf914610436578063c0b490c314610217578063c5f15c7b146101ea578063d562de3d14610182578063ec81aadb1461013f5763f2fde38b146100c857600080fd5b3461013b57602036600319011261013b576100e16106c3565b906100ea6107c1565b6001600160a01b0391821692831561012557505082546001600160a01b0319811683178455166000805160206107ee8339815191528380a380f35b51631e4fbdf760e01b8152908101849052602490fd5b8280fd5b503461013b57602036600319011261013b57359160035483101561017f5750610169602092610790565b60018060a01b0391549060031b1c169051908152f35b80fd5b50913461017f57602036600319011261017f578235906001600160401b03821161017f57506020926101b691369101610717565b826101c98351928381519384920161076d565b6005908201908152819003830190205490516001600160a01b039091168152f35b50503461021357816003193601126102135760015490516001600160a01b039091168152602090f35b5080fd5b50919034610213576080366003190112610213576102336106c3565b906024356001600160401b038111610432576102529036908601610717565b6001600160a01b0391604435838116919082900361042e576064359184831680930361042a576102806107c1565b81518096868287516020948161029b8793848d019e8f61076d565b8101600581520301902054166103f75786169586895289825260ff848a2054166103c557600354600160401b8110156103b257906103048260017f1fd793746bfce795a56397305ddd49d2df759870976ecb9f68142dd50b26d1649a9b9c9d9401600355610790565b819291549060031b918b831b921b1916179055878a528152828920600160ff19825416179055825181818061033d8c8a5192839161076d565b8101600581520301902060018060a01b0319908882825416179055878a5260068252838a2083828254161790556007825284848b209182541617905561039683519560608752518099816060890152608088019061076d565b8401528201523393601f01601f1916810181900360800190a380f35b634e487b7160e01b8a5260418b5260248afd5b835162461bcd60e51b8152808b01839052600c60248201526b544f4b454e5f45584953545360a01b6044820152606490fd5b835162461bcd60e51b8152808b01839052600d60248201526c4e454c5f49445f45584953545360981b6044820152606490fd5b8680fd5b8580fd5b8380fd5b505034610213576020366003190112610213576020916001600160a01b03908290826104606106c3565b168152600785522054169051908152f35b505034610213578160031936011261021357905490516001600160a01b039091168152602090f35b50503461021357602036600319011261021357608091906001600160a01b03806104c16106c3565b16835260066020528082818186205416946007602052205416918160015416916002541692815194855260208501528301526060820152f35b833461017f578060031936011261017f576105136107c1565b80546001600160a01b03198116825581906001600160a01b03166000805160206107ee8339815191528280a380f35b82843461017f578060031936011261017f578151600380548083529083526020939284830192909183907fc2575a0e9e593c00f959f8c92f12db2869c3395a3b0502d05e2516446f71f85b90845b8181106105ea57505050816105a69103826106de565b83519485948186019282875251809352850193925b8281106105ca57505050500390f35b83516001600160a01b0316855286955093810193928101926001016105bb565b82546001600160a01b031684529288019260019283019201610590565b503461013b57602036600319011261013b5760209260ff918391906001600160a01b036106326106c3565b168252855220541690519015158152f35b50503461021357816003193601126102135760025490516001600160a01b039091168152602090f35b5050346102135781600319360112610213576020906003549051908152f35b8490843461013b57602036600319011261013b576020926001600160a01b039190826106b56106c3565b168152600685522054168152f35b600435906001600160a01b03821682036106d957565b600080fd5b601f909101601f19168101906001600160401b0382119082101761070157604052565b634e487b7160e01b600052604160045260246000fd5b81601f820112156106d9578035906001600160401b038211610701576040519261074b601f8401601f1916602001856106de565b828452602083830101116106d957816000926020809301838601378301015290565b60005b8381106107805750506000910152565b8181015183820152602001610770565b6003548110156107ab57600360005260206000200190600090565b634e487b7160e01b600052603260045260246000fd5b6000546001600160a01b031633036107d557565b60405163118cdaa760e01b8152336004820152602490fdfe8be0079c531659141344cd1fd0a4f28419497f9722a3daafe3b4186f6b6457e0a264697066735822122032c44603c693cfa529816caabeb5cf84f2c28259df55e778f3cf6f50769b12f864736f6c63430008140033",
  "linkReferences": {},
  "deployedLinkReferences": {}
}