{
  "_format": "hh-sol-artifact-1",
  "contractName": "LoanToken",
  "sourceName": "contracts/LoanToken.sol",
  "abi": [
    {
      "inputs": [
        {
          "internalType": "string",
          "name": "_name",
          "type": "string"
        },
        {
          "internalType": "string",
          "name": "_symbol",
          "type": "string"
        },
        {
          "internalType": "string",
          "name": "_borrowerName",
          "type": "string"
        },
        {
          "internalType": "uint256",
          "name": "_facilityAmount",
          "type": "uint256"
        },
        {
          "internalType": "uint256",
          "name": "_interestRateBps",
          "type": "uint256"
        },
        {
          "internalType": "uint256",
          "name": "_maturityDate",
          "type": "uint256"
        },
        {
          "internalType": "string",
          "name": "_nelProtocolId",
          "type": "string"
        },
        {
          "internalType": "bytes32",
          "name": "_documentHash",
          "type": "bytes32"
        },
        {
          "internalType": "address",
          "name": "_identityRegistry",
          "type": "address"
        },
        {
          "internalType": "address",
          "name": "_compliance",
          "type": "address"
        }
      ],
      "stateMutability": "nonpayable",
      "type": "constructor"
    },
    {
      "inputs": [
        {
          "internalType": "address",
          "name": "owner",
          "type": "address"
        }
      ],
      "name": "OwnableInvalidOwner",
      "type": "error"
    },
    {
      "inputs": [
        {
          "internalType": "address",
          "name": "account",
          "type": "address"
        }
      ],
      "name": "OwnableUnauthorizedAccount",
      "type": "error"
    },
    {
      "inputs": [],
      "name": "ReentrancyGuardReentrantCall",
      "type": "error"
    },
    {
      "anonymous": false,
      "inputs": [
        {
          "indexed": true,
          "internalType": "address",
          "name": "addr",
          "type": "address"
        },
        {
          "indexed": true,
          "internalType": "bool",
          "name": "isFrozen",
          "type": "bool"
        }
      ],
      "name": "AddressFrozen",
      "type": "event"
    },
    {
      "anonymous": false,
      "inputs": [
        {
          "indexed": true,
          "internalType": "address",
          "name": "compliance",
          "type": "address"
        }
      ],
      "name": "ComplianceSet",
      "type": "event"
    },
    {
      "anonymous": false,
      "inputs": [
        {
          "indexed": false,
          "internalType": "address",
          "name": "controller",
          "type": "address"
        },
        {
          "indexed": true,
          "internalType": "address",
          "name": "from",
          "type": "address"
        },
        {
          "indexed": true,
          "internalType": "address",
          "name": "to",
          "type": "address"
        },
        {
          "indexed": false,
          "internalType": "uint256",
          "name": "value",
          "type": "uint256"
        },
        {
          "indexed": false,
          "internalType": "bytes",
          "name": "data",
          "type": "bytes"
        },
        {
          "indexed": false,
          "internalType": "bytes",
          "name": "operatorData",
          "type": "bytes"
        }
      ],
      "name": "ControllerTransfer",
      "type": "event"
    },
    {
      "anonymous": false,
      "inputs": [
        {
          "indexed": true,
          "internalType": "bytes32",
          "name": "name",
          "type": "bytes32"
        },
        {
          "indexed": false,
          "internalType": "string",
          "name": "uri",
          "type": "string"
        },
        {
          "indexed": false,
          "internalType": "bytes32",
          "name": "documentHash",
          "type": "bytes32"
        }
      ],
      "name": "DocumentUpdated",
      "type": "event"
    },
    {
      "anonymous": false,
      "inputs": [
        {
          "indexed": true,
          "internalType": "address",
          "name": "identityRegistry",
          "type": "address"
        }
      ],
      "name": "IdentityRegistrySet",
      "type": "event"
    },
    {
      "anonymous": false,
      "inputs": [
        {
          "indexed": true,
          "internalType": "address",
          "name": "to",
          "type": "address"
        },
        {
          "indexed": false,
          "internalType": "uint256",
          "name": "amount",
          "type": "uint256"
        },
        {
          "indexed": false,
          "internalType": "bytes32",
          "name": "partition",
          "type": "bytes32"
        }
      ],
      "name": "Issued",
      "type": "event"
    },
    {
      "anonymous": false,
      "inputs": [
        {
          "indexed": true,
          "internalType": "address",
          "name": "previousOwner",
          "type": "address"
        },
        {
          "indexed": true,
          "internalType": "address",
          "name": "newOwner",
          "type": "address"
        }
      ],
      "name": "OwnershipTransferred",
      "type": "event"
    },
    {
      "anonymous": false,
      "inputs": [
        {
          "indexed": true,
          "internalType": "address",
          "name": "account",
          "type": "address"
        }
      ],
      "name": "Paused",
      "type": "event"
    },
    {
      "anonymous": false,
      "inputs": [
        {
          "indexed": true,
          "internalType": "address",
          "name": "lostWallet",
          "type": "address"
        },
        {
          "indexed": true,
          "internalType": "address",
          "name": "newWallet",
          "type": "address"
        },
        {
          "indexed": true,
          "internalType": "address",
          "name": "investorIdentity",
          "type": "address"
        }
      ],
      "name": "RecoverySuccess",
      "type": "event"
    },
    {
      "anonymous": false,
      "inputs": [
        {
          "indexed": true,
          "internalType": "address",
          "name": "from",
          "type": "address"
        },
        {
          "indexed": false,
          "internalType": "uint256",
          "name": "amount",
          "type": "uint256"
        },
        {
          "indexed": false,
          "internalType": "bytes32",
          "name": "partition",
          "type": "bytes32"
        }
      ],
      "name": "Redeemed",
      "type": "event"
    },
    {
      "anonymous": false,
      "inputs": [
        {
          "indexed": true,
          "internalType": "address",
          "name": "addr",
          "type": "address"
        },
        {
          "indexed": false,
          "internalType": "uint256",
          "name": "amount",
          "type": "uint256"
        }
      ],
      "name": "TokensFrozen",
      "type": "event"
    },
    {
      "anonymous": false,
      "inputs": [
        {
          "indexed": true,
          "internalType": "address",
          "name": "addr",
          "type": "address"
        },
        {
          "indexed": false,
          "internalType": "uint256",
          "name": "amount",
          "type": "uint256"
        }
      ],
      "name": "TokensUnfrozen",
      "type": "event"
    },
    {
      "anonymous": false,
      "inputs": [
        {
          "indexed": true,
          "internalType": "bytes32",
          "name": "partition",
          "type": "bytes32"
        },
        {
          "indexed": true,
          "internalType": "address",
          "name": "from",
          "type": "address"
        },
        {
          "indexed": true,
          "internalType": "address",
          "name": "to",
          "type": "address"
        },
        {
          "indexed": false,
          "internalType": "uint256",
          "name": "value",
          "type": "uint256"
        }
      ],
      "name": "TransferByPartition",
      "type": "event"
    },
    {
      "anonymous": false,
      "inputs": [
        {
          "indexed": true,
          "internalType": "address",
          "name": "account",
          "type": "address"
        }
      ],
      "name": "Unpaused",
      "type": "event"
    },
    {
      "inputs": [],
      "name": "COMPLIANCE_FAILURE",
      "outputs": [
        {
          "internalType": "bytes1",
          "name": "",
          "type": "bytes1"
        }
      ],
      "stateMutability": "view",
      "type": "function"
    },
    {
      "inputs": [],
      "name": "FUNDS_LOCKED",
      "outputs": [
        {
          "internalType": "bytes1",
          "name": "",
          "type": "bytes1"
        }
      ],
      "stateMutability": "view",
      "type": "function"
    },
    {
      "inputs": [],
      "name": "INSUFFICIENT_BALANCE",
      "outputs": [
        {
          "internalType": "bytes1",
          "name": "",
          "type": "bytes1"
        }
      ],
      "stateMutability": "view",
      "type": "function"
    },
    {
      "inputs": [],
      "name": "INVALID_RECEIVER",
      "outputs": [
        {
          "internalType": "bytes1",
          "name": "",
          "type": "bytes1"
        }
      ],
      "stateMutability": "view",
      "type": "function"
    },
    {
      "inputs": [],
      "name": "INVALID_SENDER",
      "outputs": [
        {
          "internalType": "bytes1",
          "name": "",
          "type": "bytes1"
        }
      ],
      "stateMutability": "view",
      "type": "function"
    },
    {
      "inputs": [],
      "name": "PRIMARY_PARTITION",
      "outputs": [
        {
          "internalType": "bytes32",
          "name": "",
          "type": "bytes32"
        }
      ],
      "stateMutability": "view",
      "type": "function"
    },
    {
      "inputs": [],
      "name": "SECONDARY_PARTITION",
      "outputs": [
        {
          "internalType": "bytes32",
          "name": "",
          "type": "bytes32"
        }
      ],
      "stateMutability": "view",
      "type": "function"
    },
    {
      "inputs": [],
      "name": "SUCCESS",
      "outputs": [
        {
          "internalType": "bytes1",
          "name": "",
          "type": "bytes1"
        }
      ],
      "stateMutability": "view",
      "type": "function"
    },
    {
      "inputs": [
        {
          "internalType": "address",
          "name": "account",
          "type": "address"
        }
      ],
      "name": "balanceOf",
      "outputs": [
        {
          "internalType": "uint256",
          "name": "",
          "type": "uint256"
        }
      ],
      "stateMutability": "view",
      "type": "function"
    },
    {
      "inputs": [
        {
          "internalType": "bytes32",
          "name": "partition",
          "type": "bytes32"
        },
        {
          "internalType": "address",
          "name": "tokenHolder",
          "type": "address"
        }
      ],
      "name": "balanceOfByPartition",
      "outputs": [
        {
          "internalType": "uint256",
          "name": "",
          "type": "uint256"
        }
      ],
      "stateMutability": "view",
      "type": "function"
    },
    {
      "inputs": [
        {
          "internalType": "address",
          "name": "to",
          "type": "address"
        },
        {
          "internalType": "uint256",
          "name": "value",
          "type": "uint256"
        },
        {
          "internalType": "bytes",
          "name": "",
          "type": "bytes"
        }
      ],
      "name": "canTransfer",
      "outputs": [
        {
          "internalType": "bytes1",
          "name": "reasonCode",
          "type": "bytes1"
        },
        {
          "internalType": "bytes32",
          "name": "appCode",
          "type": "bytes32"
        }
      ],
      "stateMutability": "view",
      "type": "function"
    },
    {
      "inputs": [
        {
          "internalType": "bytes32",
          "name": "partition",
          "type": "bytes32"
        },
        {
          "internalType": "address",
          "name": "to",
          "type": "address"
        },
        {
          "internalType": "uint256",
          "name": "value",
          "type": "uint256"
        },
        {
          "internalType": "bytes",
          "name": "",
          "type": "bytes"
        }
      ],
      "name": "canTransferByPartition",
      "outputs": [
        {
          "internalType": "bytes1",
          "name": "reasonCode",
          "type": "bytes1"
        },
        {
          "internalType": "bytes32",
          "name": "appCode",
          "type": "bytes32"
        }
      ],
      "stateMutability": "view",
      "type": "function"
    },
    {
      "inputs": [],
      "name": "compliance",
      "outputs": [
        {
          "internalType": "contract ICompliance",
          "name": "",
          "type": "address"
        }
      ],
      "stateMutability": "view",
      "type": "function"
    },
    {
      "inputs": [],
      "name": "controller",
      "outputs": [
        {
          "internalType": "address",
          "name": "",
          "type": "address"
        }
      ],
      "stateMutability": "view",
      "type": "function"
    },
    {
      "inputs": [
        {
          "internalType": "address",
          "name": "from",
          "type": "address"
        },
        {
          "internalType": "address",
          "name": "to",
          "type": "address"
        },
        {
          "internalType": "uint256",
          "name": "value",
          "type": "uint256"
        },
        {
          "internalType": "bytes",
          "name": "data",
          "type": "bytes"
        },
        {
          "internalType": "bytes",
          "name": "operatorData",
          "type": "bytes"
        }
      ],
      "name": "controllerTransfer",
      "outputs": [],
      "stateMutability": "nonpayable",
      "type": "function"
    },
    {
      "inputs": [],
      "name": "decimals",
      "outputs": [
        {
          "internalType": "uint8",
          "name": "",
          "type": "uint8"
        }
      ],
      "stateMutability": "view",
      "type": "function"
    },
    {
      "inputs": [
        {
          "internalType": "address",
          "name": "addr",
          "type": "address"
        },
        {
          "internalType": "bool",
          "name": "freeze",
          "type": "bool"
        }
      ],
      "name": "freezeAddress",
      "outputs": [],
      "stateMutability": "nonpayable",
      "type": "function"
    },
    {
      "inputs": [
        {
          "internalType": "address",
          "name": "addr",
          "type": "address"
        },
        {
          "internalType": "uint256",
          "name": "amount",
          "type": "uint256"
        }
      ],
      "name": "freezeTokens",
      "outputs": [],
      "stateMutability": "nonpayable",
      "type": "function"
    },
    {
      "inputs": [
        {
          "internalType": "address",
          "name": "",
          "type": "address"
        }
      ],
      "name": "frozen",
      "outputs": [
        {
          "internalType": "bool",
          "name": "",
          "type": "bool"
        }
      ],
      "stateMutability": "view",
      "type": "function"
    },
    {
      "inputs": [
        {
          "internalType": "address",
          "name": "",
          "type": "address"
        }
      ],
      "name": "frozenTokens",
      "outputs": [
        {
          "internalType": "uint256",
          "name": "",
          "type": "uint256"
        }
      ],
      "stateMutability": "view",
      "type": "function"
    },
    {
      "inputs": [],
      "name": "getAllDocuments",
      "outputs": [
        {
          "internalType": "bytes32[]",
          "name": "",
          "type": "bytes32[]"
        }
      ],
      "stateMutability": "view",
      "type": "function"
    },
    {
      "inputs": [
        {
          "internalType": "address",
          "name": "account",
          "type": "address"
        }
      ],
      "name": "getComplianceStatus",
      "outputs": [
        {
          "internalType": "bool",
          "name": "verified",
          "type": "bool"
        },
        {
          "internalType": "bool",
          "name": "addressFrozen",
          "type": "bool"
        },
        {
          "internalType": "uint256",
          "name": "frozenAmount",
          "type": "uint256"
        },
        {
          "internalType": "bool",
          "name": "canCurrentlyTransfer",
          "type": "bool"
        }
      ],
      "stateMutability": "view",
      "type": "function"
    },
    {
      "inputs": [
        {
          "internalType": "bytes32",
          "name": "_name",
          "type": "bytes32"
        }
      ],
      "name": "getDocument",
      "outputs": [
        {
          "internalType": "string",
          "name": "uri",
          "type": "string"
        },
        {
          "internalType": "bytes32",
          "name": "documentHash",
          "type": "bytes32"
        },
        {
          "internalType": "uint256",
          "name": "lastModified",
          "type": "uint256"
        }
      ],
      "stateMutability": "view",
      "type": "function"
    },
    {
      "inputs": [
        {
          "internalType": "address",
          "name": "addr",
          "type": "address"
        }
      ],
      "name": "getFrozenTokens",
      "outputs": [
        {
          "internalType": "uint256",
          "name": "",
          "type": "uint256"
        }
      ],
      "stateMutability": "view",
      "type": "function"
    },
    {
      "inputs": [
        {
          "internalType": "address",
          "name": "account",
          "type": "address"
        }
      ],
      "name": "getInvestorCountry",
      "outputs": [
        {
          "internalType": "uint16",
          "name": "",
          "type": "uint16"
        }
      ],
      "stateMutability": "view",
      "type": "function"
    },
    {
      "inputs": [],
      "name": "getLoanSummary",
      "outputs": [
        {
          "internalType": "string",
          "name": "borrowerName",
          "type": "string"
        },
        {
          "internalType": "uint256",
          "name": "facilityAmount",
          "type": "uint256"
        },
        {
          "internalType": "uint256",
          "name": "interestRateBps",
          "type": "uint256"
        },
        {
          "internalType": "uint256",
          "name": "maturityDate",
          "type": "uint256"
        },
        {
          "internalType": "string",
          "name": "nelProtocolId",
          "type": "string"
        },
        {
          "internalType": "uint256",
          "name": "_totalSupply",
          "type": "uint256"
        }
      ],
      "stateMutability": "view",
      "type": "function"
    },
    {
      "inputs": [],
      "name": "identityRegistry",
      "outputs": [
        {
          "internalType": "contract IIdentityRegistry",
          "name": "",
          "type": "address"
        }
      ],
      "stateMutability": "view",
      "type": "function"
    },
    {
      "inputs": [],
      "name": "isControllable",
      "outputs": [
        {
          "internalType": "bool",
          "name": "",
          "type": "bool"
        }
      ],
      "stateMutability": "view",
      "type": "function"
    },
    {
      "inputs": [
        {
          "internalType": "address",
          "name": "addr",
          "type": "address"
        }
      ],
      "name": "isFrozen",
      "outputs": [
        {
          "internalType": "bool",
          "name": "",
          "type": "bool"
        }
      ],
      "stateMutability": "view",
      "type": "function"
    },
    {
      "inputs": [
        {
          "internalType": "address",
          "name": "tokenHolder",
          "type": "address"
        },
        {
          "internalType": "uint256",
          "name": "value",
          "type": "uint256"
        },
        {
          "internalType": "bytes32",
          "name": "partition",
          "type": "bytes32"
        }
      ],
      "name": "issue",
      "outputs": [],
      "stateMutability": "nonpayable",
      "type": "function"
    },
    {
      "inputs": [],
      "name": "loanDetails",
      "outputs": [
        {
          "internalType": "string",
          "name": "borrowerName",
          "type": "string"
        },
        {
          "internalType": "uint256",
          "name": "facilityAmount",
          "type": "uint256"
        },
        {
          "internalType": "uint256",
          "name": "interestRateBps",
          "type": "uint256"
        },
        {
          "internalType": "uint256",
          "name": "maturityDate",
          "type": "uint256"
        },
        {
          "internalType": "string",
          "name": "nelProtocolId",
          "type": "string"
        },
        {
          "internalType": "bytes32",
          "name": "documentHash",
          "type": "bytes32"
        }
      ],
      "stateMutability": "view",
      "type": "function"
    },
    {
      "inputs": [],
      "name": "name",
      "outputs": [
        {
          "internalType": "string",
          "name": "",
          "type": "string"
        }
      ],
      "stateMutability": "view",
      "type": "function"
    },
    {
      "inputs": [],
      "name": "owner",
      "outputs": [
        {
          "internalType": "address",
          "name": "",
          "type": "address"
        }
      ],
      "stateMutability": "view",
      "type": "function"
    },
    {
      "inputs": [
        {
          "internalType": "address",
          "name": "",
          "type": "address"
        }
      ],
      "name": "partitionsOf",
      "outputs": [
        {
          "internalType": "bytes32[]",
          "name": "",
          "type": "bytes32[]"
        }
      ],
      "stateMutability": "view",
      "type": "function"
    },
    {
      "inputs": [],
      "name": "pause",
      "outputs": [],
      "stateMutability": "nonpayable",
      "type": "function"
    },
    {
      "inputs": [],
      "name": "paused",
      "outputs": [
        {
          "internalType": "bool",
          "name": "",
          "type": "bool"
        }
      ],
      "stateMutability": "view",
      "type": "function"
    },
    {
      "inputs": [
        {
          "internalType": "address",
          "name": "lostWallet",
          "type": "address"
        },
        {
          "internalType": "address",
          "name": "newWallet",
          "type": "address"
        },
        {
          "internalType": "address",
          "name": "investorIdentity",
          "type": "address"
        }
      ],
      "name": "recoveryAddress",
      "outputs": [
        {
          "internalType": "bool",
          "name": "",
          "type": "bool"
        }
      ],
      "stateMutability": "nonpayable",
      "type": "function"
    },
    {
      "inputs": [
        {
          "internalType": "uint256",
          "name": "value",
          "type": "uint256"
        },
        {
          "internalType": "bytes32",
          "name": "partition",
          "type": "bytes32"
        }
      ],
      "name": "redeem",
      "outputs": [],
      "stateMutability": "nonpayable",
      "type": "function"
    },
    {
      "inputs": [],
      "name": "renounceOwnership",
      "outputs": [],
      "stateMutability": "nonpayable",
      "type": "function"
    },
    {
      "inputs": [
        {
          "internalType": "address",
          "name": "_compliance",
          "type": "address"
        }
      ],
      "name": "setCompliance",
      "outputs": [],
      "stateMutability": "nonpayable",
      "type": "function"
    },
    {
      "inputs": [
        {
          "internalType": "bool",
          "name": "_isControllable",
          "type": "bool"
        }
      ],
      "name": "setControllable",
      "outputs": [],
      "stateMutability": "nonpayable",
      "type": "function"
    },
    {
      "inputs": [
        {
          "internalType": "address",
          "name": "newController",
          "type": "address"
        }
      ],
      "name": "setController",
      "outputs": [],
      "stateMutability": "nonpayable",
      "type": "function"
    },
    {
      "inputs": [
        {
          "internalType": "bytes32",
          "name": "_name",
          "type": "bytes32"
        },
        {
          "internalType": "string",
          "name": "_uri",
          "type": "string"
        },
        {
          "internalType": "bytes32",
          "name": "_documentHash",
          "type": "bytes32"
        }
      ],
      "name": "setDocument",
      "outputs": [],
      "stateMutability": "nonpayable",
      "type": "function"
    },
    {
      "inputs": [
        {
          "internalType": "address",
          "name": "_identityRegistry",
          "type": "address"
        }
      ],
      "name": "setIdentityRegistry",
      "outputs": [],
      "stateMutability": "nonpayable",
      "type": "function"
    },
    {
      "inputs": [],
      "name": "symbol",
      "outputs": [
        {
          "internalType": "string",
          "name": "",
          "type": "string"
        }
      ],
      "stateMutability": "view",
      "type": "function"
    },
    {
      "inputs": [],
      "name": "totalSupply",
      "outputs": [
        {
          "internalType": "uint256",
          "name": "",
          "type": "uint256"
        }
      ],
      "stateMutability": "view",
      "type": "function"
    },
    {
      "inputs": [
        {
          "internalType": "bytes32",
          "name": "partition",
          "type": "bytes32"
        },
        {
          "internalType": "address",
          "name": "to",
          "type": "address"
        },
        {
          "internalType": "uint256",
          "name": "value",
          "type": "uint256"
        },
        {
          "internalType": "bytes",
          "name": "data",
          "type": "bytes"
        }
      ],
      "name": "transferByPartition",
      "outputs": [
        {
          "internalType": "bytes32",
          "name": "",
          "type": "bytes32"
        }
      ],
      "stateMutability": "nonpayable",
      "type": "function"
    },
    {
      "inputs": [
        {
          "internalType": "address",
          "name": "newOwner",
          "type": "address"
        }
      ],
      "name": "transferOwnership",
      "outputs": [],
      "stateMutability": "nonpayable",
      "type": "function"
    },
    {
      "inputs": [
        {
          "internalType": "address",
          "name": "addr",
          "type": "address"
        },
        {
          "internalType": "uint256",
          "name": "amount",
          "type": "uint256"
        }
      ],
      "name": "unfreezeTokens",
      "outputs": [],
      "stateMutability": "nonpayable",
      "type": "function"
    },
    {
      "inputs": [],
      "name": "unpause",
      "outputs": [],
      "stateMutability": "nonpayable",
      "type": "function"
    },
    {
      "inputs": [
        {
          "internalType": "bytes32",
          "name": "_documentHash",
          "type": "bytes32"
        }
      ],
      "name": "updateDocumentHash",
      "outputs": [],
      "stateMutability": "nonpayable",
      "type": "function"
    },
    {
      "inputs": [
        {
          "internalType": "string",
          "name": "_nelProtocolId",
          "type": "string"
        }
      ],
      "name": "updateNelProtocolId",
      "outputs": [],
      "stateMutability": "nonpayable",
      "type": "function"
    }
  ],
  "bytecode": "0x6080604052346200091e5762003470803803806200001d8162000923565b9283398101610140828203126200091e5781516001600160401b0381116200091e57816200004d91840162000949565b60208301516001600160401b0381116200091e57826200006f91850162000949565b60408401519093906001600160401b0381116200091e57836200009491830162000949565b9360608201519360808301519060a08401519060c08501519060018060401b0382116200091e57620000c891860162000949565b9160e085015193620000ed610120620000e56101008901620009bb565b9701620009bb565b963315620009055760008054336001600160a01b0319821681178355916001600160a01b03909116907f8be0079c531659141344cd1fd0a4f28419497f9722a3daafe3b4186f6b6457e09080a3600180556015805460ff60a01b1916600160a01b1790558051906001600160401b038211620004d15760025490600182811c92168015620008fa575b6020831014620005ec5781601f84931162000899575b50602090601f83116001146200081b576000926200080f575b50508160011b916000199060031b1c1916176002555b8051906001600160401b038211620004d15760035490600182811c9216801562000804575b6020831014620005ec5781601f84931162000792575b50602090601f83116001146200070357600092620006f7575b50508160011b916000199060031b1c1916176003555b601580546001600160a01b03191633179055604051966001600160401b0360c0890190811190891117620004d15760c08801604052888852602088015260408701526060860152608085015260a0840152835160018060401b038111620004d157600754600181811c91168015620006ec575b6020821014620005ec57601f811162000686575b50602094601f821160011462000619579481929394956000926200060d575b50508160011b916000199060031b1c1916176007555b602083015160085560408301516009556060830151600a55608083015180519093906001600160401b038111620004d157600b54600181811c9116801562000602575b6020821014620005ec57601f811162000582575b506020601f8211600114620004f357819060a0949596600092620004e7575b50508160011b916000199060031b1c191617600b555b0151600c55600f8054680100000000000000009081811015620004d15760018101808455811015620004bb577f58c79ae79fbe82c16dfa44996f2e5b5ae2e8c2ab6c4c85cfb5fa475f0462adb6908360005260206000200155815490811015620004d15760018101808355811015620004bb57600091825260209091207f1192b9320ade30d998a9dab748128b191df1d6d75dc189689897cd43081634869101556001600160a01b0316806200047d575b506001600160a01b0316806200043f575b604051612a7f9081620009d18239f35b600680546001600160a01b031916821790557fa970409706553acbb8c86c1bc79621a1e9decfe2e5f083d3ee9dc215d07cea39600080a2386200042f565b600580546001600160a01b031916821790557f8aa6172b9dcbe4f05892121059bc535d4743d706ba3ac6cbabf4a40de229e388600080a2386200041e565b634e487b7160e01b600052603260045260246000fd5b634e487b7160e01b600052604160045260246000fd5b01519050388062000357565b600b60009081527f0175b7a638427703f0dbe7bb9bbf987a2551717b34e79f33b5b1008d1fa01db99690601f198416905b8181106200056957509160a0959697918460019594106200054f575b505050811b01600b556200036d565b015160001960f88460031b161c1916905538808062000540565b8383015189556001909801976020938401930162000524565b600b6000527f0175b7a638427703f0dbe7bb9bbf987a2551717b34e79f33b5b1008d1fa01db9601f830160051c81019160208410620005e1575b601f0160051c01905b818110620005d4575062000338565b60008155600101620005c5565b9091508190620005bc565b634e487b7160e01b600052602260045260246000fd5b90607f169062000324565b015190503880620002cb565b601f19821695600760005260206000209160005b8881106200066d5750836001959697981062000653575b505050811b01600755620002e1565b015160001960f88460031b161c1916905538808062000644565b919260206001819286850151815501940192016200062d565b60076000527fa66cc928b5edb82af9bd49922954155ab7b0942694bea4ce44661d9a8736c688601f830160051c810160208410620006e4575b601f830160051c82018110620006d7575050620002ac565b60008155600101620006bf565b5080620006bf565b90607f169062000298565b0151905038806200020f565b6003600090815293507fc2575a0e9e593c00f959f8c92f12db2869c3395a3b0502d05e2516446f71f85b91905b601f198416851062000776576001945083601f198116106200075c575b505050811b0160035562000225565b015160001960f88460031b161c191690553880806200074d565b8181015183556020948501946001909301929091019062000730565b60036000529091507fc2575a0e9e593c00f959f8c92f12db2869c3395a3b0502d05e2516446f71f85b601f840160051c810160208510620007fc575b90849392915b601f830160051c82018110620007ec575050620001f6565b60008155859450600101620007d4565b5080620007ce565b91607f1691620001e0565b015190503880620001a5565b6002600090815293506000805160206200345083398151915291905b601f19841685106200087d576001945083601f1981161062000863575b505050811b01600255620001bb565b015160001960f88460031b161c1916905538808062000854565b8181015183556020948501946001909301929091019062000837565b600260005290915060008051602062003450833981519152601f840160051c810160208510620008f2575b90849392915b601f830160051c82018110620008e25750506200018c565b60008155859450600101620008ca565b5080620008c4565b91607f169162000176565b604051631e4fbdf760e01b815260006004820152602490fd5b600080fd5b6040519190601f01601f191682016001600160401b03811183821017620004d157604052565b919080601f840112156200091e5782516001600160401b038111620004d1576020906200097f601f8201601f1916830162000923565b928184528282870101116200091e5760005b818110620009a757508260009394955001015290565b858101830151848201840152820162000991565b51906001600160a01b03821682036200091e5756fe6040608081526004908136101561001557600080fd5b600091823560e01c8063010648ca14611bfd57806306fdde0314611b2e57806308881afa14611b05578063134e18f414611adc57806313b1d14414611aab578063158b1a5714610ae057806318160ddd14611a8e5780631badb25c14611a4057806322e4e61d146118ac5780632b0ddb911461188d57806330e828031461184d578063313ce5671461183257806336f6efc61461181357806338389e58146116bf5780633f4ba83a146116745780634c783bf51461164d57806350b1f3561461162e5780635c975abb1461160a5780636290865d146115e1578063694df50a146115685780636ce5891d1461151d57806370a08231146114e5578063715018a61461149d578063740ab8f41461143157806377777e0c1461140f5780637c8fd218146113105780638456cb59146112c257806388f2740d146112995780638da5cb5b14611271578063921271261461122f5780639285948a14610f6f57806392eefe9b14610f2a5780639418c91a14610f0b57806395cb741d14610e9b57806395d89b4114610db95780639fa5f50b14610d30578063a4df6c6a14610c6e578063a66b0f3a14610c23578063b10d6b4114610b37578063b78bd21b14610b18578063bfd8580814610ae0578063cbf3f86114610a3d578063d0516650146109e0578063d0a6d1a614610a1e578063e5839836146109e0578063e9b2f0ad14610923578063ea3f068d14610744578063f282527a146105c1578063f2fde38b1461054b578063f3d490db14610332578063f77c4791146103055763f89817891461025d57600080fd5b34610301576020366003190112610301576102766120e2565b61027e612194565b6001600160a01b03169182156102c9575050600680546001600160a01b031916821790557fa970409706553acbb8c86c1bc79621a1e9decfe2e5f083d3ee9dc215d07cea398280a280f35b906020606492519162461bcd60e51b83528201526012602482015271494e56414c49445f434f4d504c49414e434560701b6044820152fd5b8280fd5b50503461032e578160031936011261032e5760155490516001600160a01b039091168152602090f35b5080fd5b5091903461032e5761034336612149565b50509091936103506127b6565b61035f60ff601054161561277b565b3381526020956011875260ff858320541661051757610380868486336124e5565b908651916f2a2920a729a322a92fa320a4a622a21d60811b8a8401526030830152603082526103ae82611ee5565b6001600160f81b03191660af60f81b016104f2575085600052600d875284600020336000528752846000206103e48482546121fa565b905585600052600d8752846000209360018060a01b0380821695866000528952866000206104138682546127d9565b905533600052600e89528660002061042c8682546121fa565b905585600052600e8952866000206104458682546127d9565b905560065416918261048b575b505050508251908152837f0f527c5f31fde91835354ad82e863e96d8637df7a0254bfb42879978fc047e56863393a46001805551908152f35b823b156104ee576104b79284928387938a51968795869485936322ebca6d60e21b8552339085016121d8565b03925af180156104e4576104cd575b8080610452565b6104d78291611f16565b6104e157806104c6565b80fd5b85513d84823e3d90fd5b8380fd5b855162461bcd60e51b815291820188905281906105139060248301906120a2565b0390fd5b845162461bcd60e51b8152908101879052600e60248201526d20a2222922a9a9afa32927ad22a760911b6044820152606490fd5b5034610301576020366003190112610301576105656120e2565b9061056e612194565b6001600160a01b039182169283156105ab5750506000548260018060a01b031982161760005516600080516020612a0a833981519152600080a380f35b51631e4fbdf760e01b8152908101849052602490fd5b5082903461032e5760a036600319011261032e576105dd6120e2565b926105e66120f8565b6001600160401b0392604435916064358581116107405761060a9036908401611e7e565b92909560843590811161073c576106249036908301611e7e565b601554909791946001600160a01b0393909184811633036107085760a01c60ff16156106d25750898685818a878e9f9e9d9e169c8d8152600e6020522054101561066d906128b1565b610676926127e6565b865196879633885260208801528601608090526080860190610697926128f4565b91848303606086015216956106ab926128f4565b037f6bf62b4b9c7b768275122bf70d429efc398a056d669b1efdf6c3976346246d7d91a380f35b606490602089519162461bcd60e51b8352820152601060248201526f4e4f545f434f4e54524f4c4c41424c4560801b6044820152fd5b885162461bcd60e51b8152602081840152600e60248201526d2727aa2fa1a7a72a2927a62622a960911b6044820152606490fd5b8780fd5b8680fd5b50346103015760603660031901126103015761075e6120e2565b91602435846044359361076f612194565b6005546001600160a01b039690871680610873575b50858352600d602052848320968082169788600052602052856000206107ab8682546127d9565b9055878452600e6020528584206107c38682546127d9565b90556107d08584546127d9565b8355600654169182610811575b505050507fea5027ca690118a868ddc2cd8aab5af666df70818535852e44e807ac5f77a6cb9282519182526020820152a280f35b823b156104ee5761083b928492838793895196879586948593635f8dead360e01b85528401612896565b03925af1801561086957610851575b80806107dd565b61085a90611f16565b61086557843861084a565b8480fd5b84513d84823e3d90fd5b60249192935060209086519283809263b9209e3360e01b82528b8716888301525afa9081156109195788916108eb575b50156108b25790869138610784565b835162461bcd60e51b815260208184015260136024820152721213d311115497d393d517d591549251925151606a1b6044820152606490fd5b61090c915060203d8111610912575b6109048183611f29565b8101906121c0565b386108a3565b503d6108fa565b85513d8a823e3d90fd5b50903461030157806003193601126103015761093d6120e2565b906024359161094a612194565b6001600160a01b031680855260126020528185205490939083116109ad57507f9bed35cb62ad0dba04f9d5bfee4b5bc91443e77da8a65c4c84834c51bb08b0d691602091848652601283528086206109a38382546121fa565b905551908152a280f35b6020606492519162461bcd60e51b8352820152600e60248201526d22ac21a2a2a229afa32927ad22a760911b6044820152fd5b50503461032e57602036600319011261032e5760209160ff9082906001600160a01b03610a0b6120e2565b1681526011855220541690519015158152f35b50503461032e578160031936011261032e5751605160f81b8152602090f35b503461030157602036600319011261030157610a576120e2565b610a5f612194565b6001600160a01b0316918215610aaa575050600580546001600160a01b031916821790557f8aa6172b9dcbe4f05892121059bc535d4743d706ba3ac6cbabf4a40de229e3888280a280f35b906020606492519162461bcd60e51b8352820152601060248201526f494e56414c49445f524547495354525960801b6044820152fd5b50503461032e57602036600319011261032e5760209181906001600160a01b03610b086120e2565b1681526012845220549051908152f35b50503461032e578160031936011261032e5751602b60f91b8152602090f35b5091346104e1576020928360031936011261032e57908291358152601384522091815191610b6483611ee5565b8051926000855490610b7582611eab565b808752600192808416908115610c085750600114610bd5575b50916002610bca9792610ba48887960389611f29565b8783528301549283878401520154938491015281519586956060875260608701906120a2565b938501528301520390f35b60008881528681209092505b818310610bf5575050850184016002610b8e565b8054888401880152918601918301610be1565b60ff19168789015250151560051b8601850190506002610b8e565b83823461032e57602036600319011261032e5735801515809103610c6957610c49612194565b6015805460ff60a01b191660a09290921b60ff60a01b1691909117905580f35b600080fd5b509034610301578060031936011261030157610c886120e2565b9060243591610c95612194565b60018060a01b031692838552600e602052818520546012602052610cbc84848820546127d9565b11610cfc57507fa065e63c631c86f1b9f66a4a2f63f2093bf1c2168d23290259dbd969e0222a4591602091848652601283528086206109a38382546127d9565b6020606492519162461bcd60e51b8352820152600f60248201526e455843454544535f42414c414e434560881b6044820152fd5b8284346104e157806003193601126104e157508051601480548083526000918252602080840194927fce6d7b5282bd9a3661ae061feed1dbda4e52ab073b1f9285be6e155d9c38d4ec92915b828210610da257610d9e8686610d94828b0383611f29565b519182918261210e565b0390f35b835487529586019560019384019390910190610d7c565b8284346104e157806003193601126104e157508051600091600354610ddd81611eab565b808452600191808316908115610e735750600114610e19575b5050610e0782610d9e940383611f29565b519182916020835260208301906120a2565b6003600090815260209550917fc2575a0e9e593c00f959f8c92f12db2869c3395a3b0502d05e2516446f71f85b5b828410610e6057505050820190920191610e0782610df6565b8054868501880152928601928101610e47565b610d9e9650610e0793506020915091859260ff191682840152151560051b8201019450610df6565b50503461032e578160031936011261032e57610ee690610eb9611f4c565b90610f01600854600954600a54610ece612009565b91600c5495805198899860c08a5260c08a01906120a2565b946020890152870152606086015284820360808601526120a2565b9060a08301520390f35b50503461032e578160031936011261032e5751605560f81b8152602090f35b83346104e15760203660031901126104e157610f446120e2565b610f4c612194565b601580546001600160a01b0319166001600160a01b039290921691909117905580f35b50903461030157606036600319011261030157610f8a6120e2565b92610f936120f8565b926001600160a01b036044358181169490859003610c6957610fb3612194565b8187169283151580611224575b156111ee5782600554168061112e575b5050907ff0c9129a94f30f1caaceb63e44b9811d0a3edf1d6c23757f346093af5553fed091838552602097600e89528186205461103e575b50838552601288528085205480611027575b505195169280a460018152f35b82881686528186205583855284818120553861101a565b600080516020612a2a8339815191528652600d89528186208560005289528160002054888161111d575b5050506000805160206129aa833981519152808652600d89528186208560005289528160002054908161109c575b50611008565b80600052600d8a5282600020866000528a52826000206110bd8382546121fa565b9055600052600d89528160002083891690816000528a52826000206110e38382546127d9565b905585600052600e8a52826000206110fc8382546121fa565b9055600052600e8952611114826000209182546127d9565b90553880611096565b611126926127e6565b388088611068565b6020602491845192838092633c3ad79560e21b8252888d16878301525afa9081156111e4578791859188916111a1575b50160361116b5780610fd0565b6020606492519162461bcd60e51b83528201526011602482015270092888a9ca892a8b2be9a92a69a82a8869607b1b6044820152fd5b925050506020813d82116111dc575b816111bd60209383611f29565b810103126111d8575183811681036111d8578387913861115e565b8580fd5b3d91506111b0565b83513d88823e3d90fd5b6020606492519162461bcd60e51b83528201526011602482015270494e56414c49445f41444452455353455360781b6044820152fd5b508287161515610fc0565b50503461032e57610d9e9061124f61124636612149565b505090336124e5565b91516001600160f81b0319909116815260208101919091529081906040820190565b50503461032e578160031936011261032e57905490516001600160a01b039091168152602090f35b50503461032e578160031936011261032e5760209051600080516020612a2a8339815191528152f35b83346104e157806003193601126104e1576112db612194565b600160ff196010541617601055337f62e78cea01bee320cd4e420270b5ea74000d11b0c9f74754ebdbfc544b05a2588280a280f35b5082346104e15760208060031936011261032e5761132c6120e2565b6005546001600160a01b0390811680159591929186156113a4575b50509160809591859493168352601181528160ff818520541693601283522054928461139b575b8461138d575b8251951515865215159085015283015215156060820152f35b60105460ff16159450611374565b8015945061136e565b879396506024859396959298518099819363b9209e3360e01b83528a8a16908301525afa80156114035760809684916113e6575b509491958794919394611347565b6113fd9150823d8411610912576109048183611f29565b876113d8565b505051903d90823e3d90fd5b83823461032e57602036600319011261032e5761142a612194565b35600c5580f35b50503461032e57602091826003193601126104e15750906114506120e2565b50815191829180600f54948581520193600f60005281600020916000905b82821061148657610d9e8686610d94828b0383611f29565b83548752958601956001938401939091019061146e565b83346104e157806003193601126104e1576114b6612194565b600080546001600160a01b0319811682556001600160a01b0316600080516020612a0a8339815191528280a380f35b50503461032e57602036600319011261032e5760209181906001600160a01b0361150d6120e2565b168152600e845220549051908152f35b5034610301578260031936011261030157610ee69250610f0160085460095493600a5493549361154b611f4c565b95611554612009565b92805198899860c08a5260c08a01906120a2565b50503461032e578060031936011261032e576115826120e2565b9060243591821515809303610c6957611599612194565b6001600160a01b03168084526011602052908320805460ff191660ff84161790557fa3e40a317eac9d2f33de1f67819e7103be50ca171b0559ba3ef1313e2e9c9ed48380a380f35b50503461032e578160031936011261032e5760065490516001600160a01b039091168152602090f35b50503461032e578160031936011261032e5760209060ff6010541690519015158152f35b50503461032e578160031936011261032e5751602960f91b8152602090f35b50503461032e578160031936011261032e5760209060ff60155460a01c1690519015158152f35b83346104e157806003193601126104e15761168d612194565b60ff1960105416601055337f5db9ee0a495bf2e6ff9c91a7834c1ba4fdd244a5e8aa4e537bd38aeae4b073aa8280a280f35b5082346104e1576020918260031936011261032e576001600160401b0381358181116104ee576116f29036908401611e7e565b9290916116fd612194565b8311611800575061170f600b54611eab565b601f81116117b9575b508293601f8311600114611755575092829382939261174a575b50508160011b916000199060031b1c191617600b5580f35b013590508380611732565b90601f19831694600b85528285209285905b8782106117a1575050836001959610611787575b505050811b01600b5580f35b0135600019600384901b60f8161c1916905583808061177b565b80600184968294958701358155019501920190611767565b600b60005284600020601f840160051c8101918685106117f6575b601f0160051c01905b8181106117ea5750611718565b600081556001016117dd565b90915081906117d4565b634e487b7160e01b845260419052602483fd5b50503461032e578160031936011261032e5751600b60fb1b8152602090f35b50503461032e578160031936011261032e5751908152602090f35b50346103015781600319360112610301578160209361186a6120f8565b92358152600d8552209060018060a01b0316600052825280600020549051908152f35b50503461032e578160031936011261032e5751605760f81b8152602090f35b5091903461032e578060031936011261032e578235906024356118cd6127b6565b6118dc60ff601054161561277b565b808452602094600d865282852033865286526118fd848487205410156128b1565b818552600d8652828520338652865283611922848720546012895285882054906121fa565b10611a0d57818552600d865282852033865286528285206119448582546121fa565b9055338552600e865282852061195b8582546121fa565b90556119688482546121fa565b81556006546001600160a01b031690816119a3575b50506000805160206129ea83398151915292939482519485528401523392a26001805580f35b813b156111d857846119cd92879283875180968195829463469753b960e11b845233908401612896565b03925af18015611a03576119e2575b8061197d565b936119fc6000805160206129ea8339815191529495611f16565b93926119dc565b83513d87823e3d90fd5b825162461bcd60e51b8152908101869052600d60248201526c2a27a5a2a729afa32927ad22a760991b6044820152606490fd5b503461030157606036600319011261030157611a5a6120e2565b92604435906001600160401b0382116104e1575092611a8261124f92610d9e95369101611e7e565b5050602435903361221d565b503461030157826003193601126103015760209250549051908152f35b50503461032e57602036600319011261032e5760209061ffff611ad4611acf6120e2565b612915565b915191168152f35b50503461032e578160031936011261032e5760055490516001600160a01b039091168152602090f35b50503461032e578160031936011261032e57602090516000805160206129aa8339815191528152f35b50503461032e578160031936011261032e5780519082600254611b5081611eab565b80855290600190818116908115611bd55750600114611b7c575b505050610e0782610d9e940383611f29565b60028352602095507f405787fa12a823e0f2b7631cc41b3ba8828b3321ca811111fa75cd3aa3bb5ace5b828410611bc25750505082610d9e94610e079282010194611b6a565b8054868501880152928601928101611ba6565b610d9e9750610e079450602092508693915060ff191682840152151560051b82010194611b6a565b5082903461032e57606036600319011261032e576001600160401b03928135919060243585811161086557611c359036908401611e7e565b92909560443590611c44612194565b858752602092601384526002858920015415611e3d575b845191611c6783611ee5565b808711611e2a578551601f199190611c86601f8a018416880182611f29565b88815236898d0111611e2657888c888301378a878a83010152845285840191858352878501934285528a8c5260138852888c209551908151938411611e135750611cd08654611eab565b601f8111611dcb575b508791601f8411600114611d51575092826002938d9e9693611d3c98966000805160206129ca8339815191529e9f92611d46575b50508160011b916000199060031b1c19161784555b5160018401555191015584519585879687528601916128f4565b918301520390a280f35b015190508f80611d0d565b868d52888d2092919084168d5b818110611db45750936000805160206129ca8339815191529c9d9e9693611d3c9896936001938360029810611d9b575b505050811b018455611d22565b015160001960f88460031b161c191690558f8080611d8e565b92938a600181928786015181550195019301611d5e565b868d52888d20601f850160051c8101918a8610611e09575b601f0160051c01908d905b828110611dfc575050611cd9565b6001918155018d90611dee565b9091508190611de3565b634e487b7160e01b8d526041905260248cfd5b8a80fd5b634e487b7160e01b895260418252602489fd5b601454600160401b811015611e2a576001810180601455811015611e6b57879060148a52858a200155611c5b565b634e487b7160e01b895260328252602489fd5b9181601f84011215610c69578235916001600160401b038311610c695760208381860195010111610c6957565b90600182811c92168015611edb575b6020831014611ec557565b634e487b7160e01b600052602260045260246000fd5b91607f1691611eba565b606081019081106001600160401b03821117611f0057604052565b634e487b7160e01b600052604160045260246000fd5b6001600160401b038111611f0057604052565b601f909101601f19168101906001600160401b03821190821017611f0057604052565b6040519060008260075491611f6083611eab565b808352600193808516908115611fe85750600114611f88575b50611f8692500383611f29565b565b600760009081527fa66cc928b5edb82af9bd49922954155ab7b0942694bea4ce44661d9a8736c68894602093509091905b818310611fd0575050611f86935082010138611f79565b85548884018501529485019487945091830191611fb9565b9050611f8694506020925060ff191682840152151560051b82010138611f79565b60405190600082600b549161201d83611eab565b808352600193808516908115611fe857506001146120425750611f8692500383611f29565b600b60009081527f0175b7a638427703f0dbe7bb9bbf987a2551717b34e79f33b5b1008d1fa01db994602093509091905b81831061208a575050611f86935082010138611f79565b85548884018501529485019487945091830191612073565b919082519283825260005b8481106120ce575050826000602080949584010152601f8019910116010190565b6020818301810151848301820152016120ad565b600435906001600160a01b0382168203610c6957565b602435906001600160a01b0382168203610c6957565b6020908160408183019282815285518094520193019160005b828110612135575050505090565b835185529381019392810192600101612127565b906080600319830112610c6957600435916024356001600160a01b0381168103610c69579160443591606435906001600160401b038211610c695761219091600401611e7e565b9091565b6000546001600160a01b031633036121a857565b60405163118cdaa760e01b8152336004820152602490fd5b90816020910312610c6957518015158103610c695790565b6001600160a01b03918216815291166020820152604081019190915260600190565b9190820391821161220757565b634e487b7160e01b600052601160045260246000fd5b92919060ff601054166124c85760018060a01b038085166000958187526020936011855260409360ff858a2054166124a557808216808a5260ff868b20541661247f57908793929181600554169081612370575b50506006541691826122e0575b5050600080516020612a2a83398151915288525050600d835281862090865282528085205460129092528420546122b4916121fa565b106122c257605160f81b9190565b602960f91b91506f125394d551919250d251539517d0905360821b90565b85516372331c7360e11b8152938793859390928492839261230492600485016121d8565b03915afa908115612366578791612349575b5015612325578338808061227e565b50600b60fb1b94507010d3d3541312505390d157d19052531151607a1b9392505050565b6123609150843d8611610912576109048183611f29565b38612316565b83513d89823e3d90fd5b909192939450865163b9209e3360e01b908181528760048201528981602481875afa908115612475578d91612458575b501561242c57906024899289519485938492835260048301525afa908115612422578a91612405575b50156123da57908692913880612271565b50605760f81b975074149150d15255915497d393d517d591549251925151605a1b9695505050505050565b61241c9150873d8911610912576109048183611f29565b386123c9565b86513d8c823e3d90fd5b50602b60f91b9a507214d15391115497d393d517d591549251925151606a1b9998505050505050505050565b61246f91508a3d8c11610912576109048183611f29565b386123a0565b89513d8f823e3d90fd5b50605760f81b98506e2922a1a2a4ab22a92fa32927ad22a760891b979650505050505050565b50602b60f91b97506c29a2a72222a92fa32927ad22a760991b9695505050505050565b50605560f81b92506b1513d2d15397d4105554d15160a21b919050565b939260ff6010541661275d5760018060a01b0390818616906000968288526020946011865260409460ff868b20541661273957808216808b5260ff878c20541661271257908893929181600554169081612600575b505060065416918261256f575b50505090875250600d835281862090865282528085205460129092528420546122b4916121fa565b86516372331c7360e11b8152938893859390928492839261259392600485016121d8565b03915afa9081156125f65788916125d9575b50156125b45784388080612547565b50600b60fb1b95507010d3d3541312505390d157d19052531151607a1b949350505050565b6125f09150853d8711610912576109048183611f29565b386125a5565b84513d8a823e3d90fd5b90919293945087518c63b9209e3360e01b918281528960048201528b81602481885afa91821561270757916126ea575b50156126bd579060248a928a519485938492835260048301525afa9081156126b3578b91612696575b501561266a5790879291388061253a565b50605760f81b985074149150d15255915497d393d517d591549251925151605a1b979650505050505050565b6126ad9150883d8a11610912576109048183611f29565b38612659565b87513d8d823e3d90fd5b50602b60f91b9b507214d15391115497d393d517d591549251925151606a1b9a9950505050505050505050565b61270191508b3d8d11610912576109048183611f29565b38612630565b8b51903d90823e3d90fd5b50605760f81b99506e2922a1a2a4ab22a92fa32927ad22a760891b98975050505050505050565b50602b60f91b98506c29a2a72222a92fa32927ad22a760991b979650505050505050565b50605560f81b93506b1513d2d15397d4105554d15160a21b92915050565b1561278257565b60405162461bcd60e51b815260206004820152600c60248201526b1513d2d15397d4105554d15160a21b6044820152606490fd5b6002600154146127c7576002600155565b604051633ee5aeb560e01b8152600490fd5b9190820180921161220757565b6001600160a01b0390811660008181527ff03f8047692cb11e5dc30d3a50e5e651fc447d79923e48ac7237a4de0554fd096020908152604080832080546128929792969495600e9590929091600080516020612a2a833981519152919061284e908c906121fa565b90558652600d8452868620921691828652835285852061286f8982546127d9565b905584528282528484206128848882546121fa565b9055835252209182546127d9565b9055565b6001600160a01b039091168152602081019190915260400190565b156128b857565b60405162461bcd60e51b8152602060048201526014602482015273494e53554646494349454e545f42414c414e434560601b6044820152606490fd5b908060209392818452848401376000828201840152601f01601f1916010190565b6005546001600160a01b03908116919082156129a15760246020926040519485938492637e42683b60e01b84521660048301525afa9081156129955760009161295c575090565b6020813d821161298d575b8161297460209383611f29565b8101031261032e57519061ffff821682036104e1575090565b3d9150612967565b6040513d6000823e3d90fd5b50505060009056fe1192b9320ade30d998a9dab748128b191df1d6d75dc189689897cd4308163486b4c22d60cd550a815744f04e3ff5278bf19684565ee00e2b084041b6024bd6f63be2edea458ae9d9dd885a96aa23c988b15277ec0f613d273e6fcc4a27e610ff8be0079c531659141344cd1fd0a4f28419497f9722a3daafe3b4186f6b6457e058c79ae79fbe82c16dfa44996f2e5b5ae2e8c2ab6c4c85cfb5fa475f0462adb6a2646970667358221220cbf4f3ab42aaf9a165c25ff11f3b08c6e2f6d76f0a322438ab625a0d46f50ff564736f6c63430008140033405787fa12a823e0f2b7631cc41b3ba8828b3321ca811111fa75cd3aa3bb5ace",
  "linkReferences": {},
  "deployedLinkReferences": {}
}